:020000040800F2
:1000000000000220C5150008C11500089D58000811
:10001000C1150008C1150008C11500080000000046
:10002000000000000000000000000000C1150008F2
:10003000C115000800000000C11500082158000883
:10004000C1150008C1150008C1150008C115000838
:10005000C1150008C1150008C1150008C115000828
:10006000C1150008C1150008C11500082954000871
:100070003554000881430008415400084D540008DD
:1000800069FA000855490008C1150008C1150008A3
:10009000C1150008C1150008C1150008C1150008E8
:1000A000C1150008C1150008C1150008C1150008D8
:1000B0003DEE000849EE000855EE000889490008A9
:1000C000C115000895490008C1150008ADE60008F3
:1000D000B9E600089DF80008CDF8000801F900080D
:1000E000C1150008C115000800000000C115000876
:1000F000C1150008C1150008C1150008C115000888
:10010000C1150008C115000861EE0008C5E6000829
:1001100035F9000869F90008C1150008C115000883
:10012000C1150008C1150008E9E600081DE7000830
:100130009DFA0008C1150008C1150008C115000886
:1001400000000000000000000000000000000000AF
:10015000C1150008C1150008C11500089DF9000867
:10016000A1490008C1150008315800085558000879
:10017000C115000879580008C1150008C11500080C
:10018000C1150008C1150008D1F9000801FA0008DE
:10019000D1E60008DDE60008C1150008C115000819
:1001A000C1150008C1150008C1150008C1150008D7
:1001B00049510008C1150008C1150008C115000803
:1001C000C1150008C1150008C1150008C1150008B7
:1001D000C1150008C1150008C1150008C1150008A7
:1001E000C1150008C1150008C1150008C115000897
:1001F000C1150008C1150008C1150008C115000887
:10020000C1150008C1150008C1150008C115000876
:10021000C1150008C1150008C1150008C115000866
:10022000C1150008C1150008C11500080000000034
:10023000C1150008C115000800000000C115000824
:10024000C1150008C1150008C1150008C115000836
:10025000C1150008C1150008C1150008C115000826
:10026000C1150008C1150008C1150008C115000816
:10027000C1150008C115000835FA0008000000008B
:10028000C1150008C1150008C115000800000000D4
:0802900000000000C115000888
:1002A00010B5054C237833B9044B13B10448AFF3B0
:1002B00000800123237010BD000400240000000012
:1002C0003C59010808B5034B1BB103490348AFF380
:1002D000008008BD00000000040400243C5901080F
:1002E00010F8012B11F8013B012A28BF9A42F7D0E0
:1002F000D01A7047034613F8012B002AFBD1181AB5
:1003000001387047000000000000000000000000FD
:1003100001F0FF01102A2BDB10F0070F08D010F8B6
:10032000013B013A8B422DD010F0070F42B3F6D1BA
:10033000F0B441EA012141EA014122F007047FF0D3
:1003400000070023F0E80256083C85EA010586EA2A
:10035000010685FA47F5A3FA87F586FA47F6A5FA66
:1003600087F68EB9EED1F0BC01F0FF0102F0070272
:1003700032B110F8013B013A83EA010313B1F8D11D
:100380000020704701387047002D06BF35460338FE
:10039000073815F0010F07D1013015F4807F02BF37
:1003A000013015F4C03F0130F0BC0138704700BF88
:1003B00053B94AB9002908BF00281CBF4FF0FF31CC
:1003C0004FF0FF3000F074B9ADF1080C6DE904CEC8
:1003D00000F006F8DDF804E0DDE9022304B0704720
:1003E0002DE9F047089D04468E46002B4DD18A42E8
:1003F000944669D9B2FA82F252B101FA02F3C2F11B
:10040000200120FA01F10CFA02FC41EA030E9440AB
:100410004FEA1C48210CBEFBF8F61FFA8CF708FBCC
:1004200016E341EA034306FB07F199420AD91CEBA4
:10043000030306F1FF3080F01F81994240F21C81D6
:10044000023E63445B1AA4B2B3FBF8F008FB10331E
:1004500044EA034400FB07F7A7420AD91CEB040453
:1004600000F1FF3380F00A81A74240F20781644423
:10047000023840EA0640E41B00261DB1D4400023A8
:10048000C5E900433146BDE8F0878B4209D9002D0C
:1004900000F0EF800026C5E9000130463146BDE896
:1004A000F087B3FA83F6002E4AD18B4202D3824200
:1004B00000F2F980841A61EB030301209E46002DAF
:1004C000E0D0C5E9004EDDE702B9FFDEB2FA82F204
:1004D000002A40F09280A1EB0C014FEA1C471FFA62
:1004E0008CFE0126200CB1FBF7F307FB131140EA49
:1004F00001410EFB03F0884208D91CEB010103F116
:10050000FF3802D2884200F2CB804346091AA4B2D7
:10051000B1FBF7F007FB101144EA01440EFB00FEAB
:10052000A64508D91CEB040400F1FF3102D2A64510
:1005300000F2BB800846A4EB0E0440EA03409CE7AF
:10054000C6F12007B34022FA07FC4CEA030C20FA5C
:1005500007F401FA06F31C43F9404FEA1C4900FA7C
:1005600006F3B1FBF9F8200C1FFA8CFE09FB1811F9
:1005700040EA014108FB0EF0884202FA06F20BD96C
:100580001CEB010108F1FF3A80F08880884240F2BC
:100590008580A8F102086144091AA4B2B1FBF9F000
:1005A00009FB101144EA014100FB0EFE8E4508D9FB
:1005B0001CEB010100F1FF346CD28E456AD9023880
:1005C000614440EA0840A0FB0294A1EB0E01A14265
:1005D000C846A64656D353D05DB1B3EB080261EBD3
:1005E0000E0101FA07F722FA06F3F1401F43C5E9AD
:1005F000007100263146BDE8F087C2F12003D840E3
:100600000CFA02FC21FA03F3914001434FEA1C4724
:100610001FFA8CFEB3FBF7F007FB10360B0C43EA16
:10062000064300FB0EF69E4204FA02F408D91CEBC6
:10063000030300F1FF382FD29E422DD902386344C4
:100640009B1B89B2B3FBF7F607FB163341EA034164
:1006500006FB0EF38B4208D91CEB010106F1FF38B3
:1006600016D28B4214D9023E6144C91A46EA0046AA
:1006700038E72E46284605E70646E3E61846F8E63C
:100680004B45A9D2B9EB020864EB0C0E0138A3E785
:100690004646EAE7204694E74046D1E7D0467BE766
:1006A000023B614432E7304609E76444023842E7DE
:1006B000704700BFF0EE407A17281ED8DFE810F030
:1006C00028012501220119010701F300D200C4000D
:1006D000B600A8009A008C0081007600180069001E
:1006E0005D00510046003B00380035002E00200020
:1006F000B5EE400AF1EE10FA50D19FED870A70472F
:10070000B5EE400AF1EE10FA04D1F5EE400AF1EE32
:1007100010FAF2D0B0EE670A12F062BAB5EEC00A73
:10072000F1EE10FAE9DD12F0C7B880FE600A7047FA
:1007300080FE200A7047B4EEE00ADFED777AB7EE6C
:10074000000AF1EE10FA20FE270A7047B4EEE00A24
:10075000DFED717AB7EE000AF1EE10FA30FE270AEB
:100760007047B4EEE00ADFED6C7AB7EE000AF1EE06
:1007700010FA88BFB0EE670A7047B4EEE00ADFED0A
:10078000667AB7EE000AF1EE10FA58BFB0EE670ACB
:100790007047B5EE400AF1EE10FA04D1F5EE400ACA
:1007A000F1EE10FAA9D0B7EE000A7047B4EE600A75
:1007B0009FED590AF7EE007AF1EE10FA00FE270AD3
:1007C0007047B4EE600A9FED540AF7EE007AF1EE3E
:1007D00010FA07FE800A7047BDEEC00AFDEEE00A7F
:1007E00010EE103A10EE902A134300EE103AB8EED5
:1007F000C00A7047BDEEC00AFDEEE00A10EE103AE6
:1008000010EE902A534000EE103AB8EEC00A70473E
:10081000BDEEC00AFDEEE00A10EE103A10EE902A8E
:10082000134000EE103AB8EEC00A7047BDEEC00AA1
:10083000FDEEE00A10EE103A10EE902A134100EEA1
:10084000103AB8EEC00A7047BDEEC00AFDEEE00AED
:1008500010EE103A10EE902A934000EE103AB8EEE7
:10086000C00A7047F5EE400AF1EE10FA3FF445AFCA
:10087000FDEEC07A17EE903AFDEEE07A17EE902A80
:1008800093FBF2F102FB113307EE903AB8EEE70A60
:10089000B5EEC00AF1EE10FA7FF531AFF0EEE00AE6
:1008A00030EE200A7047BDEEE07A17EE102A002ADB
:1008B0003FF423AFFDEEC07A17EE903A93FBF2F1CE
:1008C00002FB113300EE103AB8EEC00A7047BDEEDD
:1008D000E07A17EE103A002B3FF40FAFBDEEC00ADE
:1008E00010EE102A92FBF3F300EE103AB8EEC00AB5
:1008F0007047F5EE400AF1EE10FA3FF4FEAE87EED7
:10090000A00A704720EE200A704730EE600A704758
:1009100030EE200A704700BF00000000F8B500AFBD
:10092000BD69AB880BB9BD46F8BD044610462A7AAE
:10093000012AF8D1012B12D184B06E46F0EE400AA4
:1009400095ED030AFFF7B6FE2968304600F05AF924
:10095000324600212046FB699847BD46F8BD2B7CF6
:10096000012BE9D184B095ED050A6E46E6E700BF9C
:10097000F0B5012983B0054600AF05D0022922D089
:1009800091B10C37BD46F0BD9A88002AF9D01A7A89
:10099000012AF6D184B0196893ED030A6A4610461D
:1009A0007A6000F02FF906E084B019686A461046B4
:1009B0007A6000F031F97A6800213B6A284698474E
:1009C0000C37BD46F0BD9A882AB31C7A012C15D08D
:1009D000022C0ED0002CD4D184B01968114A6E4676
:1009E000304600F025F93246214628463B6A9847B2
:1009F000C7E71A4600213B6A9847C2E784B01968E6
:100A0000094A6C46204600F013F922460021284688
:100A10003B6A9847B5E7054B6421054A054812F043
:100A2000BFFA00BF3045010838450108FC44010801
:100A3000404501081C4501082DE9F04104460D46DA
:100A4000164601F077FC88B1284600F0D1F9074638
:100A5000204601F06FFC2B4680463A462046314640
:100A6000C0473846BDE8F04112F00ABBBDE8F0814E
:100A70000346012200201A7083ED010A704700BF6F
:100A800038B505460C46084631B92960C5E901006C
:100A9000C5E90344204638BD12F0EAFA286038B1AF
:100AA0000023C5E9010003602046C5E9034438BDC1
:100AB000024B3121024A034812F072FA4C450108F8
:100AC000F845010868450108006812F0D9BA00BF6E
:100AD00083681B685A1C02D102681368826018463A
:100AE000704700BF01F108020369934270B4D0E976
:100AF000014508D3043121448D4201D8A5421AD8BA
:100B0000201D70BC7047C168914214D3A54294BFA8
:100B1000002301237BB90668324495420ED3466018
:100B200001613360BFF35E8F00684FF0FF33043024
:100B3000236070BC7047002070BC70471846F8E70F
:100B400001F1080208B5036993420FD35B1A4268AA
:100B500001F1040C043B036102EB0C03436000232E
:100B600042F80C30BFF35E8F116008BD024B6B2161
:100B7000024A034812F014FA80450108EC450108C6
:100B800068450108806850F8043B0B60704700BF5F
:100B900008B583681A681AB104321344836008BD2B
:100BA000024B7F21024A034812F0FAF9B8450108C6
:100BB000E04501086845010808B5034A3A21034B9E
:100BC000034812F0EDF900BFDC46010804460108B5
:100BD0001C45010808B5034A6421034B034812F081
:100BE000DFF900BFEC460108FC4401081C45010880
:100BF00008B50260818019B10131C900C18008BD0A
:100C0000FFF7DAFF034A80ED030AC0E90012012270
:100C10000272704701001000002210B4034C0272EF
:100C2000C260C0E900145DF8044B70470100100079
:100C300070B50123044601601046A3801646FFF7F5
:100C400059FB0546022330461035E6602372ADB2EB
:100C5000E580FFF74FFB0346204601331D44E58046
:100C600070BD00BF2DE9F04F838883B00192002B47
:100C70005FD00133019AB2EBC30F4FEAC30952D3DD
:100C80000F4680464A460146384607EB090B12F0EC
:100C9000FFF9B8F80420AAB30C25012406E0944219
:100CA00004F1010305F108052CDA1C4618F834A0FC
:100CB000BAF1020FF3D158F8051008460091FFF77A
:100CC00019FB461C019BB144009999451FD8324637
:100CD000584612F051FEB988621E91421DDD5846F9
:100CE00007F834A047F805B0B344FFF703FBFB88CF
:100CF000B8F80420083501339442184404F1010384
:100D0000F880D2DBA7F8069003B0BDE8F08F0A4B5D
:100D100049210A4A0A4812F043F90A4B94210A4A27
:100D20000A4812F03DF90A4B4021044A044812F0E7
:100D300037F9FFF741FF00BF38460108F8460108C0
:100D400024460108FC4401080C4701081C45010821
:100D50001446010808B58388994214DA083010F85F
:100D6000313000EBC100032B13D8DFE803F004029D
:100D70000702406808BD4FF0FF3008BD4068BDE87D
:100D8000084000F0DBBB044B9221044A044812F0F7
:100D900007F9002008BD00BF50460108D0460108F1
:100DA0002446010838B51546828891421EDA03466A
:100DB000083313F8312003EBC103022A0ED0032AB3
:100DC00001D0002038BDFFF7C5FF0446284600F0DB
:100DD000B5FB201AB0FA80F0400938BD29465868A2
:100DE000FFF77EFAB0FA80F0400938BDFFF7F2FE57
:100DF0002DE9F04F85B0838802AF002B00F0A7806B
:100E00009A000026834604460732DFF87CA1354667
:100E1000386022F00702ADEB020D0DF10808C14663
:100E2000227A032A00F2A880DFE802F0453430027B
:100E300031465846FFF78EFF5246034600210846CA
:100E400012F066FDBBF804300130C9F8000001362D
:100E50000544083409F104099E42E1DB2A467D601D
:100E60003D68002A7FDD78683B6012F001F9824618
:100E7000002872D03B68002B3CD0002634462B7AE9
:100E8000032B76D8DFE803F0594A401B0021E368C2
:100E90003B4AD4E794ED037A00213A4AB7EEC77A89
:100EA00008468DED007B12F033FD0130BBF80430B5
:100EB000C9F80000CBE70520C9F80000C7E7D8F85B
:100EC000009031465846FFF745FF2F4A03464946F2
:100ED0000AEB040012F01CFD4C440136BBF8043050
:100EE00020210AEB040208359E4208F1040802F8AA
:100EF000011CC4DB7B68002250460C37534403F8C6
:100F0000012CBD46BDE8F08FD8F800900AEB040034
:100F1000EB681B4A494612F0FBFCDDE795ED037ACE
:100F20000AEB0400D8F80090B7EEC77A154A494694
:100F30008DED007B12F0ECFCCEE7D8F800900AEBC8
:100F40000400124B0E4A494612F0E2FCC4E7104B73
:100F5000A021104A104812F023F8104BB7210D4A77
:100F60000D4812F01DF80E4BB2210A4A0A4812F041
:100F700017F8D8F80090AFE7D9F8000067E700BF8E
:100F80008C46010888460108904601083045010852
:100F90006C460108C046010824460108A446010821
:100FA0009846010808B5034A3821034B034811F05D
:100FB000F7FF00BF544801081C47010830470108EB
:100FC00038B504468D022846656012F051F820605D
:100FD00058B100232846C4E90233C4E90433C4E904
:100FE0000633C4E90833A36238BD034B5721034AD3
:100FF000034811F0D5FF00BF484701085C480108CD
:101000003047010870B504460025006804F1200649
:1010100012F036F8E068A8B1236901E003461046F3
:101020004268C0E90053002AF8D1E26000E043685A
:10103000236112F025F820690028F8D10834B44261
:10104000E8D170BD20690028F1D10834B442E1D163
:10105000F7E700BF38B50D4620220021EB88013BA1
:10106000B3FA83F3C3F11B0323EAE37300EBC30476
:101070009A40284612F01AF8206930B1426822617D
:10108000E268C0E90052E06038BD082011F0F0FFCE
:101090000028F5D1FFF786FFCB88013BB3FA83F335
:1010A000C3F11B03032B2DE9F04F83B04BDC23EA84
:1010B000E3724FF020088946824600EBC20508FA29
:1010C00002F8EB681E46002B33D1D0E9012404F569
:1010D000007B5A453DD35C4518D2016809E05A6847
:1010E0002A6144443246A345C3E900761E46EB60BC
:1010F0000ED92B690F19002BF1D10820019111F0A5
:10110000B7FF0346E8B1EE680199EAE7D3E9007258
:10111000CAF808B04846EA60424629695960002189
:101120002B6119603946FFF79DFD384603B0BDE8D5
:10113000F08F5968424648461F68E960296959603E
:10114000EDE7FFF72FFF064B7921064A064811F01D
:1011500027FF064B8421034A034811F021FF00BFFB
:101160006447010844480108304701086C470108FA
:1011700008B5034A2921034B034811F011FF00BFB2
:10118000A4480108644801087C48010808B549B131
:10119000034600220C309A60C3E90022BDE80840F3
:1011A000FFF70EBF024B1421024A034811F0F8FE6C
:1011B00094480108C04801087C480108F8B5046853
:1011C000054624B300F10C070026A1683846FFF756
:1011D00041FF6368A660AA68C4E903662B602BB16F
:1011E0001E60C4E90062AC601C46EEE76B60C4E9B7
:1011F000003200E062682046AA6011F041FFAC684E
:10120000002CF7D13846BDE8F840FFF7FBBE8468F4
:1012100000F10C07002CEDD13846BDE8F840FFF78F
:10122000F1BE00BFF0B5846883B0054617461E4680
:10123000B4B16368AB6005F10C00FFF72DFF00222D
:101240006B682761E660A060C4E9002223B15C609E
:1012500023606C6003B0F0BDC5E9004403B0F0BD8D
:101260001420019111F004FF0199A86018B12346E0
:1012700044600446DEE7FFF77BFF00BF2DE9F04145
:101280000568002D35D0856804460E4690461F46F9
:10129000002D32D06B683146A36004F10C00FFF7DB
:1012A000FBFE23683668A8609A68C5F8108012684B
:1012B000EF60964206D200226B601D602A602560B6
:1012C000BDE8F081626891680968B14206D80023E0
:1012D000C5E9002355606560BDE8F08119465B688B
:1012E0009A681268B242F9D94D60C5E900131D60D1
:1012F000E6E7BDE8F041FFF795BF142011F0B8FE16
:10130000A06018B12B4645600546C4E7FFF730FFE3
:1013100038B505688DB10446A9680C30FFF79AFE10
:1013200000236A68AB60C5E90333226032B1136001
:10133000A2680023C5E90032A56038BD6260F7E706
:1013400070B505688DB1AB68064699420FD06C68E0
:1013500024B90AE060682546044638B1A3688B4288
:10136000F8D16AB1E36893420AD0002070BD12B18F
:10137000EB689342F9D13046FFF7CAFF012070BDF8
:1013800006F10C00FFF766FE72680023A242A3601C
:10139000C4E903330AD063686B6063681D60B26898
:1013A00000230120C4E90032B46070BD6B60756039
:1013B000F5E700BF08B5034A7921034B034811F054
:1013C000EFFD00BFDC480108FC4401081C45010892
:1013D0000346002200215A60084619609A60DA60CC
:1013E000704700BF38B51D469B880C46A3B9254AF7
:1013F00000212846FFF7D6FC68B1D4ED017A00221F
:1014000094ED027A0023226077EE877AA360C4ED20
:10141000017AC4ED037A38BD2A7A012AE7D1012B7B
:1014200007D1EB680021002221606360A260E360C5
:1014300038BD2B7C012BF4D195ED050A00F094FF0B
:101440002368002B19DD94ED017AD4ED027A37EE92
:10145000277AAB8884ED017A20608BB1D5ED036AE1
:1014600007EE900A36EEC77AC4ED036AF8EEE77A23
:10147000C7EE276AC4ED026A38BD94ED037AE8E747
:10148000FFF798FFD44801089FED076B0346002241
:1014900086EE007B1046C3E90022B7EEC77B83EDE2
:1014A000027A7047AFF30080000000000000F041B6
:1014B0000346002083ED000A704700BF938803B9FC
:1014C0007047137A012BFBD1D3680B60704700BFC4
:1014D0002DE9F04185688D4221D001F101080446D3
:1014E0000E4600684FEA880112F0B6F90746AD00D3
:1014F000C0B1A068B04209D3A8EB0505A660C4F846
:101500000C80281FC4E90076BDE8F081A8EB00023A
:10151000002107EB8000920011F0C8FDECE70020ED
:10152000BDE8F081024B4621024A034811F038FD24
:101530001C490108304901080849010810B5044652
:1015400048B3FEF7D7FE032835D9A0F1040C0246B4
:101550001A492CF0030C0CF1040CA44454F8043B7D
:1015600001FB02F201FB03F3644583EA136301FB11
:1015700003F382EA0302F1D100F0030002280FD046
:10158000032809D001280FD082EA52330B4803FB0D
:1015900000F080EAD03010BD9CF8023082EA0342AD
:1015A0009CF8013082EA03229CF800300349534042
:1015B00001FB03F2E8E70246A446DFE795E9D15BC9
:1015C000FEE700BF0B480C4A904203D0121A0B49A9
:1015D00011F05EFD0A480B4A904203D0121A002116
:1015E00011F064FD04F084FB11F01EFD01F036F8EB
:1015F000FEE700BF00000024FC0300246C59010832
:1016000000040024DC3C00244069704790ED020B8C
:10161000704700BF0069704707EE901A9FED065BA8
:10162000B8EE677B90ED026B27EE057B87EE060B2D
:10163000B7EEC00B704700BF0000000000408F40B5
:1016400081657047806D704701657047006D704718
:1016500041657047406D704708B50368D3F88C301A
:10166000984700B1006808BD08B50368D3F88C300E
:10167000984700B1406808BD0023BFF35B8F80F836
:101680008430704700000000B0B582B004460D46BB
:10169000002100AF84B06A4610467A60FFF7BCFABA
:1016A00023687A682946DB6C20469FED030B984738
:1016B0000837BD46B0BD00BF0000000000000000BC
:1016C000B0B582B004460D46002100AF84B06A4632
:1016D00010467A60FFF796FA23687A682946DB6C31
:1016E00020469FED030B98470837BD46B0BD00BFAD
:1016F0000000000000000000F8B500AF8AB184B01F
:1017000004460D4600216E463046FFF791FA2368E5
:1017100032462946DB6C20469FED050B9847BD46B7
:10172000F8BD054B5321054A054811F039FC00BFAF
:101730000000000000000000404901085049010875
:101740009849010884304FF00102D0E84F3FC0E8CB
:10175000412F0029F9D1DBB2BFF35B8F002BF2D10F
:10176000704700BF4FF001028430D0E84F3FC0E81F
:10177000412F0029F9D1D8B2BFF35B8F80F001006F
:10178000704700BF1830FFF7DBBD00BF036810B51E
:10179000D3F88C301446984718B12146FFF798FECD
:1017A000012010BD00000000DFED0B7A90ED025B20
:1017B00087FE800AB7EEC00A9FED056B20EE050B91
:1017C00080EE067BFCEEC77B17EE900A704700BFE9
:1017D0000000000000408F4000000000F8B5DE88E7
:1017E00000F170051C461746043628463146FFF7BF
:1017F00079F960B10146E288204641F8047BFFF7A1
:1018000031FA31462846BDE8F840FFF799B9034B55
:101810001E21034A034811F0C3FB00BFB049010871
:101820007C4A01089849010810B50C1E82B00ADDF7
:101830005C300190FFF748F9A102019802B0BDE8C1
:101840001040FFF71DB9034BB921034A034811F0BB
:10185000A7FB00BFD44A0108E44A010898490108DF
:1018600010B50C1E82B00ADD70300190FFF72CF924
:10187000A102019802B0BDE81040FFF701B9034B87
:10188000BF21034A034811F08BFB00BF204B010826
:10189000304B0108984901082DE9F0431746984656
:1018A000026D0E46294B002183B09A42316046D129
:1018B000054600F1850C4FF0010EDCE84F4FCCE8F7
:1018C00043EF002BF9D1E4B2BFF35B8F002CF2D1D0
:1018D00005F170094846FFF7FBF8A8B101A9484691
:1018E0000194FFF74FF9C0B1019A132A1BD9904513
:1018F0001FD301463846012451F8043B336011F0F0
:10190000C7FB4846FFF744F900232046BFF35B8F2F
:1019100085F8853003B0BDE8F0830D4BCF210D4A2B
:101920000D4811F03DFB0D4BD0210A4A0A4811F039
:1019300037FB0B4BD121074A074811F031FB094B0C
:10194000C721044A044811F02BFB00BFDD17000833
:10195000644C0108144C010898490108A84C01087E
:10196000D04C01086C4B01082DE9F84F2DED028B8E
:101970009FED338BB4EEC80BF1EE10FA59DB17462E
:10198000002A50D003680546314A88469B6988FE84
:10199000008B066993423ED190ED020B9FED2A6BBE
:1019A00005F1840380EE067B27EE087BBCEEC77B47
:1019B00017EE102A324416464FF0010CD3E84F4F71
:1019C000C3E842CF002AF9D1E4B2BFF35B8F002C09
:1019D000F2D1B7F806A005F15C0B0AF1040A5846EB
:1019E0005146FFF77FF88146B8B10146FA8838467C
:1019F00041F8048BFFF736F958465146C9F80460A0
:101A0000FFF79EF8BFF35B8F85F884400120BDECA3
:101A1000028BBDE8F88F9847C0E70E4B83210E4A32
:101A20000E4811F0BDFA0E4B74210B4A0B4811F011
:101A3000B7FA0C4B7321084A084811F0B1FA00BFFD
:101A400000000000000000000000000000408F4087
:101A50000D160008C04D0108604D010898490108A5
:101A6000B04D0108504D01082DE9F04F2DED048BCC
:101A70009FED719B43EC182B85B0B4EEC98B00AF82
:101A8000F1EE10FABE6CC0F2D080002E00F0C780DC
:101A900007F14C03824630468946FB60FEF72AFC7C
:101AA0008346002800F0B580C3006749DAF81020AB
:101AB00089FE089B0833ADEB030DDAF800309B6913
:101AC000E8468B4240F082809AED020B29EE009BA3
:101AD00059464046013E454600249FED596B89EE2C
:101AE000067BBCEEC77B17EE103A13441A46FFF78D
:101AF0007FF816F8013F623B112B11D8DFE803F0A5
:101B0000091010104E103E10101010101010101070
:101B10001023B8F80430A34263DD00232B72EB607E
:101B200001340835A345E4DCDAF80030B0EE480BA8
:101B3000424649465046DB6C98471437BD46BDECDB
:101B4000048BBDE8F08FFB68B8F80420191D1868F5
:101B5000A242F9603FDD002855D00223E86001343D
:101B600008352B70FEF7C6FBB8F80630A34503F125
:101B700001031844A8F80600BBDCD5E7FB68B8F8F9
:101B80000420191D1B68A242F96036DD01340322CE
:101B9000EB600835A3452A70ABDCC5E7FB68B8F8F5
:101BA00004200733A24223F0070393ED007B03F1E7
:101BB0000803B7EEC77BFB6019DD0134012385ED17
:101BC000037A0835A3452B7093DCADE77A60504665
:101BD00098477A687AE71D4B94211D4A1D4811F0F9
:101BE000DFF91A4B69211C4A1A4811F0D9F9174B31
:101BF00073211A4A174811F0D3F9144B8221184A5D
:101C0000144811F0CDF9174B9521114A114811F0E4
:101C1000C7F9154B3A21154A0E4811F0C1F9144B7A
:101C20005C21144A144811F0BBF9144B5B21114A92
:101C3000114811F0B5F900BF0000000000000000DD
:101C40000000000000408F400D160008FC44010811
:101C50009C4F01081C450108204F0108444F010812
:101C6000704F0108D04F010804460108004F0108D9
:101C7000EC4E0108944E010898490108504D0108A6
:101C8000B5EEC00B70B5F1EE10FA1D46294B80ED94
:101C9000020B036036DD002946DD002A16463DDDD5
:101CA000002D35DB4FF0000304460361C0E9153316
:101CB0000CBF2B46204B183083630023BFF35B8F90
:101CC00080F86C30BFF35B8F80F86D30882340F86C
:101CD000043CFFF75BFA6369B102034404F15C0062
:101CE0006361FEF7CDFE63690246A90204F170004C
:101CF00013446361FEF7C4FE636902462046134441
:101D0000636170BD0D4B27210D4A0E4811F048F953
:101D10000D4B2A210A4A0B4811F042F90B4B29219D
:101D2000074A084811F03CF9094B2821044A0548A4
:101D300011F036F948500108DD170008DC4F0108A2
:101D4000F04F01089849010830500108D44A0108B1
:101D500024500108084B10B5044640F8183BFFF723
:101D60002DFA04F15C00FEF7AFFE04F17000FEF7FF
:101D7000ABFE204610BD00BF485001080048704728
:101D8000DC50010800207047022070470020704797
:101D9000A2B1032929D8DFE801F0131A21024FF07C
:101DA0007E5C4FF07C501649164BC2F810C0506153
:101DB000C2E90013002100231172D3600420704790
:101DC0004FF07E5C4FF07C500F49104BEDE74FF029
:101DD0007E5C4FF07C500E490E4BE6E74FF07E5C88
:101DE0004FF07C500C490D4BDFE7002300210C48DD
:101DF000516011721060D36013615361DEE700BF60
:101E00000C5101086E0BAE01EC500108238FD7B4C2
:101E1000F4500108823FDD62FC500108D9F81CDF54
:101E20001C510108034B10B504460360FFF792FFF5
:101E3000204610BD10520108054B10B50446036042
:101E4000FFF788FFB821204610F01DFD204610BD89
:101E500010520108134B944699421CD00BD8124BD8
:101E6000994212D0114B99421BD1114B002261466D
:101E70001830FFF703BA0F4B994205D10E4B0022E1
:101E800061461830FFF7FAB970470C4B00226146E3
:101E90001830FFF7F3B90A4B002261461830FFF7FC
:101EA000EDB97047238FD7B46E0BAE01823FDD6270
:101EB0005D1F0008D9F81CDFAD22000815230008BB
:101EC00025210008B0B5114600AF82B0056801EBCE
:101ED00083046A462D6CC2E900140021A847BD4660
:101EE000B0BD00BF2DE9F84300AF2BB316466A46DC
:101EF00000211D46A2EBC3024FEA85099546026800
:101F0000E846546C4246A047002308EB85041A4675
:101F1000002D09DD08EB830106EB820C51F804EB80
:101F2000A1424CF808EBF9D12B444C4412B1BD4608
:101F3000BDE8F8830122EBE7034B40F23F11034A6F
:101F4000034811F02DF800BF345101084051010839
:101F50009051010800F1B001FFF7B0BA30B500238D
:101F600083B01446084905469FED080A01910222F4
:101F700019460094FEF7D2FC054A2146284603B0D4
:101F8000BDE83040FEF758BD551F00080000FA4478
:101F9000B05101082DE9F043044683B015461E46B2
:101FA00000F15C0814E0002301A940460193FEF70C
:101FB000E9FD019B0246132B40F2928023682046E4
:101FC00052F8041BD3F8903098474046FEF7E0FDE6
:101FD0004046FEF77DFD07460028E4D1002ED4F8E8
:101FE000108076DD06EB0809A06908F1010870B1E0
:101FF0008268136898450AD9D0E90331204698478A
:1020000004F11800FFF784F9A0690028F0D1D4F892
:102010008830B7EE004AF6EE004ADFED346A590A1E
:10202000B5EE005A94ED2C6A41F07E5294ED247A7C
:10203000DFED2F5A07EE902A27EE067AD4F8941097
:1020400077EEC47A9FED2B6ABDEEC77A002977EE52
:10205000E47A17EE102AF0EEE77A1A44C4F88820E2
:1020600077EEC57A67EEA67A67EEA76A26EEA77ABC
:10207000E7EE257A27EE267AE7EE067A24DB94ED62
:10208000266AB0EE465ADFED1C6A013994ED277AD4
:10209000C845F0EE665AD5E90023E6EE275AC4F8A3
:1020A000941077EE057A3A443B4407F10407C4EDF7
:1020B000267AC2ED005AC3ED006A96D13046C4F8C4
:1020C000109003B0BDE8F08394ED286A94ED265A91
:1020D000D9E7C1463046C4F8109003B0BDE8F0839C
:1020E000064BF021064A074810F05AFFDB0FC940A3
:1020F000ABAA2ABE6257003C00000000A84C0108B1
:10210000B85101089051010808B5034A7321034BE7
:10211000034810F045FF00BF444F0108FC4401088C
:102120001C45010810B5134684B000220849044636
:10213000039300911146FEF71BFC0022054920463F
:10214000039B00911146FEF713FC04B010BD00BFC5
:102150000D2200085D22000810B504462DED048B09
:10216000B0EE408BFFF78CFD174B20469FED179A82
:10217000B0EE480B40F8883BFFF786F963690246EA
:1021800004F1940013446361FFF722F96369024686
:10219000B0EE490A04F1A40013446361FEF768FC41
:1021A0006369F0EE490A00210344B0EE490A04F1E4
:1021B000B0006361FFF77CF963690246204613446F
:1021C000BDEC048B636110BD1052010800000000DB
:1021D000B0B582B00121054602AF84B0126802ACEE
:1021E0002046FEF705FDA38873B14FF07E51012014
:1021F0000022234620722846E16005F194010092F6
:10220000FFF7F0F8BD46B0BDFFF77EFF0021FFF7F6
:10221000DFBF00BFB0B582B00221054602AF86B075
:10222000126802AC2046FEF7E3FCA38893B10121BB
:1022300000228B422172E2600CD0074800222174F8
:102240002346606105F1940128460092FFF7CAF821
:10225000BD46B0BDFFF758FF0000FA430021FFF76D
:10226000D9BF00BF036870B55B6B04460C4E1546C2
:10227000B3420FD1006D60B123685B6BB3420BD1E9
:10228000266D2B462046B446064A0749BDE87040F5
:10229000604770BD9847EEE7204698470646F0E74E
:1022A0004D1600088DC617E8F851010838B51546D7
:1022B00004460021FFF7D6FF29462046024ABDE822
:1022C0003840FEF7B9BB00BFB0510108036870B5D4
:1022D0005B6B04460C4E1546B3420FD1006D60B1E6
:1022E00023685B6BB3420BD1266D2B462046B44668
:1022F000064A0749BDE87040604770BD9847EEE761
:10230000204698470646F0E74D16000890542EBB2D
:102310000052010838B5154604460021FFF7D6FFE4
:1023200029462046024ABDE83840FEF785BB00BF7B
:10233000B051010838B102680649D26B8A4201D116
:10234000406D70471047044B9C21044A044810B567
:1023500010F026FE55160008A45201080C5301087F
:10236000F852010800000000C0B102681249526A28
:102370008A4212D1DFED117A90ED026B87FE807AEE
:10238000B7EEC77A9FED0A5B27EE067B87EE056BFB
:10239000FCEEC67B17EE900A70471047084BFB21F6
:1023A000084A094810B510F0FBFD00BFAFF30080EC
:1023B0000000000000408F40A91700080000000046
:1023C000A452010884530108F8520108704700BF65
:1023D000F8B5104C15461E4604F118072268AA42AB
:1023E00003D00C34BC42F9D1F8BDB38863B10A4BB9
:1023F000626896ED030A03EB820383ED000AA3688B
:10240000002BEED09847ECE7044B7921044A0548AD
:1024100010F0C6FD04000024C8060024FC44010896
:10242000C85301081C450108F0B5044600252DEDF0
:10243000028B95B004F13C0704F118069FED858AE4
:10244000039100F0DFF90399204600F063FA1B20A6
:1024500000F0DAF903462046ADF8143000F0EEF94A
:102460000123059904F5E87000951A4601F0ACFCCB
:102470001C2000F0C9F903462046ADF8183000F0E2
:10248000DDF90123069904F5F07000951A4601F074
:102490009BFC1A2000F0B8F903461920ADF81C3057
:1024A00000F0B2F903460D20ADF8203000F0ACF991
:1024B00003462046ADF8243000F0C0F9079904F532
:1024C0008070DDE9082301F0C1FB0F2000F09CF9CA
:1024D000ADF828000A99384601F0F4FC102000F00D
:1024E00093F9034604F14D00ADF82C300B9901F03F
:1024F000E9FC152000F088F9034604F15E00ADF810
:1025000030300C9901F0DEFC182000F07DF9034614
:1025100004F16F00ADF834300D9901F0D3FC0423C1
:10252000394630461A4604F5947701F0D9FC29461D
:10253000304601F0CFFE0390204600F07FF9F0EE28
:10254000480A2B462A46039904F1800001F028FB33
:102550000121304601F0BEFE0390204600F06EF9E6
:10256000F0EE480A2B462A46039904F1A00001F038
:1025700017FB0221304601F0ADFE0390204600F02B
:102580005DF9F0EE480A2B462A46039904F1C00093
:1025900001F006FB0321304601F09CFE039020462B
:1025A00000F04CF9F0EE480A2A4603992B4604F154
:1025B000E00001F0F5FA142000F026F9034613209C
:1025C0000125ADF8383000F01FF90346122004F55C
:1025D000BE74ADF83C3000F017F99FED1F1AADF84E
:1025E00040003846109B00958DED031ADDE90E1270
:1025F00001F09AFB9DED031A3846F0EE410AB0EE69
:10260000410A01F0B9FB112000F0FEF8ADF84400DA
:10261000182000F0F9F8ADF84800172000F0F4F8A1
:102620001199ADF84C0020460095DDE9122301F028
:102630007BFB9DED031A2046F0EE410AB0EE410A05
:1026400001F09AFB304615B0BDEC028BBDE8F040BE
:1026500001F02ABE6F12033B0000000008B5012103
:102660000548FFF7E1FE0549034800F0E3F8044B95
:10267000044A1A65FEE700BF1C0400245D27000819
:1026800010060024D123000870B5194D044695F8B2
:10269000D4312DED028B3BB195F8DA317F2B03D18C
:1026A000036814499B6D98472368204695ED330ACB
:1026B000F7EE008A10495B6D984795F8DA21236898
:1026C0002046FF2A9FED0D8A0D4908FE880A5B6DA2
:1026D000984795F8EA2123682046FF2A09495B6D4F
:1026E00008FE880ABDEC028BBDE87040184700BFA9
:1026F0001C040024238FD7B4823FDD620000000059
:10270000D9F81CDF6E0BAE0170B50F4800240F4ED8
:102710000F4D32460F4904604461046210F0AEF878
:102720000A212346022228469FED050BFFF714FDE0
:10273000324628460849BDE8704010F09FB800BFF7
:10274000000000000070E7401C040024000000248A
:1027500010060024CD230008251E0008F0B5264CE5
:1027600083B084460D4604F180000092CDF804C089
:1027700001F048FA04F1A000204F01F043FA04F1FF
:10278000C00001F03FFA04F1E00001F03BFA04F56B
:10279000807001F08BFA04F5E87001F065FB04F538
:1027A000F07001F061FB1648FFF76EFF009B2A46B0
:1027B0000199134804F59476FFF7ECFB97ED001AA6
:1027C000304604F5BE74F0EE410AB0EE410A01F065
:1027D000D3FA97ED011A2046F0EE410AB0EE410A15
:1027E00001F0CAFA304601F0E1FA204603B0BDE834
:1027F000F04001F0DBBA00BF1C040024C80600242E
:1028000010060024704700BF1F2882B009D8084B6B
:1028100003EB400213F81030507843EA002002B076
:10282000704701230C2043EA002002B0704700BF2C
:10283000F4530108143001F07FB900BF90ED0E0A87
:10284000704700BFF0B5032399B00027012512930C
:1028500006462C4B09A81595CDE90E7340F204539A
:10286000ADF84030284BCDE91357099301F034FE01
:1028700009A801F00DFF002836D1244B04AF04460F
:102880000090CDF842301023394604958DF8203061
:102890001F4BCDE91650CDE906506846059302F06E
:1028A00085F80823009A01A909A8ADF804508DF80D
:1028B000064009940295039300F0E4F800230EA962
:1028C00038463024049302F03BFE03224FF07E533F
:1028D00009A906F114000B930C93CDE90942049A5F
:1028E00001F0EAF819B0F0BD40F60132074B169737
:1028F00004AFADF824200998CDF84230179500F0C8
:1029000081F8DBE704020404030300010406040366
:102910000704010B2DE9F04304462DED028B83B033
:10292000002948D0012140F2011200230091ADF8A6
:1029300004208DF80630304A0126304B271D3049DF
:1029400004F12908626040F20272A36040F6066357
:10295000E16004F125092682A4F8252084F8276087
:10296000A4F8293084F82B6003F078F9694605460D
:1029700048B304F130008DF8066003F0CDF8072D60
:1029800034D104F114052046FFF75CFF284601F01E
:10299000CFF82846B0EE408A01F0C6F8D0ED007AB4
:1029A000F8EE677A88EE277A84ED0E7A03B0BDECF4
:1029B000028BBDE8F08340F2011300918DF8061000
:1029C000ADF80430B7E704F1300003F0A5F839465C
:1029D000204602F035FA484601F07EFD404601F0FF
:1029E0007BFD04F1120000F077F9CAE73946204672
:1029F00002F026FAC5E700BF050805090507050628
:102A0000050A060610B584B003460124ADF804009B
:102A100003A8ADF80C30ADF80E4001F05DFD214685
:102A200003A801F043FE204602F0AAFF002103A8FC
:102A300001F03CFE204602F0A3FF214603A801F06E
:102A400035FE04B010BD00BF10B5C2F3002384B042
:102A50000C46017C8DF80D2043EA4402FA2402233F
:102A60008DF80C2003AA009402F036F818B1012466
:102A7000204604B010BD04460A2002F081FF204623
:102A800004B010BD034670B543F8042B044684B06F
:102A900007C983E80700A37983B91A210B461E22D0
:102AA000FA2523742046ADF80C20022303AA0095D2
:102AB00002F012F828B1012004B070BD1B210B46B2
:102AC000EDE70A2002F05CFF4FF4B85200950223B4
:102AD000ADF80C20204603AA217C01F0FDFF002860
:102AE000E9D10A2002F04CFF41F202720095022364
:102AF000ADF80C20204603AA217C01F0EDFF002850
:102B0000D9D10A2002F03CFF042200950223ADF83F
:102B10000C20204603AA217C01F0DEFF0028CAD148
:102B20000A2002F02DFF062200950223ADF80C20AA
:102B3000204603AA217C01F0CFFF0028BBD10A2048
:102B400002F01EFF41F2082200950223ADF80C208E
:102B5000204603AA217C01F0BFFF0028ABD10A2048
:102B6000064602F00DFF0095022303AA217C2046B1
:102B7000ADF80C6001F0B0FF00289CD1304602F0A7
:102B8000FFFE009522790C232046002A8DF80C3098
:102B900003AA4FF0020314BF622142218DF80D10E9
:102BA000217C01F099FF002885D1304602F0E8FE33
:102BB0002279D4E902310B43DBB20AB943F0400376
:102BC00062790AB143F020030E22FA258DF80D3008
:102BD0002046009502238DF80C2003AA217C01F0E9
:102BE0007BFF00287FF467AF0A2002F0C9FE1022A5
:102BF00000950223ADF80C20204603AA217C01F0A9
:102C00006BFF00287FF457AF0A2002F0B9FE1221B3
:102C100000950223ADF80C1003AA217C204601F098
:102C20005BFF00287FF447AF0A2002F0A9FE0122D3
:102C300009212046FFF708FF003818BF01203BE7B5
:102C4000F0B5102387B0234C012200250126002770
:102C500002A920460195CDE902234FF48052CDE927
:102C6000046709F0B3FD642003F09EFA02A94FF453
:102C700080522046CDE9046702261027CDE902677D
:102C800009F0A4FD0322102302A92046CDE9022366
:102C900000230422CDE904234FF4805209F096FD6D
:102CA00040F23223042202A9019310232046CDE9E9
:102CB0000223019A012305924FF48052049309F0F4
:102CC00085FD40F60601204609F0A0FD284607B024
:102CD000F0BD00BFD80600241C4B00221C494FF059
:102CE000400C30B5054689B00220596007219A6032
:102CF0001A620124DA620A224FF4006EDC60069246
:102D00002022CDE9000104200821CDE902010320A1
:102D10001021CDE9040108206946C3E904024FF4FB
:102D2000C072181DC3E906C24FF48052C3E909E21C
:102D300009F022FD38B92846FFF782FF003818BF96
:102D4000012009B030BD204609B030BDD4060024B2
:102D500040410052614A0021D0B513688EB00A91FB
:102D6000002B40F0B9805E4B01214FF683700C249C
:102D700011600221D3F8D4200026032742F48052A8
:102D8000C3F8D420D3F8D42002F480520092009AE1
:102D9000D3F8E02042F01002C3F8E020D3F8E0209E
:102DA00002F010020192019AD3F8E02042F04002B2
:102DB000C3F8E020D3F8E02002F040020292029A29
:102DC000D3F8E02042F00802C3F8E020D3F8E02076
:102DD00002F008020392039AD3F8E02042F48072D2
:102DE000C3F8E020D3F8E02002F480720492049A41
:102DF000D3F8E02042F08002C3F8E020D3F8E020CE
:102E000002F080020592059AD3F8E02042F02002F9
:102E1000C3F8E020D3F8E02002F020020692069AE0
:102E2000D3F8E02042F00402C3F8E020D3F8E03009
:102E30000C9403F0040307930323079A0B93CDE943
:102E4000080108A9274805F035F848F2371202238F
:102E500008A925480C94CDE90823CDE90A6705F0B7
:102E600029F84CF20372022308A920480C94CDE9FA
:102E70000823CDE90A6705F01DF840F2FF6202233E
:102E800008A91B480C94CDE90823CDE90A6705F091
:102E900011F84FF60C72022308A916480C94CDE9DC
:102EA0000823CDE90A6705F005F84FF63F02022333
:102EB00008A911480C94CDE90823CDE90A6704F06C
:102EC000F9FF2022022308A90A480C94CDE90A67D9
:102ED000CDE9082304F0EEFF0EB0D0BDD0060024EB
:102EE000004402580010025800180258000C025802
:102EF00000200258001C0258001402582DE9F04F1F
:102F0000DFF8108406460D46144608F118002DED32
:102F1000028B89B000AF02F00BFCD8F8183073B305
:102F2000D8F81C30D8F80490002B43690BBF4FF041
:102F3000080A4FF0100A4FF0020B4FF0040BB9F1E2
:102F4000000F2AD0A200EA46012B02F1070222F06C
:102F50000702ADEB020D6846ADEB020D694600F0CD
:102F60003F81022B00F0D680002B6FD02246C8474D
:102F7000D5462437BD46BDEC028BBDE8F08FD8F8AE
:102F80001C30002BF5D0D8F804904FF0080A4FF011
:102F9000020B4369B9F1000FD4D1FB61D8F80030BE
:102FA000BB61002BE5D0D54802F034FC6B46BBF189
:102FB000020F786108EE103AFB6900F083816A46DF
:102FC0005146A2EBC40295466200EA46B2FBFBF210
:102FD000AAEBC40085460AEB8200EE46F861ADEB31
:102FE000010DF8690EEB820CC7F810C0EC46ADEB92
:102FF000010D00EB8201CCF80400CCF8081001EBC5
:1030000082013869E946CCF80C1000EB8201CCF85B
:1030100000A001EB8202C9E900E0C9E90212012B1C
:1030200000F06483022B00F06C82002B00F08081A2
:10303000620849466046BB69984718EE103A243743
:103040009D46BD46BDEC028BBDE8F08F002C8DD0B7
:103050001A46D8ED0C6A9FEDB27A8446331D36F9D4
:1030600022E00CF1080C07EE90EA33F922E002327C
:10307000F8EEE77A944267EE877A67EEA67A4CED2F
:10308000027A07EE90EAF8EEE77A67EE877A67EE63
:10309000A67A4CED017AE2D8F9612246C847984EEB
:1030A000D8ED0D6A0020F9692B1D9FED9E7A9FEDEA
:1030B0009E6ADFED9E5A22E0F4EEC67AF1EE10FA37
:1030C000C0F2C88447F6FE72D1ED017A45F820209F
:1030D00066EEA77AF4EEC77AF1EE10FA40F2F080CD
:1030E000F4EEC67AF1EE10FAC0F2D58447F6FE721D
:1030F00043F820200230083184427FF639AFD1ED09
:10310000007A66EEA77AF4EEC77AF1EE10FAD3D819
:103110003246D9E7002C3FF429AFD8ED0C6A84463B
:103120009FED787A0022331D8E4656F822100CF15E
:10313000080C07EE901A53F822100232F8EEE77AE4
:10314000944267EE877A67EEA67A4CED027A07EE34
:10315000901AF8EEE77A67EE877A67EEA67A4CED7A
:10316000017AE2D871462246C7F81CE0C847664E8D
:10317000D8ED0D6A0020F9692B1D9FED6A7A9FED4D
:103180006A6ADFF894C120E0F4EEC67AF1EE10FA34
:10319000C0F279843246D1ED017A45F8202066EEFE
:1031A000A77AF4EEC77AF1EE10FA40F28780F4EED7
:1031B000C67AF1EE10FAC0F25E84324643F820205F
:1031C0000230083184427FF6D3AED1ED007A66EE4C
:1031D000A77AF4EEC77AF1EE10FAD5D86246DAE7AC
:1031E000002C3FF4C3AED8ED0C6A86469FED477ABB
:1031F0004FF0000C331D56F82C200EF1080E82F40F
:103200000002A2F5000207EE902A53F82C200CF1E0
:10321000020CF8EEE77A82F400026445A2F500029F
:1032200067EE877A67EEA67A4EED027A07EE902A6D
:10323000F8EEE77A67EE877A67EEA67A4EED017AC6
:10324000D9D8F9612246C847314ED8ED0D6A002021
:10325000F9692B1D9FED337A9FED336ADFF8BCC00F
:103260001FE0F4EEC67AF1EE10FAC0F2FC833246AB
:10327000D1ED017A45F8202066EEA77AF4EEC77A00
:10328000F1EE10FA18D9F4EEC67AF1EE10FAC0F2A7
:10329000DA83324643F820200230083184427FF638
:1032A00067AED1ED007A66EEA77AF4EEC77AF1EE5A
:1032B00010FAD6D86246DBE76246EBE762467DE766
:1032C000324615E7A100D6466208073121F0070112
:1032D000ADEB010DEA46ADEB010D6946ADEB0E0D10
:1032E0000AEB8200EC46ADEB0E0D01EB8202F861B9
:1032F000E946CCE900A0C9E9001290E628070024BD
:103300000280FFFF000000300082FF7F00000034D9
:1033100082FF7F000C070024007E00807E0080FF7B
:103320000000003804FF7FBF04FF7F3F00FEFF4620
:10333000002C00F0C982BBF1020FD8F8242000F065
:10334000FA827969C7F8049002EB810E5FED0C5A9E
:103350008A00DCF808100EF104007A611A46DCF8E5
:103360000C303B61331DD7F810903D61FD69C7E912
:1033700002CB8C46834636F92210D8ED0C7A06EE45
:10338000101A33F9221006EE901A3EF92210B8EE08
:10339000C66A07EE101AF8EEE66A3BF92210B8EE9C
:1033A000C77A26EE256A66EEA56A27EE257A26EE0E
:1033B000276A66EEA76A27EE277A07EE901A510869
:1033C0000232F8EEE77A0AEB8100944280ED006A5F
:1033D00005EB810067EEA57AC0ED006A0CEB810079
:1033E00009EB810180ED007A98ED0C7A67EE877A1F
:1033F000C1ED007ABFD8D7F804903D69D7E902CB78
:1034000060466208BB6949469847D8F82C307A690B
:10341000D8ED0D6A1A441FED3D7A1FED3D6A2B1D54
:10342000904602F1040A5FED3F5A0022A84ED9E906
:1034300000EC51E0F4EEC67AF1EE10FAC0F2C78269
:1034400047F6FE7045F822000CEB0100D0ED007A43
:1034500066EEA77AF4EEC77AF1EE10FA4BD9F4EEE5
:10346000C67AF1EE10FAC0F2BA8247F6FE70BBF1EE
:10347000020F43F822002BD0D9F808000844D0ED01
:10348000007A66EEA77AF4EEC77AF1EE10FA36D932
:10349000F4EEC67AF1EE10FAC0F2CD8247F6FE7075
:1034A00048F82200D9F80C000144D1ED007A66EE0C
:1034B000A77AF4EEC77AF1EE10FA1ED9F4EEC67AC6
:1034C000F1EE10FAC0F2AF8247F6FE714AF8221010
:1034D000023294427FF6B1AD51080EEB81008900B3
:1034E000D0ED007A66EEA77AF4EEC77AF1EE10FA24
:1034F000A0D83046A6E73046B9E73146E6E7304681
:10350000CEE7002C00F0E081BBF1020FD8F82430A8
:1035100000F0E1817A69DCF8081003EB820EC7F84D
:1035200004909300DFED6B5A0EF1040000227B61E2
:10353000DCF80C303B61331DD7F810903D61FD691C
:10354000C7E902CB8C46834656F82210D8ED0C7A98
:1035500007EE101A53F82210B8EEC76A07EE101AD9
:103560005EF82210F8EEC76A07EE101A26EE256AFA
:103570005BF82210B8EEC77A66EEA56A26EE276AD7
:1035800027EE257A66EEA76A27EE277A07EE901ACD
:1035900051080232F8EEE77A0AEB8100944280ED9E
:1035A000006A05EB810067EEA57AC0ED006A0CEBBE
:1035B000810009EB810180ED007A98ED0C7A67EECD
:1035C000877AC1ED007ABFD8D7F804903D69D7E972
:1035D00002CB60466208BB6949469847D8F82C3050
:1035E0007A69D8ED0D6A1A449FED3E7A9FED3E6AE6
:1035F000131D9246DFF8E4C00022FB612B1D364EFE
:10360000D9E9008E4EE0F4EEC67AF1EE10FAC0F27F
:10361000FC81304645F822000EEB0100D0ED007A27
:1036200066EEA77AF4EEC77AF1EE10FA49D9F4EE15
:10363000C67AF1EE10FAC0F2EF813046BBF1020F0C
:1036400043F822002AD0D9F808000844D0ED007AC7
:1036500066EEA77AF4EEC77AF1EE10FA35D9F4EEF9
:10366000C67AF1EE10FAC0F2C98130464AF822005B
:10367000D9F80C000144D1ED007A66EEA77AF4EE99
:10368000C77AF1EE10FA1ED9F4EEC67AF1EE10FA0E
:10369000C0F2AD813146F86940F8221002329442FE
:1036A0007FF6CBAC510808EB81008900D0ED007AA1
:1036B00066EEA77AF4EEC77AF1EE10FAA3D8604668
:1036C000A8E76046BAE76146E5E76046CEE700BF97
:1036D0000280FFFF000000300082FF7F007E00803C
:1036E0000000003404FF7FBF04FF7F3F002C00F088
:1036F000EB807A690021D8F82430C7F8109003EBEA
:10370000820ED7F81C909300FD610EF104021FEDAC
:103710000C6A7B61331D154656F821204808D8ED08
:103720000C6ABBF1020F82F40002A2F5000207EE60
:10373000902A53F8212082F40002B8EEE77AA2F52D
:10374000000227EE067A07EE902A0AEB8002F8EED6
:10375000E77A27EE267A67EE867A82ED007A09EB21
:1037600080024FEA800067EEA67AC2ED007A27D089
:103770005EF8212082F40002A2F5000207EE902AF2
:1037800055F8212082F40002B8EEE77AA2F5000293
:1037900027EE067A07EE902ADCF80820F8EEE77AA2
:1037A000024427EE267A67EE867A82ED007A98ED5B
:1037B0000C7ADCF80C2067EE877A0244C2ED007ABE
:1037C00002318C42A8D8D7F8109060466208BB69D5
:1037D0004946FD699847D8F82C307A69D8ED0D6ACA
:1037E0001A441FED407A1FED406A131D9246DFF820
:1037F000C4C20022FB612B1DAB4ED9E9008E4EE006
:10380000F4EEC67AF1EE10FAC0F2C580304645F803
:1038100022000EEB0100D0ED007A66EEA77AF4EEFE
:10382000C77AF1EE10FA49D9F4EEC67AF1EE10FA41
:10383000C0F2BF803046BBF1020F43F822002AD00D
:10384000D9F808000844D0ED007A66EEA77AF4EEC5
:10385000C77AF1EE10FA35D9F4EEC67AF1EE10FA25
:10386000C0F2AE8030464AF82200D9F80C0001447C
:10387000D1ED007A66EEA77AF4EEC77AF1EE10FA8F
:103880001ED9F4EEC67AF1EE10FAC0F28B80314602
:10389000F86940F82210023294427FF6CEAB51080C
:1038A00008EB81008900D0ED007A66EEA77AF4EE8D
:1038B000C77AF1EE10FAA3D86046A8E76046BAE7E7
:1038C0006146E5E76046CEE7224649466046BB6969
:1038D0009847FFF7B2BBC7F810B0002298ED0C6A0A
:1038E000331DDFED726AD7F81CB0786956F82210E4
:1038F00007EE901A53F82210B8EEE77A07EE901A06
:1039000051080232F8EEE77A27EE267A0AEB810EAA
:1039100094420BEB810167EEA67A27EE067A67EEFA
:10392000867A8EED007AC1ED007ADFD88300D7F871
:1039300010B07B614DE61A46C7F810B098ED0C6ADE
:10394000331DDFED5B6AD7F81CB0786936F92210B9
:1039500007EE101A33F9221007EE901AB8EEC77A64
:1039600051080232F8EEE77A27EE267A0AEB810E4A
:1039700094420BEB810167EEA67A27EE067A67EE9A
:10398000867A8EED007AC1ED007ADFD88300D7F811
:1039900010B07B6134E5F0EE675AFEEEE45A15EEA6
:1039A000900A34E7F0EE675AFEEEE45A15EE901AEC
:1039B0006EE7F0EE675AFEEEE45A15EE900A3AE72B
:1039C000F0EE675AFEEEE45A15EE900A4BE767EE0A
:1039D000A57AFDEEE77A17EE900A00B232E567EEBF
:1039E000A57AFDEEE77A17EE900A00B23FE5F0EE19
:1039F000675AFEEEE05A15EE901A4CE6F0EE675A62
:103A0000FEEEE05A15EE900A30E6F0EE675AFEEE52
:103A1000E05A15EE900AFDE5F0EE675AFEEEE05A28
:103A200015EE900A0AE667EEA57AFDEEE77A17EE44
:103A3000901A09B24AE567EEA57AFDEEE77A17EE2D
:103A4000900A00B22CE5F0EE675AFEEEE45A15EE4D
:103A5000902A1FE467EEA57AFDEEE77A17EE902A2A
:103A600012B2FFF731BBF0EE675AFEEEE45A15EEE4
:103A7000902AFFF7FDBBF0EE675AFEEEE05A15EE16
:103A8000902AFFF79BBBF0EE675AFEEEE05A15EE68
:103A9000902AFFF780BB67EEA57AFDEEE77A17EE76
:103AA000902A12B2FFF724BB82FF7F000000003093
:103AB000000000387E0080FF30B5184C154685B0F8
:103AC000046004F1080EEC460FC98EE80F00D4ED37
:103AD000047AF5EEC07A8CE80F00F1EE10FA1ADDE8
:103AE000B7EE006A94ED057A27EE277AC6EE276ACC
:103AF00084ED0D7AC4ED0C6A6DB1204640F8185F74
:103B000001F016FE064903690020064A2162A262FE
:103B1000E36005B030BD012005B030BD0C070024C6
:103B2000002000300000003000680830704700BFFF
:103B30000068183001F05CBE30B5046883B00D46F3
:103B4000E3694BB1A3680020E26A616A9B000090C0
:103B500004F11C0001F0EEFDA3680748A26A9B0077
:103B6000216A009004F1180001F0E4FD0020C4E98E
:103B7000005003B030BD00BFFD2E000810B4074B4D
:103B80004FF07E5130240022032019619C60D860E0
:103B90005DF8044B5961C3E9062270470C07002405
:103BA000F6EE007A9FED166A20EE207A0160F7EEBD
:103BB000006A80ED036A80ED020A27EE277AC6EEDE
:103BC000877AF4EEE67AF1EE10FA11DDF0EE667A1D
:103BD0004FF07E514FF0000C02760022C0ED017ACA
:103BE000C0F814C0016143768276C0ED070A7047C1
:103BF000F4EEC67AF1EE10FAEAD5F0EE467AE7E78F
:103C0000000000000268037E128807EE902AFBEE97
:103C1000C87A1BB1B7EE007A77EE677AD0ED056A05
:103C200090ED047A77EEE67A437E67EE877A0BB101
:103C3000F1EE677A90ED030A90ED017A77EEC07AA3
:103C4000A7EE270A80ED030A704700BF30B585B0A4
:103C500004460025ADF80C10ADF80820ADF804308E
:103C600001F08CFEBDF80C204FF48073206004F14D
:103C700018002283BDF808206383E383A2832571A3
:103C800000F02AFC04F11C0000F026FC9FED060A5F
:103C9000019904F1080000F0CDF84FF6FF7365625A
:103CA000238405B030BD00BF00000000F8B5044615
:103CB00001F064FE002623682671834205D104F1D9
:103CC0000800BDE8F84000F0CFB8012794F8205074
:103CD000206004F11800BD40277100F0D9FC6DB2DE
:103CE000284394F82150BD4084F8200004F11C00C2
:103CF00000F0CEFC94F820306DB2666203F003034E
:103D00002843022BC0B284F8210009D000F0030040
:103D10000228D4D1002BD2D14FF0FF336362CEE71B
:103D20008307CCD16762CAE730B585B004469FED02
:103D3000110A9DF82050ADF80C100399ADF8082039
:103D40002A46ADF804308DED000A0AF045F89DEDE5
:103D5000000A2A46029904F11C000AF03DF89DED84
:103D6000000A2A46019904F1380005B0BDE8304048
:103D70000AF032B800007A4410B52DED028BF0EE57
:103D8000608A0446B0EE418A0AF04AF804F11C0049
:103D9000B0EE680A0AF044F8B0EE480A04F13800C0
:103DA000BDEC028BBDE810400AF03AB810B50446ED
:103DB0000AF048F804F11C000AF044F804F1380055
:103DC000BDE810400AF03EB8F0B51D4683B0044689
:103DD0001646A5F101059DF82070ADF8041001F01C
:103DE000CDFDB5FA85F50023BDF80420012F4FEA7B
:103DF000551566712060E572E2802371A37223720B
:103E000009D0022F0FD00123A01D637203B0BDE8BB
:103E1000F04000F061BB0223A01D637203B0BDE857
:103E2000F04000F059BBA01D637203B0BDE8F04044
:103E300000F052BB70B5044682B0C1F30726CDB284
:103E4000ADF8041001F09AFD4FF480724FF0012399
:103E50002060A01DA571A280E671A36002B0BDE83C
:103E6000704000F039BB00BF38B5044601F086FD54
:103E7000002223682271834210D00122A57AE37ABE
:103E8000954020602271A01D6DB243B900F000FC86
:103E900040B22843C0B27F28A0720AD038BD00F0DB
:103EA000F7FBB0FA80F040092843C0B27F28A07227
:103EB000F4D101F063FD07EE900AF8EE677AC4EDE5
:103EC000037A38BD82B04FF0000C0323ADF8041024
:103ED000BDF8042080F810C00280438002B0704713
:103EE0002DE9F04FBE4E00258FB0BE4C037006F199
:103EF0004003426007460192884620222946304608
:103F0000C4F85831C4F85461CDE90355CDE90555DD
:103F1000CDE90755CDE90955CDE90B550FF0C6F8A8
:103F20002022294604F59970C4F82151C4F825517E
:103F3000C4F82951C4F82D510FF0B8F8019B84F84A
:103F4000385284F820317A68002A5FD02B464146E7
:103F5000B64604F5907599464FF0010A03EB03103D
:103F6000D1F800B0D1F804800133D1F808C022188C
:103F7000CE6844F800B0C2F80480C2F808C0D66029
:103F8000087C2EF8029B10740A7C05F8012F002A89
:103F900069D07A68113184F838A29A42DED84FF499
:103FA000802291489DF8043008214FF000084FF01E
:103FB0000009C4F874310023C4E957020122C4F88F
:103FC000643184F87031C4E95A2194F83812C4E994
:103FD000608981B3C4F88821002284F8713184F8A3
:103FE00078313B78C4E96322A3B301220020012188
:103FF000013B84F89421C4E96801082B2CD8DFE840
:1040000003F0ABB0B5BABFC4C9CFD6009DF8043039
:104010000121C4F86421C4F874314FF4802384F87A
:104020007021714AC4E9572308230022C4E95A13B6
:104030000023C4E960230123002284F871310023A6
:1040400084F878310323C4F888313B78C4E96322CB
:10405000002BCAD184F89431644802F0DDFC034699
:1040600038B1FFBEFEE77A6811319A423FF676AF6B
:1040700095E703A95D48039302F02CFE054600284E
:1040800068D1022240F2FF73CDE908230023042205
:10409000CDE90A2394F82031002B00F0D5804FF0B1
:1040A000060921E0022B00F08980012B40F0C4803A
:1040B0009AF80130012B00F0C180002B4C4B18BF47
:1040C000002306A94948CDE9063902F0D1F80028B5
:1040D00040F0BF80013594F82031EDB2AB4240F2A0
:1040E000B380444B53F825902FB207EB071704EB2E
:1040F000070A504600F0F0F905EB051323441B7C3A
:10410000042B7DDC022B00F3918000F08D8063197D
:10411000002283F81021E35D002BC3D19AF801300F
:10412000062B00F08580072B00F08A80022B00F020
:104130009680032B00F09580002B00F09680012BD9
:1041400000F09180042B00F09280052B2A4B18BFC1
:104150000023B6E7FFBEFEE703224023C4E966233F
:104160007AE707226023C4E9662375E70F228023DC
:10417000C4E9662370E71F22A023C4E966236BE726
:104180003F22C023C4E9662366E77F22E023C4E917
:10419000662361E7FF224FF48073C4E966235BE77F
:1041A00040F2FF124FF49073C4E9662354E740F2E3
:1041B000FF324FF4A073C4E966234DE79AF801304B
:1041C000042B37D0052B3DD0002B40D0012B42D003
:1041D000022B42D0032B094B18BF002371E700BF0D
:1041E000004000304807002400200240A4080024BA
:1041F0000002B025345401080000B84F002090366A
:1042000003233E1D04EB05084FF0000B264488F8FD
:10421000103130460BF1010B00F05EF998F81031C7
:1042200004365B45F5DC76E70123EAE70223E8E79D
:10423000104B46E7104B44E7002342E70F4B40E7A3
:104240000F4B3EE70F4B3CE70FB0BDE8F08F0E4B36
:1042500037E7FFBEFEE70D4B33E70D4B31E70D4B64
:104260002FE70D4B2DE70D4B2BE70D4B29E70D4BA2
:1042700027E700BF0800900C1000C0102000F014C9
:104280008000501D000180210004002A0008302E0B
:10429000001060320040C03A0080F03E00005247FB
:1042A000000021430000844B38B5094C40F2FF72F6
:1042B0004FF0011104F5AE75284602F0B9FC94F8F0
:1042C0002021D4F854112846BDE8384002F024BA21
:1042D00048070024034B0F29D3F8540198BF00EB83
:1042E0004100704748070024214B02689A4200D0E1
:1042F0007047204A00232048D2F8D81030B51F4C10
:1043000041F0200183B0C4F8C001092004F5E07534
:10431000C4E971034FF48060C2F8D810D2F8D820F5
:104320004FF40061C4E9733094F8380202F02002BF
:10433000C4F8D4114FF40051984201922846C4F8B1
:10434000D811C4E97833019B14BF00234FF4807364
:10435000C4F8DC3102F0E4FE08B1FFBEFEE704F56C
:10436000AE73C4F8A851C4F8F83103B030BD00BF33
:104370000020024000440258400002404807002448
:10438000014803F045BA00BF0809002402682DE97E
:10439000F84F4B4B9A4201D0BDE8F88F494D95F844
:1043A0003832002BF8D095F82031002B77D000243C
:1043B00005F10C0905F5997605F59077A04613E00F
:1043C00003F0010117F811BCA9F1080000F06EF923
:1043D000BBF1010F25D895F82031013409F11109FD
:1043E0000236A2B293422BD917F8012F002AF4D03B
:1043F000D5F854310021327833F81400D5F858310B
:1044000003EB041323F81200338801339BB233808B
:104410005FFA83FA3A789A42D2D88A46A6F80080A0
:10442000D0E7CAF34001A9F1040000F03FF9BBF165
:10443000020FCAF38001CED0484600F037F9CAE730
:10444000002395F83802204909229842C5F8C8315E
:104450004FF48060C5F8C011C5F8C4214FF4006165
:104460004FF40052C5F8CC3108BF4FF48073C5F843
:10447000D821C5E9740100221448C5E97732C5F88E
:10448000E42102F04DFE08B1FFBEFEE795F82021C1
:10449000D5F854110E48BDE8F84F02F03DB90A496D
:1044A00009224FF48060C5F8C831C5E970124FF495
:1044B00000614FF40052C5E97330C5E97512DAE7BF
:1044C0000020024048070024400002400809002460
:1044D000A4080024704700BF8378022B30B504463F
:1044E0008FB037D0032B33D0012B31D000230A9368
:1044F000E378012B2AD0022B28D000230B93002332
:1045000020460C9301F02EFD0546204601F032FDB9
:1045100023780990082B13D8DFE803F01F324558A1
:104520006B7E91A40500594BD3F8E02042F48072D1
:10453000C3F8E020D3F8E03003F480730893089BBD
:1045400009A9284603F0B6FC0FB030BD0B93D6E79F
:104550000A93CDE711230A93CAE74C4B09A92846D1
:10456000D3F8E02042F00102C3F8E020D3F8E030B5
:1045700003F001030093009B03F09CFC0FB030BDDF
:10458000424B09A92846D3F8E02042F00202C3F8C2
:10459000E020D3F8E03003F002030193019B03F025
:1045A00089FC0FB030BD394B09A92846D3F8E0206B
:1045B00042F00402C3F8E020D3F8E03003F0040333
:1045C0000293029B03F076FC0FB030BD2F4B09A97C
:1045D0002846D3F8E02042F00802C3F8E020D3F8E0
:1045E000E03003F008030393039B03F063FC0FB078
:1045F00030BD264B09A92846D3F8E02042F010022E
:10460000C3F8E020D3F8E03003F010030493049BD8
:1046100003F050FC0FB030BD1C4B09A92846D3F85D
:10462000E02042F02002C3F8E020D3F8E03003F0AD
:1046300020030593059B03F03DFC0FB030BD134BE9
:1046400009A92846D3F8E02042F04002C3F8E02050
:10465000D3F8E03003F040030693069B03F02AFCF6
:104660000FB030BD094B09A92846D3F8E02042F02D
:104670008002C3F8E020D3F8E03003F08003079312
:10468000079B03F017FC0FB030BD00BF0044025879
:1046900038B5054601F066FC0446284601F06AFC80
:1046A00001462046BDE8384003F00CBE70B5064612
:1046B0000D4601F057FC0446304601F05BFC2A1E13
:1046C0000146204618BF0122BDE8704003F000BE3D
:1046D0000023122270B586B0CDE90223049303684B
:1046E000032B01D804230593061D841D304601F0D9
:1046F00039FC0546304601F03DFC034601A9284639
:10470000019303F0D7FB204601F02CFC0346204622
:104710001C4601F02FFC01A903462046019303F03B
:10472000C9FB06B070BD00BF634A0368934210B571
:104730008CB028D0614A934258D0614A934200F02D
:104740009480604A934201D00CB010BD5E4C5F482B
:10475000D4F8E03043F00203C4F8E030D4F8E0309D
:1047600003F002030A930A9BFFF7B2FFD4F8F43078
:1047700043F08003C4F8F430D4F8F43003F080033D
:104780000B930B9BE0E7504C5148D4F8E03043F0DA
:104790000203C4F8E030D4F8E03003F002030193E0
:1047A000019BFFF795FFD4F8E83000221F2043F467
:1047B00000131146C4F8E830D4F8E83003F40013CD
:1047C0000293029BD4F8D83043F00103C4F8D830E8
:1047D000D4F8D83003F001030393039B02F0EEFA00
:1047E0001F200CB0BDE8104002F026BB364C394803
:1047F000D4F8E03043F08003C4F8E030D4F8E0307F
:1048000003F080030493049BD4F8E03043F00203E8
:10481000C4F8E030D4F8E03003F002030593059BC0
:10482000FFF756FFD4F8E8300022212043F480033C
:104830001146C4F8E830D4F8E83003F48003069356
:10484000069BD4F8D83043F00103C4F8D830D4F82C
:10485000D83003F001030793079B02F0AFFA212041
:104860000CB0BDE8104002F0E7BA1B48FFF730FF7C
:10487000154B00224820D3F8E840114644F40004C8
:10488000C3F8E840D3F8E84004F400040894089C16
:10489000D3F8D84044F00104C3F8D840D3F8D83056
:1048A00003F001030993099B02F088FA48200CB039
:1048B000BDE8104002F0C0BA00540040005800406B
:1048C000005C0040001C005800440258100C0024FA
:1048D00088090024600A0024380B00242DE9F043E5
:1048E0001A4B87B000254FF010099E46EC46184B36
:1048F000FF22E04667461A700EF118060EF13004EA
:10490000CDE90055CDE90255ADF80090BCE80F00A7
:10491000CDE90455AEE80F009CE803000095ADF822
:1049200000908EE80300B8E80F000FC69CE8030073
:104930000095ADF8009086E803000FCF0FC49CE807
:10494000030084E8030007B0BDE8F0831C000024E6
:104950008409002410B5EFF3108472B6084B1A785E
:10496000120602D504B962B610BD1B78D8220548DC
:104970005BB202FB0300143002F04AFFF2E700BF13
:104980008409002488090024014804F039BB00BFD1
:10499000140A0024014804F033BB00BFEC0A0024D1
:1049A000014804F02DBB00BFC40B00242DE9F043E7
:1049B0000F68D8243F4D85B007FB04F4032F05EBA7
:1049C0000403036040DCCB680E46012B3CD84DD07D
:1049D0004FF0D808B646DFF8FC9008FB0758BEE851
:1049E0000F00C446ACE80F00DEF800300DF1100EE9
:1049F000CCF80030D8F808C099E80F000EE90F0095
:104A00000EEB8703BCF1010F53F8103CC8F88C3053
:104A100031D0BCF1020F42D0BCF1000F35D0317C57
:104A20008C34D823002201202C4403FB0753490077
:104A3000C3E92602C3F894102046C3E92822C3E93B
:104A40002A2204F0CFF818B1012005B0BDE8F083A8
:104A50000146204604F0E0FA0028F5D10146204640
:104A600004F004FB003818BF0120EEE70B7C103B7C
:104A7000672BADD9E8E701F0EFF80F4B98420CBF78
:104A80000E4B0F4BC8F89030C9E701F0E5F80A4B20
:104A900098420CBF0B4B0C4BC8F89030BFE701F0AD
:104AA000DBF8054B98420CBF084B094BC8F8903017
:104AB000B5E700BF88090024000E27072D0FB0308E
:104AC0003211D0205F4390608A62E030200BA0104A
:104AD0001A098010C84401082DE9F041D0F800807F
:104AE00082B00D4617461E4608F18C04204604F09D
:104AF0008FFA2028FAD1D8F80C3073B96D0020460F
:104B0000089C33463A46A9B2009404F0C1F8003834
:104B100018BF012002B0BDE8F081089B324639463B
:104B2000204604F089F9F2E7044B10221A7483F846
:104B3000E82083F8C02183F8982270478809002470
:104B400030B5002395B04FF48071062204460B93D4
:104B500006921393CDE90C13CDE90E33CDE9113351
:104B600001F07CF807282BD004F1100541F28832BF
:104B700006A9284605F08CF828B10123184684F8C8
:104B80005C3015B030BD0222022306A92846CDE9CB
:104B9000002310220123CDE9022300224FF48003D9
:104BA000CDE9042305224FF0807306926A460F93E5
:104BB00041F2883305F0D8F90028DED115B030BDB8
:104BC0000323012084F85C3015B030BD00000000E4
:104BD00070B50023A4B04FF080724FF48075044686
:104BE000ADF806300D93CDE910320122CDE90E5318
:104BF000CDE91223CDE91433002943D0F02300F18D
:104C0000100508AEADF80630C02341F288323146B7
:104C10002846089305F03CF828B10123184684F88B
:104C20005C3024B070BD41F288320DF10601284697
:104C300005F098F803460028EFD105224FF4807163
:104C40001E93284616924FF080721B9321931F9259
:104C500002AA9FED1F7BCDE91C13CDE922338DED18
:104C6000027B9FED1D7B41F2883316A98DED047BFD
:104C70009FED1B7B8DED067B05F076F90028CCD1EE
:104C800024B070BD00F1100508AE612341F28832F6
:104C900031462846089304F0FBFF0028BDD141F2BD
:104CA00088320DF10601284605F0DAF80028B4D163
:104CB000BDF80630204623F0780343F04003ADF8FA
:104CC0000630FFF73DFF00289ED0A6E7AFF3008037
:104CD00000000000010000001000000001000000C2
:104CE00000000000000040002DE9F04F00234FF4C9
:104CF000807501264FF0807804462DED028BABB015
:104D00008DF8073013932193299314950E96CDF8BF
:104D10005C80CDE91533CDE91863CDE91A33CDE9CF
:104D20002253CDE92433CDE9273306231C9300F029
:104D300095FF072808D004F1100741F288321CA91A
:104D4000384604F0A5FF40B10123184684F85C30D2
:104D50002BB0BDEC028BBDE8F08F4FF0020A4FF094
:104D6000020B4FF0050941F2883308AA1CA9384606
:104D7000CDF89480CDF870909FED2D8BCDE908ABE8
:104D80004FF0000A4FF4800B8DED0A8BCDE90CAB90
:104D900005F0EAF80028D7D141F2883238460EA94A
:104DA00004F076FF0028CFD1402341F288320DF184
:104DB000070138468DF8073004F0D4FF0028C3D12E
:104DC00041F288330EA902AA3846CDF83890CDF8C2
:104DD0005C809FED197B8DED048BCDE906AB8DEDED
:104DE000027B05F0C1F803460028ADD1CDF87090E4
:104DF0004FF00109CDF894804FF00008219308AAE4
:104E000029931CA938462295CDE92333CDE92733D0
:104E100041F288338DED0A8BCDE90CABCDE90889E1
:104E200005F0A2F8002893D0304684F85C608FE744
:104E300010000000010000004000000040000000E1
:104E40002DE9F043624CA3B00D46046000F006FF6C
:104E5000072800F0A980286823466968AA6807C364
:104E60001E46AB8926F8043B3046257B677B04F061
:104E7000F1FEE0B9574B012D4FF00108E0612361CD
:104E800014BF4FF480134FF40003C4E9058893FA6C
:104E9000A3F3B3FA83F34FF48079013BC4F8249071
:104EA000C4E90B003046236204F068FE38B10122E9
:104EB000134684F85C20184623B0BDE8F0836623CF
:104EC0000B90139041F2883206A90693CDE90C901D
:104ED000CDE90E00CDE91100304604F0D9FE0028DE
:104EE000E5D1992341F2883206A93046069304F0B1
:104EF000CFFE0028DBD105231C9019906A4614933D
:104F00004FF08073219014A91D9341F288339FEDD7
:104F10002A7BCDE91A90CDE91F008DED007B9FED36
:104F2000287B30468DED027B9FED277B8DED047B4A
:104F300005F01AF80028BAD129462046FFF748FEA6
:104F40000028B4D12046FFF7CFFE03460028AED19B
:104F5000002FB0D1189330460027002606AA14A9C6
:104F6000CDF86890CDE91F33EB2314934FF44063E1
:104F70001B934FF4005317934FF440431C93A0230B
:104F80001693062319934FF0805321934FF04073EB
:104F9000CDE906671D9305F05FF8034600288AD027
:104FA000434684F85C8086E701230322184684F890
:104FB0005C2023B0BDE8F083000000000100000089
:104FC0001000000001000000000000000000400090
:104FD000E80C0024005000522DE9F04F8FB0414BF7
:104FE0000024026800AF9A427C63C7E90944C7E91C
:104FF0000B4403D03C37BD46BDE8F08F3A4B40F63A
:1050000009213A48EB46D3F8D42007F11C0607F1F2
:10501000220A4FF0020942F480424FF00308C3F81D
:10502000D420D3F8D42002F48042BA60BA68D3F80E
:10503000E02042F04002C3F8E020D3F8E02002F084
:105040004002FA60FA68D3F8E02042F02002C3F888
:10505000E020D3F8E02002F020023A613A69D3F868
:10506000E02042F01002C3F8E020D3F8E02002F084
:1050700010027A617A69D3F8E02042F00202C3F8A4
:10508000E020D3F8E030F86103F002033984BB611B
:10509000174B7B60BB697B6853F8040F7B6000F0A3
:1050A00061FF7B680546186800F064FF16F8013B55
:1050B000786207F124012846C7F830807B63C7E98E
:1050C0000A9402F0F7FE5645E5D100225C20114615
:1050D00001F074FE5C2001F0AFFE3C37DD46BD46BA
:1050E000BDE8F08F00500052004402580A0A090936
:1050F000440D0024114B02689A4200D07047104AB8
:1051000070B5D2F8D4300F4C23F4804304F1180664
:10511000C2F8D43054F8040F00F024FF054620688C
:1051200000F028FF0146284603F004F8B442F1D10C
:105130005C20BDE8704001F08DBE00BF0050005201
:1051400000440258440D0024014805F011B800BF86
:10515000F80C0024084B1A1D981D03F1080110B427
:105160009C1C9A6603F10A02C3E91834C3E91B01C7
:105170005DF8044B5A677047E80C002438B50368A3
:1051800071B9026A00F1280500F5AC74012A0CBF60
:10519000002140218BBB1D4B5722C0F858310DE038
:1051A000426A00F1C00500F5E874012A0CBF002135
:1051B0004021EBB1164B5A22C0F8D03100232046D3
:1051C000C4E901214FF480524FF48061636262614F
:1051D0004FF48042C4E903314FF48073C4E90623DD
:1051E0004FF40033236201F09BFF58B1FFBEFEE78E
:1051F000084B5822C0F8D031E0E7074B5922C0F8DD
:105200005831DBE7C5E92044A56338BD10000240F2
:105210007000024028000240580002402DE9F0438F
:10522000821D05468BB0031D05F10A010830CDE94A
:10523000052305F10C02AB69CDE907010992002BAA
:105240003DD0EB69B3FA83F84FEA581801230222E4
:1052500005AE0AAF4FF006090393CDE9012356F8D6
:10526000044B2B792278934216D02B68F3B1012B93
:1052700002D1F2B10A230493204600F07BFE0346DC
:105280002046009300F06EFE694602F013FEBE4217
:10529000E5D10BB0BDE8F083697963789942E4D138
:1052A000B8F1000FF3D02B68002BE0D1CDF81090AF
:1052B000E2E76378022B14BF0A230823DBE74FF0F1
:1052C0000108C3E7534A0368934230B505468BB0E3
:1052D00055D02032934252D04F4A934204D02032CC
:1052E000934201D00BB030BD4C4C4D48D4F8E03067
:1052F00043F00103C4F8E030D4F8E03003F00103D8
:105300000593059BD4F8E03043F00803C4F8E0307F
:10531000D4F8E03003F008030693069BD4F8E0309D
:1053200043F04003C4F8E030D4F8E03003F0400329
:105330000793079BD4F8F03043F40003C4F8F0302F
:10534000D4F8F03003F400030893089BFFF766FFDE
:10535000D4F8D830296843F001032F4A3048C4F804
:10536000D830891AD4F8D83018BF012103F00103CE
:105370000993099B0BB0BDE83040FFF7FFBE274CF7
:105380002848D4F8E03043F00103C4F8E030D4F802
:10539000E03003F001030093009BD4F8E03043F0C9
:1053A0001003C4F8E030D4F8E03003F010030193A8
:1053B000019BD4F8E03043F04003C4F8E030D4F867
:1053C000E03003F040030293029BD4F8F03043F442
:1053D0008003C4F8F030D4F8F03003F48003039372
:1053E000039BFFF71BFFD4F8D830296843F0010373
:1053F000084A0C48C4F8D830891AD4F8D83018BFF5
:10540000012103F001030493049B0BB0BDE830407D
:10541000FFF7B4BE04580140045C01400044025848
:10542000BC0F0024600D0024014802F0F1B900BF58
:10543000B80E0024014802F0EBB900BF300F002481
:10544000014802F0E5B900BF14110024014802F040
:10545000DFB900BF8C1100241A4A0368934210B4CC
:105460000BD02032934208D0174A934216D02032F4
:10547000934213D05DF8044B7047144B0022D3F8CD
:105480005442C3F85822002CF4D0D3F84802D3E990
:10549000931223465DF8044B520818470B4B002229
:1054A000D3F8B044C3F8B424002CE3D0D3F8AC2430
:1054B000D3F8A814D3F8A404520823465DF8044B8B
:1054C000184700BF04580140045C0140600D0024EF
:1054D000184A0368934210B40BD02032934208D08C
:1054E000154A934217D02032934214D05DF8044BF2
:1054F0007047124BD3E994245208C3F85822002C69
:10550000F4D0D3E99201234601EB820100EB820043
:105510005DF8044B1847094BD3F8AC24D3F8B044DA
:105520005208C3F8B424002CE0D0D3F8A814D3F860
:10553000A404E8E704580140045C0140600D002425
:105540002DE9F04F0C684FF41776754F87B004FBC8
:1055500006F6012C07EB060AC0F800A000F3A080B5
:105560000D468E464FF00008D44669A3D3E90023C8
:1055700069A1D1E90001CDE9022306ABCAF8508246
:1055800003EB8403CDE9040153F810BC53F8083C45
:10559000CAE992880193BEE80F00ACE80F00BEE8AC
:1055A0000F00ACE80F00019B9EE80300CAF828B08A
:1055B000CAF8C0308CE803002B69042B0CD8DFE854
:1055C00003F0737D879103004FF41773554A03FB73
:1055D00004739A64C3F8E020AA692B6A002A43D0B6
:1055E000002B4FF4177308BF022203FB047318BF8C
:1055F0000322DA6201221A63EA696B6A002A40D147
:10560000191E4FF4177318BF012103FB0473C3E97C
:1056100031126B69022B05D8434A12F80380434AC2
:1056200052F823904FF4177306F12800424649467A
:1056300003FB04740023384463646363E365C4F8C4
:10564000DC30C4F8CC30C4F8F430C4E90F33C4E91A
:105650001533C4E93533C4E93B33022306F02AFE8F
:10566000002849D0FFBEFEE7191E4FF4177318BF7C
:10567000012103FB0473C3E90B12EA696B6A002A78
:10568000BED0002B4FF4177308BF022203FB047334
:1056900018BF0322C3F8C4200122C3F8C820B8E70A
:1056A000012007B0BDE8F08F4FF417734FF4FA52A2
:1056B00003FB04739A64C3F8E0208DE74FF417737B
:1056C0004FF47A5203FB04739A64C3F8E02083E733
:1056D0004FF417734FF4FA4203FB04739A64C3F850
:1056E000E02079E74FF417734BF6803203FB047325
:1056F0009A64C3F8E0206FE706F1C0000223424637
:105700004946384406F0D6FD0028CAD0FFBEFEE761
:1057100004580140045C014024580140245C0140CD
:10572000600D0024007701007454010878540108CA
:105730000068704770B5046882B015460E46C4F81C
:105740005032C4E99212069AC4F85422A269012A7E
:1057500026D0626A012A9AB211D0294604F1C0000B
:10576000019206F063FE236A019A012B10D02946AC
:1057700004F1280006F05AFE002002B070BD04F1CA
:10578000C000019206F0E4FE236A019A012BEED1DB
:10579000314604F1280006F0DBFE002002B070BDA7
:1057A000226A012A9AB211D0294604F128000192F6
:1057B00006F03CFE636A019A012B10D0294604F1E1
:1057C000C00006F033FE002002B070BD04F12800D6
:1057D000019206F0BDFE636A019A012BEED13146BB
:1057E00004F1C00006F0B4FE002002B070BD00BF9E
:1057F00003681B69042B05D8044A02EB830393ED6D
:10580000000A70479FED020A704700BF84540108E8
:1058100000803B470368D3F858027047704700BFC9
:1058200008B500F0AFFCBDE8084001F08FBB00BF39
:10583000064808B503680BB102F04EFD0448036842
:105840001BB1BDE8084003F03DBC08BD281600248C
:1058500020120024064808B503680BB102F03CFD95
:10586000044803681BB1BDE8084003F02BBC08BD29
:105870002816002420120024064808B503680BB13E
:1058800002F02AFD044803681BB1BDE8084003F09C
:1058900019BC08BD2816002420120024364BDA6AF1
:1058A000520062D59A6A9A6A9A6A9B6A180600D56B
:1058B00000BE314B9B6A990600D500BE2E4B9B6AF9
:1058C000DA0600D500BE2C4B9B6A1B0700D500BE34
:1058D000294B9B6A980700D500BE274B9B6AD907C6
:1058E00000D500BE244B9B6A1A0400D500BE224B93
:1058F0009B6A9B0400D500BE1F4B9B6AD80400D551
:1059000000BE1D4B9B6A190500D500BE1A4B9B6A51
:105910005A0500D500BE184B9B6A9B0500D500BEFA
:10592000154B9B6AD80500D500BE134B9B6A9901A5
:1059300000D500BE104B9B6ADA0100D500BE0E4BAD
:105940009B6A1B0300D500BE0B4B9B6A580300D516
:1059500000BE094B9B6A990300D500BE064B9B6AAB
:10596000DA0306D400BE00BEFEE7DB6A9B07FAD569
:10597000F8E700BEF6E700BF00ED00E000F00EBC67
:1059800000F012BC2DE9F041CEB004464C220021BB
:105990000AA80DF08BFB2022002102A80DF086FB47
:1059A000BC2200211EA80DF081FB022003F0FEFFA7
:1059B0002368012B4FF0000354D0534A0225019372
:1059C000C820D16A514B21F00101D162D26A02F0A4
:1059D000010201929A6942F440429A619B6903F480
:1059E00040430193019B494A93699B04FCD5484974
:1059F0000224002201268B6A04274FF0080823F0B6
:105A0000030323438B62052316900AA818934FF4CF
:105A100080331096179419941597CDF86880CDE9C6
:105A20001B222122CDE91344CDE90A2304F0A8FC6E
:105A300000B1FEE73F220323294602A8CDE9022355
:105A400000220823CDE9042340224023CDE9062388
:105A500040234FF48062CDE9082304F0BFFF0346E2
:105A6000B8B1FEE7294A04250093F0209169264B3E
:105A700041F440419161926902F440420092DA6A35
:105A800042F00102DA62DB6A03F001030093009B3B
:105A9000A9E720224FF4805125934FF440152B9213
:105AA00080222D931EA83093269135914FF480715A
:105AB000249234920C223394439140F22711209285
:105AC0001022CDF884802A971F96CDE92E34CDE997
:105AD0003B334FF48033CDE9224631930024469383
