:020000040800F2
:10000000000002203D19000839190008FD7C000895
:1000100039190008391900083919000800000000D2
:100020000000000000000000000000003919000876
:10003000391900080000000039190008817C000807
:100040003919000839190008391900083919000848
:100050003919000839190008391900083919000838
:10006000391900083919000839190008196A0008F7
:10007000256A000875590008316A00083D6A0008C1
:10008000BD1F0108495F0008391900083919000827
:1000900039190008391900083919000839190008F8
:1000A00039190008391900083919000839190008E8
:1000B000911301089D130108A91301087D5F000831
:1000C00039190008895F000839190008F17500081E
:1000D000FD750008F11D0108211E0108551E0108CB
:1000E0003919000839190008000000003919000802
:1000F0003919000839190008391900083919000898
:100100003919000839190008B513010809760008E3
:10011000891E0108BD1E0108391900083919000897
:1001200039190008391900082D7600086176000891
:10013000F11F010839190008391900083919000898
:1001400000000000000000000000000000000000AF
:10015000391900083919000839190008F11E010879
:10016000955F000839190008917C0008B57C0008EB
:1001700039190008D97C0008391900083919000814
:100180003919000839190008251F0108551F0108F1
:100190001576000821760008391900083919000879
:1001A00039190008391900083919000839190008E7
:1001B0003967000839190008391900083919000889
:1001C00039190008391900083919000839190008C7
:1001D00039190008391900083919000839190008B7
:1001E00039190008391900083919000839190008A7
:1001F0003919000839190008391900083919000897
:100200003919000839190008391900083919000886
:100210003919000839190008391900083919000876
:1002200039190008391900083919000800000000C0
:1002300039190008391900080000000039190008B0
:100240003919000839190008391900083919000846
:100250003919000839190008391900083919000836
:100260003919000839190008391900083919000826
:100270003919000839190008891F01080000000019
:100280003919000839190008391900080000000060
:0802900000000000391900080C
:1002A00010B5054C237833B9044B13B10448AFF3B0
:1002B00000800123237010BDF00300240000000023
:1002C000BC78010808B5034B1BB103490348AFF3E1
:1002D000008008BD00000000F4030024BC78010881
:1002E00010F8012B11F8013B012A28BF9A42F7D0E0
:1002F000D01A7047034613F8012B002AFBD1181AB5
:1003000001387047000000000000000000000000FD
:1003100001F0FF01102A2BDB10F0070F08D010F8B6
:10032000013B013A8B422DD010F0070F42B3F6D1BA
:10033000F0B441EA012141EA014122F007047FF0D3
:1003400000070023F0E80256083C85EA010586EA2A
:10035000010685FA47F5A3FA87F586FA47F6A5FA66
:1003600087F68EB9EED1F0BC01F0FF0102F0070272
:1003700032B110F8013B013A83EA010313B1F8D11D
:100380000020704701387047002D06BF35460338FE
:10039000073815F0010F07D1013015F4807F02BF37
:1003A000013015F4C03F0130F0BC0138704700BF88
:1003B00081F0004102E000BF83F0004330B54FEA16
:1003C00041044FEA430594EA050F08BF90EA020F83
:1003D0001FBF54EA000C55EA020C7FEA645C7FEA16
:1003E000655C00F0E2804FEA5454D4EB5555B8BF39
:1003F0006D420CDD2C4480EA020281EA030382EAAA
:10040000000083EA010180EA020281EA0303362D3B
:1004100088BF30BD11F0004F4FEA01314FF4801C0E
:100420004CEA113102D0404261EB410113F0004F20
:100430004FEA03334CEA133302D0524263EB4303D7
:1004400094EA050F00F0A780A4F10104D5F1200E75
:100450000DDB02FA0EFC22FA05F2801841F10001D0
:1004600003FA0EF2801843FA05F359410EE0A5F1A4
:1004700020050EF1200E012A03FA0EFC28BF4CF0D5
:10048000020C43FA05F3C01851EBE37101F000458B
:1004900007D54FF0000EDCF1000C7EEB00006EEB98
:1004A0000101B1F5801F1BD3B1F5001F0CD3490822
:1004B0005FEA30004FEA3C0C04F101044FEA445279
:1004C00012F5800F80F09A80BCF1004F08BF5FEA00
:1004D000500C50F1000041EB045141EA050130BDE0
:1004E0005FEA4C0C404141EB0101013C28BFB1F5F2
:1004F000801FE9D291F0000F04BF01460020B1FA3D
:1005000081F308BF2033A3F10B03B3F120020CDA0F
:100510000C3208DD02F1140CC2F10C0201FA0CF0ED
:1005200021FA02F10CE002F11402D8BFC2F1200C52
:1005300001FA02F120FA0CFCDCBF41EA0C01904008
:10054000E41AA2BF01EB0451294330BD6FEA040451
:100550001F3C1CDA0C340EDC04F11404C4F120023C
:1005600020FA04F001FA02F340EA030021FA04F34E
:1005700045EA030130BDC4F10C04C4F1200220FAA5
:1005800002F001FA04F340EA0300294630BD21FAE3
:1005900004F0294630BD94F0000F83F4801306BFA9
:1005A00081F480110134013D4EE77FEA645C18BF9D
:1005B0007FEA655C29D094EA050F08BF90EA020F34
:1005C00005D054EA000C04BF1946104630BD91EA2C
:1005D000030F1EBF0021002030BD5FEA545C05D12F
:1005E0004000494128BF41F0004130BD14F580046E
:1005F0003CBF01F5801130BD01F0004545F0FE41E2
:1006000041F470014FF0000030BD7FEA645C1ABF16
:10061000194610467FEA655C1CBF0B46024650EA4D
:10062000013406BF52EA033591EA030F41F4002179
:1006300030BD00BF90F0000F04BF0021704730B5FF
:100640004FF4806404F132044FF000054FF00001D4
:1006500050E700BF90F0000F04BF0021704730B595
:100660004FF4806404F1320410F0004548BF40426A
:100670004FF000013EE700BF42004FEAE2014FEABF
:1006800031014FEA02701FBF12F07F4393F07F4F9A
:1006900081F06051704732F07F4208BF704793F09D
:1006A0007F4F04BF41F40021704730B54FF46074B0
:1006B00001F0004521F000411CE700BF50EA0102B3
:1006C00008BF704730B54FF000050AE050EA01025C
:1006D00008BF704730B511F0004502D5404261EBCC
:1006E00041014FF4806404F132045FEA915C3FF40D
:1006F000D8AE4FF003025FEADC0C18BF03325FEAAA
:10070000DC0C18BF033202EBDC02C2F1200300FA5A
:1007100003FC20FA02F001FA03FE40EA0E0021FA7F
:1007200002F11444BDE600BF53B94AB9002908BF1D
:1007300000281CBF4FF0FF314FF0FF3000F074B9BC
:10074000ADF1080C6DE904CE00F006F8DDF804E028
:10075000DDE9022304B070472DE9F047089D044607
:100760008E46002B4DD18A42944669D9B2FA82F264
:1007700052B101FA02F3C2F1200120FA01F10CFAA0
:1007800002FC41EA030E94404FEA1C48210CBEFBD8
:10079000F8F61FFA8CF708FB16E341EA034306FB61
:1007A00007F199420AD91CEB030306F1FF3080F0F0
:1007B0001F81994240F21C81023E63445B1AA4B23D
:1007C000B3FBF8F008FB103344EA034400FB07F7DF
:1007D000A7420AD91CEB040400F1FF3380F00A8120
:1007E000A74240F207816444023840EA0640E41B15
:1007F00000261DB1D4400023C5E900433146BDE8C1
:10080000F0878B4209D9002D00F0EF800026C5E962
:10081000000130463146BDE8F087B3FA83F6002E7A
:100820004AD18B4202D3824200F2F980841A61EBF2
:10083000030301209E46002DE0D0C5E9004EDDE710
:1008400002B9FFDEB2FA82F2002A40F09280A1EBF8
:100850000C014FEA1C471FFA8CFE0126200CB1FB4D
:10086000F7F307FB131140EA01410EFB03F0884246
:1008700008D91CEB010103F1FF3802D2884200F2D3
:10088000CB804346091AA4B2B1FBF7F007FB101165
:1008900044EA01440EFB00FEA64508D91CEB040403
:1008A00000F1FF3102D2A64500F2BB800846A4EB5E
:1008B0000E0440EA03409CE7C6F12007B34022FA49
:1008C00007FC4CEA030C20FA07F401FA06F31C4378
:1008D000F9404FEA1C4900FA06F3B1FBF9F8200C85
:1008E0001FFA8CFE09FB181140EA014108FB0EF0CB
:1008F000884202FA06F20BD91CEB010108F1FF3A1B
:1009000080F08880884240F28580A8F10208614426
:10091000091AA4B2B1FBF9F009FB101144EA014134
:1009200000FB0EFE8E4508D91CEB010100F1FF34DF
:100930006CD28E456AD90238614440EA0840A0FB77
:100940000294A1EB0E01A142C846A64656D353D04D
:100950005DB1B3EB080261EB0E0101FA07F722FA71
:1009600006F3F1401F43C5E9007100263146BDE89A
:10097000F087C2F12003D8400CFA02FC21FA03F3FD
:10098000914001434FEA1C471FFA8CFEB3FBF7F07E
:1009900007FB10360B0C43EA064300FB0EF69E42A3
:1009A00004FA02F408D91CEB030300F1FF382FD23C
:1009B0009E422DD9023863449B1B89B2B3FBF7F6E4
:1009C00007FB163341EA034106FB0EF38B4208D9BD
:1009D0001CEB010106F1FF3816D28B4214D9023EFE
:1009E0006144C91A46EA004638E72E46284605E71C
:1009F0000646E3E61846F8E64B45A9D2B9EB0208ED
:100A000064EB0C0E0138A3E74646EAE7204694E77C
:100A10004046D1E7D0467BE7023B614432E73046AF
:100A200009E76444023842E7704700BFF0EE407ABD
:100A300017281ED8DFE810F028012501220119012E
:100A40000701F300D200C400B600A8009A008C0091
:100A500081007600180069005D00510046003B00EF
:100A6000380035002E002000B5EE400AF1EE10FAF5
:100A700050D19FED870A7047B5EE400AF1EE10FAAB
:100A800004D1F5EE400AF1EE10FAF2D0B0EE670AAA
:100A900013F0F0BFB5EEC00AF1EE10FAE9DD13F085
:100AA0004FBD80FE600A704780FE200A7047B4EE9A
:100AB000E00ADFED777AB7EE000AF1EE10FA20FED9
:100AC000270A7047B4EEE00ADFED717AB7EE000A4C
:100AD000F1EE10FA30FE270A7047B4EEE00ADFEDBF
:100AE0006C7AB7EE000AF1EE10FA88BFB0EE670A32
:100AF0007047B4EEE00ADFED667AB7EE000AF1EE79
:100B000010FA58BFB0EE670A7047B5EE400AF1EE32
:100B100010FA04D1F5EE400AF1EE10FAA9D0B7EEC2
:100B2000000A7047B4EE600A9FED590AF7EE007AAA
:100B3000F1EE10FA00FE270A7047B4EE600A9FED4E
:100B4000540AF7EE007AF1EE10FA07FE800A7047B9
:100B5000BDEEC00AFDEEE00A10EE103A10EE902A4B
:100B6000134300EE103AB8EEC00A7047BDEEC00A5B
:100B7000FDEEE00A10EE103A10EE902A534000EE1F
:100B8000103AB8EEC00A7047BDEEC00AFDEEE00AAA
:100B900010EE103A10EE902A134000EE103AB8EE24
:100BA000C00A7047BDEEC00AFDEEE00A10EE103A32
:100BB00010EE902A134100EE103AB8EEC00A7047CA
:100BC000BDEEC00AFDEEE00A10EE103A10EE902ADB
:100BD000934000EE103AB8EEC00A7047F5EE400AB6
:100BE000F1EE10FA3FF445AFFDEEC07A17EE903A01
:100BF000FDEEE07A17EE902A93FBF2F102FB11333F
:100C000007EE903AB8EEE70AB5EEC00AF1EE10FA38
:100C10007FF531AFF0EEE00A30EE200A7047BDEE0E
:100C2000E07A17EE102A002A3FF423AFFDEEC07AD7
:100C300017EE903A93FBF2F102FB113300EE103AFB
:100C4000B8EEC00A7047BDEEE07A17EE103A002BFE
:100C50003FF40FAFBDEEC00A10EE102A92FBF3F383
:100C600000EE103AB8EEC00A7047F5EE400AF1EE19
:100C700010FA3FF4FEAE87EEA00A704720EE200A7D
:100C8000704730EE600A704730EE200A704700BFB0
:100C900000000000F8B500AFBD69AB880BB9BD46D8
:100CA000F8BD044610462A7A012AF8D1012B12D148
:100CB00084B06E46F0EE400A95ED030AFFF7B6FEEB
:100CC0002968304600F05AF9324600212046FB6977
:100CD0009847BD46F8BD2B7C012BE9D184B095ED3A
:100CE000050A6E46E6E700BFF0B5012983B0054668
:100CF00000AF05D0022922D091B10C37BD46F0BD1E
:100D00009A88002AF9D01A7A012AF6D184B0196893
:100D100093ED030A6A4610467A6000F02FF906E068
:100D200084B019686A4610467A6000F031F97A6832
:100D300000213B6A284698470C37BD46F0BD9A888B
:100D40002AB31C7A012C15D0022C0ED0002CD4D141
:100D500084B01968114A6E46304600F025F93246D3
:100D6000214628463B6A9847C7E71A4600213B6A56
:100D70009847C2E784B01968094A6C46204600F0DB
:100D800013F92246002128463B6A9847B5E7054BF0
:100D90006421054A054813F0FDFF00BF24630108E4
:100DA0002C630108F0620108346301081063010834
:100DB0002DE9F04104460D46164601F037FC88B196
:100DC000284600F0D1F90746204601F02FFC2B46BB
:100DD00080463A4620463146C0473846BDE8F04195
:100DE00014F048B8BDE8F0810346012200201A70D3
:100DF00083ED010A704700BF38B505460C4608462A
:100E000031B92960C5E90100C5E90344204638BD70
:100E100014F028F8286038B10023C5E90100036008
:100E20002046C5E9034438BD024B3121024A03483C
:100E300013F0B0FF40630108EC6301085C63010834
:100E4000006814F017B800BF83681B685A1C02D1F1
:100E50000268136882601846704700BF01F10802FB
:100E60000369934270B4D0E9014508D304312144A9
:100E70008D4201D8A5421AD8201D70BC7047C168A8
:100E8000914214D3A54294BF002301237BB9066885
:100E9000324495420ED3466001613360BFF35E8FEA
:100EA00000684FF0FF330430236070BC70470020AF
:100EB00070BC70471846F8E701F1080208B50369ED
:100EC00093420FD35B1A426801F1040C043B0361A7
:100ED00002EB0C034360002342F80C30BFF35E8F3B
:100EE000116008BD024B6B21024A034813F052FF08
:100EF00074630108E06301085C630108806850F8CE
:100F0000043B0B60704700BF08B583681A681AB1CC
:100F100004321344836008BD024B7F21024A034818
:100F200013F038FFAC630108D46301085C63010867
:100F300008B5034A3A21034B034813F02BFF00BFC7
:100F4000D0640108F86301081063010808B5034A7A
:100F50006421034B034813F01DFF00BFE064010848
:100F6000F06201081063010808B50260818019B1C0
:100F70000131C900C18008BDFFF7DAFF034A80EDE7
:100F8000030AC0E90012012202727047010010003A
:100F9000002210B4034C0272C260C0E900145DF874
:100FA000044B70470100100070B501230446016036
:100FB0001046A3801646FFF79DF9054602233046EA
:100FC0001035E6602372ADB2E580FFF793F9034672
:100FD000204601331D44E58070BD00BF2DE9F04F70
:100FE000838883B00192002B5FD00133019AB2EB6A
:100FF000C30F4FEAC30952D30F4680464A46014603
:10100000384607EB090B13F03DFFB8F80420AAB3EC
:101010000C25012406E0944204F1010305F10805C2
:101020002CDA1C4618F834A0BAF1020FF3D158F8A4
:10103000051008460091FFF75DF9461C019BB1447D
:10104000009999451FD83246584614F08FFBB9884D
:10105000621E91421DDD584607F834A047F805B0DE
:10106000B344FFF747F9FB88B8F80420083501338B
:101070009442184404F10103F880D2DBA7F80690EB
:1010800003B0BDE8F08F0A4B49210A4A0A4813F021
:1010900081FE0A4B94210A4A0A4813F07BFE0A4B50
:1010A0004021044A044813F075FEFFF741FF00BFDA
:1010B0002C640108EC64010818640108F06201085E
:1010C00000650108106301080864010808B58388F9
:1010D000994214DA083010F8313000EBC100032BCC
:1010E00013D8DFE803F004020702406808BD4FF0A0
:1010F000FF3008BD4068BDE8084000F0DBBB044B92
:101100009221044A044813F045FE002008BD00BFA8
:1011100044640108C46401081864010838B5154620
:10112000828891421EDA0346083313F8312003EB1C
:10113000C103022A0ED0032A01D0002038BDFFF7D8
:10114000C5FF0446284600F0B5FB201AB0FA80F02F
:10115000400938BD29465868FFF7C2F8B0FA80F058
:10116000400938BDFFF7F2FE2DE9F04F85B08388C6
:1011700002AF002B00F0A7809A00002683460446A9
:101180000732DFF87CA13546386022F00702ADEB6C
:10119000020D0DF10808C146227A032A00F2A88048
:1011A000DFE802F04534300231465846FFF78EFF43
:1011B000524603460021084614F0A4FABBF8043056
:1011C0000130C9F8000001360544083409F104096A
:1011D0009E42E1DB2A467D603D68002A7FDD78681B
:1011E0003B6013F03FFE8246002872D03B68002B24
:1011F0003CD0002634462B7A032B76D8DFE803F068
:10120000594A401B0021E3683B4AD4E794ED037A36
:1012100000213A4AB7EEC77A08468DED007B14F0FC
:1012200071FA0130BBF80430C9F80000CBE70520A3
:10123000C9F80000C7E7D8F8009031465846FFF7D4
:1012400045FF2F4A034649460AEB040014F05AFAB8
:101250004C440136BBF8043020210AEB0402083567
:101260009E4208F1040802F8011CC4DB7B680022DE
:1012700050460C37534403F8012CBD46BDE8F08FAF
:10128000D8F800900AEB0400EB681B4A494614F0BA
:1012900039FADDE795ED037A0AEB0400D8F80090FF
:1012A000B7EEC77A154A49468DED007B14F02AFA4D
:1012B000CEE7D8F800900AEB0400124B0E4A4946DC
:1012C00014F020FAC4E7104BA021104A104813F084
:1012D00061FD104BB7210D4A0D4813F05BFD0E4B1D
:1012E000B2210A4A0A4813F055FDD8F80090AFE73A
:1012F000D9F8000067E700BF806401087C6401083A
:10130000846401082463010860640108B46401086E
:1013100018640108986401088C64010808B5034A40
:101320003821034B034813F035FD00BF4866010820
:10133000106501082465010838B504468D02284669
:10134000656013F08FFD206058B100232846C4E982
:101350000233C4E90433C4E90633C4E90833A362A1
:1013600038BD034B5721034A034813F013FD00BF58
:101370003C650108506601082465010870B5044603
:101380000025006804F1200613F074FDE068A8B1A0
:10139000236901E0034610464268C0E90053002A71
:1013A000F8D1E26000E04368236113F063FD206937
:1013B0000028F8D10834B442E8D170BD2069002873
:1013C000F1D10834B442E1D1F7E700BF38B50D469A
:1013D00020220021EB88013BB3FA83F3C3F11B0306
:1013E00023EAE37300EBC3049A40284613F058FD48
:1013F000206930B142682261E268C0E90052E060D1
:1014000038BD082013F02EFD0028F5D1FFF786FF28
:10141000CB88013BB3FA83F3C3F11B03032B2DE904
:10142000F04F83B04BDC23EAE3724FF0200889468B
:10143000824600EBC20508FA02F8EB681E46002B54
:1014400033D1D0E9012404F5007B5A453DD35C45F6
:1014500018D2016809E05A682A6144443246A3451B
:10146000C3E900761E46EB600ED92B690F19002BDD
:10147000F1D10820019113F0F5FC0346E8B1EE68C4
:101480000199EAE7D3E90072CAF808B04846EA6071
:1014900042462969596000212B6119603946FFF7DE
:1014A0009DFD384603B0BDE8F08F59684246484676
:1014B0001F68E96029695960EDE7FFF72FFF064BC8
:1014C0007921064A064813F065FC064B8421034A3D
:1014D000034813F05FFC00BF586501083866010837
:1014E000246501086065010808B5034A2921034BFA
:1014F000034813F04FFC00BF9866010858660108C6
:101500007066010808B549B1034600220C309A60A4
:10151000C3E90022BDE80840FFF70EBF024B1421CB
:10152000024A034813F036FC88660108B4660108D5
:1015300070660108F8B50468054624B300F10C078D
:101540000026A1683846FFF741FF6368A660AA68D5
:10155000C4E903662B602BB11E60C4E90062AC6075
:101560001C46EEE76B60C4E9003200E0626820468A
:10157000AA6013F07FFCAC68002CF7D13846BDE8B8
:10158000F840FFF7FBBE846800F10C07002CEDD19A
:101590003846BDE8F840FFF7F1BE00BFF0B58468FB
:1015A00083B0054617461E46B4B16368AB6005F1CB
:1015B0000C00FFF72DFF00226B682761E660A0603A
:1015C000C4E9002223B15C6023606C6003B0F0BD0D
:1015D000C5E9004403B0F0BD1420019113F042FCB2
:1015E0000199A86018B1234644600446DEE7FFF77E
:1015F0007BFF00BF2DE9F0410568002D35D08568DF
:1016000004460E4690461F46002D32D06B68314688
:10161000A36004F10C00FFF7FBFE23683668A860A6
:101620009A68C5F810801268EF60964206D20022D0
:101630006B601D602A602560BDE8F081626891687A
:101640000968B14206D80023C5E9002355606560EA
:10165000BDE8F08119465B689A681268B242F9D910
:101660004D60C5E900131D60E6E7BDE8F041FFF7F6
:1016700095BF142013F0F6FBA06018B12B4645600F
:101680000546C4E7FFF730FF38B505688DB104465D
:10169000A9680C30FFF79AFE00236A68AB60C5E9C1
:1016A0000333226032B11360A2680023C5E900321F
:1016B000A56038BD6260F7E770B505688DB1AB68AD
:1016C000064699420FD06C6824B90AE06068254646
:1016D000044638B1A3688B42F8D16AB1E3689342FB
:1016E0000AD0002070BD12B1EB689342F9D13046A8
:1016F000FFF7CAFF012070BD06F10C00FFF766FE80
:1017000072680023A242A360C4E903330AD063686D
:101710006B6063681D60B26800230120C4E9003279
:10172000B46070BD6B607560F5E700BF08B5034A33
:101730007921034B034813F02DFB00BFD06601084D
:10174000F0620108106301080346002200215A607C
:10175000084619609A60DA60704700BF38B51D46C8
:101760009B880C46A3B9254A00212846FFF7D6FCE2
:1017700068B1D4ED017A002294ED027A0023226050
:1017800077EE877AA360C4ED017AC4ED037A38BDA1
:101790002A7A012AE7D1012B07D1EB680021002228
:1017A00021606360A260E36038BD2B7C012BF4D123
:1017B00095ED050A00F054FF2368002B19DD94ED28
:1017C000017AD4ED027A37EE277AAB8884ED017A7C
:1017D00020608BB1D5ED036A07EE900A36EEC77A2A
:1017E000C4ED036AF8EEE77AC7EE276AC4ED026A31
:1017F00038BD94ED037AE8E7FFF798FFC866010863
:101800009FED076B0346002286EE007B1046C3E97E
:101810000022B7EEC77B83ED027A7047AFF30080FA
:10182000000000000000F0410346002083ED000AA4
:10183000704700BF938803B97047137A012BFBD11F
:10184000D3680B60704700BF2DE9F04185688D4279
:1018500021D001F1010804460E4600684FEA8801D4
:1018600013F0F4FE0746AD00C0B1A068B04209D342
:10187000A8EB0505A660C4F80C80281FC4E9007613
:10188000BDE8F081A8EB0002002107EB8000920088
:1018900013F006FBECE70020BDE8F081024B462187
:1018A000024A034813F076FA10670108246701081A
:1018B000FC66010810B5044648B3FEF71BFD03287B
:1018C00035D9A0F1040C02461A492CF0030C0CF196
:1018D000040CA44454F8043B01FB02F201FB03F3A3
:1018E000644583EA136301FB03F382EA0302F1D147
:1018F00000F0030002280FD0032809D001280FD0E0
:1019000082EA52330B4803FB00F080EAD03010BD6E
:101910009CF8023082EA03429CF8013082EA0322FA
:101920009CF800300349534001FB03F2E8E702460C
:10193000A446DFE795E9D15BFEE700BF0B480C4A00
:10194000904203D0121A0B4913F09CFA0A480B4A32
:10195000904203D0121A002113F0A2FA06F0F8FB0D
:1019600013F05CFA02F058FAFEE700BF0000002412
:10197000F0030024EC780108F0030024B83F0024B1
:101980004069704790ED020B704700BF00697047D7
:1019900007EE901A9FED065BB8EE677B90ED026B49
:1019A00027EE057B87EE060BB7EEC00B704700BF36
:1019B0000000000000408F4081657047806D7047D7
:1019C00001657047006D704741657047406D704715
:1019D00008B50368D3F88C30984700B1006808BD9B
:1019E00008B50368D3F88C30984700B1406808BD4B
:1019F0000023BFF35B8F80F8843070470000000045
:101A0000B0B582B004460D46002100AF84B06A46EE
:101A100010467A60FFF7BCFA23687A682946DB6CC7
:101A200020469FED030B98470837BD46B0BD00BF69
:101A30000000000000000000B0B582B004460D4672
:101A4000002100AF84B06A4610467A60FFF796FA2C
:101A500023687A682946DB6C20469FED030B984784
:101A60000837BD46B0BD00BF000000000000000008
:101A7000F8B500AF8AB184B004460D4600216E4629
:101A80003046FFF791FA236832462946DB6C204640
:101A90009FED050B9847BD46F8BD054B5321054A00
:101AA000054813F077F900BF0000000000000000B7
:101AB00034670108446701088C67010884304FF0DF
:101AC0000102D0E84F3FC0E8412F0029F9D1DBB235
:101AD000BFF35B8F002BF2D1704700BF4FF00102C4
:101AE0008430D0E84F3FC0E8412F0029F9D1D8B267
:101AF000BFF35B8F80F00100704700BF1830FFF725
:101B0000DBBD00BF036810B5D3F88C30144698478E
:101B100018B12146FFF798FE012010BD000000001B
:101B2000DFED0B7A90ED025B87FE800AB7EEC00A0C
:101B30009FED056B20EE050B80EE067BFCEEC77B70
:101B400017EE900A704700BF0000000000408F4071
:101B500000000000F8B5DE8800F170051C4617464D
:101B6000043628463146FFF779F960B10146E2882C
:101B7000204641F8047BFFF731FA31462846BDE89C
:101B8000F840FFF799B9034B1E21034A034813F0AD
:101B900001F900BFA4670108706801088C6701089B
:101BA00010B50C1E82B00ADD5C300190FFF748F9D9
:101BB000A102019802B0BDE81040FFF71DB9034B28
:101BC000B921034A034813F0E5F800BFC8680108CB
:101BD000D86801088C67010810B50C1E82B00ADDB8
:101BE00070300190FFF72CF9A102019802B0BDE816
:101BF0001040FFF701B9034BBF21034A034813F01C
:101C0000C9F800BF14690108246901088C6701083C
:101C10002DE9F04317469846026D0E46294B0021E8
:101C200083B09A42316046D1054600F1850C4FF0F1
:101C3000010EDCE84F4FCCE843EF002BF9D1E4B2C2
:101C4000BFF35B8F002CF2D105F170094846FFF716
:101C5000FBF8A8B101A948460194FFF74FF9C0B1BC
:101C6000019A132A1BD990451FD3014638460124F7
:101C700051F8043B336013F005F94846FFF744F987
:101C800000232046BFF35B8F85F8853003B0BDE8A5
:101C9000F0830D4BCF210D4A0D4813F07BF80D4B0F
:101CA000D0210A4A0A4813F075F80B4BD121074A94
:101CB000074813F06FF8094BC721044A044813F092
:101CC00069F800BF551B0008586A0108086A010836
:101CD0008C6701089C6A0108C46A010860690108F0
:101CE0002DE9F84F2DED028B9FED338BB4EEC80B31
:101CF000F1EE10FA59DB1746002A50D0036805466A
:101D0000314A88469B6988FE008B066993423ED122
:101D100090ED020B9FED2A6B05F1840380EE067BAC
:101D200027EE087BBCEEC77B17EE102A324416461E
:101D30004FF0010CD3E84F4FC3E842CF002AF9D14E
:101D4000E4B2BFF35B8F002CF2D1B7F806A005F127
:101D50005C0B0AF1040A58465146FFF77FF88146AA
:101D6000B8B10146FA88384641F8048BFFF736F9D6
:101D700058465146C9F80460FFF79EF8BFF35B8FE1
:101D800085F884400120BDEC028BBDE8F88F9847B0
:101D9000C0E70E4B83210E4A0E4812F0FBFF0E4B9C
:101DA00074210B4A0B4812F0F5FF0C4B7321084AC3
:101DB000084812F0EFFF00BF000000000000000024
:101DC0000000000000408F4085190008B46B010836
:101DD000546B01088C670108A46B0108446B01086F
:101DE0002DE9F04F2DED048B9FED719B43EC182BEB
:101DF00085B0B4EEC98B00AFF1EE10FABE6CC0F244
:101E0000D080002E00F0C78007F14C038246304698
:101E10008946FB60FEF76EFA8346002800F0B58025
:101E2000C3006749DAF8102089FE089B0833ADEB40
:101E3000030DDAF800309B69E8468B4240F082805F
:101E40009AED020B29EE009B59464046013E45465D
:101E500000249FED596B89EE067BBCEEC77B17EE25
:101E6000103A13441A46FFF77FF816F8013F623B19
:101E7000112B11D8DFE803F0091010104E103E109E
:101E800010101010101010101023B8F80430A342D6
:101E900063DD00232B72EB6001340835A345E4DCDD
:101EA000DAF80030B0EE480B424649465046DB6C4B
:101EB00098471437BD46BDEC048BBDE8F08FFB6836
:101EC000B8F80420191D1868A242F9603FDD002807
:101ED00055D00223E860013408352B70FEF70AFA6A
:101EE000B8F80630A34503F101031844A8F806002A
:101EF000BBDCD5E7FB68B8F80420191D1B68A242BB
:101F0000F96036DD01340322EB600835A3452A7001
:101F1000ABDCC5E7FB68B8F804200733A24223F026
:101F2000070393ED007B03F10803B7EEC77BFB606B
:101F300019DD0134012385ED037A0835A3452B70A3
:101F400093DCADE77A60504698477A687AE71D4B94
:101F500094211D4A1D4812F01DFF1A4B69211C4A8D
:101F60001A4812F017FF174B73211A4A174812F03C
:101F700011FF144B8221184A144812F00BFF174B23
:101F80009521114A114812F005FF154B3A21154AC7
:101F90000E4812F0FFFE144B5C21144A144812F054
:101FA000F9FE144B5B21114A114812F0F3FE00BFF9
:101FB00000000000000000000000000000408F4012
:101FC00085190008F0620108906D0108106301088E
:101FD000146D0108386D0108646D0108C46D0108B5
:101FE000F8630108F46C0108E06C0108886C0108D2
:101FF0008C670108446B0108B5EEC00B70B5F1EEBB
:1020000010FA1D46294B80ED020B036036DD0029D6
:1020100046DD002A16463DDD002D35DB4FF000037E
:1020200004460361C0E915330CBF2B46204B183022
:1020300083630023BFF35B8F80F86C30BFF35B8F4B
:1020400080F86D30882340F8043CFFF75BFA636941
:10205000B102034404F15C006361FEF7CDFE6369E5
:102060000246A90204F1700013446361FEF7C4FE46
:102070006369024620461344636170BD0D4B2721FE
:102080000D4A0E4812F086FE0D4B2A210A4A0B48D3
:1020900012F080FE0B4B2921074A084812F07AFE05
:1020A000094B2821044A054812F074FE3C6E0108D1
:1020B000551B0008D06D0108E46D01088C6701080C
:1020C000246E0108C8680108186E0108084B10B595
:1020D000044640F8183BFFF72DFA04F15C00FEF7C8
:1020E000AFFE04F17000FEF7ABFE204610BD00BF4E
:1020F0003C6E010800487047D06E01080020704710
:1021000002207047002070476AB1012932D00229AD
:102110001FD051B1002300211A4851601172106084
:10212000D36013615361032070474FF07E504FF02E
:102130007C534FF0000C1172134910610320C2F858
:102140000CC05160536110B4104C14605DF8044B26
:1021500070474FF07E5C4FF07C500D490D4B506145
:102160000320C2F810C0C2E900130021002311723D
:10217000D36070474FF07E5C4FF07C500649074BB0
:10218000EDE700BF006F0108B6C52DFBE06E01084A
:10219000F86E01089D7DBF44E86E0108D9F81CDF88
:1021A000034B10B504460360FFF790FF204610BDB7
:1021B000EC6F0108054B10B504460360FFF786FF7E
:1021C000B821204612F071F8204610BDEC6F0108CE
:1021D000B0B5114600AF82B0056801EB83046A46D2
:1021E0002D6CC2E900140021A847BD46B0BD00BF58
:1021F0002DE9F84300AF2BB316466A4600211D4671
:10220000A2EBC3024FEA850995460268E846546C82
:102210004246A047002308EB85041A46002D09DD3D
:1022200008EB830106EB820C51F804EBA1424CF859
:1022300008EBF9D12B444C4412B1BD46BDE8F883FC
:102240000122EBE7034B40F22911034A034812F045
:10225000A1FD00BF186F0108246F0108746F010809
:1022600000F1B001FFF7E6BA30B5002383B01446A1
:10227000084905469FED080A01910222194600947B
:10228000FEF708FD054A2146284603B0BDE8304068
:10229000FEF78EBD612200080000FA44946F010829
:1022A0002DE9F043044683B015461E4600F15C0854
:1022B00014E0002301A940460193FEF71FFE019B95
:1022C0000246132B40F292802368204652F8041BEA
:1022D000D3F8903098474046FEF716FE4046FEF78A
:1022E000B3FD07460028E4D1002ED4F8108076DD37
:1022F00006EB0809A06908F1010870B1826813684B
:1023000098450AD9D0E903312046984704F11800CE
:10231000FFF7BAF9A0690028F0D1D4F88830B7EEF9
:10232000004AF6EE004ADFED346A590AB5EE005A6B
:1023300094ED2C6A41F07E5294ED247ADFED2F5A11
:1023400007EE902A27EE067AD4F8941077EEC47A36
:102350009FED2B6ABDEEC77A002977EEE47A17EE7F
:10236000102AF0EEE77A1A44C4F8882077EEC57A8E
:1023700067EEA67A67EEA76A26EEA77AE7EE257AD9
:1023800027EE267AE7EE067A24DB94ED266AB0EE95
:10239000465ADFED1C6A013994ED277AC845F0EE04
:1023A000665AD5E90023E6EE275AC4F8941077EE72
:1023B000057A3A443B4407F10407C4ED267AC2ED9E
:1023C000005AC3ED006A96D13046C4F8109003B0AD
:1023D000BDE8F08394ED286A94ED265AD9E7C1460A
:1023E0003046C4F8109003B0BDE8F083064BDA2104
:1023F000064A074812F0CEFCDB0FC940ABAA2ABE42
:102400006257003C000000009C6A01089C6F0108B4
:10241000746F01080E4B9446994206D00D4B9942B9
:102420000FD00D4B994206D070470C4B00226146ED
:102430001830FFF7DFB80A4B002261461830FFF76B
:10244000D9B8084B002261461830FFF7D3B800BF57
:10245000D9F81CDFB6C52DFB9D7DBF440D260008B5
:10246000692200088524000808B5034A7321034B3C
:10247000034812F08FFC00BF386D0108F0620108BC
:102480001063010810B5134684B0002208490446C1
:10249000039300911146FEF727FC002205492046D0
:1024A000039B00911146FEF71FFC04B010BD00BF56
:1024B0006D250008BD25000810B504462DED048BE0
:1024C000B0EE408BFFF798FD174B20469FED179A13
:1024D000B0EE480B40F8883BFFF792F9636902467B
:1024E00004F1940013446361FFF72EF96369024617
:1024F000B0EE490A04F1A40013446361FEF774FCD2
:102500006369F0EE490A00210344B0EE490A04F180
:10251000B0006361FFF788F96369024620461344FF
:10252000BDEC048B636110BDEC6F0108000000007E
:10253000B0B582B00121054602AF84B0126802AC8A
:102540002046FEF711FDA38873B14FF07E510120A4
:102550000022234620722846E16005F19401009292
:10256000FFF7FCF8BD46B0BDFFF77EFF0021FFF787
:10257000DFBF00BFB0B582B00221054602AF86B012
:10258000126802AC2046FEF7EFFCA38893B101214C
:1025900000228B422172E2600CD007480022217495
:1025A0002346606105F1940128460092FFF7D6F8B2
:1025B000BD46B0BDFFF758FF0000FA430021FFF70A
:1025C000D9BF00BF036870B55B6B04460C4E15465F
:1025D000B3420FD1006D60B123685B6BB3420BD186
:1025E000266D2B462046B446064A0749BDE8704092
:1025F000604770BD9847EEE7204698470646F0E7EB
:10260000C51900088DC617E8DC6F010838B51546F6
:1026100004460021FFF7D6FF29462046024ABDE8BE
:102620003840FEF7C5BB00BF946F010838B102689F
:102630000649D26B8A4201D1406D70471047044B66
:102640009C21044A044810B512F0A4FBCD190008DF
:1026500080700108E8700108D470010800000000D3
:10266000C0B102681249526A8A4212D1DFED117A72
:1026700090ED026B87FE807AB7EEC77A9FED0A5B1A
:1026800027EE067B87EE056BFCEEC67B17EE900A05
:1026900070471047084BFB21084A094810B512F053
:1026A00079FB00BFAFF300800000000000408F40C6
:1026B000211B000800000000807001086071010803
:1026C000D470010849424FF480621430C9B212F04C
:1026D000E7BB00BF704700BF704700BF4020704796
:1026E0008020704710B5044640F2144111F0DDFD22
:1026F000204610BD0C490868904213D19A8852B107
:1027000048680A4A93ED030A896802EB800383ED67
:10271000000A39B10847064B7921064A064810B528
:1027200012F038FB704700BF04000024B0090024F9
:10273000F0620108A4710108106301082DE9F0415D
:10274000B02482B000F1080600F1100500F1140871
:10275000002728468DF807400134394603F0A0FAD7
:10276000642301220DF107013046E4B205F0A4F91B
:10277000394628468DF8077003F092FA0122642347
:102780000DF10701304605F097F910233946284628
:102790008DF8073003F084FA642301220DF107015C
:1027A000304605F089F90121284603F079FA8022A4
:1027B000414664233046904405F07EF9B82CC7D1D9
:1027C00002B0BDE8F08100BF2DE9F04F89B008AC40
:1027D0009DF84870019104E90C000B78002B00F083
:1027E000AB801A469DF818809DF81930064645467C
:1027F00090460393079B0593A8F12004E3B25E2B58
:1028000000F29E8033685E4ADB68934240F09B8012
:102810008020B3882B44834200F392803368594A66
:102820009B68934240F092804020F188039A029185
:102830008B18834200F38480002A00F0918002FB11
:1028400004F46FF00049059BA1441444B6F804B0A9
:1028500003EB4909023BCDF8108003EB44030C461F
:102860009A4639F802CFA5B304F007034FF0010EE2
:10287000E20859460EFA03FE0BF114034FFA8EFEDE
:1028800003EBC21200236FEA0E0832440DE07F29E9
:1028900006D83F2C04D8107897B14EEA000010708B
:1028A000013301320131AB4213D00CFA03F00004C2
:1028B000EDD47F29F4D83F2CF2D81078002FECD03B
:1028C000013308EA000001320131AB4202F8010C89
:1028D000EBD1D14504F10104C3D1DDF81080326899
:1028E0000BEB05042649D368A4B28B4234D1802077
:1028F000844204D3D36822498B423AD17F2493681F
:10290000204AB480934224D14020029B834206D3C4
:1029100033681C4A9B68934225D13F230293029B54
:10292000F380019B1878404507D113F8018F01937C
:10293000B8F1000F7FF460AF002009B0BDE8F08F60
:102940004FF00008EDE73046984762E73046984779
:102950006BE730469847D8E7304698473268C7E774
:10296000B6F804B0BBE730469847013883B202930B
:10297000D5E7304698470138326884B2BFE700BFD8
:10298000E1260008DD2600082DE9F04F85B0A1F111
:10299000200504AC9DF83870009104E90C00EBB2FE
:1029A0005E2B00F29580036880465D4ADB689DF8E7
:1029B000084093429DF8096040F094808020B8F868
:1029C00004302344834200F38380D8F80030554A12
:1029D0009B68934240F088804020B8F80620931905
:1029E0000192834274DC002E00F0898006FB05F51D
:1029F0006FF00040039B964628442E44B8F804A08C
:102A000003EB4000023B03EB460B30F8026FBCB314
:102A10000EF007034FF0010C4FEADE0251460CFAAC
:102A200003FC0AF114034FFA8CFC03EBC2120023DF
:102A30006FEA0C0942440EE07F2907D8BEF13F0F30
:102A400004D815789FB14CEA0505157001330132A1
:102A500001319C4214D006FA03F52D04ECD47F29F1
:102A6000F4D8BEF13F0FF1D81578002FEBD0013329
:102A700009EA0505013201319C4202F8015CEAD104
:102A800058450EF1010EC0D1D8F800305444244905
:102A9000DA68A4B28A422DD1802084421CD29B687D
:102AA000204AA8F80440934221D14020019B834250
:102AB00007D3D8F800301B4A9B68934229D13F23A3
:102AC0000193DDE90003A8F8063005B0BDE8F08FFA
:102AD000002005B0BDE8F08FDA6811498A4211D1B3
:102AE0007F24DCE798476AE74046984775E7404609
:102AF0009847DBE740469047D8F80030CDE7B8F874
:102B000004A0C1E7404690470138D8F8003084B2AD
:102B1000C5E740469847013883B20193D1E700BF2B
:102B2000E1260008DD2600082DE9F04F89B01D469A
:102B3000884606901046129C10F8013B13999DF8A8
:102B40005060009233B1002210F8013B0132002B9B
:102B5000FAD193B22A78687812FB03F302B21BB25F
:102B600023EAE373082900F2A681DFE811F00101EE
:102B700013011F01330141014F0166016F0109007B
:102B8000A18827880F44B4F90610FF1A0029BFB2A4
:102B9000C0F2FE806488069804EB6104C280A4EB56
:102BA00052028380078094B24480A64AD8F800304D
:102BB00011460192DA688A4240F08B818020B84247
:102BC00005D8DA6801998A4240F098817F279E4AA9
:102BD0009B68A8F804709342039240F087814020DC
:102BE000A04207D8D8F80030039A9B68934240F07F
:102BF00080813F24009BA8F8064093F800B06B78D2
:102C00002C7804936B680793BBF1000F00F0AC8045
:102C1000ABF12005EBB25E2B00F22C81D8F800302E
:102C2000019ADB68934240F028818020B8F8043094
:102C300023449842C0F21E81D8F80030039A9B6862
:102C4000934240F01D814020B8F80610049A02918A
:102C50008B189842C0F20E81002A00F01C8102FB02
:102C600005F56FF0004E079BAE441544CDF814B047
:102C700003EB4E0E023BB8F804A003EB45030D46F0
:102C80009B463EF8027FA4B305F007034FF0010C0A
:102C9000EA0851460CFA03FC0AF114034FFA8CFCC3
:102CA00003EBC21200236FEA0C0942440DE07F29B6
:102CB00006D83F2D04D8107896B14CEA0000107069
:102CC0000133013201319C4213D007FA03F00004B2
:102CD000EDD47F29F4D83F2DF2D81078002EECD017
:102CE000013309EA0000013201319C4202F8010C73
:102CF000EBD1F34505F10105C3D1DDF814B0D8F8E7
:102D000000200AEB04050199D368ADB28B4240F074
:102D1000BD808020854205D3D36801998B4240F065
:102D2000C3807F259368039AA8F80450934240F02B
:102D3000AA804020029B834208D3D8F80030039A2F
:102D40009B68934240F0AA803F230293029BA8F81D
:102D50000630009A13785B4506D112F801BF009245
:102D6000BBF1000F7FF454AF069809B0BDE8F08FB7
:102D7000B4F9041027880029B8BF013107EB6107B7
:102D8000B4F90610A7EB63070029BFB2BFF602AF84
:102D90000131FFE6B4F900700699B4F902400F80E2
:102DA000BFB24C80A4B28B80CA80FEE6B4F9041096
:102DB00027880029B4F90240B8BF013107EB610749
:102DC00006998B80A7EB63034C80A4B29FB2CA80A4
:102DD0000F80EAE6A1882788B4F902400F440699DB
:102DE0008B80FB1A4C80A4B29FB2CA800F80DCE6B5
:102DF000E78861883944B4F90070081A069984B2EA
:102E00000F808B80BFB2CA804C80CEE6B4F904102C
:102E100027880029B8BF013107EB6107A7EB6307DB
:102E2000B4F802C0BFB2E488069964448B80201ACB
:102E3000CA800F8084B24C80B7E62788A1880F44EF
:102E4000FF1AEDE7E1260008DD260008B4F90610B8
:102E5000B4F90070002964880698B8BF0131C280B7
:102E600004EB610407808380BFB2A4EB520294B2EA
:102E700044809AE64FF0000B6BE740469847D5E652
:102E800040469847E0E64046984753E74046984713
:102E9000D8F800203EE7B8F804A030E7404698474D
:102EA000013883B2029351E7404698470138D8F879
:102EB000002085B236E7D8F800300024069A13497E
:102EC000148054809480D480DA6801918A4205D0BD
:102ED000274640469047D8F8003070E69B680C4A79
:102EE000A8F80440934203923FF484AE40469847CA
:102EF00076E640469847013884B27BE640469047E4
:102F00000138D8F8003087B261E600BFE12600083A
:102F1000DD2600087F291ED83F2A1CD86BB1D308B4
:102F20004FF0010C02F0070201EBC3130CFA02F29E
:102F3000C1180B7D1A430A757047D3084FF0010C76
:102F400002F0070201EBC3130CFA02FCC1180A7D60
:102F500022EA0C020A7570472DE9F04F83B05C1A23
:102F60000C9E002C9DF83490A6EB0208B8BF64427A
:102F7000B8F1000FB8BFC8F100088B428CBF4FF00A
:102F8000010A4FF0FF3A9642A4EB080C51D84FF0DB
:102F9000FF357F2B019512D83F2E10D8F50806F08B
:102FA000070E012703EBC5150544B9F1000F47D003
:102FB00007FA0EF795F814E047EA0E072F759642C8
:102FC00001D18B4229D0C8F100077F2914D83F2AAC
:102FD00012D8D50802F0070B4FF0010E01EBC51512
:102FE0000544B9F1000F1BD00EFA0BFE95F814B092
:102FF0004EEA0B0E85F814E0B7EB4C0F4FEA4C0588
:1030000002DAACEB080C5144AC4202DD019DA44451
:103010002A449942D9D19642D7D103B0BDE8F08F66
:103020000EFA0BFB95F814E02EEA0B0E85F814E06F
:10303000E2E701257F2B0195C5D83F2EAED9C2E727
:1030400007FA0EFE2F7D964227EA0E072F75B8D09D
:10305000B9E700BF000000002DE9F04F2DED068B11
:1030600083B01F4680460D469DF8503016460193AA
:10307000139B002BC0F22182129A134406EE103AE1
:10308000DDED127AB8EEC66B9FEDCD4BB8EEE77B67
:103090009FEDCD5B27EE047B26EE046B87EE050BE0
:1030A00086EE05ABF7EEC08BB0EE680A11F018F9AA
:1030B00007EE907AB7EECAABF8EE679AB0EE408AA8
:1030C000B0EE680A11F0D0FB60EE698AB0EE4A0AF1
:1030D00011F006F9B0EE409AB0EE4A0A11F0C4FBC6
:1030E00020EE690A29EE888A29EE899A70EE687ABC
:1030F000F0EE006A39EE487A67EEA77AE7EE077AD3
:10310000F4EEE67AF1EE10FA06D5139BB42B40F3F9
:1031100096804FF0010901E04FF000090124784248
:103120004FF0000C0095E31B214627462246A340A2
:10313000B9F1000F6AD1424206EE90CACCF100010B
:1031400007EE102AB8EEE66A07EE901A06EE900A2D
:10315000B8EEC77A139A66EE084AF8EEE77AB42A10
:1031600027EE284AF8EEE66A67EE885A74EEC43A0B
:1031700026EEA85A26EE096A66EE806A67EE897A1C
:1031800027EE007AF5EEC03A40F3F280F1EE10FA45
:1031900000F17F8176EE473A74EEC54AF5EEC03A0B
:1031A000F1EE10FAF5EEC04ACCBF01220022F1EE9A
:1031B00010FA00F1778136EE666A35EEC55AB5EE43
:1031C000C06AF1EE10FAB5EEC05ACCBF0121002161
:1031D000F1EE10FA00F16F8177EEE66AF5EEC06A63
:1031E000F1EE10FACCBF0127002775EEC45AF5EEB8
:1031F000C05AF1EE10FA00F1478177EEC77AF5EE8A
:10320000C07AF1EE10FACCBF01240024002A40F06D
:103210008A80002964D1BFB9C4BB9C4558DB0CF13E
:10322000010C03EB4C0E1CEB000F0EF1010E00F035
:10323000C08098424FDB734600287FF779AF03B018
:10324000BDEC068BBDE8F08F009DA6EB0C0E00EBED
:10325000050ABAF17F0FDFD8BEF13F0FDCD84FEA85
:10326000DE0B019D0AEBCB1A002D00F0B1800EF0B1
:10327000070BC2444FF0010E0EFA0BFE9AF814B081
:103280004EEA0B0E8AF814E0002CC6D0009DA6EB87
:103290000C0EA5EB000ABAF17F0FBED8BEF13F0FAE
:1032A000BBD84FEADE0B019D0AEBCB1A002D00F0D4
:1032B000AE800EF0070BC2444FF0010E9C450EFA93
:1032C0000BFE9AF814B04EEA0B0E8AF814E0A6DA58
:1032D00098429E46AFDA01300EEB40030133ABE774
:1032E000009D0CEB060E00EB050ABAF17F0F92D899
:1032F000BEF13F0F8FD84FEADE0B019D0AEBCB1AD0
:10330000002D73D00EF0070BC2444FF0010E0EFAE1
:103310000BFE9AF814B04EEA0B0E8AF814E0002F58
:103320003FF47AAF90E7009D0CEB060EA5EB000A88
:10333000BAF17F0F3FF66DAFBEF13F0F3FF669AFB9
:103340004FEADE0B019D0AEBCB1A002D6DD00EF07B
:10335000070BC2444FF0010E0EFA0BFE9AF814B0A0
:103360004EEA0B0E8AF814E000293FF454AFB7E799
:10337000F1EE10FA7ED44A4674EEC54AF5EEC04A24
:10338000F1EE10FA6CD4002135EEC55AB5EEC05AF4
:10339000F1EE10FA5AD4002775EEC45AF5EEC05A71
:1033A000F1EE10FA3FF529AF0024002A3FF431AFC7
:1033B000B9E798428FDB00233BE700BFAFF3008003
:1033C0007A008BFCFA210940000000000080664072
:1033D000C2444FF0010B0EF0070E0BFA0EFE9AF8E6
:1033E00014B02BEA0E0E8AF814E015E7C2444FF031
:1033F000010B0EF0070E0BFA0EFE9AF814B02BEA32
:103400000E0E8AF814E0002F3FF406AF1CE7C2440A
:103410004FF0010B0EF0070E0BFA0EFE9AF814B0E7
:103420002BEA0E0E8AF814E0F7E6C2444FF0010BC7
:103430000EF0070E0BFA0EFE9AF814B02BEA0E0EE1
:103440008AF814E000293FF4E6AE49E777EEE66A31
:10345000F5EEC06AF1EE10FACCBF012700279BE71A
:1034600036EE666AB5EEC06AF1EE10FACCBF012105
:10347000002189E776EE473AF5EEC03AF1EE10FA10
:10348000CCBF0122002277E70124002A3FF4C1AE1D
:1034900049E774EEC54A0122F5EEC04AF1EE10FA92
:1034A0007FF589AE35EEC55A0121B5EEC05AF1EE71
:1034B00010FA7FF591AE012797E6DDE91223134458
:1034C00006EE102A1293139B5B421393D8E500BFBC
:1034D0002DE9F04F87B09DF84850109C2E4601957D
:1034E0009DF844509EB399422ED89946A24228D8BE
:1034F0007F29164694BF0023012308E09CF814801E
:103500004EEA080E8CF814E00136B44219D33F2E6F
:10351000FAD8002BF8D14FEAD60C06F0070E4FF080
:10352000010801EBCC1C08FA0EFE8444002DE5D105
:103530009CF814B001362BEA0E0AB4428CF814A0A1
:10354000E5D201318945D1D207B0BDE8F08FA3EBB8
:103550000108B8F1000FB8BFC8F100089942C0F0E7
:103560004E817F2B4FF0FF3A94BF002601263F2A61
:10357000009694BF002701270297A6B99FB9D608E5
:1035800002F0070C012703EBC6160644002D00F0DD
:10359000948107FA0CF796F814C047EA0C073775C0
:1035A000002602960096994200F09781464694467E
:1035B0008E46BEF17F0F16D8BCF13F0F13D84FEAED
:1035C000DC070CF0070B4FF001090EEBC71707449F
:1035D000002D00F0398109FA0BF997F814B049EA87
:1035E0000B0987F81490770018BFD644B84502DD60
:1035F00046440CF1FF3C7345DBD16245D9D100262E
:103600000496A4EB0209009FB9F1000FB8BFC9F1FD
:1036100000093F2C94BF00260126A242C9F10008F0
:103620000396C0F02381002F40F05081002E40F01F
:103630004D814FF0FF360096E60803EBC6160644B0
:10364000002D00F01E814FF0010C04F007070CFA6A
:1036500007F796F814C047EA0C073775002603965B
:10366000A24200F03D81C44616461F4605927F2FB8
:1036700015D83F2E13D84FEAD60E06F0070B4FF0A1
:10368000010A07EBCE1E8644002D00F0E6800AFA00
:103690000BFA9EF814B04AEA0B0A8EF814A0B8EBA5
:1036A0004C0F4FEA4C0E02DAACEB090C013FBEF1B5
:1036B000000F01D0009A1644BB42D8D1B442D6D1F3
:1036C000059AA1EB030EBEF1000FB8BFCEF1000EBC
:1036D0007F2994BF4FF0000A4FF0010A99428CBF36
:1036E0004FF001094FF0FF39BAF1000F13D1039EDB
:1036F0008EB9E60801EBC6160644002D00F0D38013
:103700004FF0010C04F007070CFA07F796F814C005
:1037100047EA0C073775049E26BB774626467F2B63
:1037200014D83F2E12D84FEAD60C06F0070B4FF0F4
:10373000010803EBCC1C8444002D73D008FA0BF86D
:103740009CF814B048EA0B088CF814805FEA470C28
:1037500018BF4B44E64501DD7744013E9942DED176
:10376000B442DCD1A2EB040EBEF1000FB8BFCEF123
:10377000000EA2428CBF4FF001084FF0FF38CEF18F
:10378000000CBAF1000F0ED1029B63B9D30802F00E
:103790000707012601EBC3130344002D7CD0BE4074
:1037A0001F7D3E431E75019B002B7FF4CDAE664608
:1037B0000B467F2B12D83F2C10D8E70804F0070ADD
:1037C0004FF0010903EBC7170744A5B309FA0AF93B
:1037D00097F814A049EA0A0987F81490BCEB460F41
:1037E0004FEA460702DAA6EB0E06013B07B1444456
:1037F0009942DED1A242DCD107B0BDE8F08F3F2A6A
:103800004FF0010A94BF002601267F2B029694BF39
:10381000002701270097002E7FF4C8AE002F3FF449
:10382000AEAEC3E608FA0BFB9CF8148028EA0B083E
:103830008CF814808AE709FA0AFA97F8149029EAB2
:103840000A0987F81490C9E709FA0BFB97F8149056
:1038500029EA0B0987F81490C5E60AFA0BFB9EF8D3
:1038600014A02AEA0B0A8EF814A018E797BB8EBBA7
:1038700001260096E60803EBC6160644002D7FF4E9
:10388000E2AE012704F0070C039507FA0CFC377D24
:1038900027EA0C073775E3E606FA07F71E7D26EAE6
:1038A00007061E757FE7012704F0070C07FA0CFCDA
:1038B000377D27EA0C0737752DE707FA0CFC377DB3
:1038C000029527EA0C07009537756CE64FF0FF3636
:1038D0000096C5E601260096C5E60126049690E608
:1038E00001260196EDE600BF70B5124D044695F82D
:1038F000C8303BB195F8CE307F2B05D103680E4917
:103900009B6D984795F8CE30B7EE000A2268FF2BE2
:10391000DFED0A7A0A492046536D00FE270A9847D0
:10392000236895ED170A204606495B6DBDE8704097
:10393000184700BF0C040024B6C52DFB0000000092
:10394000D9F81CDF9D7DBF4484B02DE9F04182B0E1
:103950000125064604460DF124088572274688E8AD
:103960000E00BDF84C3026F8083F304602F0AEF8A5
:10397000BDF84E30A57127F8043F384602F0A6F88E
:103980004146204604F012F80021384602F088F93A
:103990000A2004F025FA2946384602F081F90A2067
:1039A00004F01EFAAE23304600218DF8073002F0F5
:1039B00077F92A460DF107016423204604F07CF8CC
:1039C000D523304600218DF8073002F069F92A46E8
:1039D0000DF107016423204604F06EF88023304681
:1039E00000218DF8073002F05BF92A460DF107013E
:1039F0006423204604F060F8A823304600218DF8A7
:103A0000073002F04DF92A460DF1070164232046E4
:103A100004F052F83F23304600218DF8073002F0C1
:103A20003FF92A460DF107016423204604F044F8CB
:103A3000DA23304600218DF8073002F031F92A46AA
:103A40000DF107016423204604F036F812233046B6
:103A500000218DF8073002F023F92A460DF1070105
:103A60006423204604F028F80021D32330460F4673
:103A70008DF8073002F014F92A4664230DF107018E
:103A8000204604F019F8394630468DF8077002F0E8
:103A900007F92A460DF107016423204604F00CF8CB
:103AA0004023394630468DF8073002F0F9F82A46AF
:103AB0000DF107016423204603F0FEFFA6233946DB
:103AC00030468DF8073002F0EBF82A460DF1070179
:103AD0006423204603F0F0FFA423394630468DF8D6
:103AE000073002F0DDF82A460DF107016423204675
:103AF00003F0E2FF8D23394630468DF8073002F09F
:103B0000CFF82A460DF107016423204603F0D4FFC5
:103B10001423394630468DF8073002F0C1F82A46A2
:103B20000DF107016423204603F0C6FFA1233946A7
:103B300030468DF8073002F0B3F82A460DF1070140
:103B40006423204603F0B8FFC823394630468DF879
:103B5000073002F0A5F82A460DF10701642320463C
:103B600003F0AAFF8123394630468DF8073002F072
:103B700097F82A460DF107016423204603F09CFFC5
:103B80008F23394630468DF8073002F089F82A46EF
:103B90000DF107016423204603F08EFFD923394637
:103BA00030468DF8073002F07BF82A460DF1070108
:103BB0006423204603F080FF2523394630468DF8E4
:103BC000073002F06DF82A460DF107016423204604
:103BD00003F072FFDB23394630468DF8073002F0E0
:103BE0005FF82A460DF107016423204603F064FFC5
:103BF0003423394630468DF8073002F051F82A4612
:103C00000DF107016423204603F056FFAF23394628
:103C100030468DF8073002F043F864232A460DF150
:103C20000701204603F048FF02B0BDE8F04104B0B0
:103C3000704700BF2DE9F04F0546A7B04FF00009CF
:103C4000089100F061F90899284600F0E5F91B2079
:103C500000F05CF90346284605F13C04ADF82C3031
:103C600000F06EF901230B9905F1C400CDF8009026
:103C70001A4605F1180A01F0BBFB152000F046F9C1
:103C8000ADF830000C99204601F016FC0423012207
:103C90002146504605F1700601F01CFC494650468D
:103CA000012401F011FE01462846EB46089100F080
:103CB00047F9DFED540A4A4608994B4605F1500092
:103CC00001F0F0FA142000F021F903461320ADF8BA
:103CD000343000F01BF9ADF83800122000F016F96E
:103CE0000D99ADF83C0030460094DDE90E2301F05B
:103CF0002FFB9FED451A304605F1DC06F0EE410A38
:103D0000B0EE410A01F04CFB0823404A0DF1400E91
:103D10001593022310920DF16C0C3D4A14946746E2
:103D2000119205F1E802CDF85890E435CDF85C9099
:103D30009046CDF84890CDF84C900992CDE91833D3
:103D4000344B1A931EAB1C46B0230893BEE80F00F9
:103D5000ACE80F00BEE80F00ACE80F009EE80700DB
:103D60008CE807000FCCABE80F0094E80F008BE85D
:103D70000F00304697E80E00FFF7E6FD4946099828
:103D80004FF4806211F08CF8089C4FF0000928462F
:103D90008DF86C400134494601F082FF6423012212
:103DA00039463046E4B203F087FE494628468DF88E
:103DB0006C9001F075FF012264233946304603F010
:103DC0007BFE1023494628468DF86C3001F068FFD1
:103DD000642301223946304603F06EFE0121284655
:103DE00001F05EFF8022414664233046904403F098
:103DF00063FEB82CC9D1504627B0BDE8F04F01F0A2
:103E00004DBD00BF6F12033B00000000060B0B000E
:103E10000105060A0104010F08B501210548FFF755
:103E200009FF0549034800F087F8044B044A1A6566
:103E3000FEE700BF0C040024A93E0008F808002497
:103E4000F52600080000000070B511480024114E4E
:103E5000114B124D32461249046044610462C0F8AD
:103E6000D430C0F8DC4010F01BFA0A2123460222AD
:103E700028469FED050BFEF71FFB324628460949F1
:103E8000BDE8704010F00CBA000000000070E74080
:103E90000C04002400000024D8710108F808002454
:103EA000D9260008A121000830B5144C83B08446FF
:103EB0000D4604F150000092CDF804C001F024FA40
:103EC00004F1C400703401F0C9FA0D48FFF70CFD8D
:103ED000009B2A4601990A48FEF7E2F9094B204661
:103EE00093ED001AF0EE410AB0EE410A01F058FAE3
:103EF000204603B0BDE8304001F06CBA0C04002449
:103F0000F8080024B0090024704700BF1F2882B0C1
:103F100009D8084B03EB400213F81030507843EAFD
:103F2000002002B0704701230C2043EA002002B0B9
:103F3000704700BF0C720108143001F07FB900BF58
:103F400090ED0E0A704700BFF0B5032399B000272B
:103F50000125129306462C4B09A81595CDE90E7341
:103F600040F20453ADF84030284BCDE91357099384
:103F700001F0ACFD09A801F085FE002836D1244BE4
:103F800004AF04460090CDF8423010233946049522
:103F90008DF820301F4BCDE91650CDE9065068460C
:103FA000059301F0FDFF0823009A01A909A8ADF8C7
:103FB00004508DF8064009940295039300F0E4F84C
:103FC00000230EA938463024049302F0B1FD0322E9
:103FD0004FF07E5309A906F114000B930C93CDE921
:103FE0000942049A01F0EAF819B0F0BD40F6013236
:103FF000074B169704AFADF824200998CDF842304E
:10400000179500F081F8DBE70402040403030001C4
:10401000040604030704010B2DE9F04304462DEDCB
:10402000028B83B0002948D0012140F20112002305
:104030000091ADF804208DF80630304A0126304B4F
:10404000271D304904F12908626040F20272A36022
:1040500040F60663E16004F125092682A4F82520D4
:1040600084F82760A4F8293084F82B6004F026F83F
:104070006946054648B304F130008DF8066003F048
:104080007BFF072D34D104F114052046FFF75CFFB8
:10409000284601F0CFF82846B0EE408A01F0C6F875
:1040A000D0ED007AF8EE677A88EE277A84ED0E7A02
:1040B00003B0BDEC028BBDE8F08340F20113009128
:1040C0008DF80610ADF80430B7E704F1300003F0C6
:1040D00053FF3946204602F0ABF9484601F0F6FCA2
:1040E000404601F0F3FC04F1120000F077F9CAE752
:1040F0003946204602F09CF9C5E700BF05080509CE
:1041000005070506050A060610B584B00346012416
:10411000ADF8040003A8ADF80C30ADF80E4001F086
:10412000D5FC214603A801F0BBFD204603F058FE54
:10413000002103A801F0B4FD204603F051FE214602
:1041400003A801F0ADFD04B010BD00BF10B5C2F36F
:10415000002384B00C46017C8DF80D2043EA440214
:10416000FA2402238DF80C2003AA009401F0AEFF7C
:1041700018B10124204604B010BD04460A2003F003
:104180002FFE204604B010BD034670B543F8042B43
:10419000044684B007C983E80700A37983B91A21CC
:1041A0000B461E22FA2523742046ADF80C2002236C
:1041B00003AA009501F08AFF28B1012004B070BD68
:1041C0001B210B46EDE70A2003F00AFE4FF4B8521C
:1041D00000950223ADF80C20204603AA217C01F0B3
:1041E00075FF0028E9D10A2003F0FAFD41F20272BE
:1041F00000950223ADF80C20204603AA217C01F093
:1042000065FF0028D9D10A2003F0EAFD04220095B9
:104210000223ADF80C20204603AA217C01F056FFB2
:104220000028CAD10A2003F0DBFD062200950223F4
:10423000ADF80C20204603AA217C01F047FF00289E
:10424000BBD10A2003F0CCFD41F2082200950223E5
:10425000ADF80C20204603AA217C01F037FF00288E
:10426000ABD10A20064603F0BBFD0095022303AA4A
:10427000217C2046ADF80C6001F028FF00289CD17D
:10428000304603F0ADFD009522790C232046002A2C
:104290008DF80C3003AA4FF0020314BF62214221B3
:1042A0008DF80D10217C01F011FF002885D13046DA
:1042B00003F096FD2279D4E902310B43DBB20AB94F
:1042C00043F0400362790AB143F020030E22FA253D
:1042D0008DF80D302046009502238DF80C2003AA9E
:1042E000217C01F0F3FE00287FF467AF0A2003F081
:1042F00077FD102200950223ADF80C20204603AA7A
:10430000217C01F0E3FE00287FF457AF0A2003F080
:1043100067FD122100950223ADF80C1003AA217C41
:10432000204601F0D3FE00287FF447AF0A2003F0B7
:1043300057FD012209212046FFF708FF003818BF6A
:1043400001203BE7F0B5102387B0234C0122002564
:104350000126002702A920460195CDE902234FF44A
:104360008052CDE904670AF061FC642004F04CF946
:1043700002A94FF480522046CDE904670226102797
:10438000CDE902670AF052FC0322102302A920465D
:10439000CDE9022300230422CDE904234FF4805207
:1043A0000AF044FC40F23223042202A901931023B4
:1043B0002046CDE90223019A012305924FF4805251
:1043C00004930AF033FC40F6060120460AF04EFC46
:1043D000284607B0F0BD00BFBC0900241C4B0022DA
:1043E0001C494FF0400C30B5054689B00220596099
:1043F00007219A601A620124DA620A224FF4006EE1
:10440000DC6006922022CDE9000104200821CDE9DC
:10441000020103201021CDE9040108206946C3E907
:1044200004024FF4C072181DC3E906C24FF4805253
:10443000C3E909E20AF0D0FB38B92846FFF782FF4A
:10444000003818BF012009B030BD204609B030BD8A
:10445000B809002440410052614A0021D0B51368D8
:104460008EB00A91002B40F0B9805E4B01214FF6CF
:1044700083700C2411600221D3F8D4200026032776
:1044800042F48052C3F8D420D3F8D42002F48052EE
:104490000092009AD3F8E02042F01002C3F8E02026
:1044A000D3F8E02002F010020192019AD3F8E02044
:1044B00042F04002C3F8E020D3F8E02002F04002CE
:1044C0000292029AD3F8E02042F00802C3F8E020FA
:1044D000D3F8E02002F008020392039AD3F8E02018
:1044E00042F48072C3F8E020D3F8E02002F4807236
:1044F0000492049AD3F8E02042F08002C3F8E0204E
:10450000D3F8E02002F080020592059AD3F8E0206B
:1045100042F02002C3F8E020D3F8E02002F02002AD
:104520000692069AD3F8E02042F00402C3F8E02095
:10453000D3F8E0300C9403F0040307930323079AA5
:104540000B93CDE9080108A9274805F0E3FE48F2DE
:104550003712022308A925480C94CDE90823CDE998
:104560000A6705F0D7FE4CF20372022308A920481F
:104570000C94CDE90823CDE90A6705F0CBFE40F2A3
:10458000FF62022308A91B480C94CDE90823CDE95A
:104590000A6705F0BFFE4FF60C72022308A9164801
:1045A0000C94CDE90823CDE90A6705F0B3FE4FF678
:1045B0003F02022308A911480C94CDE90823CDE954
:1045C0000A6705F0A7FE2022022308A90A480C94D6
:1045D000CDE90A67CDE9082305F09CFE0EB0D0BDF9
:1045E000B409002400440258001002580018025870
:1045F000000C025800200258001C025800140258F7
:104600002DE9F04FDFF8108406460D46144608F1F8
:1046100018002DED028B89B000AF02F081FBD8F8B5
:10462000183073B3D8F81C30D8F80490002B4369C5
:104630000BBF4FF0080A4FF0100A4FF0020B4FF07B
:10464000040BB9F1000F2AD0A200EA46012B02F1B7
:10465000070222F00702ADEB020D6846ADEB020D3A
:10466000694600F03F81022B00F0D680002B6FD00E
:104670002246C847D5462437BD46BDEC028BBDE86F
:10468000F08FD8F81C30002BF5D0D8F804904FF0FC
:10469000080A4FF0020B4369B9F1000FD4D1FB6156
:1046A000D8F80030BB61002BE5D0D54802F0AAFB5A
:1046B0006B46BBF1020F786108EE103AFB6900F01F
:1046C00083816A465146A2EBC40295466200EA46DF
:1046D000B2FBFBF2AAEBC40085460AEB8200EE4671
:1046E000F861ADEB010DF8690EEB820CC7F810C054
:1046F000EC46ADEB010D00EB8201CCF80400CCF8E8
:10470000081001EB82013869E946CCF80C1000EB87
:104710008201CCF800A001EB8202C9E900E0C9E9FE
:104720000212012B00F06483022B00F06C82002B3C
:1047300000F08081620849466046BB69984718EEE0
:10474000103A24379D46BD46BDEC028BBDE8F08F84
:10475000002C8DD01A46D8ED0C6A9FEDB27A8446B3
:10476000331D36F922E00CF1080C07EE90EA33F91C
:1047700022E00232F8EEE77A944267EE877A67EE3B
:10478000A67A4CED027A07EE90EAF8EEE77A67EE49
:10479000877A67EEA67A4CED017AE2D8F961224673
:1047A000C847984ED8ED0D6A0020F9692B1D9FED82
:1047B0009E7A9FED9E6ADFED9E5A22E0F4EEC67A65
:1047C000F1EE10FAC0F2C88447F6FE72D1ED017A1C
:1047D00045F8202066EEA77AF4EEC77AF1EE10FADB
:1047E00040F2F080F4EEC67AF1EE10FAC0F2D58411
:1047F00047F6FE7243F820200230083184427FF6EB
:1048000039AFD1ED007A66EEA77AF4EEC77AF1EE11
:1048100010FAD3D83246D9E7002C3FF429AFD8EDAF
:104820000C6A84469FED787A0022331D8E4656F836
:1048300022100CF1080C07EE901A53F822100232E5
:10484000F8EEE77A944267EE877A67EEA67A4CED47
:10485000027A07EE901AF8EEE77A67EE877A67EE4B
:10486000A67A4CED017AE2D871462246C7F81CE0E0
:10487000C847664ED8ED0D6A0020F9692B1D9FEDE3
:104880006A7A9FED6A6ADFF894C120E0F4EEC67A96
:10489000F1EE10FAC0F279843246D1ED017A45F892
:1048A000202066EEA77AF4EEC77AF1EE10FA40F215
:1048B0008780F4EEC67AF1EE10FAC0F25E843246DA
:1048C00043F820200230083184427FF6D3AED1ED88
:1048D000007A66EEA77AF4EEC77AF1EE10FAD5D830
:1048E0006246DAE7002C3FF4C3AED8ED0C6A864688
:1048F0009FED477A4FF0000C331D56F82C200EF137
:10490000080E82F40002A2F5000207EE902A53F886
:104910002C200CF1020CF8EEE77A82F400026445D8
:10492000A2F5000267EE877A67EEA67A4EED027A6C
:1049300007EE902AF8EEE77A67EE877A67EEA67AB6
:104940004EED017AD9D8F9612246C847314ED8EDEB
:104950000D6A0020F9692B1D9FED337A9FED336AB4
:10496000DFF8BCC01FE0F4EEC67AF1EE10FAC0F238
:10497000FC833246D1ED017A45F8202066EEA77A15
:10498000F4EEC77AF1EE10FA18D9F4EEC67AF1EE29
:1049900010FAC0F2DA83324643F8202002300831A0
:1049A00084427FF667AED1ED007A66EEA77AF4EE28
:1049B000C77AF1EE10FAD6D86246DBE76246EBE73B
:1049C00062467DE7324615E7A100D6466208073108
:1049D00021F00701ADEB010DEA46ADEB010D694693
:1049E000ADEB0E0D0AEB8200EC46ADEB0E0D01EBCC
:1049F0008202F861E946CCE900A0C9E9001290E61C
:104A00000C0A00240280FFFF000000300082FF7FBC
:104A10000000003482FF7F00F0090024007E008047
:104A20007E0080FF0000003804FF7FBF04FF7F3F4F
:104A300000FEFF46002C00F0C982BBF1020FD8F83F
:104A4000242000F0FA827969C7F8049002EB810E05
:104A50005FED0C5A8A00DCF808100EF104007A6150
:104A60001A46DCF80C303B61331DD7F810903D61DD
:104A7000FD69C7E902CB8C46834636F92210D8ED92
:104A80000C7A06EE101A33F9221006EE901A3EF94F
:104A90002210B8EEC66A07EE101AF8EEE66A3BF985
:104AA0002210B8EEC77A26EE256A66EEA56A27EED2
:104AB000257A26EE276A66EEA76A27EE277A07EEA2
:104AC000901A51080232F8EEE77A0AEB810094421C
:104AD00080ED006A05EB810067EEA57AC0ED006A03
:104AE0000CEB810009EB810180ED007A98ED0C7AE6
:104AF00067EE877AC1ED007ABFD8D7F804903D6998
:104B0000D7E902CB60466208BB6949469847D8F8A6
:104B10002C307A69D8ED0D6A1A441FED3D7A1FEDED
:104B20003D6A2B1D904602F1040A5FED3F5A0022B8
:104B3000A84ED9E900EC51E0F4EEC67AF1EE10FA95
:104B4000C0F2C78247F6FE7045F822000CEB010068
:104B5000D0ED007A66EEA77AF4EEC77AF1EE10FA9D
:104B60004BD9F4EEC67AF1EE10FAC0F2BA8247F6EB
:104B7000FE70BBF1020F43F822002BD0D9F80800D9
:104B80000844D0ED007A66EEA77AF4EEC77AF1EE2B
:104B900010FA36D9F4EEC67AF1EE10FAC0F2CD82F0
:104BA00047F6FE7048F82200D9F80C000144D1ED18
:104BB000007A66EEA77AF4EEC77AF1EE10FA1ED903
:104BC000F4EEC67AF1EE10FAC0F2AF8247F6FE714B
:104BD0004AF82210023294427FF6B1AD51080EEB32
:104BE00081008900D0ED007A66EEA77AF4EEC77AEC
:104BF000F1EE10FAA0D83046A6E73046B9E73146C4
:104C0000E6E73046CEE7002C00F0E081BBF1020F72
:104C1000D8F8243000F0E1817A69DCF8081003EB61
:104C2000820EC7F804909300DFED6B5A0EF104007A
:104C300000227B61DCF80C303B61331DD7F810900B
:104C40003D61FD69C7E902CB8C46834656F82210C8
:104C5000D8ED0C7A07EE101A53F82210B8EEC76A96
:104C600007EE101A5EF82210F8EEC76A07EE101A67
:104C700026EE256A5BF82210B8EEC77A66EEA56AC2
:104C800026EE276A27EE257A66EEA76A27EE277AB0
:104C900007EE901A51080232F8EEE77A0AEB81002B
:104CA000944280ED006A05EB810067EEA57AC0EDC5
:104CB000006A0CEB810009EB810180ED007A98ED30
:104CC0000C7A67EE877AC1ED007ABFD8D7F80490E6
:104CD0003D69D7E902CB60466208BB6949469847FF
:104CE000D8F82C307A69D8ED0D6A1A449FED3E7AD7
:104CF0009FED3E6A131D9246DFF8E4C00022FB617F
:104D00002B1D364ED9E9008E4EE0F4EEC67AF1EE58
:104D100010FAC0F2FC81304645F822000EEB01008B
:104D2000D0ED007A66EEA77AF4EEC77AF1EE10FACB
:104D300049D9F4EEC67AF1EE10FAC0F2EF813046AE
:104D4000BBF1020F43F822002AD0D9F8080008442A
:104D5000D0ED007A66EEA77AF4EEC77AF1EE10FA9B
:104D600035D9F4EEC67AF1EE10FAC0F2C9813046B8
:104D70004AF82200D9F80C000144D1ED007A66EE21
:104D8000A77AF4EEC77AF1EE10FA1ED9F4EEC67ADD
:104D9000F1EE10FAC0F2AD813146F86940F8221008
:104DA000023294427FF6CBAC510808EB81008900B7
:104DB000D0ED007A66EEA77AF4EEC77AF1EE10FA3B
:104DC000A3D86046A8E76046BAE76146E5E76046D3
:104DD000CEE700BF0280FFFF000000300082FF7FAF
:104DE000007E00800000003404FF7FBF04FF7F3F8F
:104DF000002C00F0EB807A690021D8F82430C7F845
:104E0000109003EB820ED7F81C909300FD610EF119
:104E100004021FED0C6A7B61331D154656F82120F4
:104E20004808D8ED0C6ABBF1020F82F40002A2F52B
:104E3000000207EE902A53F8212082F40002B8EE17
:104E4000E77AA2F5000227EE067A07EE902A0AEB2F
:104E50008002F8EEE77A27EE267A67EE867A82ED10
:104E6000007A09EB80024FEA800067EEA67AC2ED75
:104E7000007A27D05EF8212082F40002A2F5000219
:104E800007EE902A55F8212082F40002B8EEE77A66
:104E9000A2F5000227EE067A07EE902ADCF8082039
:104EA000F8EEE77A024427EE267A67EE867A82EDFC
:104EB000007A98ED0C7ADCF80C2067EE877A0244D1
:104EC000C2ED007A02318C42A8D8D7F81090604623
:104ED0006208BB694946FD699847D8F82C307A6961
:104EE000D8ED0D6A1A441FED407A1FED406A131D7C
:104EF0009246DFF8C4C20022FB612B1DAB4ED9E9FC
:104F0000008E4EE0F4EEC67AF1EE10FAC0F2C580E3
:104F1000304645F822000EEB0100D0ED007A66EE37
:104F2000A77AF4EEC77AF1EE10FA49D9F4EEC67A10
:104F3000F1EE10FAC0F2BF803046BBF1020F43F829
:104F400022002AD0D9F808000844D0ED007A66EE95
:104F5000A77AF4EEC77AF1EE10FA35D9F4EEC67AF4
:104F6000F1EE10FAC0F2AE8030464AF82200D9F8CD
:104F70000C000144D1ED007A66EEA77AF4EEC77A10
:104F8000F1EE10FA1ED9F4EEC67AF1EE10FAC0F284
:104F90008B803146F86940F82210023294427FF645
:104FA000CEAB510808EB81008900D0ED007A66EEA7
:104FB000A77AF4EEC77AF1EE10FAA3D86046A8E714
:104FC0006046BAE76146E5E76046CEE722464946D5
:104FD0006046BB699847FFF7B2BBC7F810B0002224
:104FE00098ED0C6A331DDFED726AD7F81CB0786952
:104FF00056F8221007EE901A53F82210B8EEE77A0E
:1050000007EE901A51080232F8EEE77A27EE267A78
:105010000AEB810E94420BEB810167EEA67A27EE34
:10502000067A67EE867A8EED007AC1ED007ADFD8D7
:105030008300D7F810B07B614DE61A46C7F810B070
:1050400098ED0C6A331DDFED5B6AD7F81CB0786908
:1050500036F9221007EE101A33F9221007EE901AD3
:10506000B8EEC77A51080232F8EEE77A27EE267AD0
:105070000AEB810E94420BEB810167EEA67A27EED4
:10508000067A67EE867A8EED007AC1ED007ADFD877
:105090008300D7F810B07B6134E5F0EE675AFEEE7E
:1050A000E45A15EE900A34E7F0EE675AFEEEE45A41
:1050B00015EE901A6EE7F0EE675AFEEEE45A15EE22
:1050C000900A3AE7F0EE675AFEEEE45A15EE900ABF
:1050D0004BE767EEA57AFDEEE77A17EE900A00B28D
:1050E00032E567EEA57AFDEEE77A17EE900A00B298
:1050F0003FE5F0EE675AFEEEE05A15EE901A4CE6E8
:10510000F0EE675AFEEEE05A15EE900A30E6F0EE49
:10511000675AFEEEE05A15EE900AFDE5F0EE675A8A
:10512000FEEEE05A15EE900A0AE667EEA57AFDEE6D
:10513000E77A17EE901A09B24AE567EEA57AFDEE16
:10514000E77A17EE900A00B22CE5F0EE675AFEEE11
:10515000E45A15EE902A1FE467EEA57AFDEEE77A91
:1051600017EE902A12B2FFF731BBF0EE675AFEEE4F
:10517000E45A15EE902AFFF7FDBBF0EE675AFEEEFB
:10518000E05A15EE902AFFF79BBBF0EE675AFEEE51
:10519000E05A15EE902AFFF780BB67EEA57AFDEE88
:1051A000E77A17EE902A12B2FFF724BB82FF7F0046
:1051B00000000030000000387E0080FF30B5184C41
:1051C000154685B0046004F1080EEC460FC98EE860
:1051D0000F00D4ED047AF5EEC07A8CE80F00F1EE02
:1051E00010FA1ADDB7EE006A94ED057A27EE277AF9
:1051F000C6EE276A84ED0D7AC4ED0C6A6DB12046C7
:1052000040F8185F01F08CFD064903690020064A4A
:105210002162A262E36005B030BD012005B030BD5F
:10522000F009002400200030000000300068083041
:10523000704700BF0068183001F0D2BD30B5046877
:1052400083B00D46E3694BB1A3680020E26A616A4E
:105250009B00009004F11C0001F064FDA368074866
:10526000A26A9B00216A009004F1180001F05AFD27
:105270000020C4E9005003B030BD00BF0146000863
:1052800010B4074B4FF07E513024002203201961E7
:105290009C60D8605DF8044B5961C3E906227047F1
:1052A000F0090024F6EE007A9FED166A20EE207ACF
:1052B0000160F7EE006A80ED036A80ED020A27EED6
:1052C000277AC6EE877AF4EEE67AF1EE10FA11DD6F
:1052D000F0EE667A4FF07E514FF0000C027600221D
:1052E000C0ED017AC0F814C0016143768276C0ED4A
:1052F000070A7047F4EEC67AF1EE10FAEAD5F0EE3E
:10530000467AE7E7000000000268037E128807EE95
:10531000902AFBEEC87A1BB1B7EE007A77EE677A77
:10532000D0ED056A90ED047A77EEE67A437E67EE7B
:10533000877A0BB1F1EE677A90ED030A90ED017A6E
:1053400077EEC07AA7EE270A80ED030A704700BF08
:1053500030B585B004469FED110A9DF82050ADF898
:105360000C100399ADF808202A46ADF804308DEDF5
:10537000000A0BF083FE9DED000A2A46029904F113
:105380001C000BF07BFE9DED000A2A46019904F1FA
:10539000380005B0BDE830400BF070BE00007A4424
:1053A00010B52DED028BF0EE608A0446B0EE418A16
:1053B0000BF088FE04F11C00B0EE680A0BF082FED0
:1053C000B0EE480A04F13800BDEC028BBDE8104095
:1053D0000BF078BE10B504460BF086FE04F11C00FD
:1053E0000BF082FE04F13800BDE810400BF07CBEEB
:1053F000F0B51D4683B004461646A5F101059DF89B
:105400002070ADF8041002F0E9FCB5FA85F5002330
:10541000BDF80420012F4FEA551566712060E57232
:10542000E2802371A372237209D0022F0FD00123CF
:10543000A01D637203B0BDE8F04000F047BB02233B
:10544000A01D637203B0BDE8F04000F03FBBA01D9B
:10545000637203B0BDE8F04000F038BB38B50446D5
:1054600002F0BCFC002223682271834210D001228A
:10547000A57AE37A954020602271A01D6DB243B9F0
:1054800000F000FC40B22843C0B27F28A0720AD0CE
:1054900038BD00F0F7FBB0FA80F040092843C0B2F5
:1054A0007F28A072F4D102F099FC07EE900AF8EE82
:1054B000677AC4ED037A38BD82B04FF0000C032345
:1054C000ADF80410BDF8042080F810C002804380BD
:1054D00002B070472DE9F04FBE4E00258FB0BE4C94
:1054E000037006F14003426007460192884620227D
:1054F00029463046C4F85831C4F85461CDE9035503
:10550000CDE90555CDE90755CDE90955CDE90B554F
:105510000FF0C6FC2022294604F59970C4F82151E9
:10552000C4F82551C4F82951C4F82D510FF0B8FC26
:10553000019B84F8385284F820317A68002A5FD0C1
:105540002B464146B64604F5907599464FF0010A40
:1055500003EB0310D1F800B0D1F804800133D1F887
:1055600008C02218CE6844F800B0C2F80480C2F81F
:1055700008C0D660087C2EF8029B10740A7C05F8DF
:10558000012F002A69D07A68113184F838A29A4232
:10559000DED84FF4802291489DF8043008214FF066
:1055A00000084FF00009C4F874310023C4E9570221
:1055B0000122C4F8643184F87031C4E95A2194F8A6
:1055C0003812C4E9608981B3C4F88821002284F8C4
:1055D000713184F878313B78C4E96322A3B30122A6
:1055E00000200121013B84F89421C4E96801082BC3
:1055F0002CD8DFE803F0ABB0B5BABFC4C9CFD60032
:105600009DF804300121C4F86421C4F874314FF4CA
:10561000802384F87021714AC4E9572308230022AB
:10562000C4E95A130023C4E960230123002284F84B
:105630007131002384F878310323C4F888313B7832
:10564000C4E96322002BCAD184F89431644803F082
:1056500013FC034638B1FFBEFEE77A6811319A4267
:105660003FF676AF95E703A95D48039303F062FD2B
:105670000546002868D1022240F2FF73CDE90823D5
:1056800000230422CDE90A2394F82031002B00F0F6
:10569000D5804FF0060921E0022B00F08980012B14
:1056A00040F0C4809AF80130012B00F0C180002B3B
:1056B0004C4B18BF002306A94948CDE9063903F031
:1056C00007F8002840F0BF80013594F82031EDB292
:1056D000AB4240F2B380444B53F825902FB207EB16
:1056E000071704EB070A504600F0F0F905EB051325
:1056F00023441B7C042B7DDC022B00F3918000F003
:105700008D806319002283F81021E35D002BC3D143
:105710009AF80130062B00F08580072B00F08A8074
:10572000022B00F09680032B00F09580002B00F0F8
:105730009680012B00F09180042B00F09280052BC5
:105740002A4B18BF0023B6E7FFBEFEE70322402323
:10575000C4E966237AE707226023C4E9662375E774
:105760000F228023C4E9662370E71F22A023C4E927
:1057700066236BE73F22C023C4E9662366E77F22E6
:10578000E023C4E9662361E7FF224FF48073C4E994
:1057900066235BE740F2FF124FF49073C4E966237F
:1057A00054E740F2FF324FF4A073C4E966234DE79B
:1057B0009AF80130042B37D0052B3DD0002B40D078
:1057C000012B42D0022B42D0032B094B18BF0023E0
:1057D00071E700BF00400030280A0024002002408A
:1057E000840B00240002B0254C7201080000B84F61
:1057F0000020903603233E1D04EB05084FF0000BFC
:10580000264488F8103130460BF1010B00F05EF9A8
:1058100098F8103104365B45F5DC76E70123EAE7BA
:105820000223E8E7104B46E7104B44E7002342E72A
:105830000F4B40E70F4B3EE70F4B3CE70FB0BDE887
:10584000F08F0E4B37E7FFBEFEE70D4B33E70D4BF6
:1058500031E70D4B2FE70D4B2DE70D4B2BE70D4B94
:1058600029E70D4B27E700BF0800900C1000C0107F
:105870002000F0148000501D000180210004002A47
:105880000008302E001060320040C03A0080F03E28
:1058900000005247000021430000844B38B5094CFA
:1058A00040F2FF724FF0011104F5AE75284603F087
:1058B000EFFB94F82021D4F854112846BDE8384075
:1058C00003F05AB9280A0024034B0F29D3F85401D6
:1058D00098BF00EB41007047280A0024214B026862
:1058E0009A4200D07047204A00232048D2F8D810AE
:1058F00030B51F4C41F0200183B0C4F8C00109202D
:1059000004F5E075C4E971034FF48060C2F8D81063
:10591000D2F8D8204FF40061C4E9733094F838020B
:1059200002F02002C4F8D4114FF4005198420192C1
:105930002846C4F8D811C4E97833019B14BF00236A
:105940004FF48073C4F8DC3103F01AFE08B1FFBED7
:10595000FEE704F5AE73C4F8A851C4F8F83103B0FB
:1059600030BD00BF00200240004402584000024009
:10597000280A0024014804F07BB900BFE80B00248A
:1059800002682DE9F84F4B4B9A4201D0BDE8F88FE1
:10599000494D95F83832002BF8D095F82031002B7E
:1059A00077D0002405F10C0905F5997605F5907777
:1059B000A04613E003F0010117F811BCA9F108009B
:1059C00000F06EF9BBF1010F25D895F820310134B4
:1059D00009F111090236A2B293422BD917F8012F0F
:1059E000002AF4D0D5F854310021327833F814006D
:1059F000D5F8583103EB041323F812003388013330
:105A00009BB233805FFA83FA3A789A42D2D88A46B8
:105A1000A6F80080D0E7CAF34001A9F1040000F025
:105A20003FF9BBF1020FCAF38001CED0484600F027
:105A300037F9CAE7002395F838022049092298422D
:105A4000C5F8C8314FF48060C5F8C011C5F8C4214D
:105A50004FF400614FF40052C5F8CC3108BF4FF449
:105A60008073C5F8D821C5E9740100221448C5E93E
:105A70007732C5F8E42103F083FD08B1FFBEFEE7ED
:105A800095F82021D5F854110E48BDE8F84F03F0E1
:105A900073B80A4909224FF48060C5F8C831C5E9D6
:105AA00070124FF400614FF40052C5E97330C5E93C
:105AB0007512DAE700200240280A00244000024064
:105AC000E80B0024840B0024704700BF8378022B6E
:105AD00030B504468FB037D0032B33D0012B31D0F3
