:020000040800F2
:1000000000000220F9140008F514000885740008A7
:10001000F5140008F5140008F514000800000000AD
:10002000000000000000000000000000F5140008BF
:10003000F514000800000000F51400080974000819
:10004000F5140008F5140008F5140008F51400086C
:10005000F5140008F5140008F5140008F51400085C
:10006000F5140008F5140008F5140008A161000853
:10007000AD610008FD500008B9610008C5610008C5
:100080008D160108D1560008F5140008F514000873
:10009000F5140008F5140008F5140008F51400081C
:1000A000F5140008F5140008F5140008F51400080C
:1000B000610A01086D0A0108790A0108055700085C
:1000C000F514000811570008F5140008796D0008B0
:1000D000856D0008C1140108F114010825150108F7
:1000E000F5140008F514000800000000F5140008DD
:1000F000F5140008F5140008F5140008F5140008BC
:10010000F5140008F5140008850A0108916D00082F
:10011000591501088D150108F5140008F51400089B
:10012000F5140008F5140008B56D0008E96D000825
:10013000C1160108F5140008F5140008F5140008AC
:1001400000000000000000000000000000000000AF
:10015000F5140008F5140008F5140008C11501088D
:100160001D570008F5140008197400083D740008B4
:10017000F514000861740008F5140008F51400086F
:10018000F5140008F5140008F515010825160108F6
:100190009D6D0008A96D0008F5140008F51400080D
:1001A000F5140008F5140008F5140008F51400080B
:1001B000C15E0008F5140008F5140008F5140008E5
:1001C000F5140008F5140008F5140008F5140008EB
:1001D000F5140008F5140008F5140008F5140008DB
:1001E000F5140008F5140008F5140008F5140008CB
:1001F000F5140008F5140008F5140008F5140008BB
:10020000F5140008F5140008F5140008F5140008AA
:10021000F5140008F5140008F5140008F51400089A
:10022000F5140008F5140008F5140008000000009B
:10023000F5140008F514000800000000F51400088B
:10024000F5140008F5140008F5140008F51400086A
:10025000F5140008F5140008F5140008F51400085A
:10026000F5140008F5140008F5140008F51400084A
:10027000F5140008F51400085916010800000000E4
:10028000F5140008F5140008F5140008000000003B
:0802900000000000F514000855
:1002A00010B5054C237833B9044B13B10448AFF3B0
:1002B00000800123237010BDE8030024000000002B
:1002C000946A010808B5034B1BB103490348AFF317
:1002D000008008BD00000000EC030024946A0108BF
:1002E000034613F8012B002AFBD1181A0138704776
:1002F00001F0FF01102A2BDB10F0070F08D010F8D7
:10030000013B013A8B422DD010F0070F42B3F6D1DA
:10031000F0B441EA012141EA014122F007047FF0F3
:1003200000070023F0E80256083C85EA010586EA4A
:10033000010685FA47F5A3FA87F586FA47F6A5FA86
:1003400087F68EB9EED1F0BC01F0FF0102F0070292
:1003500032B110F8013B013A83EA010313B1F8D13D
:100360000020704701387047002D06BF354603381E
:10037000073815F0010F07D1013015F4807F02BF57
:10038000013015F4C03F0130F0BC0138704700BFA8
:1003900081F0004102E000BF83F0004330B54FEA36
:1003A00041044FEA430594EA050F08BF90EA020FA3
:1003B0001FBF54EA000C55EA020C7FEA645C7FEA36
:1003C000655C00F0E2804FEA5454D4EB5555B8BF59
:1003D0006D420CDD2C4480EA020281EA030382EACA
:1003E000000083EA010180EA020281EA0303362D5C
:1003F00088BF30BD11F0004F4FEA01314FF4801C2F
:100400004CEA113102D0404261EB410113F0004F40
:100410004FEA03334CEA133302D0524263EB4303F7
:1004200094EA050F00F0A780A4F10104D5F1200E95
:100430000DDB02FA0EFC22FA05F2801841F10001F0
:1004400003FA0EF2801843FA05F359410EE0A5F1C4
:1004500020050EF1200E012A03FA0EFC28BF4CF0F5
:10046000020C43FA05F3C01851EBE37101F00045AB
:1004700007D54FF0000EDCF1000C7EEB00006EEBB8
:100480000101B1F5801F1BD3B1F5001F0CD3490842
:100490005FEA30004FEA3C0C04F101044FEA445299
:1004A00012F5800F80F09A80BCF1004F08BF5FEA20
:1004B000500C50F1000041EB045141EA050130BD00
:1004C0005FEA4C0C404141EB0101013C28BFB1F512
:1004D000801FE9D291F0000F04BF01460020B1FA5D
:1004E00081F308BF2033A3F10B03B3F120020CDA30
:1004F0000C3208DD02F1140CC2F10C0201FA0CF00E
:1005000021FA02F10CE002F11402D8BFC2F1200C72
:1005100001FA02F120FA0CFCDCBF41EA0C01904028
:10052000E41AA2BF01EB0451294330BD6FEA040471
:100530001F3C1CDA0C340EDC04F11404C4F120025C
:1005400020FA04F001FA02F340EA030021FA04F36E
:1005500045EA030130BDC4F10C04C4F1200220FAC5
:1005600002F001FA04F340EA0300294630BD21FA03
:1005700004F0294630BD94F0000F83F4801306BFC9
:1005800081F480110134013D4EE77FEA645C18BFBD
:100590007FEA655C29D094EA050F08BF90EA020F54
:1005A00005D054EA000C04BF1946104630BD91EA4C
:1005B000030F1EBF0021002030BD5FEA545C05D14F
:1005C0004000494128BF41F0004130BD14F580048E
:1005D0003CBF01F5801130BD01F0004545F0FE4102
:1005E00041F470014FF0000030BD7FEA645C1ABF37
:1005F000194610467FEA655C1CBF0B46024650EA6E
:10060000013406BF52EA033591EA030F41F4002199
:1006100030BD00BF90F0000F04BF0021704730B51F
:100620004FF4806404F132044FF000054FF00001F4
:1006300050E700BF90F0000F04BF0021704730B5B5
:100640004FF4806404F1320410F0004548BF40428A
:100650004FF000013EE700BF42004FEAE2014FEADF
:1006600031014FEA02701FBF12F07F4393F07F4FBA
:1006700081F06051704732F07F4208BF704793F0BD
:100680007F4F04BF41F40021704730B54FF46074D0
:1006900001F0004521F000411CE700BF50EA0102D3
:1006A00008BF704730B54FF000050AE050EA01027C
:1006B00008BF704730B511F0004502D5404261EBEC
:1006C00041014FF4806404F132045FEA915C3FF42D
:1006D000D8AE4FF003025FEADC0C18BF03325FEACA
:1006E000DC0C18BF033202EBDC02C2F1200300FA7B
:1006F00003FC20FA02F001FA03FE40EA0E0021FAA0
:1007000002F11444BDE600BF53B94AB9002908BF3D
:1007100000281CBF4FF0FF314FF0FF3000F074B9DC
:10072000ADF1080C6DE904CE00F006F8DDF804E048
:10073000DDE9022304B070472DE9F047089D044627
:100740008E46002B4DD18A42944669D9B2FA82F284
:1007500052B101FA02F3C2F1200120FA01F10CFAC0
:1007600002FC41EA030E94404FEA1C48210CBEFBF8
:10077000F8F61FFA8CF708FB16E341EA034306FB81
:1007800007F199420AD91CEB030306F1FF3080F010
:100790001F81994240F21C81023E63445B1AA4B25D
:1007A000B3FBF8F008FB103344EA034400FB07F7FF
:1007B000A7420AD91CEB040400F1FF3380F00A8140
:1007C000A74240F207816444023840EA0640E41B35
:1007D00000261DB1D4400023C5E900433146BDE8E1
:1007E000F0878B4209D9002D00F0EF800026C5E983
:1007F000000130463146BDE8F087B3FA83F6002E9B
:100800004AD18B4202D3824200F2F980841A61EB12
:10081000030301209E46002DE0D0C5E9004EDDE730
:1008200002B9FFDEB2FA82F2002A40F09280A1EB18
:100830000C014FEA1C471FFA8CFE0126200CB1FB6D
:10084000F7F307FB131140EA01410EFB03F0884266
:1008500008D91CEB010103F1FF3802D2884200F2F3
:10086000CB804346091AA4B2B1FBF7F007FB101185
:1008700044EA01440EFB00FEA64508D91CEB040423
:1008800000F1FF3102D2A64500F2BB800846A4EB7E
:100890000E0440EA03409CE7C6F12007B34022FA69
:1008A00007FC4CEA030C20FA07F401FA06F31C4398
:1008B000F9404FEA1C4900FA06F3B1FBF9F8200CA5
:1008C0001FFA8CFE09FB181140EA014108FB0EF0EB
:1008D000884202FA06F20BD91CEB010108F1FF3A3B
:1008E00080F08880884240F28580A8F10208614447
:1008F000091AA4B2B1FBF9F009FB101144EA014155
:1009000000FB0EFE8E4508D91CEB010100F1FF34FF
:100910006CD28E456AD90238614440EA0840A0FB97
:100920000294A1EB0E01A142C846A64656D353D06D
:100930005DB1B3EB080261EB0E0101FA07F722FA91
:1009400006F3F1401F43C5E9007100263146BDE8BA
:10095000F087C2F12003D8400CFA02FC21FA03F31D
:10096000914001434FEA1C471FFA8CFEB3FBF7F09E
:1009700007FB10360B0C43EA064300FB0EF69E42C3
:1009800004FA02F408D91CEB030300F1FF382FD25C
:100990009E422DD9023863449B1B89B2B3FBF7F604
:1009A00007FB163341EA034106FB0EF38B4208D9DD
:1009B0001CEB010106F1FF3816D28B4214D9023E1E
:1009C0006144C91A46EA004638E72E46284605E73C
:1009D0000646E3E61846F8E64B45A9D2B9EB02080D
:1009E00064EB0C0E0138A3E74646EAE7204694E79D
:1009F0004046D1E7D0467BE7023B614432E73046D0
:100A000009E76444023842E7704700BFF0EE407ADD
:100A100017281ED8DFE810F028012501220119014E
:100A20000701F300D200C400B600A8009A008C00B1
:100A300081007600180069005D00510046003B000F
:100A4000380035002E002000B5EE400AF1EE10FA15
:100A500050D19FED870A7047B5EE400AF1EE10FACB
:100A600004D1F5EE400AF1EE10FAF2D0B0EE670ACA
:100A700013F068BBB5EEC00AF1EE10FAE9DD13F031
:100A8000C7B880FE600A704780FE200A7047B4EE47
:100A9000E00ADFED777AB7EE000AF1EE10FA20FEF9
:100AA000270A7047B4EEE00ADFED717AB7EE000A6C
:100AB000F1EE10FA30FE270A7047B4EEE00ADFEDDF
:100AC0006C7AB7EE000AF1EE10FA88BFB0EE670A52
:100AD0007047B4EEE00ADFED667AB7EE000AF1EE99
:100AE00010FA58BFB0EE670A7047B5EE400AF1EE53
:100AF00010FA04D1F5EE400AF1EE10FAA9D0B7EEE3
:100B0000000A7047B4EE600A9FED590AF7EE007ACA
:100B1000F1EE10FA00FE270A7047B4EE600A9FED6E
:100B2000540AF7EE007AF1EE10FA07FE800A7047D9
:100B3000BDEEC00AFDEEE00A10EE103A10EE902A6B
:100B4000134300EE103AB8EEC00A7047BDEEC00A7B
:100B5000FDEEE00A10EE103A10EE902A534000EE3F
:100B6000103AB8EEC00A7047BDEEC00AFDEEE00ACA
:100B700010EE103A10EE902A134000EE103AB8EE44
:100B8000C00A7047BDEEC00AFDEEE00A10EE103A52
:100B900010EE902A134100EE103AB8EEC00A7047EA
:100BA000BDEEC00AFDEEE00A10EE103A10EE902AFB
:100BB000934000EE103AB8EEC00A7047F5EE400AD6
:100BC000F1EE10FA3FF445AFFDEEC07A17EE903A21
:100BD000FDEEE07A17EE902A93FBF2F102FB11335F
:100BE00007EE903AB8EEE70AB5EEC00AF1EE10FA59
:100BF0007FF531AFF0EEE00A30EE200A7047BDEE2F
:100C0000E07A17EE102A002A3FF423AFFDEEC07AF7
:100C100017EE903A93FBF2F102FB113300EE103A1B
:100C2000B8EEC00A7047BDEEE07A17EE103A002B1E
:100C30003FF40FAFBDEEC00A10EE102A92FBF3F3A3
:100C400000EE103AB8EEC00A7047F5EE400AF1EE39
:100C500010FA3FF4FEAE87EEA00A704720EE200A9D
:100C6000704730EE600A704730EE200A704700BFD0
:100C700000000000F8B500AFBD69AB880BB9BD46F8
:100C8000F8BD044610462A7A012AF8D1012B12D168
:100C900084B06E46F0EE400A95ED030AFFF7B6FE0B
:100CA0002968304600F0C4F8324600212046FB692E
:100CB0009847BD46F8BD2B7C012BE9D184B095ED5A
:100CC000050A6E46E6E700BF38B505460C460846FD
:100CD00031B92960C5E90100C5E90344204638BDA2
:100CE00013F028FC286038B10023C5E90100036037
:100CF0002046C5E9034438BD024B3121024A03486E
:100D000013F0B0FB6C56010818570108885601080B
:100D1000006813F017BC00BF83681B685A1C02D11F
:100D20000268136882601846704700BF01F108022C
:100D30000369934270B4D0E9014508D304312144DA
:100D40008D4201D8A5421AD8201D70BC7047C168D9
:100D5000914214D3A54294BF002301237BB90668B6
:100D6000324495420ED3466001613360BFF35E8F1B
:100D700000684FF0FF330430236070BC70470020E0
:100D800070BC70471846F8E701F1080208B503691E
:100D900093420FD35B1A426801F1040C043B0361D8
:100DA00002EB0C034360002342F80C30BFF35E8F6C
:100DB000116008BD024B6B21024A034813F052FB3D
:100DC000A05601080C57010888560108806850F8A1
:100DD000043B0B60704700BF08B583681A681AB1FE
:100DE00004321344836008BD024B7F21024A03484A
:100DF00013F038FBD856010800570108885601083F
:100E000008B5034A3A21034B034813F02BFB00BFFC
:100E1000A4570108245701083457010808B5026097
:100E2000818019B10131C900C18008BDFFF7E8FF19
:100E3000034A80ED030AC0E90012012202727047E2
:100E400001001000002210B4034C0272C260C0E91D
:100E500000145DF8044B70470100100070B50123C9
:100E6000044601601046A3801646FFF739FA05468E
:100E7000022330461035E6602372ADB2E580FFF7FD
:100E80002FFA0346204601331D44E58070BD00BFA4
:100E90002DE9F04F838883B00192002B5FD001339E
:100EA000019AB2EBC30F4FEAC30952D30F468046F3
:100EB0004A460146384607EB090B13F04BFBB8F8DE
:100EC0000420AAB30C25012406E0944204F1010396
:100ED00005F108052CDA1C4618F834A0BAF1020F07
:100EE000F3D158F8051008460091FFF7F9F9461CB0
:100EF000019BB144009999451FD83246584613F0DA
:100F000069FFB988621E91421DDD584607F834A07A
:100F100047F805B0B344FFF7E3F9FB88B8F80420BD
:100F2000083501339442184404F10103F880D2DB00
:100F3000A7F8069003B0BDE8F08F0A4B49210A4A92
:100F40000A4813F08FFA0A4B94210A4A0A4813F010
:100F500089FA0A4B4021044A044813F083FAFFF748
:100F60004FFF00BF8C570108B4570108785701089C
:100F700048570108C8570108345701086857010845
:100F800008B5034A3821034B034813F06BFA00BF3E
:100F900010590108D8570108EC57010838B5044624
:100FA0008D022846656013F0C5FA206058B1002311
:100FB0002846C4E90233C4E90433C4E90633C4E96A
:100FC0000833A36238BD034B5721034A034813F08B
:100FD00049FA00BF0458010818590108EC570108E4
:100FE00070B504460025006804F1200613F0AAFA43
:100FF000E068A8B1236901E0034610464268C0E9F1
:101000000053002AF8D1E26000E04368236113F046
:1010100099FA20690028F8D10834B442E8D170BDAB
:1010200020690028F1D10834B442E1D1F7E700BFCC
:1010300038B50D4620220021EB88013BB3FA83F33B
:10104000C3F11B0323EAE37300EBC3049A40284671
:1010500013F08EFA206930B142682261E268C0E97B
:101060000052E06038BD082013F064FA0028F5D182
:10107000FFF786FFCB88013BB3FA83F3C3F11B0371
:10108000032B2DE9F04F83B04BDC23EAE3724FF0E2
:1010900020088946824600EBC20508FA02F8EB6890
:1010A0001E46002B33D1D0E9012404F5007B5A45BC
:1010B0003DD35C4518D2016809E05A682A6144446E
:1010C0003246A345C3E900761E46EB600ED92B6974
:1010D0000F19002BF1D10820019113F02BFA0346D0
:1010E000E8B1EE680199EAE7D3E90072CAF808B0FE
:1010F0004846EA6042462969596000212B6119601F
:101100003946FFF7C5FE384603B0BDE8F08F596891
:10111000424648461F68E96029695960EDE7FFF7D4
:101120002FFF064B7921064A064813F09BF9064B20
:101130008421034A034813F095F900BF20580108A1
:1011400000590108EC5701082858010808B5034A5E
:101150002921034B034813F085F900BF60590108AA
:10116000205901083859010808B549B10346002241
:101170000C309A60C3E90022BDE80840FFF70EBFBB
:10118000024B1421024A034813F06CF9505901082C
:101190007C59010838590108F8B50468054624B39C
:1011A00000F10C070026A1683846FFF741FF63688D
:1011B000A660AA68C4E903662B602BB11E60C4E96F
:1011C0000062AC601C46EEE76B60C4E9003200E0F0
:1011D00062682046AA6013F0B5F9AC68002CF7D11C
:1011E0003846BDE8F840FFF7FBBE846800F10C0705
:1011F000002CEDD13846BDE8F840FFF7F1BE00BF46
:10120000F0B5846883B0054617461E46B4B16368DE
:10121000AB6005F10C00FFF72DFF00226B68276122
:10122000E660A060C4E9002223B15C6023606C60CA
:1012300003B0F0BDC5E9004403B0F0BD1420019136
:1012400013F078F90199A86018B123464460044668
:10125000DEE7FFF77BFF00BF2DE9F0410568002DB9
:1012600035D0856804460E4690461F46002D32D084
:101270006B683146A36004F10C00FFF7FBFE2368A6
:101280003668A8609A68C5F810801268EF609642C8
:1012900006D200226B601D602A602560BDE8F081E7
:1012A000626891680968B14206D80023C5E9002345
:1012B00055606560BDE8F08119465B689A68126800
:1012C000B242F9D94D60C5E900131D60E6E7BDE8FB
:1012D000F041FFF795BF142013F02CF9A06018B16E
:1012E0002B4645600546C4E7FFF730FF38B5056873
:1012F0008DB10446A9680C30FFF79AFE00236A6896
:10130000AB60C5E90333226032B11360A2680023E9
:10131000C5E90032A56038BD6260F7E770B50568C1
:101320008DB1AB68064699420FD06C6824B90AE0CB
:1013300060682546044638B1A3688B42F8D16AB18B
:10134000E36893420AD0002070BD12B1EB6893426B
:10135000F9D13046FFF7CAFF012070BD06F10C003D
:10136000FFF766FE72680023A242A360C4E903335C
:101370000AD063686B6063681D60B2680023012057
:10138000C4E90032B46070BD6B607560F5E700BF02
:101390009FED096BB7EEC00A0246002386EE017B83
:1013A0001846136027EE007BFDEEC77B17EE903AE0
:1013B000C2E90133704700BF000000000000F041A7
:1013C00010B50C4699882DED028B11B9BDEC028B3E
:1013D00010BD197A0129F9D162B3012AF6D193ED32
:1013E000037AB5EEC07AF1EE10FA08D5F7EE007A7E
:1013F00037EE277AB5EEC07AF1EE10FAF8D4F7EEB0
:10140000007AB4EEE77AF1EE10FA06DD37EE677A8D
:10141000B4EEE77AF1EE10FAF8DCB7EEC77A9FED9A
:10142000106BBDEC028B27EE067BBCEEC77B84ED18
:10143000007A10BD93ED038A00F018FE9FED085B63
:10144000B7EEC88A85EE007B27EE087BBDEC028BE9
:10145000FDEEC77B17EE903AC4E9013310BD00BF23
:10146000000000000000F0410346002083ED000A68
:10147000704700BF938803B97047137A012BFBD1E3
:10148000D3680B60704700BF2DE9F04185688D423D
:1014900021D001F1010804460E4600684FEA880198
:1014A00013F03CFC0746AD00C0B1A068B04209D3C0
:1014B000A8EB0505A660C4F80C80281FC4E90076D7
:1014C000BDE8F081A8EB0002002107EB800092004C
:1014D00013F04EF8ECE70020BDE8F081024B462106
:1014E000024A034812F0BEFFC0590108D45901084E
:1014F000AC590108FEE700BF0B480C4A904203D0EC
:10150000121A0B4913F026F80A480B4A904203D0EE
:10151000121A002113F02CF806F0DCF912F0E6FFA5
:1015200002F0F8F8FEE700BF00000024E403002406
:10153000C46A0108E8030024603F00244069704742
:1015400090ED020B704700BF00697047000000007B
:1015500007EE901A9FED065BB8EE677B90ED026B8D
:1015600027EE057B87EE060BB7EEC00B704700BF7A
:101570000000000000408F4081657047806D70471B
:1015800001657047006D704741657047406D704759
:1015900008B50368D3F88C30984700B1006808BDDF
:1015A00008B50368D3F88C30984700B1406808BD8F
:1015B0000023BFF35B8F80F8843070470000000089
:1015C000B0B582B004460D46002100AF84B06A4633
:1015D00010467A60FFF736FC23687A682946DB6C90
:1015E00020469FED030B98470837BD46B0BD00BFAE
:1015F0000000000000000000B0B582B004460D46B7
:10160000002100AF84B06A4610467A60FFF710FCF4
:1016100023687A682946DB6C20469FED030B9847C8
:101620000837BD46B0BD00BF00000000000000004C
:10163000F8B500AF8AB184B004460D4600216E466D
:101640003046FFF70BFC236832462946DB6C204608
:101650009FED050B9847BD46F8BD054B5321054A44
:10166000054812F0FFFE00BF00000000000000006F
:10167000E4590108F45901083C5A010884304FF03C
:101680000102D0E84F3FC0E8412F0029F9D1DBB279
:10169000BFF35B8F002BF2D1704700BF4FF0010208
:1016A0008430D0E84F3FC0E8412F0029F9D1D8B2AB
:1016B000BFF35B8F80F00100704700BF1830FFF769
:1016C0002DBE00BF036810B5D3F88C301446984780
:1016D00018B12146FFF7D8FE012010BD0000000020
:1016E000DFED0B7A90ED025B87FE800AB7EEC00A51
:1016F0009FED056B20EE050B80EE067BFCEEC77BB5
:1017000017EE900A704700BF0000000000408F40B5
:1017100000000000F8B5DE8800F170051C46174691
:10172000043628463146FFF701FB60B10146E288E6
:10173000204641F8047BFFF7ABFB31462846BDE865
:10174000F840FFF721BB034B1E21034A034812F068
:1017500089FE00BF545A0108205B01083C5A010869
:1017600010B50C1E82B00ADD5C300190FFF7D0FA94
:10177000A102019802B0BDE81040FFF7A5BA034BE3
:10178000B921034A034812F06DFE00BF785B0108DF
:10179000885B01083C5A010810B50C1E82B00ADDB6
:1017A00070300190FFF7B4FAA102019802B0BDE8D1
:1017B0001040FFF789BA034BBF21034A034812F0D8
:1017C00051FE00BFC45B0108D45B01083C5A01080C
:1017D0002DE9F04317469846026D0E46294B00212D
:1017E00083B09A42316046D1054600F1850C4FF036
:1017F000010EDCE84F4FCCE843EF002BF9D1E4B207
:10180000BFF35B8F002CF2D105F170094846FFF75A
:1018100083FAA8B101A948460194FFF7D7FAC0B1ED
:10182000019A132A1BD990451FD30146384601243B
:1018300051F8043B336012F08DFE4846FFF7CCFAB6
:1018400000232046BFF35B8F85F8853003B0BDE8E9
:10185000F0830D4BCF210D4A0D4812F003FE0D4BC6
:10186000D0210A4A0A4812F0FDFD0B4BD121074A4C
:10187000074812F0F7FD094BC721044A044812F04B
:10188000F1FD00BF15170008085D0108B85C0108EC
:101890003C5A01084C5D0108745D0108105C0108A8
:1018A0002DE9F84F2DED028B9FED338BB4EEC80B75
:1018B000F1EE10FA59DB1746002A50D003680546AE
:1018C000314A88469B6988FE008B066993423ED167
:1018D00090ED020B9FED2A6B05F1840380EE067BF1
:1018E00027EE087BBCEEC77B17EE102A3244164663
:1018F0004FF0010CD3E84F4FC3E842CF002AF9D193
:10190000E4B2BFF35B8F002CF2D1B7F806A005F16B
:101910005C0B0AF1040A58465146FFF707FA814664
:10192000B8B10146FA88384641F8048BFFF7B0FA9F
:1019300058465146C9F80460FFF726FABFF35B8F9B
:1019400085F884400120BDEC028BBDE8F88F9847F4
:10195000C0E70E4B83210E4A0E4812F083FD0E4B5A
:1019600074210B4A0B4812F07DFD0C4B7321084A81
:10197000084812F077FD00BF0000000000000000E2
:101980000000000000408F4041150008645E01081F
:10199000045E01083C5A0108545E0108F45D010828
:1019A0002DE9F04F2DED048B9FED719B43EC182B2F
:1019B00085B0B4EEC98B00AFF1EE10FABE6CC0F288
:1019C000D080002E00F0C78007F14C0382463046DD
:1019D0008946FB60FEF784FC8346002800F0B58052
:1019E000C3006749DAF8102089FE089B0833ADEB85
:1019F000030DDAF800309B69E8468B4240F08280A4
:101A00009AED020B29EE009B59464046013E4546A1
:101A100000249FED596B89EE067BBCEEC77B17EE69
:101A2000103A13441A46FFF7F9F916F8013F623BE2
:101A3000112B11D8DFE803F0091010104E103E10E2
:101A400010101010101010101023B8F80430A3421A
:101A500063DD00232B72EB6001340835A345E4DC21
:101A6000DAF80030B0EE480B424649465046DB6C8F
:101A700098471437BD46BDEC048BBDE8F08FFB687A
:101A8000B8F80420191D1868A242F9603FDD00284B
:101A900055D00223E860013408352B70FEF720FC96
:101AA000B8F80630A34503F101031844A8F806006E
:101AB000BBDCD5E7FB68B8F80420191D1B68A242FF
:101AC000F96036DD01340322EB600835A3452A7046
:101AD000ABDCC5E7FB68B8F804200733A24223F06B
:101AE000070393ED007B03F10803B7EEC77BFB60B0
:101AF00019DD0134012385ED037A0835A3452B70E8
:101B000093DCADE77A60504698477A687AE71D4BD8
:101B100094211D4A1D4812F0A5FC1A4B69211C4A4C
:101B20001A4812F09FFC174B73211A4A174812F0FB
:101B300099FC144B8221184A144812F093FC174B5D
:101B40009521114A114812F08DFC154B3A21154A86
:101B50000E4812F087FC144B5C21144A144812F012
:101B600081FC144B5B21114A114812F07BFC00BF31
:101B700000000000000000000000000000408F4056
:101B80004115000848570108406001083457010812
:101B9000C45F0108E85F010814600108746001086F
:101BA00024570108A45F0108905F0108385F01080D
:101BB0003C5A0108F45D0108B5EEC00B70B5F1EEBA
:101BC00010FA1D46294B80ED020B036036DD00291B
:101BD00046DD002A16463DDD002D35DB4FF00003C3
:101BE00004460361C0E915330CBF2B46204B183067
:101BF00083630023BFF35B8F80F86C30BFF35B8F90
:101C000080F86D30882340F8043CFFF7ADFA636933
:101C1000B102034404F15C006361FFF755F86369A6
:101C20000246A90204F1700013446361FFF74CF807
:101C30006369024620461344636170BD0D4B272142
:101C40000D4A0E4812F00EFC0D4B2A210A4A0B4891
:101C500012F008FC0B4B2921074A084812F002FC3D
:101C6000094B2821044A054812F0FCFBEC600108EE
:101C70001517000880600108946001083C5A0108AB
:101C8000D4600108785B0108C8600108084B10B5F2
:101C9000044640F8183BFFF77FFA04F15C00FFF7B9
:101CA00037F804F17000FFF733F8204610BD00BF8D
:101CB000EC6001080048704780610108002070470F
:101CC0000220704700207047034B10B504460360A4
:101CD000FFF7DCFF204610BD7C620108054B10B504
:101CE00004460360FFF7D2FFA021204611F045FE15
:101CF000204610BD7C620108134600F188010022D5
:101D0000FFF75EBB00F19C01FFF7B4BB10B51146B5
:101D100082B00023054C9FED060A0222CDE9001493
:101D20001946FEF7A7FF02B010BD00BFF91C00085E
:101D300000007A4410B5114682B00023054C9FED97
:101D4000060A0222CDE900141946FEF793FF02B0FD
:101D500010BD00BF051D000800007A44B0B5114653
:101D600000AF82B0056801EB83046A462D6CC2E9BE
:101D700000140021A847BD46B0BD00BF2DE9F843BF
:101D800000AF2BB316466A4600211D46A2EBC302E4
:101D90004FEA850995460268E846546C4246A047DA
:101DA000002308EB85041A46002D09DD08EB8301AA
:101DB00006EB820C51F804EBA1424CF808EBF9D188
:101DC0002B444C4412B1BD46BDE8F8830122EBE739
:101DD000024BF121024A034812F044FB90610108D2
:101DE0009C610108EC6101085AB1E9B101290AD0EE
:101DF000002300211648516011721060D3601361F6
:101E000053610220704713494FF07E5C124B4FF034
:101E10007C50C2F810C050610220C2E900130021BA
:101E200000231172D36070474FF07E504FF07C5307
:101E30004FF0000C1172094910610220C2F80CC069
:101E40005160536110B4064C14605DF8044B704748
:101E50001C620108146201085D49F9308DD1FCB2A1
:101E60000C620108094B9446994208D0084B9942EC
:101E70000BD1084B002261461830FFF7EDB9064B35
:101E8000002261461830FFF7E7B970475D49F93025
:101E90008DD1FCB20D1D0008351D00082DE9F0475D
:101EA000044682B015469A4600F15C080BE04E4AA3
:101EB000934205D14D4B3A4604F11800FFF7CCF997
:101EC0004046FEF789FF4046FEF726FF074600B36F
:101ED000002701A940460197FEF778FF019B0146C4
:101EE000132B7BD92368424AD3F8909051F8043BD6
:101EF000914509D13F4A9342D9D13F4B3A4604F12B
:101F00001800FFF7A9F9DBE70A4620461946C8473B
:101F1000D6E7BAF1000FD4F8108058DD0AEB0809B3
:101F2000A06908F1010870B18268136898450AD960
:101F3000D0E903312046984704F11800FFF7D6F99D
:101F4000A0690028F0D1D4F88820F7EE003AB6EE68
:101F5000004ADFED2A6A510AB5EE006ADFED284A31
:101F6000C84541F07E539FED275AD4ED275A07EE1E
:101F7000903A9FED257AD4F88C6077EEE37A32447C
:101F800077EEC47AD5E90013F0EEE77AC4F888203A
:101F900039443B4407F1040777EEC67A67EEA67A28
:101FA00027EEA76A66EE276AE6EEA47A66EE866AF0
:101FB000E6EE857AA5EEA77A81ED007A83ED007AC8
:101FC000AFD15046C4F8109002B0BDE8F087C146CA
:101FD0005046C4F8109002B0BDE8F0870B4BA22128
:101FE0000B4A0C4812F03EFA8DD1FCB20D1D0008D0
:101FF000651E00085D49F930351D0008DB0FC9403A
:10200000ABAA2ABE6257003C000000004C5D0108EC
:1020100034620108EC61010810B5044682B08DED10
:10202000000BFFF7C9FD20460D4B9FED0E0A40F84F
:10203000883B9DED001BFFF7ABF96369DFED0A0AF2
:102040000021034404F19C00B0EE600A6361FFF7D5
:102050000BFA6369024620461344636102B010BD67
:102060007C62010800007A440000000040B1026870
:10207000074992698A4202D190ED020B70471047DE
:10208000044B8821044A054810B512F0EBF900BF53
:1020900041150008106301087863010864630108B2
:1020A000704700BF49424FF480621430C9B212F049
:1020B0005FBA00BF704700BF704700BF4020704745
:1020C0008020704710B5044640F2144111F055FCD1
:1020D000204610BD2DE9F041B02482B000F1080681
:1020E00000F1100500F11408002728468DF807407C
:1020F0000134394603F098F9642301220DF10701F8
:102100003046E4B205F09CF8394628468DF8077051
:1021100003F08AF9012264230DF10701304605F02E
:102120008FF81023394628468DF8073003F07CF9E4
:10213000642301220DF10701304605F081F80121E9
:10214000284603F071F980224146642330469044CA
:1021500005F076F8B82CC7D102B0BDE8F08100BF19
:102160002DE9F04F89B008AC9DF84870019104E961
:102170000C000B78002B00F0AB801A469DF81880FD
:102180009DF819300646454690460393079B0593F4
:10219000A8F12004E3B25E2B00F29E8033685E4A11
:1021A000DB68934240F09B808020B3882B448342BD
:1021B00000F392803368594A9B68934240F09280C2
:1021C0004020F188039A02918B18834200F38480A7
:1021D000002A00F0918002FB04F46FF00049059B97
:1021E000A1441444B6F804B003EB4909023BCDF80E
:1021F000108003EB44030C469A4639F802CFA5B38E
:1022000004F007034FF0010EE20859460EFA03FEF0
:102210000BF114034FFA8EFE03EBC21200236FEA98
:102220000E0832440DE07F2906D83F2C04D81078E0
:1022300097B14EEA00001070013301320131AB4218
:1022400013D00CFA03F00004EDD47F29F4D83F2C0E
:10225000F2D81078002FECD0013308EA00000132E8
:102260000131AB4202F8010CEBD1D14504F101047C
:10227000C3D1DDF8108032680BEB05042649D36822
:10228000A4B28B4234D18020844204D3D368224943
:102290008B423AD17F249368204AB480934224D160
:1022A0004020029B834206D333681C4A9B689342BA
:1022B00025D13F230293029BF380019B1878404570
:1022C00007D113F8018F0193B8F1000F7FF460AFCD
:1022D000002009B0BDE8F08F4FF00008EDE7304670
:1022E000984762E7304698476BE730469847D8E70B
:1022F000304698473268C7E7B6F804B0BBE73046C7
:102300009847013883B20293D5E7304698470138A1
:10231000326884B2BFE700BFC1200008BD200008BA
:102320002DE9F04F85B0A1F1200504AC9DF838707F
:10233000009104E90C00EBB25E2B00F2958003687B
:1023400080465D4ADB689DF8084093429DF809602D
:1023500040F094808020B8F804302344834200F396
:102360008380D8F80030554A9B68934240F08880BB
:102370004020B8F8062093190192834274DC002EA5
:1023800000F0898006FB05F56FF00040039B964640
:1023900028442E44B8F804A003EB4000023B03EBB2
:1023A000460B30F8026FBCB30EF007034FF0010C80
:1023B0004FEADE0251460CFA03FC0AF114034FFA0D
:1023C0008CFC03EBC21200236FEA0C0942440EE0BE
:1023D0007F2907D8BEF13F0F04D815789FB14CEA8A
:1023E000050515700133013201319C4214D006FA03
:1023F00003F52D04ECD47F29F4D8BEF13F0FF1D8BA
:102400001578002FEBD0013309EA050501320131BF
:102410009C4202F8015CEAD158450EF1010EC0D190
:10242000D8F8003054442449DA68A4B28A422DD145
:10243000802084421CD29B68204AA8F80440934222
:1024400021D14020019B834207D3D8F800301B4A9A
:102450009B68934229D13F230193DDE90003A8F84B
:10246000063005B0BDE8F08F002005B0BDE8F08F64
:10247000DA6811498A4211D17F24DCE798476AE77C
:102480004046984775E740469847DBE74046904707
:10249000D8F80030CDE7B8F804A0C1E7404690472F
:1024A0000138D8F8003084B2C5E740469847013873
:1024B00083B20193D1E700BFC1200008BD2000080E
:1024C0002DE9F04F89B01D46884606901046129CB3
:1024D00010F8013B13999DF85060009233B100222F
:1024E00010F8013B0132002BFAD193B22A786878B8
:1024F00012FB03F302B21BB223EAE373082900F2D2
:10250000A681DFE811F0010113011F013301410130
:102510004F0166016F010900A18827880F44B4F9B3
:102520000610FF1A0029BFB2C0F2FE806488069828
:1025300004EB6104C280A4EB52028380078094B252
:102540004480A64AD8F8003011460192DA688A42DF
:1025500040F08B818020B84205D8DA6801998A4220
:1025600040F098817F279E4A9B68A8F804709342A8
:10257000039240F087814020A04207D8D8F800306D
:10258000039A9B68934240F080813F24009BA8F807
:10259000064093F800B06B782C7804936B6807932F
:1025A000BBF1000F00F0AC80ABF12005EBB25E2B6D
:1025B00000F22C81D8F80030019ADB68934240F099
:1025C00028818020B8F8043023449842C0F21E814C
:1025D000D8F80030039A9B68934240F01D81402058
:1025E000B8F80610049A02918B189842C0F20E8136
:1025F000002A00F01C8102FB05F56FF0004E079BDE
:10260000AE441544CDF814B003EB4E0E023BB8F8BF
:1026100004A003EB45030D469B463EF8027FA4B39E
:1026200005F007034FF0010CEA0851460CFA03FCD1
:102630000AF114034FFA8CFC03EBC21200236FEA79
:102640000C0942440DE07F2906D83F2D04D81078AC
:1026500096B14CEA000010700133013201319C4206
:1026600013D007FA03F00004EDD47F29F4D83F2DEE
:10267000F2D81078002EECD0013309EA00000132C4
:1026800001319C4202F8010CEBD1F34505F1010543
:10269000C3D1DDF814B0D8F800200AEB0405019985
:1026A000D368ADB28B4240F0BD808020854205D317
:1026B000D36801998B4240F0C3807F259368039AC9
:1026C000A8F80450934240F0AA804020029B834225
:1026D00008D3D8F80030039A9B68934240F0AA8050
:1026E0003F230293029BA8F80630009A13785B45BB
:1026F00006D112F801BF0092BBF1000F7FF454AF76
:10270000069809B0BDE8F08FB4F9041027880029B5
:10271000B8BF013107EB6107B4F90610A7EB6307F7
:102720000029BFB2BFF602AF0131FFE6B4F9007075
:102730000699B4F902400F80BFB24C80A4B28B80DE
:10274000CA80FEE6B4F9041027880029B4F90240D3
:10275000B8BF013107EB610706998B80A7EB6303D4
:102760004C80A4B29FB2CA800F80EAE6A188278875
:10277000B4F902400F4406998B80FB1A4C80A4B236
:102780009FB2CA800F80DCE6E78861883944B4F9DB
:102790000070081A069984B20F808B80BFB2CA807D
:1027A0004C80CEE6B4F9041027880029B8BF013167
:1027B00007EB6107A7EB6307B4F802C0BFB2E48878
:1027C000069964448B80201ACA800F8084B24C80A2
:1027D000B7E62788A1880F44FF1AEDE7C12000085B
:1027E000BD200008B4F90610B4F90070002964880F
:1027F0000698B8BF0131C28004EB61040780838072
:10280000BFB2A4EB520294B244809AE64FF0000BA0
:102810006BE740469847D5E640469847E0E6404695
:10282000984753E740469847D8F800203EE7B8F865
:1028300004A030E740469847013883B2029351E73D
:10284000404698470138D8F8002085B236E7D8F8D6
:1028500000300024069A1349148054809480D48058
:10286000DA6801918A4205D0274640469047D8F859
:10287000003070E69B680C4AA8F80440934203922B
:102880003FF484AE4046984776E640469847013884
:1028900084B27BE6404690470138D8F8003087B2D2
:1028A00061E600BFC1200008BD2000087F291ED8B6
:1028B0003F2A1CD86BB1D3084FF0010C02F007027D
:1028C00001EBC3130CFA02F2C1180B7D1A430A750F
:1028D0007047D3084FF0010C02F0070201EBC3135D
:1028E0000CFA02FCC1180A7D22EA0C020A75704734
:1028F0002DE9F04F83B05C1A0C9E002C9DF83490AB
:10290000A6EB0208B8BF6442B8F1000FB8BFC8F127
:1029100000088B428CBF4FF0010A4FF0FF3A9642FD
:10292000A4EB080C51D84FF0FF357F2B019512D83E
:102930003F2E10D8F50806F0070E012703EBC5154A
:102940000544B9F1000F47D007FA0EF795F814E0E7
:1029500047EA0E072F75964201D18B4229D0C8F164
:1029600000077F2914D83F2A12D8D50802F0070B98
:102970004FF0010E01EBC5150544B9F1000F1BD056
:102980000EFA0BFE95F814B04EEA0B0E85F814E023
:10299000B7EB4C0F4FEA4C0502DAACEB080C514494
:1029A000AC4202DD019DA4442A449942D9D1964209
:1029B000D7D103B0BDE8F08F0EFA0BFB95F814E009
:1029C0002EEA0B0E85F814E0E2E701257F2B019536
:1029D000C5D83F2EAED9C2E707FA0EFE2F7D96422C
:1029E00027EA0E072F75B8D0B9E700BF0000000036
:1029F0002DE9F04F2DED068B83B01F4680460D4626
:102A00009DF8503016460193139B002BC0F2218293
:102A1000129A134406EE103ADDED127AB8EEC66B48
:102A20009FEDCD4BB8EEE77B9FEDCD5B27EE047BB2
:102A300026EE046B87EE050B86EE05ABF7EEC08B3A
:102A4000B0EE680A10F0B4FF07EE907AB7EECAABAA
:102A5000F8EE679AB0EE408AB0EE680A11F06CFAB0
:102A600060EE698AB0EE4A0A10F0A2FFB0EE409A1A
:102A7000B0EE4A0A11F060FA20EE690A29EE888A5F
:102A800029EE899A70EE687AF0EE006A39EE487A9B
:102A900067EEA77AE7EE077AF4EEE67AF1EE10FA3F
:102AA00006D5139BB42B40F396804FF0010901E04B
:102AB0004FF00009012478424FF0000C0095E31B11
:102AC000214627462246A340B9F1000F6AD142426F
:102AD00006EE90CACCF1000107EE102AB8EEE66AC5
:102AE00007EE901A06EE900AB8EEC77A139A66EED1
:102AF000084AF8EEE77AB42A27EE284AF8EEE66AA2
:102B000067EE885A74EEC43A26EEA85A26EE096A91
:102B100066EE806A67EE897A27EE007AF5EEC03AB3
:102B200040F3F280F1EE10FA00F17F8176EE473A41
:102B300074EEC54AF5EEC03AF1EE10FAF5EEC04A71
:102B4000CCBF01220022F1EE10FA00F1778136EEBF
:102B5000666A35EEC55AB5EEC06AF1EE10FAB5EE0A
:102B6000C05ACCBF01210021F1EE10FA00F16F81B3
:102B700077EEE66AF5EEC06AF1EE10FACCBF0127F7
:102B8000002775EEC45AF5EEC05AF1EE10FA00F1C6
:102B9000478177EEC77AF5EEC07AF1EE10FACCBF36
:102BA00001240024002A40F08A80002964D1BFB9A2
:102BB000C4BB9C4558DB0CF1010C03EB4C0E1CEB29
:102BC000000F0EF1010E00F0C08098424FDB7346FB
:102BD00000287FF779AF03B0BDEC068BBDE8F08F1E
:102BE000009DA6EB0C0E00EB050ABAF17F0FDFD8B3
:102BF000BEF13F0FDCD84FEADE0B019D0AEBCB1A8A
:102C0000002D00F0B1800EF0070BC2444FF0010E12
:102C10000EFA0BFE9AF814B04EEA0B0E8AF814E086
:102C2000002CC6D0009DA6EB0C0EA5EB000ABAF155
:102C30007F0FBED8BEF13F0FBBD84FEADE0B019D20
:102C40000AEBCB1A002D00F0AE800EF0070BC24449
:102C50004FF0010E9C450EFA0BFE9AF814B04EEAA6
:102C60000B0E8AF814E0A6DA98429E46AFDA0130DD
:102C70000EEB40030133ABE7009D0CEB060E00EBBF
:102C8000050ABAF17F0F92D8BEF13F0F8FD84FEAF5
:102C9000DE0B019D0AEBCB1A002D73D00EF0070B53
:102CA000C2444FF0010E0EFA0BFE9AF814B04EEA31
:102CB0000B0E8AF814E0002F3FF47AAF90E7009DE6
:102CC0000CEB060EA5EB000ABAF17F0F3FF66DAFD5
:102CD000BEF13F0F3FF669AF4FEADE0B019D0AEBF5
:102CE000CB1A002D6DD00EF0070BC2444FF0010E31
:102CF0000EFA0BFE9AF814B04EEA0B0E8AF814E0A6
:102D000000293FF454AFB7E7F1EE10FA7ED44A46FB
:102D100074EEC54AF5EEC04AF1EE10FA6CD400210B
:102D200035EEC55AB5EEC05AF1EE10FA5AD4002766
:102D300075EEC45AF5EEC05AF1EE10FA3FF529AF20
:102D40000024002A3FF431AFB9E798428FDB00231B
:102D50003BE700BFAFF300807A008BFCFA2109400B
:102D60000000000000806640C2444FF0010B0EF0EE
:102D7000070E0BFA0EFE9AF814B02BEA0E0E8AF824
:102D800014E015E7C2444FF0010B0EF0070E0BFAEA
:102D90000EFE9AF814B02BEA0E0E8AF814E0002FFB
:102DA0003FF406AF1CE7C2444FF0010B0EF0070ED4
:102DB0000BFA0EFE9AF814B02BEA0E0E8AF814E005
:102DC000F7E6C2444FF0010B0EF0070E0BFA0EFEB1
:102DD0009AF814B02BEA0E0E8AF814E000293FF49A
:102DE000E6AE49E777EEE66AF5EEC06AF1EE10FA74
:102DF000CCBF012700279BE736EE666AB5EEC06AB6
:102E0000F1EE10FACCBF0121002189E776EE473AB6
:102E1000F5EEC03AF1EE10FACCBF0122002277E7BE
:102E20000124002A3FF4C1AE49E774EEC54A0122ED
:102E3000F5EEC04AF1EE10FA7FF589AE35EEC55ACF
:102E40000121B5EEC05AF1EE10FA7FF591AE0127DF
:102E500097E6DDE91223134406EE102A1293139B22
:102E60005B421393D8E500BF2DE9F04F87B09DF882
:102E70004850109C2E4601959DF844509EB39942AF
:102E80002ED89946A24228D87F29164694BF0023FF
:102E9000012308E09CF814804EEA080E8CF814E038
:102EA0000136B44219D33F2EFAD8002BF8D14FEA9D
:102EB000D60C06F0070E4FF0010801EBCC1C08FA07
:102EC0000EFE8444002DE5D19CF814B001362BEAA7
:102ED0000E0AB4428CF814A0E5D201318945D1D252
:102EE00007B0BDE8F08FA3EB0108B8F1000FB8BF41
:102EF000C8F100089942C0F04E817F2B4FF0FF3A95
:102F000094BF002601263F2A009694BF0027012780
:102F10000297A6B99FB9D60802F0070C012703EB68
:102F2000C6160644002D00F0948107FA0CF796F8B7
:102F300014C047EA0C07377500260296009699429E
:102F400000F09781464694468E46BEF17F0F16D814
:102F5000BCF13F0F13D84FEADC070CF0070B4FF022
:102F600001090EEBC7170744002D00F0398109FA5B
:102F70000BF997F814B049EA0B0987F81490770019
:102F800018BFD644B84502DD46440CF1FF3C7345FA
:102F9000DBD16245D9D100260496A4EB0209009F3B
:102FA000B9F1000FB8BFC9F100093F2C94BF00264A
:102FB0000126A242C9F100080396C0F02381002F28
:102FC00040F05081002E40F04D814FF0FF360096CA
:102FD000E60803EBC6160644002D00F01E814FF0F4
:102FE000010C04F007070CFA07F796F814C047EA3B
:102FF0000C07377500260396A24200F03D81C446B7
:1030000016461F4605927F2F15D83F2E13D84FEA3C
:10301000D60E06F0070B4FF0010A07EBCE1E8644D2
:10302000002D00F0E6800AFA0BFA9EF814B04AEA86
:103030000B0A8EF814A0B8EB4C0F4FEA4C0E02DAD4
:10304000ACEB090C013FBEF1000F01D0009A164411
:10305000BB42D8D1B442D6D1059AA1EB030EBEF142
:10306000000FB8BFCEF1000E7F2994BF4FF0000AC9
:103070004FF0010A99428CBF4FF001094FF0FF3920
:10308000BAF1000F13D1039E8EB9E60801EBC61604
:103090000644002D00F0D3804FF0010C04F0070728
:1030A0000CFA07F796F814C047EA0C073775049E28
:1030B00026BB774626467F2B14D83F2E12D84FEAE0
:1030C000D60C06F0070B4FF0010803EBCC1C844430
:1030D000002D73D008FA0BF89CF814B048EA0B08DE
:1030E0008CF814805FEA470C18BF4B44E64501DDBD
:1030F0007744013E9942DED1B442DCD1A2EB040E0A
:10310000BEF1000FB8BFCEF1000EA2428CBF4FF04F
:1031100001084FF0FF38CEF1000CBAF1000F0ED1CC
:10312000029B63B9D30802F00707012601EBC31322
:103130000344002D7CD0BE401F7D3E431E75019B85
:10314000002B7FF4CDAE66460B467F2B12D83F2C6A
:1031500010D8E70804F0070A4FF0010903EBC7177E
:103160000744A5B309FA0AF997F814A049EA0A092D
:1031700087F81490BCEB460F4FEA460702DAA6EB3D
:103180000E06013B07B144449942DED1A242DCD194
:1031900007B0BDE8F08F3F2A4FF0010A94BF002628
:1031A00001267F2B029694BF002701270097002E4F
:1031B0007FF4C8AE002F3FF4AEAEC3E608FA0BFBB7
:1031C0009CF8148028EA0B088CF814808AE709FA26
:1031D0000AFA97F8149029EA0A0987F81490C9E7BF
:1031E00009FA0BFB97F8149029EA0B0987F8149059
:1031F000C5E60AFA0BFB9EF814A02AEA0B0A8EF821
:1032000014A018E797BB8EBB01260096E60803EBD7
:10321000C6160644002D7FF4E2AE012704F0070C29
:10322000039507FA0CFC377D27EA0C073775E3E6B0
:1032300006FA07F71E7D26EA07061E757FE70127B7
:1032400004F0070C07FA0CFC377D27EA0C073775EA
:103250002DE707FA0CFC377D029527EA0C0700954D
:1032600037756CE64FF0FF360096C5E601260096EE
:10327000C5E60126049690E601260196EDE600BF1C
:1032800084B02DE9F04182B00125064604460DF1D7
:1032900024088572274688E80E00BDF84C3026F8D1
:1032A000083F304601F0D6FFBDF84E30A57127F833
:1032B000043F384601F0CEFF4146204603F03AFF76
:1032C0000021384602F0B0F80A2004F04BF92946F4
:1032D000384602F0A9F80A2004F044F9AE2330463B
:1032E00000218DF8073002F09FF82A460DF1070102
:1032F0006423204603F0A4FFD523304600218DF837
:10330000073002F091F82A460DF1070164232046A8
:1033100003F096FF8023304600218DF8073002F03D
:1033200083F82A460DF107016423204603F088FF45
:10333000A823304600218DF8073002F075F82A46A0
:103340000DF107016423204603F07AFF3F23304646
:1033500000218DF8073002F067F82A460DF10701C9
:103360006423204603F06CFFDA23304600218DF8F9
:10337000073002F059F82A460DF107016423204670
:1033800003F05EFF1223304600218DF8073002F073
:103390004BF82A460DF107016423204603F050FF45
:1033A0000021D32330460F468DF8073002F03CF859
:1033B0002A4664230DF10701204603F041FF3946F8
:1033C00030468DF8077002F02FF82A460DF10701FC
:1033D0006423204603F034FF4023394630468DF8FD
:1033E000073002F021F82A460DF107016423204638
:1033F00003F026FFA623394630468DF8073002F049
:1034000013F82A460DF107016423204603F018FF44
:10341000A423394630468DF8073002F005F82A46D5
:103420000DF107016423204603F00AFF8D2339467E
:1034300030468DF8073001F0F7FF2A460DF10701FD
:103440006423204603F0FCFE1423394630468DF8F1
:10345000073001F0E9FF2A460DF1070164232046F9
:1034600003F0EEFEA123394630468DF8073001F017
:10347000DBFF2A460DF107016423204603F0E0FE3E
:10348000C823394630468DF8073001F0CDFF2A4673
:103490000DF107016423204603F0D2FE8123394653
:1034A00030468DF8073001F0BFFF2A460DF10701C5
:1034B0006423204603F0C4FE8F23394630468DF83E
:1034C000073001F0B1FF2A460DF1070164232046C1
:1034D00003F0B6FED923394630468DF8073001F0A7
:1034E000A3FF2A460DF107016423204603F0A8FE3E
:1034F0002523394630468DF8073001F095FF2A46DE
:103500000DF107016423204603F09AFEDB233946C0
:1035100030468DF8073001F087FF2A460DF107018C
:103520006423204603F08CFE3423394630468DF860
:10353000073001F079FF2A460DF107016423204688
:1035400003F07EFEAF23394630468DF8073001F098
:103550006BFF64232A460DF10701204603F070FE3D
:1035600002B0BDE8F04104B0704700BF2DE9F04F54
:103570000546A3B0099100F03FF90999284600F0EB
:10358000C3F90F2000F03AF9034605F13C0405F1B8
:10359000180AADF828300DF1680920460A9901F0A3
:1035A0004FFB102000F02AF9034605F14D00EB46D1
:1035B000ADF82C3005F1A8060B9901F041FB04236E
:1035C000022221465046B02401F048FB002150461B
:1035D00001F03EFD01462846099100F029F900233B
:1035E000DFED480A05F1600009991A4601F0D2FAA8
:1035F0000121504601F02CFD01462846099100F0BA
:1036000017F9002305F18000DFED3E0A1A460999FB
:1036100001F0C0FA022300223B490DF1300E0DF1FA
:103620005C0C0C91002167460E910F91CDE914338B
:10363000CDE91222354B364A0D930823169201220A
:10364000CDE9102305F1B403B03509939846BEE8DF
:103650000F00ACE80F00BEE80F00ACE80F009EE8DA
:1036600007008CE80700B9E80F00ABE80F0099E805
:103670000F008BE80F00304697E80E00FFF700FEC2
:10368000002109984FF4806210F072FF4FF000099A
:1036900028468DF85C400134494601F0C5FE64239C
:1036A000012239463046E4B203F0CAFD49462846B5
:1036B0008DF85C9001F0B8FE012264233946304653
:1036C00003F0BEFD1023494628468DF85C3001F01A
:1036D000ABFE642301223946304603F0B1FD0121DF
:1036E000284601F0A1FE80224146642330469044E2
:1036F00003F0A6FDB82CC9D1504623B0BDE8F04F69
:1037000001F090BC6F12033B060B0B000105060A8B
:103710000104010F08B501210548FFF727FF0549FE
:10372000034800F081F8044B044A1A65FEE700BF25
:1037300004040024A1370008B8080024A1200008D0
:1037400070B511480024114E114B124D32461249EA
:10375000046044610462C0F8A030C0F8A84010F0D2
:1037600007F90A212346022228469FED050BFEF7A2
:1037700053FC324628460949BDE8704010F0F8B8BD
:10378000000000000070E740040400240000002452
:10379000B0630108B8080024B9200008C91C00085B
:1037A00070B5114C82B0114D064604F160000192D3
:1037B000009101F021FA04F1800001F01DFA94ED6E
:1037C0001B0A0B492846FDF717FF94ED230A094908
:1037D0002846FDF711FF31462846DDE9002302B0F7
:1037E000BDE87040FEF75ABB04040024B80800246A
:1037F0008DD1FCB25D49F930704700BF1F2882B0FF
:1038000009D8084B03EB400213F81030507843EA14
:10381000002002B0704701230C2043EA002002B0D0
:10382000704700BFE4630108143001F07FB900BFA6
:1038300090ED0E0A704700BFF0B5032399B0002742
:103840000125129306462C4B09A81595CDE90E7358
:1038500040F20453ADF84030284BCDE9135709939B
:1038600001F0F8FC09A801F0D1FD002836D1244B65
:1038700004AF04460090CDF8423010233946049539
:103880008DF820301F4BCDE91650CDE90650684623
:10389000059301F049FF0823009A01A909A8ADF892
:1038A00004508DF8064009940295039300F0E4F863
:1038B00000230EA938463024049302F0FDFC0322B5
:1038C0004FF07E5309A906F114000B930C93CDE938
:1038D0000942049A01F0EAF819B0F0BD40F601324D
:1038E000074B169704AFADF824200998CDF8423065
:1038F000179500F081F8DBE70402040403030001DC
:10390000040604030704010B2DE9F04304462DEDE2
:10391000028B83B0002948D0012140F2011200231C
:103920000091ADF804208DF80630304A0126304B66
:10393000271D304904F12908626040F20272A36039
:1039400040F60663E16004F125092682A4F82520EB
:1039500084F82760A4F8293084F82B6003F070FF06
:103960006946054648B304F130008DF8066003F05F
:10397000C5FE072D34D104F114052046FFF75CFF86
:10398000284601F0CFF82846B0EE408A01F0C6F88C
:10399000D0ED007AF8EE677A88EE277A84ED0E7A19
:1039A00003B0BDEC028BBDE8F08340F2011300913F
:1039B0008DF80610ADF80430B7E704F1300003F0DD
:1039C0009DFE3946204602F0F7F8484601F042FCD9
:1039D000404601F03FFC04F1120000F077F9CAE71D
:1039E0003946204602F0E8F8C5E700BF050805099A
:1039F00005070506050A060610B584B0034601242E
:103A0000ADF8040003A8ADF80C30ADF80E4001F09D
:103A100021FC214603A801F007FD204603F0A2FD8A
:103A2000002103A801F000FD204603F09BFD214684
:103A300003A801F0F9FC04B010BD00BF10B5C2F33B
:103A4000002384B00C46017C8DF80D2043EA44022B
:103A5000FA2402238DF80C2003AA009401F0FAFE48
:103A600018B10124204604B010BD04460A2003F01A
:103A700079FD204604B010BD034670B543F8042B11
:103A8000044684B007C983E80700A37983B91A21E3
:103A90000B461E22FA2523742046ADF80C20022383
:103AA00003AA009501F0D6FE28B1012004B070BD34
:103AB0001B210B46EDE70A2003F054FD4FF4B852EA
:103AC00000950223ADF80C20204603AA217C01F0CA
:103AD000C1FE0028E9D10A2003F044FD41F2027240
:103AE00000950223ADF80C20204603AA217C01F0AA
:103AF000B1FE0028D9D10A2003F034FD042200953C
:103B00000223ADF80C20204603AA217C01F0A2FE7E
:103B10000028CAD10A2003F025FD062200950223C1
:103B2000ADF80C20204603AA217C01F093FE00286A
:103B3000BBD10A2003F016FD41F2082200950223B2
:103B4000ADF80C20204603AA217C01F083FE00285A
:103B5000ABD10A20064603F005FD0095022303AA17
:103B6000217C2046ADF80C6001F074FE00289CD149
:103B7000304603F0F7FC009522790C232046002AFA
:103B80008DF80C3003AA4FF0020314BF62214221CA
:103B90008DF80D10217C01F05DFE002885D13046A6
:103BA00003F0E0FC2279D4E902310B43DBB20AB91D
:103BB00043F0400362790AB143F020030E22FA2554
:103BC0008DF80D302046009502238DF80C2003AAB5
:103BD000217C01F03FFE00287FF467AF0A2003F04C
:103BE000C1FC102200950223ADF80C20204603AA48
:103BF000217C01F02FFE00287FF457AF0A2003F04C
:103C0000B1FC122100950223ADF80C1003AA217C0F
:103C1000204601F01FFE00287FF447AF0A2003F082
:103C2000A1FC012209212046FFF708FF003818BF38
:103C300001203BE7F0B5102387B0234C012200257B
:103C40000126002702A920460195CDE902234FF461
:103C50008052CDE904670AF0ABFB642004F096F8CB
:103C600002A94FF480522046CDE9046702261027AE
:103C7000CDE902670AF09CFB0322102302A920462B
:103C8000CDE9022300230422CDE904234FF480521E
:103C90000AF08EFB40F23223042202A90193102382
:103CA0002046CDE90223019A012305924FF4805268
:103CB00004930AF07DFB40F6060120460AF098FBCB
:103CC000284607B0F0BD00BF600900241C4B00224D
:103CD0001C494FF0400C30B5054689B002205960B0
:103CE00007219A601A620124DA620A224FF4006EF8
:103CF000DC6006922022CDE9000104200821CDE9F4
:103D0000020103201021CDE9040108206946C3E91E
:103D100004024FF4C072181DC3E906C24FF480526A
:103D2000C3E909E20AF01AFB38B92846FFF782FF17
:103D3000003818BF012009B030BD204609B030BDA1
:103D40005C09002440410052614A0021D0B513684B
:103D50008EB00A91002B40F0B9805E4B01214FF6E6
:103D600083700C2411600221D3F8D420002603278D
:103D700042F48052C3F8D420D3F8D42002F4805205
:103D80000092009AD3F8E02042F01002C3F8E0203D
:103D9000D3F8E02002F010020192019AD3F8E0205B
:103DA00042F04002C3F8E020D3F8E02002F04002E5
:103DB0000292029AD3F8E02042F00802C3F8E02011
:103DC000D3F8E02002F008020392039AD3F8E0202F
:103DD00042F48072C3F8E020D3F8E02002F480724D
:103DE0000492049AD3F8E02042F08002C3F8E02065
:103DF000D3F8E02002F080020592059AD3F8E02083
:103E000042F02002C3F8E020D3F8E02002F02002C4
:103E10000692069AD3F8E02042F00402C3F8E020AC
:103E2000D3F8E0300C9403F0040307930323079ABC
:103E30000B93CDE9080108A9274805F02DFE48F2AB
:103E40003712022308A925480C94CDE90823CDE9AF
:103E50000A6705F021FE4CF20372022308A92048EC
:103E60000C94CDE90823CDE90A6705F015FE40F270
:103E7000FF62022308A91B480C94CDE90823CDE971
:103E80000A6705F009FE4FF60C72022308A91648CE
:103E90000C94CDE90823CDE90A6705F0FDFD4FF646
:103EA0003F02022308A911480C94CDE90823CDE96B
:103EB0000A6705F0F1FD2022022308A90A480C94A4
:103EC000CDE90A67CDE9082305F0E6FD0EB0D0BDC7
:103ED00058090024004402580010025800180258E3
:103EE000000C025800200258001C0258001402580E
:103EF0002DE9F04FDFF8108406460D46144608F110
:103F000018002DED028B89B000AF02F0CDFAD8F881
:103F1000183073B3D8F81C30D8F80490002B4369DC
:103F20000BBF4FF0080A4FF0100A4FF0020B4FF092
:103F3000040BB9F1000F2AD0A200EA46012B02F1CE
:103F4000070222F00702ADEB020D6846ADEB020D51
:103F5000694600F03F81022B00F0D680002B6FD025
:103F60002246C847D5462437BD46BDEC028BBDE886
:103F7000F08FD8F81C30002BF5D0D8F804904FF013
:103F8000080A4FF0020B4369B9F1000FD4D1FB616D
:103F9000D8F80030BB61002BE5D0D54802F0F6FA26
:103FA0006B46BBF1020F786108EE103AFB6900F036
:103FB00083816A465146A2EBC40295466200EA46F6
:103FC000B2FBFBF2AAEBC40085460AEB8200EE4688
:103FD000F861ADEB010DF8690EEB820CC7F810C06B
:103FE000EC46ADEB010D00EB8201CCF80400CCF8FF
:103FF000081001EB82013869E946CCF80C1000EB9F
:104000008201CCF800A001EB8202C9E900E0C9E915
:104010000212012B00F06483022B00F06C82002B53
:1040200000F08081620849466046BB69984718EEF7
:10403000103A24379D46BD46BDEC028BBDE8F08F9B
:10404000002C8DD01A46D8ED0C6A9FEDB27A8446CA
:10405000331D36F922E00CF1080C07EE90EA33F933
:1040600022E00232F8EEE77A944267EE877A67EE52
:10407000A67A4CED027A07EE90EAF8EEE77A67EE60
:10408000877A67EEA67A4CED017AE2D8F96122468A
:10409000C847984ED8ED0D6A0020F9692B1D9FED99
:1040A0009E7A9FED9E6ADFED9E5A22E0F4EEC67A7C
:1040B000F1EE10FAC0F2C88447F6FE72D1ED017A33
:1040C00045F8202066EEA77AF4EEC77AF1EE10FAF2
:1040D00040F2F080F4EEC67AF1EE10FAC0F2D58428
:1040E00047F6FE7243F820200230083184427FF602
:1040F00039AFD1ED007A66EEA77AF4EEC77AF1EE29
:1041000010FAD3D83246D9E7002C3FF429AFD8EDC6
:104110000C6A84469FED787A0022331D8E4656F84D
:1041200022100CF1080C07EE901A53F822100232FC
:10413000F8EEE77A944267EE877A67EEA67A4CED5E
:10414000027A07EE901AF8EEE77A67EE877A67EE62
:10415000A67A4CED017AE2D871462246C7F81CE0F7
:10416000C847664ED8ED0D6A0020F9692B1D9FEDFA
:104170006A7A9FED6A6ADFF894C120E0F4EEC67AAD
:10418000F1EE10FAC0F279843246D1ED017A45F8A9
:10419000202066EEA77AF4EEC77AF1EE10FA40F22C
:1041A0008780F4EEC67AF1EE10FAC0F25E843246F1
:1041B00043F820200230083184427FF6D3AED1ED9F
:1041C000007A66EEA77AF4EEC77AF1EE10FAD5D847
:1041D0006246DAE7002C3FF4C3AED8ED0C6A86469F
:1041E0009FED477A4FF0000C331D56F82C200EF14E
:1041F000080E82F40002A2F5000207EE902A53F89E
:104200002C200CF1020CF8EEE77A82F400026445EF
:10421000A2F5000267EE877A67EEA67A4EED027A83
:1042200007EE902AF8EEE77A67EE877A67EEA67ACD
:104230004EED017AD9D8F9612246C847314ED8ED02
:104240000D6A0020F9692B1D9FED337A9FED336ACB
:10425000DFF8BCC01FE0F4EEC67AF1EE10FAC0F24F
:10426000FC833246D1ED017A45F8202066EEA77A2C
:10427000F4EEC77AF1EE10FA18D9F4EEC67AF1EE40
:1042800010FAC0F2DA83324643F8202002300831B7
:1042900084427FF667AED1ED007A66EEA77AF4EE3F
:1042A000C77AF1EE10FAD6D86246DBE76246EBE752
:1042B00062467DE7324615E7A100D646620807311F
:1042C00021F00701ADEB010DEA46ADEB010D6946AA
:1042D000ADEB0E0D0AEB8200EC46ADEB0E0D01EBE3
:1042E0008202F861E946CCE900A0C9E9001290E633
:1042F000B00900240280FFFF000000300082FF7F31
:104300000000003482FF7F0094090024007E0080BA
:104310007E0080FF0000003804FF7FBF04FF7F3F66
:1043200000FEFF46002C00F0C982BBF1020FD8F856
:10433000242000F0FA827969C7F8049002EB810E1C
:104340005FED0C5A8A00DCF808100EF104007A6167
:104350001A46DCF80C303B61331DD7F810903D61F4
:10436000FD69C7E902CB8C46834636F92210D8EDA9
:104370000C7A06EE101A33F9221006EE901A3EF966
:104380002210B8EEC66A07EE101AF8EEE66A3BF99C
:104390002210B8EEC77A26EE256A66EEA56A27EEE9
:1043A000257A26EE276A66EEA76A27EE277A07EEB9
:1043B000901A51080232F8EEE77A0AEB8100944233
:1043C00080ED006A05EB810067EEA57AC0ED006A1A
:1043D0000CEB810009EB810180ED007A98ED0C7AFD
:1043E00067EE877AC1ED007ABFD8D7F804903D69AF
:1043F000D7E902CB60466208BB6949469847D8F8BE
:104400002C307A69D8ED0D6A1A441FED3D7A1FED04
:104410003D6A2B1D904602F1040A5FED3F5A0022CF
:10442000A84ED9E900EC51E0F4EEC67AF1EE10FAAC
:10443000C0F2C78247F6FE7045F822000CEB01007F
:10444000D0ED007A66EEA77AF4EEC77AF1EE10FAB4
:104450004BD9F4EEC67AF1EE10FAC0F2BA8247F602
:10446000FE70BBF1020F43F822002BD0D9F80800F0
:104470000844D0ED007A66EEA77AF4EEC77AF1EE42
:1044800010FA36D9F4EEC67AF1EE10FAC0F2CD8207
:1044900047F6FE7048F82200D9F80C000144D1ED2F
:1044A000007A66EEA77AF4EEC77AF1EE10FA1ED91A
:1044B000F4EEC67AF1EE10FAC0F2AF8247F6FE7162
:1044C0004AF82210023294427FF6B1AD51080EEB49
:1044D00081008900D0ED007A66EEA77AF4EEC77A03
:1044E000F1EE10FAA0D83046A6E73046B9E73146DB
:1044F000E6E73046CEE7002C00F0E081BBF1020F8A
:10450000D8F8243000F0E1817A69DCF8081003EB78
:10451000820EC7F804909300DFED6B5A0EF1040091
:1045200000227B61DCF80C303B61331DD7F8109022
:104530003D61FD69C7E902CB8C46834656F82210DF
:10454000D8ED0C7A07EE101A53F82210B8EEC76AAD
:1045500007EE101A5EF82210F8EEC76A07EE101A7E
:1045600026EE256A5BF82210B8EEC77A66EEA56AD9
:1045700026EE276A27EE257A66EEA76A27EE277AC7
:1045800007EE901A51080232F8EEE77A0AEB810042
:10459000944280ED006A05EB810067EEA57AC0EDDC
:1045A000006A0CEB810009EB810180ED007A98ED47
:1045B0000C7A67EE877AC1ED007ABFD8D7F80490FD
:1045C0003D69D7E902CB60466208BB694946984716
:1045D000D8F82C307A69D8ED0D6A1A449FED3E7AEE
:1045E0009FED3E6A131D9246DFF8E4C00022FB6196
:1045F0002B1D364ED9E9008E4EE0F4EEC67AF1EE70
:1046000010FAC0F2FC81304645F822000EEB0100A2
:10461000D0ED007A66EEA77AF4EEC77AF1EE10FAE2
:1046200049D9F4EEC67AF1EE10FAC0F2EF813046C5
:10463000BBF1020F43F822002AD0D9F80800084441
:10464000D0ED007A66EEA77AF4EEC77AF1EE10FAB2
:1046500035D9F4EEC67AF1EE10FAC0F2C9813046CF
:104660004AF82200D9F80C000144D1ED007A66EE38
:10467000A77AF4EEC77AF1EE10FA1ED9F4EEC67AF4
:10468000F1EE10FAC0F2AD813146F86940F822101F
:10469000023294427FF6CBAC510808EB81008900CE
:1046A000D0ED007A66EEA77AF4EEC77AF1EE10FA52
:1046B000A3D86046A8E76046BAE76146E5E76046EA
:1046C000CEE700BF0280FFFF000000300082FF7FC6
:1046D000007E00800000003404FF7FBF04FF7F3FA6
:1046E000002C00F0EB807A690021D8F82430C7F85C
:1046F000109003EB820ED7F81C909300FD610EF131
:1047000004021FED0C6A7B61331D154656F821200B
:104710004808D8ED0C6ABBF1020F82F40002A2F542
:10472000000207EE902A53F8212082F40002B8EE2E
:10473000E77AA2F5000227EE067A07EE902A0AEB46
:104740008002F8EEE77A27EE267A67EE867A82ED27
:10475000007A09EB80024FEA800067EEA67AC2ED8C
:10476000007A27D05EF8212082F40002A2F5000230
:1047700007EE902A55F8212082F40002B8EEE77A7D
:10478000A2F5000227EE067A07EE902ADCF8082050
:10479000F8EEE77A024427EE267A67EE867A82ED13
:1047A000007A98ED0C7ADCF80C2067EE877A0244E8
:1047B000C2ED007A02318C42A8D8D7F8109060463A
:1047C0006208BB694946FD699847D8F82C307A6978
:1047D000D8ED0D6A1A441FED407A1FED406A131D93
:1047E0009246DFF8C4C20022FB612B1DAB4ED9E913
:1047F000008E4EE0F4EEC67AF1EE10FAC0F2C580FB
:10480000304645F822000EEB0100D0ED007A66EE4E
:10481000A77AF4EEC77AF1EE10FA49D9F4EEC67A27
:10482000F1EE10FAC0F2BF803046BBF1020F43F840
:1048300022002AD0D9F808000844D0ED007A66EEAC
:10484000A77AF4EEC77AF1EE10FA35D9F4EEC67A0B
:10485000F1EE10FAC0F2AE8030464AF82200D9F8E4
:104860000C000144D1ED007A66EEA77AF4EEC77A27
:10487000F1EE10FA1ED9F4EEC67AF1EE10FAC0F29B
:104880008B803146F86940F82210023294427FF65C
:10489000CEAB510808EB81008900D0ED007A66EEBE
:1048A000A77AF4EEC77AF1EE10FAA3D86046A8E72B
:1048B0006046BAE76146E5E76046CEE722464946EC
:1048C0006046BB699847FFF7B2BBC7F810B000223B
:1048D00098ED0C6A331DDFED726AD7F81CB0786969
:1048E00056F8221007EE901A53F82210B8EEE77A25
:1048F00007EE901A51080232F8EEE77A27EE267A90
:104900000AEB810E94420BEB810167EEA67A27EE4B
:10491000067A67EE867A8EED007AC1ED007ADFD8EE
:104920008300D7F810B07B614DE61A46C7F810B087
:1049300098ED0C6A331DDFED5B6AD7F81CB078691F
:1049400036F9221007EE101A33F9221007EE901AEA
:10495000B8EEC77A51080232F8EEE77A27EE267AE7
:104960000AEB810E94420BEB810167EEA67A27EEEB
:10497000067A67EE867A8EED007AC1ED007ADFD88E
:104980008300D7F810B07B6134E5F0EE675AFEEE95
:10499000E45A15EE900A34E7F0EE675AFEEEE45A58
:1049A00015EE901A6EE7F0EE675AFEEEE45A15EE39
:1049B000900A3AE7F0EE675AFEEEE45A15EE900AD6
:1049C0004BE767EEA57AFDEEE77A17EE900A00B2A4
:1049D00032E567EEA57AFDEEE77A17EE900A00B2AF
:1049E0003FE5F0EE675AFEEEE05A15EE901A4CE6FF
:1049F000F0EE675AFEEEE05A15EE900A30E6F0EE61
:104A0000675AFEEEE05A15EE900AFDE5F0EE675AA1
:104A1000FEEEE05A15EE900A0AE667EEA57AFDEE84
:104A2000E77A17EE901A09B24AE567EEA57AFDEE2D
:104A3000E77A17EE900A00B22CE5F0EE675AFEEE28
:104A4000E45A15EE902A1FE467EEA57AFDEEE77AA8
:104A500017EE902A12B2FFF731BBF0EE675AFEEE66
:104A6000E45A15EE902AFFF7FDBBF0EE675AFEEE12
:104A7000E05A15EE902AFFF79BBBF0EE675AFEEE68
:104A8000E05A15EE902AFFF780BB67EEA57AFDEE9F
:104A9000E77A17EE902A12B2FFF724BB82FF7F005D
:104AA00000000030000000387E0080FF30B5184C58
:104AB000154685B0046004F1080EEC460FC98EE877
:104AC0000F00D4ED047AF5EEC07A8CE80F00F1EE19
:104AD00010FA1ADDB7EE006A94ED057A27EE277A10
:104AE000C6EE276A84ED0D7AC4ED0C6A6DB12046DE
:104AF00040F8185F01F0D8FC064903690020064A17
:104B00002162A262E36005B030BD012005B030BD76
:104B100094090024002000300000003000680830B4
:104B2000704700BF0068183001F01EBD30B5046842
:104B300083B00D46E3694BB1A3680020E26A616A65
:104B40009B00009004F11C0001F0B0FCA368074832
:104B5000A26A9B00216A009004F1180001F0A6FCF3
:104B60000020C4E9005003B030BD00BFF13E000892
:104B700010B4074B4FF07E513024002203201961FE
:104B80009C60D8605DF8044B5961C3E90622704708
:104B900094090024F6EE007A9FED166A20EE207A42
:104BA0000160F7EE006A80ED036A80ED020A27EEED
:104BB000277AC6EE877AF4EEE67AF1EE10FA11DD86
:104BC000F0EE667A4FF07E514FF0000C0276002234
:104BD000C0ED017AC0F814C0016143768276C0ED61
:104BE000070A7047F4EEC67AF1EE10FAEAD5F0EE55
:104BF000467AE7E7000000000268037E128807EEAD
:104C0000902AFBEEC87A1BB1B7EE007A77EE677A8E
:104C1000D0ED056A90ED047A77EEE67A437E67EE92
:104C2000877A0BB1F1EE677A90ED030A90ED017A85
:104C300077EEC07AA7EE270A80ED030A704700BF1F
:104C400082B04FF0000C0323ADF80410BDF804202F
:104C500080F810C00280438002B070472DE9F04F09
:104C6000BE4E00258FB0BE4C037006F1400342607B
:104C7000074601928846202229463046C4F858311A
:104C8000C4F85461CDE90355CDE90555CDE9075583
:104C9000CDE90955CDE90B550FF06AFC20222946D4
:104CA00004F59970C4F82151C4F82551C4F829516C
:104CB000C4F82D510FF05CFC019B84F8385284F845
:104CC00020317A68002A5FD02B464146B64604F56B
:104CD000907599464FF0010A03EB0310D1F800B02C
:104CE000D1F804800133D1F808C02218CE6844F806
:104CF00000B0C2F80480C2F808C0D660087C2EF864
:104D0000029B10740A7C05F8012F002A69D07A688A
:104D1000113184F838A29A42DED84FF480229148AB
:104D20009DF8043008214FF000084FF00009C4F846
:104D300074310023C4E957020122C4F8643184F8B5
:104D40007031C4E95A2194F83812C4E9608981B3FA
:104D5000C4F88821002284F8713184F878313B78D6
:104D6000C4E96322A3B3012200200121013B84F89E
:104D70009421C4E96801082B2CD8DFE803F0ABB01C
:104D8000B5BABFC4C9CFD6009DF804300121C4F81C
:104D90006421C4F874314FF4802384F87021714A7F
:104DA000C4E9572308230022C4E95A130023C4E9A5
:104DB00060230123002284F87131002384F87831C4
:104DC0000323C4F888313B78C4E96322002BCAD19D
:104DD00084F89431644803F011FC034638B1FFBEF7
:104DE000FEE77A6811319A423FF676AF95E703A95C
:104DF0005D48039303F060FD0546002868D1022258
:104E000040F2FF73CDE9082300230422CDE90A23F1
:104E100094F82031002B00F0D5804FF0060921E0F6
:104E2000022B00F08980012B40F0C4809AF80130F9
:104E3000012B00F0C180002B4C4B18BF002306A9AA
:104E40004948CDE9063903F005F8002840F0BF8055
:104E5000013594F82031EDB2AB4240F2B380444BBF
:104E600053F825902FB207EB071704EB070A5046BB
:104E700000F0F0F905EB051323441B7C042B7DDCCB
:104E8000022B00F3918000F08D806319002283F8DB
:104E90001021E35D002BC3D19AF80130062B00F0FE
:104EA0008580072B00F08A80022B00F09680032B70
:104EB00000F09580002B00F09680012B00F091808F
:104EC000042B00F09280052B2A4B18BF0023B6E775
:104ED000FFBEFEE703224023C4E966237AE70722E8
:104EE0006023C4E9662375E70F228023C4E96623A3
:104EF00070E71F22A023C4E966236BE73F22C0238B
:104F0000C4E9662366E77F22E023C4E9662361E7FC
:104F1000FF224FF48073C4E966235BE740F2FF127F
:104F20004FF49073C4E9662354E740F2FF324FF424
:104F3000A073C4E966234DE79AF80130042B37D0FB
:104F4000052B3DD0002B40D0012B42D0022B42D06C
:104F5000032B094B18BF002371E700BF004000304E
:104F6000D0090024002002402C0B00240002B025B0
:104F7000246401080000B84F0020903603233E1D32
:104F800004EB05084FF0000B264488F8103130463A
:104F90000BF1010B00F05EF998F8103104365B4517
:104FA000F5DC76E70123EAE70223E8E7104B46E762
:104FB000104B44E7002342E70F4B40E70F4B3EE71F
:104FC0000F4B3CE70FB0BDE8F08F0E4B37E7FFBE4D
:104FD000FEE70D4B33E70D4B31E70D4B2FE70D4B44
:104FE0002DE70D4B2BE70D4B29E70D4B27E700BFB6
:104FF0000800900C1000C0102000F0148000501D1C
:10500000000180210004002A0008302E00106032C8
:105010000040C03A0080F03E0000524700002143AB
:105020000000844B38B5094C40F2FF724FF001117B
:1050300004F5AE75284603F0EDFB94F82021D4F872
:1050400054112846BDE8384003F058B9D00900246F
:10505000034B0F29D3F8540198BF00EB4100704770
:10506000D0090024214B02689A4200D07047204AA0
:1050700000232048D2F8D81030B51F4C41F0200151
:1050800083B0C4F8C001092004F5E075C4E97103D8
:105090004FF48060C2F8D810D2F8D8204FF40061E5
:1050A000C4E9733094F8380202F02002C4F8D41135
:1050B0004FF40051984201922846C4F8D811C4E92F
:1050C0007833019B14BF00234FF48073C4F8DC31A4
:1050D00003F018FE08B1FFBEFEE704F5AE73C4F896
:1050E000A851C4F8F83103B030BD00BF0020024021
:1050F0000044025840000240D0090024014804F056
:1051000079B900BF900B002402682DE9F84F4B4B92
:105110009A4201D0BDE8F88F494D95F83832002BFE
:10512000F8D095F82031002B77D0002405F10C0938
:1051300005F5997605F59077A04613E003F0010197
:1051400017F811BCA9F1080000F06EF9BBF1010FCE
:1051500025D895F82031013409F111090236A2B29F
:1051600093422BD917F8012F002AF4D0D5F85431E7
:105170000021327833F81400D5F8583103EB0413CA
:1051800023F81200338801339BB233805FFA83FA2D
:105190003A789A42D2D88A46A6F80080D0E7CAF375
:1051A0004001A9F1040000F03FF9BBF1020FCAF37E
:1051B0008001CED0484600F037F9CAE7002395F8C1
:1051C0003802204909229842C5F8C8314FF480605E
:1051D000C5F8C011C5F8C4214FF400614FF4005266
:1051E000C5F8CC3108BF4FF48073C5F8D821C5E9A4
:1051F000740100221448C5E97732C5F8E42103F0B0
:1052000081FD08B1FFBEFEE795F82021D5F85411C5
:105210000E48BDE8F84F03F071B80A4909224FF46F
:105220008060C5F8C831C5E970124FF400614FF4D1
:105230000052C5E97330C5E97512DAE70020024073
:10524000D009002440000240900B00242C0B0024C5
:10525000704700BF8378022B30B504468FB037D03B
:10526000032B33D0012B31D000230A93E378012B99
:105270002AD0022B28D000230B93002320460C9326
:1052800002F062FC0546204602F066FC2378099095
:10529000082B13D8DFE803F01F3245586B7E91A42A
:1052A0000500594BD3F8E02042F48072C3F8E020A7
:1052B000D3F8E03003F480730893089B09A92846CB
:1052C00004F0EAFB0FB030BD0B93D6E70A93CDE7AD
:1052D00011230A93CAE74C4B09A92846D3F8E020CA
:1052E00042F00102C3F8E020D3F8E03003F00103FC
:1052F0000093009B04F0D0FB0FB030BD424B09A9D6
:105300002846D3F8E02042F00202C3F8E020D3F8A8
:10531000E03003F002030193019B04F0BDFB0FB0EA
:1053200030BD394B09A92846D3F8E02042F00402E9
:10533000C3F8E020D3F8E03003F004030293029BAB
:1053400004F0AAFB0FB030BD2F4B09A92846D3F8B3
:10535000E02042F00802C3F8E020D3F8E03003F088
:1053600008030393039B04F097FB0FB030BD264B5B
:1053700009A92846D3F8E02042F01002C3F8E02043
:10538000D3F8E03003F010030493049B04F084FB93
:105390000FB030BD1C4B09A92846D3F8E02042F0DD
:1053A0002002C3F8E020D3F8E03003F02003059397
:1053B000059B04F071FB0FB030BD134B09A92846C3
:1053C000D3F8E02042F04002C3F8E020D3F8E03008
:1053D00003F040030693069B04F05EFB0FB030BD64
:1053E000094B09A92846D3F8E02042F08002C3F80F
:1053F000E020D3F8E03003F080030793079B04F02C
:105400004BFB0FB030BD00BF0044025838B5054615
:1054100002F09AFB0446284602F09EFB0146204615
:10542000BDE8384004F040BD70B506460D4602F0B8
:105430008BFB0446304602F08FFB2A1E01462046B5
:1054400018BF0122BDE8704004F034BD00231222D1
:1054500070B586B0CDE9022304930368032B01D80D
:1054600004230593061D841D304602F06DFB05469E
:10547000304602F071FB034601A92846019304F06F
:105480000BFB204602F060FB034620461C4602F060
:1054900063FB01A903462046019304F0FDFA06B020
:1054A00070BD00BF634A0368934210B58CB028D02A
:1054B000614A934258D0614A934200F09480604A16
:1054C000934201D00CB010BD5E4C5F48D4F8E03080
:1054D00043F00203C4F8E030D4F8E03003F00203F4
:1054E0000A930A9BFFF7B2FFD4F8F43043F080032D
:1054F000C4F8F430D4F8F43003F080030B930B9B22
:10550000E0E7504C5148D4F8E03043F00203C4F8CF
:10551000E030D4F8E03003F002030193019BFFF781
:1055200095FFD4F8E83000221F2043F40013114601
:10553000C4F8E830D4F8E83003F400130293029B77
:10554000D4F8D83043F00103C4F8D830D4F8D830B8
:1055500003F001030393039B03F022FA1F200CB016
:10556000BDE8104003F05ABA364C3948D4F8E03060
:1055700043F08003C4F8E030D4F8E03003F0800357
:105580000493049BD4F8E03043F00203C4F8E03005
:10559000D4F8E03003F002030593059BFFF756FFB4
:1055A000D4F8E8300022212043F480031146C4F8E7
:1055B000E830D4F8E83003F480030693069BD4F86F
:1055C000D83043F00103C4F8D830D4F8D83003F011
:1055D00001030793079B03F0E3F921200CB0BDE81A
:1055E000104003F01BBA1B48FFF730FF154B002299
:1055F0004820D3F8E840114644F40004C3F8E840DA
:10560000D3F8E84004F400040894089CD3F8D84088
:1056100044F00104C3F8D840D3F8D83003F00103B4
:105620000993099B03F0BCF948200CB0BDE8104079
:1056300003F0F4B90054004000580040005C004002
:10564000001C005800440258980E0024100C00243E
:10565000E80C0024C00D00242DE9F0431A4B87B05C
:1056600000254FF010099E46EC46184BFF22E046FD
:1056700067461A700EF118060EF13004CDE9005598
:10568000CDE90255ADF80090BCE80F00CDE9045516
:10569000AEE80F009CE803000095ADF800908EE89E
:1056A0000300B8E80F000FC69CE803000095ADF8B2
:1056B000009086E803000FCF0FC49CE8030084E845
:1056C000030007B0BDE8F083040000240C0C0024A4
:1056D00010B5EFF3108472B6084B1A78120602D593
:1056E00004B962B610BD1B78D82205485BB202FB34
:1056F0000300143003F07EFEF2E700BF0C0C002420
:10570000100C0024014805F06DBA00BF9C0C002469
:10571000014805F067BA00BF740D0024014805F088
:1057200061BA00BF4C0E00242DE9F0430F68D82465
:105730003F4D85B007FB04F4032F05EB0403036022
:1057400040DCCB680E46012B3CD84DD04FF0D8083A
:10575000B646DFF8FC9008FB0758BEE80F00C446C9
:10576000ACE80F00DEF800300DF1100ECCF8003080
:10577000D8F808C099E80F000EE90F000EEB870378
:10578000BCF1010F53F8103CC8F88C3031D0BCF19B
:10579000020F42D0BCF1000F35D0317C8C34D823BD
:1057A000002201202C4403FB07534900C3E92602D1
:1057B000C3F894102046C3E92822C3E92A2205F041
:1057C00003F818B1012005B0BDE8F083014620467A
:1057D00005F014FA0028F5D10146204605F038FA04
:1057E000003818BF0120EEE70B7C103B672BADD9CA
:1057F000E8E702F023F80F4B98420CBF0E4B0F4B1B
:10580000C8F89030C9E702F019F80A4B98420CBF6B
:105810000B4B0C4BC8F89030BFE702F00FF8054B6C
:1058200098420CBF084B094BC8F89030B5E700BF51
:10583000100C0024000E27072D0FB0303211D0209D
:105840005F4390608A62E030200BA0101A0980103C
:10585000385601082DE9F041D0F8008082B00D469D
:1058600017461E4608F18C04204605F0C3F920288F
:10587000FAD1D8F80C3073B96D002046089C334635
:105880003A46A9B2009404F0F5FF003818BF012091
:1058900002B0BDE8F081089B32463946204605F04B
:1058A000BDF8F2E7044B10221A7483F8E82083F85D
:1058B000C02183F898227047100C002430B50023D3
:1058C00095B04FF48071062204460B930692139311
:1058D000CDE90C13CDE90E33CDE9113301F0B0FF62
:1058E00007282BD004F1100541F2883206A928467A
:1058F00005F0C0FF28B10123184684F85C3015B0CC
:1059000030BD0222022306A92846CDE90023102239
:105910000123CDE9022300224FF48003CDE90423C3
:1059200005224FF0807306926A460F9341F2883346
:1059300006F00CF90028DED115B030BD032301209C
:1059400084F85C3015B030BD70B50023A4B04FF0C2
:1059500080724FF480750446ADF806300D93CDE9A2
:1059600010320122CDE90E53CDE91223CDE91433D3
:10597000002943D0F02300F1100508AEADF8063041
:10598000C02341F2883231462846089305F072FF61
:1059900028B10123184684F85C3024B070BD41F270
:1059A00088320DF10601284605F0CEFF0346002897
:1059B000EFD105224FF480711E93284616924FF0C6
:1059C00080721B9321931F9202AA9FED1F7BCDE94A
:1059D0001C13CDE922338DED027B9FED1D7B41F23F
:1059E000883316A98DED047B9FED1B7B8DED067B27
:1059F00006F0ACF80028CCD124B070BD00F1100541
:105A000008AE612341F2883231462846089305F0FA
:105A100031FF0028BDD141F288320DF10601284640
:105A200006F010F80028B4D1BDF80630204623F067
:105A3000780343F04003ADF80630FFF73FFF00283E
:105A40009ED0A6E7AFF30080000000000100000038
:105A500010000000010000000000000000004000F5
:105A60002DE9F04F00234FF4807501264FF0807828
:105A700004462DED028BABB08DF8073013932193C4
:105A8000299314950E96CDF85C80CDE91533CDE9B8
:105A90001863CDE91A33CDE92253CDE92433CDE99A
:105AA000273306231C9301F0CBFE072808D004F10E
:105AB000100741F288321CA9384605F0DBFE40B1E0
:105AC0000123184684F85C302BB0BDEC028BBDE896
:105AD000F08F4FF0020A4FF0020B4FF0050941F230
