:020000040800F2
:1000000000000220B10F0008AD0F00082D7000089D
:10001000AD0F0008AD0F0008AD0F00080000000094
:10002000000000000000000000000000AD0F00080C
:10003000AD0F000800000000AD0F0008B16F000810
:10004000AD0F0008AD0F0008AD0F0008AD0F0008A0
:10005000AD0F0008AD0F0008AD0F0008AD0F000890
:10006000AD0F0008AD0F0008AD0F0008495D000896
:10007000555D0008A14C0008615D00086D5D000839
:10008000ED12010875520008AD0F0008AD0F000811
:10009000AD0F0008AD0F0008AD0F0008AD0F000850
:1000A000AD0F0008AD0F0008AD0F0008AD0F000840
:1000B000C1060108CD060108D9060108A9520008A9
:1000C000AD0F0008B5520008AD0F00082169000807
:1000D0002D6900082111010851110108851101083D
:1000E000AD0F0008AD0F000800000000AD0F0008C4
:1000F000AD0F0008AD0F0008AD0F0008AD0F0008F0
:10010000AD0F0008AD0F0008E506010839690008C9
:10011000B9110108ED110108AD0F0008AD0F00087D
:10012000AD0F0008AD0F00085D6900089169000877
:1001300021130108AD0F0008AD0F0008AD0F000836
:1001400000000000000000000000000000000000AF
:10015000AD0F0008AD0F0008AD0F00082112010817
:10016000C1520008AD0F0008C16F0008E56F00081C
:10017000AD0F000809700008AD0F0008AD0F0008B2
:10018000AD0F0008AD0F00085512010885120108D7
:100190004569000851690008AD0F0008AD0F00085F
:1001A000AD0F0008AD0F0008AD0F0008AD0F00083F
:1001B000695A0008AD0F0008AD0F0008AD0F000828
:1001C000AD0F0008AD0F0008AD0F0008AD0F00081F
:1001D000AD0F0008AD0F0008AD0F0008AD0F00080F
:1001E000AD0F0008AD0F0008AD0F0008AD0F0008FF
:1001F000AD0F0008AD0F0008AD0F0008AD0F0008EF
:10020000AD0F0008AD0F0008AD0F0008AD0F0008DE
:10021000AD0F0008AD0F0008AD0F0008AD0F0008CE
:10022000AD0F0008AD0F0008AD0F00080000000082
:10023000AD0F0008AD0F000800000000AD0F000872
:10024000AD0F0008AD0F0008AD0F0008AD0F00089E
:10025000AD0F0008AD0F0008AD0F0008AD0F00088E
:10026000AD0F0008AD0F0008AD0F0008AD0F00087E
:10027000AD0F0008AD0F0008B91201080000000022
:10028000AD0F0008AD0F0008AD0F00080000000022
:0802900000000000AD0F0008A2
:1002A00010B5054C237833B9044B13B10448AFF3B0
:1002B00000800123237010BDE8030024000000002B
:1002C000E45B010808B5034B1BB103490348AFF3D6
:1002D000008008BD00000000EC030024E45B01087E
:1002E000034613F8012B002AFBD1181A0138704776
:1002F00001F0FF01102A2BDB10F0070F08D010F8D7
:10030000013B013A8B422DD010F0070F42B3F6D1DA
:10031000F0B441EA012141EA014122F007047FF0F3
:1003200000070023F0E80256083C85EA010586EA4A
:10033000010685FA47F5A3FA87F586FA47F6A5FA86
:1003400087F68EB9EED1F0BC01F0FF0102F0070292
:1003500032B110F8013B013A83EA010313B1F8D13D
:100360000020704701387047002D06BF354603381E
:10037000073815F0010F07D1013015F4807F02BF57
:10038000013015F4C03F0130F0BC0138704700BFA8
:1003900081F0004102E000BF83F0004330B54FEA36
:1003A00041044FEA430594EA050F08BF90EA020FA3
:1003B0001FBF54EA000C55EA020C7FEA645C7FEA36
:1003C000655C00F0E2804FEA5454D4EB5555B8BF59
:1003D0006D420CDD2C4480EA020281EA030382EACA
:1003E000000083EA010180EA020281EA0303362D5C
:1003F00088BF30BD11F0004F4FEA01314FF4801C2F
:100400004CEA113102D0404261EB410113F0004F40
:100410004FEA03334CEA133302D0524263EB4303F7
:1004200094EA050F00F0A780A4F10104D5F1200E95
:100430000DDB02FA0EFC22FA05F2801841F10001F0
:1004400003FA0EF2801843FA05F359410EE0A5F1C4
:1004500020050EF1200E012A03FA0EFC28BF4CF0F5
:10046000020C43FA05F3C01851EBE37101F00045AB
:1004700007D54FF0000EDCF1000C7EEB00006EEBB8
:100480000101B1F5801F1BD3B1F5001F0CD3490842
:100490005FEA30004FEA3C0C04F101044FEA445299
:1004A00012F5800F80F09A80BCF1004F08BF5FEA20
:1004B000500C50F1000041EB045141EA050130BD00
:1004C0005FEA4C0C404141EB0101013C28BFB1F512
:1004D000801FE9D291F0000F04BF01460020B1FA5D
:1004E00081F308BF2033A3F10B03B3F120020CDA30
:1004F0000C3208DD02F1140CC2F10C0201FA0CF00E
:1005000021FA02F10CE002F11402D8BFC2F1200C72
:1005100001FA02F120FA0CFCDCBF41EA0C01904028
:10052000E41AA2BF01EB0451294330BD6FEA040471
:100530001F3C1CDA0C340EDC04F11404C4F120025C
:1005400020FA04F001FA02F340EA030021FA04F36E
:1005500045EA030130BDC4F10C04C4F1200220FAC5
:1005600002F001FA04F340EA0300294630BD21FA03
:1005700004F0294630BD94F0000F83F4801306BFC9
:1005800081F480110134013D4EE77FEA645C18BFBD
:100590007FEA655C29D094EA050F08BF90EA020F54
:1005A00005D054EA000C04BF1946104630BD91EA4C
:1005B000030F1EBF0021002030BD5FEA545C05D14F
:1005C0004000494128BF41F0004130BD14F580048E
:1005D0003CBF01F5801130BD01F0004545F0FE4102
:1005E00041F470014FF0000030BD7FEA645C1ABF37
:1005F000194610467FEA655C1CBF0B46024650EA6E
:10060000013406BF52EA033591EA030F41F4002199
:1006100030BD00BF90F0000F04BF0021704730B51F
:100620004FF4806404F132044FF000054FF00001F4
:1006300050E700BF90F0000F04BF0021704730B5B5
:100640004FF4806404F1320410F0004548BF40428A
:100650004FF000013EE700BF42004FEAE2014FEADF
:1006600031014FEA02701FBF12F07F4393F07F4FBA
:1006700081F06051704732F07F4208BF704793F0BD
:100680007F4F04BF41F40021704730B54FF46074D0
:1006900001F0004521F000411CE700BF50EA0102D3
:1006A00008BF704730B54FF000050AE050EA01027C
:1006B00008BF704730B511F0004502D5404261EBEC
:1006C00041014FF4806404F132045FEA915C3FF42D
:1006D000D8AE4FF003025FEADC0C18BF03325FEACA
:1006E000DC0C18BF033202EBDC02C2F1200300FA7B
:1006F00003FC20FA02F001FA03FE40EA0E0021FAA0
:1007000002F11444BDE600BF53B94AB9002908BF3D
:1007100000281CBF4FF0FF314FF0FF3000F074B9DC
:10072000ADF1080C6DE904CE00F006F8DDF804E048
:10073000DDE9022304B070472DE9F047089D044627
:100740008E46002B4DD18A42944669D9B2FA82F284
:1007500052B101FA02F3C2F1200120FA01F10CFAC0
:1007600002FC41EA030E94404FEA1C48210CBEFBF8
:10077000F8F61FFA8CF708FB16E341EA034306FB81
:1007800007F199420AD91CEB030306F1FF3080F010
:100790001F81994240F21C81023E63445B1AA4B25D
:1007A000B3FBF8F008FB103344EA034400FB07F7FF
:1007B000A7420AD91CEB040400F1FF3380F00A8140
:1007C000A74240F207816444023840EA0640E41B35
:1007D00000261DB1D4400023C5E900433146BDE8E1
:1007E000F0878B4209D9002D00F0EF800026C5E983
:1007F000000130463146BDE8F087B3FA83F6002E9B
:100800004AD18B4202D3824200F2F980841A61EB12
:10081000030301209E46002DE0D0C5E9004EDDE730
:1008200002B9FFDEB2FA82F2002A40F09280A1EB18
:100830000C014FEA1C471FFA8CFE0126200CB1FB6D
:10084000F7F307FB131140EA01410EFB03F0884266
:1008500008D91CEB010103F1FF3802D2884200F2F3
:10086000CB804346091AA4B2B1FBF7F007FB101185
:1008700044EA01440EFB00FEA64508D91CEB040423
:1008800000F1FF3102D2A64500F2BB800846A4EB7E
:100890000E0440EA03409CE7C6F12007B34022FA69
:1008A00007FC4CEA030C20FA07F401FA06F31C4398
:1008B000F9404FEA1C4900FA06F3B1FBF9F8200CA5
:1008C0001FFA8CFE09FB181140EA014108FB0EF0EB
:1008D000884202FA06F20BD91CEB010108F1FF3A3B
:1008E00080F08880884240F28580A8F10208614447
:1008F000091AA4B2B1FBF9F009FB101144EA014155
:1009000000FB0EFE8E4508D91CEB010100F1FF34FF
:100910006CD28E456AD90238614440EA0840A0FB97
:100920000294A1EB0E01A142C846A64656D353D06D
:100930005DB1B3EB080261EB0E0101FA07F722FA91
:1009400006F3F1401F43C5E9007100263146BDE8BA
:10095000F087C2F12003D8400CFA02FC21FA03F31D
:10096000914001434FEA1C471FFA8CFEB3FBF7F09E
:1009700007FB10360B0C43EA064300FB0EF69E42C3
:1009800004FA02F408D91CEB030300F1FF382FD25C
:100990009E422DD9023863449B1B89B2B3FBF7F604
:1009A00007FB163341EA034106FB0EF38B4208D9DD
:1009B0001CEB010106F1FF3816D28B4214D9023E1E
:1009C0006144C91A46EA004638E72E46284605E73C
:1009D0000646E3E61846F8E64B45A9D2B9EB02080D
:1009E00064EB0C0E0138A3E74646EAE7204694E79D
:1009F0004046D1E7D0467BE7023B614432E73046D0
:100A000009E76444023842E7704700BF034600200C
:100A100083ED000A704700BF0346012200201A70D0
:100A200083ED010A704700BF38B505460C460846FD
:100A300031B92960C5E90100C5E90344204638BD44
:100A400013F058F8286038B10023C5E901000360AD
:100A50002046C5E9034438BD024B3121024A034810
:100A600012F0E0FF2C4C0108D84C0108484C01085A
:100A7000006813F047B800BF83681B685A1C02D196
:100A80000268136882601846704700BF01F10802CF
:100A90000369934270B4D0E9014508D3043121447D
:100AA0008D4201D8A5421AD8201D70BC7047C1687C
:100AB000914214D3A54294BF002301237BB9066859
:100AC000324495420ED3466001613360BFF35E8FBE
:100AD00000684FF0FF330430236070BC7047002083
:100AE00070BC70471846F8E701F1080208B50369C1
:100AF00093420FD35B1A426801F1040C043B03617B
:100B000002EB0C034360002342F80C30BFF35E8F0E
:100B1000116008BD024B6B21024A034812F082FFAC
:100B2000604C0108CC4C0108484C0108806850F822
:100B3000043B0B60704700BF08B583681A681AB1A0
:100B400004321344836008BD024B7F21024A0348EC
:100B500012F068FF984C0108C04C0108484C01088D
:100B600008B5034A3A21034B034812F05BFF00BF6C
:100B7000644D0108E44C0108F44C010808B502601A
:100B8000818019B10131C900C18008BDFFF7E8FFBC
:100B9000034A80ED030AC0E9001201220272704785
:100BA00001001000002210B4034C0272C260C0E9C0
:100BB00000145DF8044B70470100100070B501236C
:100BC000044601601046A3801646FFF789FB0546E0
:100BD000022330461035E6602372ADB2E580FFF7A0
:100BE0007FFB0346204601331D44E58070BD00BFF6
:100BF0002DE9F04F838883B00192002B5FD0013341
:100C0000019AB2EBC30F4FEAC30952D30F46804695
:100C10004A460146384607EB090B12F07BFFB8F84D
:100C20000420AAB30C25012406E0944204F1010338
:100C300005F108052CDA1C4618F834A0BAF1020FA9
:100C4000F3D158F8051008460091FFF749FB461C00
:100C5000019BB144009999451FD83246584613F07C
:100C600099FBB988621E91421DDD584607F834A0F1
:100C700047F805B0B344FFF733FBFB88B8F804200E
:100C8000083501339442184404F10103F880D2DBA3
:100C9000A7F8069003B0BDE8F08F0A4B49210A4A35
:100CA0000A4812F0BFFE0A4B94210A4A0A4812F081
:100CB000B9FE0A4B4021044A044812F0B3FEFFF784
:100CC0004FFF00BF4C4D0108744D0108384D01081D
:100CD000084D0108884D0108F44C0108284D010811
:100CE00008B5034A3821034B034812F09BFE00BFAE
:100CF000E04D0108984D0108AC4D010838B5044697
:100D00008D022846656012F0F5FE206058B1002380
:100D10002846C4E90233C4E90433C4E90633C4E90C
:100D20000833A36238BD034B5721034A034812F02E
:100D300079FE00BFC44D0108E84D0108AC4D010823
:100D400070B504460025006804F1200612F0DAFEB2
:100D5000E068A8B1236901E0034610464268C0E993
:100D60000053002AF8D1E26000E04368236112F0EA
:100D7000C9FE20690028F8D10834B442E8D170BD1A
:100D800020690028F1D10834B442E1D1F7E700BF6F
:100D900038B50D4620220021EB88013BB3FA83F3DE
:100DA000C3F11B0323EAE37300EBC3049A40284614
:100DB00012F0BEFE206930B142682261E268C0E9EB
:100DC0000052E06038BD082012F094FE0028F5D1F2
:100DD000FFF786FF08B549B1034600220C309A6040
:100DE000C3E90022BDE80840FFF788BF024B142189
:100DF000024A034812F016FE204E0108304E010848
:100E0000084E0108F8B50468054624B300F10C0744
:100E10000026A1683846FFF7BBFF6368A660AA6892
:100E2000C4E903662B602BB11E60C4E90062AC60AC
:100E30001C46EEE76B60C4E9003200E062682046C1
:100E4000AA6012F05FFEAC68002CF7D13846BDE80E
:100E5000F840FFF775BF846800F10C07002CEDD156
:100E60003846BDE8F840FFF76BBF00BF38B50568EE
:100E70008DB10446A9680C30FFF78AFF00236A6829
:100E8000AB60C5E90333226032B11360A26800236E
:100E9000C5E90032A56038BD6260F7E770B5056846
:100EA0008DB1AB68064699420FD06C6824B90AE050
:100EB00060682546044638B1A3688B42F8D16AB110
:100EC000E36893420AD0002070BD12B1EB689342F0
:100ED000F9D13046FFF7CAFF012070BD06F10C00C2
:100EE000FFF756FF72680023A242A360C4E90333F0
:100EF0000AD063686B6063681D60B26800230120DC
:100F0000C4E90032B46070BD6B607560F5E700BF86
:100F10009FED096BB7EEC00A0246002386EE017B07
:100F20001846136027EE007BFDEEC77B17EE903A64
:100F3000C2E90133704700BF000000000000F0412B
:100F40002DE9F04185688D4221D001F10108044668
:100F50000E4600684FEA880113F0C0F90746AD005D
:100F6000C0B1A068B04209D3A8EB0505A660C4F8DB
:100F70000C80281FC4E90076BDE8F081A8EB0002D0
:100F8000002107EB8000920012F0D2FDECE7002078
:100F9000BDE8F081024B4621024A034812F042FDAF
:100FA000744E0108884E0108604E0108FEE700BF3C
:100FB0000B480C4A904203D0121A0B4912F0AAFDBA
:100FC0000A480B4A904203D0121A002112F0B0FDD9
:100FD00006F056FA12F06AFD02F0D6F8FEE700BFFE
:100FE00000000024E4030024145C0108E80300244A
:100FF000684000244069704790ED020B704700BFC5
:10100000006970470000000007EE901A9FED065B34
:10101000B8EE677B90ED026B27EE057B87EE060B43
:10102000B7EEC00B704700BF0000000000408F40CB
:1010300081657047806D704701657047006D70472E
:1010400041657047406D704708B50368D3F88C3030
:10105000984700B1006808BD08B50368D3F88C3024
:10106000984700B1406808BD0023BFF35B8F80F84C
:101070008430704700000000B0B582B004460D46D1
:10108000002100AF84B06A4610467A60FFF78AFDFF
:1010900023687A682946DB6C20469FED030B98474E
:1010A0000837BD46B0BD00BF0000000000000000D2
:1010B000B0B582B004460D46002100AF84B06A4648
:1010C00010467A60FFF764FD23687A682946DB6C76
:1010D00020469FED030B98470837BD46B0BD00BFC3
:1010E0000000000000000000F8B500AF8AB184B035
:1010F00004460D4600216E463046FFF75FFD23682B
:1011000032462946DB6C20469FED050B9847BD46CD
:10111000F8BD054B5321054A054812F083FC00BF7A
:101120000000000000000000984E0108A84E0108D1
:10113000F04E010884304FF00102D0E84F3FC0E884
:10114000412F0029F9D1DBB2BFF35B8F002BF2D125
:10115000704700BF4FF001028430D0E84F3FC0E835
:10116000412F0029F9D1D8B2BFF35B8F80F0010085
:10117000704700BF1830FFF791BE00BF036810B57D
:10118000D3F88C301446984718B12146FFF7D8FEA3
:10119000012010BD00000000DFED0B7A90ED025B36
:1011A00087FE800AB7EEC00A9FED056B20EE050BA7
:1011B00080EE067BFCEEC77B17EE900A704700BFFF
:1011C0000000000000408F4000000000F8B5DE88FD
:1011D00000F170051C461746043628463146FFF7D5
:1011E00055FC60B10146E288204641F8047BFFF7D8
:1011F000FFFC31462846BDE8F840FFF775BC034BBD
:101200001E21034A034812F00DFC00BF084F0108DD
:10121000D44F0108F04E010810B50C1E82B00ADD53
:101220005C300190FFF724FCA102019802B0BDE8F8
:101230001040FFF7F9BB034BB921034A034812F0F2
:10124000F1FB00BF2C5001083C500108F04E010892
:1012500010B50C1E82B00ADD70300190FFF708FC5B
:10126000A102019802B0BDE81040FFF7DDBB034BBF
:10127000BF21034A034812F0D5FB00BF7850010894
:1012800088500108F04E01082DE9F04317469846B2
:10129000026D0E46294B002183B09A42316046D13F
:1012A000054600F1850C4FF0010EDCE84F4FCCE80D
:1012B00043EF002BF9D1E4B2BFF35B8F002CF2D1E6
:1012C00005F170094846FFF7D7FBA8B101A94846C8
:1012D0000194FFF72BFCC0B1019A132A1BD990454A
:1012E0001FD301463846012451F8043B336012F005
:1012F00011FC4846FFF720FC00232046BFF35B8F1C
:1013000085F8853003B0BDE8F0830D4BCF210D4A41
:101310000D4812F087FB0D4BD0210A4A0A4812F003
:1013200081FB0B4BD121074A074812F07BFB094B8D
:10133000C721044A044812F075FB00BFCD11000814
:10134000BC5101086C510108F04E0108005201081F
:1013500028520108C45001082DE9F84F2DED028BE9
:101360009FED338BB4EEC80BF1EE10FA59DB174644
:10137000002A50D003680546314A88469B6988FE9A
:10138000008B066993423ED190ED020B9FED2A6BD4
:1013900005F1840380EE067B27EE087BBCEEC77B5D
:1013A00017EE102A324416464FF0010CD3E84F4F87
:1013B000C3E842CF002AF9D1E4B2BFF35B8F002C1F
:1013C000F2D1B7F806A005F15C0B0AF1040A584601
:1013D0005146FFF75BFB8146B8B10146FA883846B3
:1013E00041F8048BFFF704FC58465146C9F80460E5
:1013F000FFF77AFBBFF35B8F85F884400120BDECDB
:10140000028BBDE8F88F9847C0E70E4B83210E4A48
:101410000E4812F007FB0E4B74210B4A0B4812F0DA
:1014200001FB0C4B7321084A084812F0FBFA00BF7D
:1014300000000000000000000000000000408F409D
:10144000F90F000818530108B8520108F04E0108BE
:1014500008530108A85201082DE9F04F2DED048B27
:101460009FED719B43EC182B85B0B4EEC98B00AF98
:10147000F1EE10FABE6CC0F2D080002E00F0C780F2
:1014800007F14C03824630468946FB60FEF728FF91
:101490008346002800F0B580C3006749DAF81020C1
:1014A00089FE089B0833ADEB030DDAF800309B6929
:1014B000E8468B4240F082809AED020B29EE009BB9
:1014C00059464046013E454600249FED596B89EE42
:1014D000067BBCEEC77B17EE103A13441A46FFF7A3
:1014E0004DFB16F8013F623B112B11D8DFE803F0EA
:1014F000091010104E103E10101010101010101087
:101500001023B8F80430A34263DD00232B72EB6094
:1015100001340835A345E4DCDAF80030B0EE480BBE
:10152000424649465046DB6C98471437BD46BDECF1
:10153000048BBDE8F08FFB68B8F80420191D18680B
:10154000A242F9603FDD002855D00223E860013453
:1015500008352B70FEF7C4FEB8F80630A34503F13A
:1015600001031844A8F80600BBDCD5E7FB68B8F80F
:101570000420191D1B68A242F96036DD01340322E4
:10158000EB600835A3452A70ABDCC5E7FB68B8F80B
:1015900004200733A24223F0070393ED007B03F1FD
:1015A0000803B7EEC77BFB6019DD0134012385ED2D
:1015B000037A0835A3452B7093DCADE77A6050467B
:1015C00098477A687AE71D4B94211D4A1D4812F00E
:1015D00029FA1A4B69211C4A1A4812F023FA174BB0
:1015E00073211A4A174812F01DFA144B8221184A27
:1015F000144812F017FA174B9521114A114812F0AE
:1016000011FA154B3A21154A0E4812F00BFA144BF9
:101610005C21144A144812F005FA144B5B21114A5C
:10162000114812F0FFF900BF0000000000000000A8
:101630000000000000408F40F90F0008084D01082D
:10164000F4540108F44C0108785401089C54010832
:10165000C854010828550108E44C010858540108F1
:1016600044540108EC530108F04E0108A852010847
:10167000B5EEC00B70B5F1EE10FA1D46294B80EDAA
:10168000020B036036DD002946DD002A16463DDDEB
:10169000002D35DB4FF0000304460361C0E915332C
:1016A0000CBF2B46204B183083630023BFF35B8FA6
:1016B00080F86C30BFF35B8F80F86D30882340F882
:1016C000043CFFF787FB6369B102034404F15C004B
:1016D0006361FFF7A9F963690246A90204F170008A
:1016E00013446361FFF7A0F963690246204613447F
:1016F000636170BD0D4B27210D4A0E4812F092F91F
:101700000D4B2A210A4A0B4812F08CF90B4B292168
:10171000074A084812F086F9094B2821044A05486F
:1017200012F080F9A0550108CD11000834550108C8
:1017300048550108F04E0108885501082C50010851
:101740007C550108084B10B5044640F8183BFFF7DC
:1017500059FB04F15C00FFF78BF904F17000FFF70F
:1017600087F9204610BD00BFA0550108004870470A
:10177000345601080020704702207047002070474F
:10178000704700BF42B1002300210448516011722C
:101790001060D36013615361002070474056010808
:1017A000034B10B504460360FFF7CCFF204610BD85
:1017B00010570108054B10B504460360FFF7C2FF40
:1017C000B821204611F009FF204610BD105701082E
:1017D000B0B5114600AF82B0056801EB83046A46DC
:1017E0002D6CC2E900140021A847BD46B0BD00BF62
:1017F0002DE9F84300AF2BB316466A4600211D467B
:10180000A2EBC3024FEA850995460268E846546C8C
:101810004246A047002308EB85041A46002D09DD47
:1018200008EB830106EB820C51F804EBA1424CF863
:1018300008EBF9D12B444C4412B1BD46BDE8F88306
:101840000122EBE7024BEB21024A034812F0EAF8CF
:101850005856010864560108B05601082DE9F047B2
:10186000054682B016469A4600F15C0802E0404602
:10187000FFF762F94046FFF7FFF80446A0B10023E6
:1018800001A940460193FFF751F9019B132B6ED933
:101890002B683A4AD3F890309342E8D00246284663
:1018A00052F8041B9847E2E7BAF1000FD5F8108010
:1018B00056DD0AEB0809A86908F1010870B18268D1
:1018C000136898450AD9D0E903312846984705F1AD
:1018D0001800FFF7CBFAA8690028F0D1D5F88820C6
:1018E000B7EE004AF6EE004A9FED257A510AF5EE72
:1018F000006A9FED245AC84541F07E53DFED225A1D
:101900009FED226A07EE903A7168336877EEC47AE9
:10191000D5F88C70234421443A4404F1040477EE52
:10192000E47AC5F88820F0EEE77A77EEE67A67EE9B
:10193000877A67EEA76A26EEA77AE7EE057A27EEA2
:10194000267AE7EE257A77EE867AC3ED007AC1ED46
:10195000007AB1D15046C5F8109002B0BDE8F087CA
:10196000C1465046C5F8109002B0BDE8F087084B5C
:101970009E21084A084812F055F800BF8117000858
:10198000DB0FC940ABAA2ABE6257003C0000000032
:1019900000520108CC560108B056010810B50446A3
:1019A00082B08DED000BFFF763FE2046114B9FEDDB
:1019B000120A40F8883B9DED001BFFF7A9FA636906
:1019C00002469FED0E0A04F1940013446361FFF791
:1019D00023F863690246B7EE000A04F1A800134435
:1019E0006361FFF713F8636902462046134463619D
:1019F00002B010BD105701080000DC4300000000D9
:101A0000704700BF49424FF480621430C9B212F0EF
:101A10008FB800BF704700BF704700BF40207047BD
:101A20008020704710B5044640F2144111F0D5FDF6
:101A3000204610BD2DE9F041B02482B000F1080627
:101A400000F1100500F11408002728468DF8074022
:101A50000134394603F0BAFA642301220DF107017B
:101A60003046E4B205F0C0F9394628468DF80770D3
:101A700003F0ACFA012264230DF10701304605F0B2
:101A8000B3F91023394628468DF8073003F09EFA43
:101A9000642301220DF10701304605F0A5F901216B
:101AA000284603F093FA802241466423304690444E
:101AB00005F09AF9B82CC7D102B0BDE8F08100BF9B
:101AC0002DE9F04F89B008AC9DF84870019104E908
:101AD0000C000B78002B00F0AB801A469DF81880A4
:101AE0009DF819300646454690460393079B05939B
:101AF000A8F12004E3B25E2B00F29E8033685E4AB8
:101B0000DB68934240F09B808020B3882B44834263
:101B100000F392803368594A9B68934240F0928068
:101B20004020F188039A02918B18834200F384804D
:101B3000002A00F0918002FB04F46FF00049059B3D
:101B4000A1441444B6F804B003EB4909023BCDF8B4
:101B5000108003EB44030C469A4639F802CFA5B334
:101B600004F007034FF0010EE20859460EFA03FE97
:101B70000BF114034FFA8EFE03EBC21200236FEA3F
:101B80000E0832440DE07F2906D83F2C04D8107887
:101B900097B14EEA00001070013301320131AB42BF
:101BA00013D00CFA03F00004EDD47F29F4D83F2CB5
:101BB000F2D81078002FECD0013308EA000001328F
:101BC0000131AB4202F8010CEBD1D14504F1010423
:101BD000C3D1DDF8108032680BEB05042649D368C9
:101BE000A4B28B4234D18020844204D3D3682249EA
:101BF0008B423AD17F249368204AB480934224D107
:101C00004020029B834206D333681C4A9B68934260
:101C100025D13F230293029BF380019B1878404516
:101C200007D113F8018F0193B8F1000F7FF460AF73
:101C3000002009B0BDE8F08F4FF00008EDE7304616
:101C4000984762E7304698476BE730469847D8E7B1
:101C5000304698473268C7E7B6F804B0BBE730466D
:101C60009847013883B20293D5E730469847013848
:101C7000326884B2BFE700BF211A00081D1A0008AD
:101C80002DE9F04F85B0A1F1200504AC9DF8387026
:101C9000009104E90C00EBB25E2B00F29580036822
:101CA00080465D4ADB689DF8084093429DF80960D4
:101CB00040F094808020B8F804302344834200F33D
:101CC0008380D8F80030554A9B68934240F0888062
:101CD0004020B8F8062093190192834274DC002E4C
:101CE00000F0898006FB05F56FF00040039B9646E7
:101CF00028442E44B8F804A003EB4000023B03EB59
:101D0000460B30F8026FBCB30EF007034FF0010C26
:101D10004FEADE0251460CFA03FC0AF114034FFAB3
:101D20008CFC03EBC21200236FEA0C0942440EE064
:101D30007F2907D8BEF13F0F04D815789FB14CEA30
:101D4000050515700133013201319C4214D006FAA9
:101D500003F52D04ECD47F29F4D8BEF13F0FF1D860
:101D60001578002FEBD0013309EA05050132013166
:101D70009C4202F8015CEAD158450EF1010EC0D137
:101D8000D8F8003054442449DA68A4B28A422DD1EC
:101D9000802084421CD29B68204AA8F804409342C9
:101DA00021D14020019B834207D3D8F800301B4A41
:101DB0009B68934229D13F230193DDE90003A8F8F2
:101DC000063005B0BDE8F08F002005B0BDE8F08F0B
:101DD000DA6811498A4211D17F24DCE798476AE723
:101DE0004046984775E740469847DBE740469047AE
:101DF000D8F80030CDE7B8F804A0C1E740469047D6
:101E00000138D8F8003084B2C5E740469847013819
:101E100083B20193D1E700BF211A00081D1A000800
:101E20002DE9F04F89B01D46884606901046129C59
:101E300010F8013B13999DF85060009233B10022D5
:101E400010F8013B0132002BFAD193B22A7868785E
:101E500012FB03F302B21BB223EAE373082900F278
:101E6000A681DFE811F0010113011F0133014101D7
:101E70004F0166016F010900A18827880F44B4F95A
:101E80000610FF1A0029BFB2C0F2FE8064880698CF
:101E900004EB6104C280A4EB52028380078094B2F9
:101EA0004480A64AD8F8003011460192DA688A4286
:101EB00040F08B818020B84205D8DA6801998A42C7
:101EC00040F098817F279E4A9B68A8F8047093424F
:101ED000039240F087814020A04207D8D8F8003014
:101EE000039A9B68934240F080813F24009BA8F8AE
:101EF000064093F800B06B782C7804936B680793D6
:101F0000BBF1000F00F0AC80ABF12005EBB25E2B13
:101F100000F22C81D8F80030019ADB68934240F03F
:101F200028818020B8F8043023449842C0F21E81F2
:101F3000D8F80030039A9B68934240F01D814020FE
:101F4000B8F80610049A02918B189842C0F20E81DC
:101F5000002A00F01C8102FB05F56FF0004E079B84
:101F6000AE441544CDF814B003EB4E0E023BB8F866
:101F700004A003EB45030D469B463EF8027FA4B345
:101F800005F007034FF0010CEA0851460CFA03FC78
:101F90000AF114034FFA8CFC03EBC21200236FEA20
:101FA0000C0942440DE07F2906D83F2D04D8107853
:101FB00096B14CEA000010700133013201319C42AD
:101FC00013D007FA03F00004EDD47F29F4D83F2D95
:101FD000F2D81078002EECD0013309EA000001326B
:101FE00001319C4202F8010CEBD1F34505F10105EA
:101FF000C3D1DDF814B0D8F800200AEB040501992C
:10200000D368ADB28B4240F0BD808020854205D3BD
:10201000D36801998B4240F0C3807F259368039A6F
:10202000A8F80450934240F0AA804020029B8342CB
:1020300008D3D8F80030039A9B68934240F0AA80F6
:102040003F230293029BA8F80630009A13785B4561
:1020500006D112F801BF0092BBF1000F7FF454AF1C
:10206000069809B0BDE8F08FB4F90410278800295C
:10207000B8BF013107EB6107B4F90610A7EB63079E
:102080000029BFB2BFF602AF0131FFE6B4F900701C
:102090000699B4F902400F80BFB24C80A4B28B8085
:1020A000CA80FEE6B4F9041027880029B4F902407A
:1020B000B8BF013107EB610706998B80A7EB63037B
:1020C0004C80A4B29FB2CA800F80EAE6A18827881C
:1020D000B4F902400F4406998B80FB1A4C80A4B2DD
:1020E0009FB2CA800F80DCE6E78861883944B4F982
:1020F0000070081A069984B20F808B80BFB2CA8024
:102100004C80CEE6B4F9041027880029B8BF01310D
:1021100007EB6107A7EB6307B4F802C0BFB2E4881E
:10212000069964448B80201ACA800F8084B24C8048
:10213000B7E62788A1880F44FF1AEDE7211A0008A7
:102140001D1A0008B4F90610B4F90070002964885B
:102150000698B8BF0131C28004EB61040780838018
:10216000BFB2A4EB520294B244809AE64FF0000B47
:102170006BE740469847D5E640469847E0E640463C
:10218000984753E740469847D8F800203EE7B8F80C
:1021900004A030E740469847013883B2029351E7E4
:1021A000404698470138D8F8002085B236E7D8F87D
:1021B00000300024069A1349148054809480D480FF
:1021C000DA6801918A4205D0274640469047D8F800
:1021D000003070E69B680C4AA8F8044093420392D2
:1021E0003FF484AE4046984776E64046984701382B
:1021F00084B27BE6404690470138D8F8003087B279
:1022000061E600BF211A00081D1A00087F291ED8A8
:102210003F2A1CD86BB1D3084FF0010C02F0070223
:1022200001EBC3130CFA02F2C1180B7D1A430A75B5
:102230007047D3084FF0010C02F0070201EBC31303
:102240000CFA02FCC1180A7D22EA0C020A757047DA
:102250002DE9F04F83B05C1A0C9E002C9DF8349051
:10226000A6EB0208B8BF6442B8F1000FB8BFC8F1CE
:1022700000088B428CBF4FF0010A4FF0FF3A9642A4
:10228000A4EB080C51D84FF0FF357F2B019512D8E5
:102290003F2E10D8F50806F0070E012703EBC515F1
:1022A0000544B9F1000F47D007FA0EF795F814E08E
:1022B00047EA0E072F75964201D18B4229D0C8F10B
:1022C00000077F2914D83F2A12D8D50802F0070B3F
:1022D0004FF0010E01EBC5150544B9F1000F1BD0FD
:1022E0000EFA0BFE95F814B04EEA0B0E85F814E0CA
:1022F000B7EB4C0F4FEA4C0502DAACEB080C51443B
:10230000AC4202DD019DA4442A449942D9D19642AF
:10231000D7D103B0BDE8F08F0EFA0BFB95F814E0AF
:102320002EEA0B0E85F814E0E2E701257F2B0195DC
:10233000C5D83F2EAED9C2E707FA0EFE2F7D9642D2
:1023400027EA0E072F75B8D0B9E700BF00000000DC
:102350002DE9F04F2DED068B83B01F4680460D46CC
:102360009DF8503016460193139B002BC0F221823A
:10237000129A134406EE103ADDED127AB8EEC66BEF
:102380009FEDCD4BB8EEE77B9FEDCD5B27EE047B59
:1023900026EE046B87EE050B86EE05ABF7EEC08BE1
:1023A000B0EE680A11F034F907EE907AB7EECAABD6
:1023B000F8EE679AB0EE408AB0EE680A11F024FA9F
:1023C00060EE698AB0EE4A0A11F022F9B0EE409A46
:1023D000B0EE4A0A11F018FA20EE690A29EE888A4E
:1023E00029EE899A70EE687AF0EE006A39EE487A42
:1023F00067EEA77AE7EE077AF4EEE67AF1EE10FAE6
:1024000006D5139BB42B40F396804FF0010901E0F1
:102410004FF00009012478424FF0000C0095E31BB7
:10242000214627462246A340B9F1000F6AD1424215
:1024300006EE90CACCF1000107EE102AB8EEE66A6B
:1024400007EE901A06EE900AB8EEC77A139A66EE77
:10245000084AF8EEE77AB42A27EE284AF8EEE66A48
:1024600067EE885A74EEC43A26EEA85A26EE096A38
:1024700066EE806A67EE897A27EE007AF5EEC03A5A
:1024800040F3F280F1EE10FA00F17F8176EE473AE8
:1024900074EEC54AF5EEC03AF1EE10FAF5EEC04A18
:1024A000CCBF01220022F1EE10FA00F1778136EE66
:1024B000666A35EEC55AB5EEC06AF1EE10FAB5EEB1
:1024C000C05ACCBF01210021F1EE10FA00F16F815A
:1024D00077EEE66AF5EEC06AF1EE10FACCBF01279E
:1024E000002775EEC45AF5EEC05AF1EE10FA00F16D
:1024F000478177EEC77AF5EEC07AF1EE10FACCBFDD
:1025000001240024002A40F08A80002964D1BFB948
:10251000C4BB9C4558DB0CF1010C03EB4C0E1CEBCF
:10252000000F0EF1010E00F0C08098424FDB7346A1
:1025300000287FF779AF03B0BDEC068BBDE8F08FC4
:10254000009DA6EB0C0E00EB050ABAF17F0FDFD859
:10255000BEF13F0FDCD84FEADE0B019D0AEBCB1A30
:10256000002D00F0B1800EF0070BC2444FF0010EB9
:102570000EFA0BFE9AF814B04EEA0B0E8AF814E02D
:10258000002CC6D0009DA6EB0C0EA5EB000ABAF1FC
:102590007F0FBED8BEF13F0FBBD84FEADE0B019DC7
:1025A0000AEBCB1A002D00F0AE800EF0070BC244F0
:1025B0004FF0010E9C450EFA0BFE9AF814B04EEA4D
:1025C0000B0E8AF814E0A6DA98429E46AFDA013084
:1025D0000EEB40030133ABE7009D0CEB060E00EB66
:1025E000050ABAF17F0F92D8BEF13F0F8FD84FEA9C
:1025F000DE0B019D0AEBCB1A002D73D00EF0070BFA
:10260000C2444FF0010E0EFA0BFE9AF814B04EEAD7
:102610000B0E8AF814E0002F3FF47AAF90E7009D8C
:102620000CEB060EA5EB000ABAF17F0F3FF66DAF7B
:10263000BEF13F0F3FF669AF4FEADE0B019D0AEB9B
:10264000CB1A002D6DD00EF0070BC2444FF0010ED7
:102650000EFA0BFE9AF814B04EEA0B0E8AF814E04C
:1026600000293FF454AFB7E7F1EE10FA7ED44A46A2
:1026700074EEC54AF5EEC04AF1EE10FA6CD40021B2
:1026800035EEC55AB5EEC05AF1EE10FA5AD400270D
:1026900075EEC45AF5EEC05AF1EE10FA3FF529AFC7
:1026A0000024002A3FF431AFB9E798428FDB0023C2
:1026B0003BE700BFAFF300807A008BFCFA210940B2
:1026C0000000000000806640C2444FF0010B0EF095
:1026D000070E0BFA0EFE9AF814B02BEA0E0E8AF8CB
:1026E00014E015E7C2444FF0010B0EF0070E0BFA91
:1026F0000EFE9AF814B02BEA0E0E8AF814E0002FA2
:102700003FF406AF1CE7C2444FF0010B0EF0070E7A
:102710000BFA0EFE9AF814B02BEA0E0E8AF814E0AB
:10272000F7E6C2444FF0010B0EF0070E0BFA0EFE57
:102730009AF814B02BEA0E0E8AF814E000293FF440
:10274000E6AE49E777EEE66AF5EEC06AF1EE10FA1A
:10275000CCBF012700279BE736EE666AB5EEC06A5C
:10276000F1EE10FACCBF0121002189E776EE473A5D
:10277000F5EEC03AF1EE10FACCBF0122002277E765
:102780000124002A3FF4C1AE49E774EEC54A012294
:10279000F5EEC04AF1EE10FA7FF589AE35EEC55A76
:1027A0000121B5EEC05AF1EE10FA7FF591AE012786
:1027B00097E6DDE91223134406EE102A1293139BC9
:1027C0005B421393D8E500BF2DE9F04F87B09DF829
:1027D0004850109C2E4601959DF844509EB3994256
:1027E0002ED89946A24228D87F29164694BF0023A6
:1027F000012308E09CF814804EEA080E8CF814E0DF
:102800000136B44219D33F2EFAD8002BF8D14FEA43
:10281000D60C06F0070E4FF0010801EBCC1C08FAAD
:102820000EFE8444002DE5D19CF814B001362BEA4D
:102830000E0AB4428CF814A0E5D201318945D1D2F8
:1028400007B0BDE8F08FA3EB0108B8F1000FB8BFE7
:10285000C8F100089942C0F04E817F2B4FF0FF3A3B
:1028600094BF002601263F2A009694BF0027012727
:102870000297A6B99FB9D60802F0070C012703EB0F
:10288000C6160644002D00F0948107FA0CF796F85E
:1028900014C047EA0C073775002602960096994245
:1028A00000F09781464694468E46BEF17F0F16D8BB
:1028B000BCF13F0F13D84FEADC070CF0070B4FF0C9
:1028C00001090EEBC7170744002D00F0398109FA02
:1028D0000BF997F814B049EA0B0987F814907700C0
:1028E00018BFD644B84502DD46440CF1FF3C7345A1
:1028F000DBD16245D9D100260496A4EB0209009FE2
:10290000B9F1000FB8BFC9F100093F2C94BF0026F0
:102910000126A242C9F100080396C0F02381002FCE
:1029200040F05081002E40F04D814FF0FF36009670
:10293000E60803EBC6160644002D00F01E814FF09A
:10294000010C04F007070CFA07F796F814C047EAE1
:102950000C07377500260396A24200F03D81C4465D
:1029600016461F4605927F2F15D83F2E13D84FEAE3
:10297000D60E06F0070B4FF0010A07EBCE1E864479
:10298000002D00F0E6800AFA0BFA9EF814B04AEA2D
:102990000B0A8EF814A0B8EB4C0F4FEA4C0E02DA7B
:1029A000ACEB090C013FBEF1000F01D0009A1644B8
:1029B000BB42D8D1B442D6D1059AA1EB030EBEF1E9
:1029C000000FB8BFCEF1000E7F2994BF4FF0000A70
:1029D0004FF0010A99428CBF4FF001094FF0FF39C7
:1029E000BAF1000F13D1039E8EB9E60801EBC616AB
:1029F0000644002D00F0D3804FF0010C04F00707CF
:102A00000CFA07F796F814C047EA0C073775049ECE
:102A100026BB774626467F2B14D83F2E12D84FEA86
:102A2000D60C06F0070B4FF0010803EBCC1C8444D6
:102A3000002D73D008FA0BF89CF814B048EA0B0884
:102A40008CF814805FEA470C18BF4B44E64501DD63
:102A50007744013E9942DED1B442DCD1A2EB040EB0
:102A6000BEF1000FB8BFCEF1000EA2428CBF4FF0F6
:102A700001084FF0FF38CEF1000CBAF1000F0ED173
:102A8000029B63B9D30802F00707012601EBC313C9
:102A90000344002D7CD0BE401F7D3E431E75019B2C
:102AA000002B7FF4CDAE66460B467F2B12D83F2C11
:102AB00010D8E70804F0070A4FF0010903EBC71725
:102AC0000744A5B309FA0AF997F814A049EA0A09D4
:102AD00087F81490BCEB460F4FEA460702DAA6EBE4
:102AE0000E06013B07B144449942DED1A242DCD13B
:102AF00007B0BDE8F08F3F2A4FF0010A94BF0026CF
:102B000001267F2B029694BF002701270097002EF5
:102B10007FF4C8AE002F3FF4AEAEC3E608FA0BFB5D
:102B20009CF8148028EA0B088CF814808AE709FACC
:102B30000AFA97F8149029EA0A0987F81490C9E765
:102B400009FA0BFB97F8149029EA0B0987F81490FF
:102B5000C5E60AFA0BFB9EF814A02AEA0B0A8EF8C7
:102B600014A018E797BB8EBB01260096E60803EB7E
:102B7000C6160644002D7FF4E2AE012704F0070CD0
:102B8000039507FA0CFC377D27EA0C073775E3E657
:102B900006FA07F71E7D26EA07061E757FE701275E
:102BA00004F0070C07FA0CFC377D27EA0C07377591
:102BB0002DE707FA0CFC377D029527EA0C070095F4
:102BC00037756CE64FF0FF360096C5E60126009695
:102BD000C5E60126049690E601260196EDE600BFC3
:102BE00084B02DE9F04182B00125064604460DF17E
:102BF00024088572274688E80E00BDF84C3026F878
:102C0000083F304602F0F8F8BDF84E30A57127F8BD
:102C1000043F384602F0F0F84146204604F05EF8E2
:102C20000021384602F0D2F90A2004F071FA294650
:102C3000384602F0CBF90A2004F06AFAAE23304697
:102C400000218DF8073002F0C1F92A460DF1070185
:102C50006423204604F0C8F8D523304600218DF8BF
:102C6000073002F0B3F92A460DF10701642320462C
:102C700004F0BAF88023304600218DF8073002F0C6
:102C8000A5F92A460DF107016423204604F0ACF8AB
:102C9000A823304600218DF8073002F097F92A4624
:102CA0000DF107016423204604F09EF83F233046CF
:102CB00000218DF8073002F089F92A460DF107014D
:102CC0006423204604F090F8DA23304600218DF882
:102CD000073002F07BF92A460DF1070164232046F4
:102CE00004F082F81223304600218DF8073002F0FC
:102CF0006DF92A460DF107016423204604F074F8AB
:102D00000021D32330460F468DF8073002F05EF9DC
:102D10002A4664230DF10701204604F065F8394680
:102D200030468DF8077002F051F92A460DF107017F
:102D30006423204604F058F84023394630468DF885
:102D4000073002F043F92A460DF1070164232046BB
:102D500004F04AF8A623394630468DF8073002F0D1
:102D600035F92A460DF107016423204604F03CF8AA
:102D7000A423394630468DF8073002F027F92A4659
:102D80000DF107016423204604F02EF88D23394607
:102D900030468DF8073002F019F92A460DF1070187
:102DA0006423204604F020F81423394630468DF879
:102DB000073002F00BF92A460DF107016423204683
:102DC00004F012F8A123394630468DF8073002F09E
:102DD000FDF82A460DF107016423204604F004F8AB
:102DE000C823394630468DF8073002F0EFF82A46FE
:102DF0000DF107016423204603F0F6FF81233946D5
:102E000030468DF8073002F0E1F82A460DF107014F
:102E10006423204603F0E8FF8F23394630468DF8BF
:102E2000073002F0D3F82A460DF10701642320464B
:102E300003F0DAFFD923394630468DF8073002F027
:102E4000C5F82A460DF107016423204603F0CCFFA4
:102E50002523394630468DF8073002F0B7F82A4668
:102E60000DF107016423204603F0BEFFDB23394642
:102E700030468DF8073002F0A9F82A460DF1070117
:102E80006423204603F0B0FF3423394630468DF8E2
:102E9000073002F09BF82A460DF107016423204613
:102EA00003F0A2FFAF23394630468DF8073002F019
:102EB0008DF864232A460DF10701204603F094FFA4
:102EC00002B0BDE8F04104B0704700BF2DE9F04FFB
:102ED0000446AFB04FF00009089100F0B3F908992B
:102EE000204600F037FA1B2000F0AEF903462046DA
:102EF00004F13C05ADF82C3000F0C0F901230B992A
:102F000004F5B870CDF800901A4604F1180A01F0E3
:102F100019FC1C2000F098F90346204604F1C8066D
:102F2000ADF8303000F0AAF901230C9904F5C07017
:102F3000CDF800901A46EB4601F004FC1A2000F090
:102F400083F903461920ADF8343000F07DF90346CB
:102F50000D20ADF8383000F077F903462046ADF883
:102F60003C3000F08BF90D9904F1A000DDE90E234F
:102F700001F068FB152000F067F9ADF840001099EA
:102F8000284601F02FFC0F2000F05EF9034604F103
:102F90004D00ADF84430119901F024FC04230222C5
:102FA00029465046012501F02BFC4946504601F0C8
:102FB00021FE01462046089100F060F9DFED6D0A20
:102FC0004B464A4604F16000089901F009FB0121D3
:102FD000504601F00FFE01462046089100F04EF9E0
:102FE000DFED640A4A4608994B4604F1800001F07F
:102FF000F7FA142000F028F903461320ADF8483002
:1030000000F022F9ADF84C00122000F01DF91299E1
:10301000ADF8500030460095DDE9132301F042FB86
:103020009FED551A304604F58E76F0EE410AB0EE6B
:10303000410A01F05FFB112000F006F9ADF85400E1
:10304000182000F001F9ADF85800172000F0FCF846
:103050001599ADF85C0030460095DDE9162301F0C6
:1030600021FB9FED451A304604F5CC76F0EE410A7F
:10307000B0EE410A01F03EFB0823404A0DF1600E1C
:103080001D93022318920DF18C0C3D4A1C95674646
:10309000199204F5D272CDF8789004F5D074CDF879
:1030A0007C909046CDF86890CDF86C900992CDE96F
:1030B0002033344B229326AB1D46B0230893BEE841
:1030C0000F00ACE80F00BEE80F00ACE80F009EE870
:1030D00007008CE807000FCDABE80F0095E80F0064
:1030E0008BE80F00304697E80E00FFF779FD494660
:1030F00009984FF4806210F01BFD089D4FF0000905
:1031000020468DF88C500135494601F05FFF64235D
:10311000012239463046EDB203F066FE49462046AC
:103120008DF88C9001F052FF01226423394630461D
:1031300003F05AFE1023494620468DF88C3001F0EA
:1031400045FF642301223946304603F04DFE01213C
:10315000204601F03BFF80224146642330469044E4
:1031600003F042FEB82DC9D150462FB0BDE8F04F54
:1031700001F02ABD6F12033B00000000060B0B009C
:103180000105060A0104010F08B501210548FFF7F2
:103190009DFE0549034800F06DF8044B044A1A658A
:1031A000FEE700BF0404002419320008A809002427
:1031B000011A00080000000070B511480024114EEB
:1031C000114B124D32461249046044610462C0F84A
:1031D0009031C0F8984110F0FBF90A2123460222F1
:1031E00028469FED050BFEF7D9FB324628460949D4
:1031F000BDE8704010F0ECB9000000000070E7403E
:103200000404002400000024AC570108A80900248D
:10321000191A0008A117000810B5084C13460A46F1
:1032200001460748FEF71AFB04F1C80001F07CFADA
:1032300004F58E70BDE8104001F076BA0404002455
:10324000A8090024704700BF1F2882B009D8084B86
:1032500003EB400213F81030507843EA002002B02C
:10326000704701230C2043EA002002B0704700BFE2
:10327000E0570108143001F07FB900BF90ED0E0A4D
:10328000704700BFF0B5032399B0002701251293C2
:1032900006462C4B09A81595CDE90E7340F2045350
:1032A000ADF84030284BCDE91357099301F0A4FD48
:1032B00009A801F07DFE002836D1244B04AF044656
:1032C0000090CDF842301023394604958DF8203017
:1032D0001F4BCDE91650CDE906506846059301F025
:1032E000F5FF0823009A01A909A8ADF804508DF84C
:1032F000064009940295039300F0E4F800230EA918
:1033000038463024049302F0ABFD03224FF07E5385
:1033100009A906F114000B930C93CDE90942049A14
:1033200001F0EAF819B0F0BD40F60132074B1697EC
:1033300004AFADF824200998CDF84230179500F07D
:1033400081F8DBE70402040403030001040604031C
:103350000704010B2DE9F04304462DED028B83B0E9
:10336000002948D0012140F2011200230091ADF85C
:1033700004208DF80630304A0126304B271D304995
:1033800004F12908626040F20272A36040F606630D
:10339000E16004F125092682A4F8252084F827603D
:1033A000A4F8293084F82B6004F020F8694605461B
:1033B00048B304F130008DF8066003F075FF072D67
:1033C00034D104F114052046FFF75CFF284601F0D4
:1033D000CFF82846B0EE408A01F0C6F8D0ED007A6A
:1033E000F8EE677A88EE277A84ED0E7A03B0BDECAA
:1033F000028BBDE8F08340F2011300918DF80610B6
:10340000ADF80430B7E704F1300003F04DFF394662
:10341000204602F0A5F9484601F0EEFC404601F0D6
:10342000EBFC04F1120000F077F9CAE739462046B8
:1034300002F096F9C5E700BF05080509050705066E
:10344000050A060610B584B003460124ADF8040051
:1034500003A8ADF80C30ADF80E4001F0CDFC2146CC
:1034600003A801F0B3FD204603F052FE002103A89B
:1034700001F0ACFD204603F04BFE214603A801F00D
:10348000A5FD04B010BD00BF10B5C2F3002384B089
:103490000C46017C8DF80D2043EA4402FA240223F5
:1034A0008DF80C2003AA009401F0A6FF18B10124A6
:1034B000204604B010BD04460A2003F029FE204631
:1034C00004B010BD034670B543F8042B044684B025
:1034D00007C983E80700A37983B91A210B461E2286
:1034E000FA2523742046ADF80C20022303AA009588
:1034F00001F082FF28B1012004B070BD1B210B46F2
:10350000EDE70A2003F004FE4FF4B85200950223C1
:10351000ADF80C20204603AA217C01F06DFF0028A5
:10352000E9D10A2003F0F4FD41F202720095022372
:10353000ADF80C20204603AA217C01F05DFF002895
:10354000D9D10A2003F0E4FD042200950223ADF84E
:103550000C20204603AA217C01F04EFF0028CAD18E
:103560000A2003F0D5FD062200950223ADF80C20B9
:10357000204603AA217C01F03FFF0028BBD10A208E
:1035800003F0C6FD41F2082200950223ADF80C209D
:10359000204603AA217C01F02FFF0028ABD10A208E
:1035A000064603F0B5FD0095022303AA217C2046C0
:1035B000ADF80C6001F020FF00289CD1304603F0EC
:1035C000A7FD009522790C232046002A8DF80C30A7
:1035D00003AA4FF0020314BF622142218DF80D109F
:1035E000217C01F009FF002885D1304603F090FDD1
:1035F0002279D4E902310B43DBB20AB943F040032C
:1036000062790AB143F020030E22FA258DF80D30BD
:103610002046009502238DF80C2003AA217C01F09E
:10362000EBFE00287FF467AF0A2003F071FD102243
:1036300000950223ADF80C20204603AA217C01F05E
:10364000DBFE00287FF457AF0A2003F061FD122152
:1036500000950223ADF80C1003AA217C204601F04E
:10366000CBFE00287FF447AF0A2003F051FD012272
:1036700009212046FFF708FF003818BF01203BE76B
:10368000F0B5102387B0234C012200250126002726
:1036900002A920460195CDE902234FF48052CDE9DD
:1036A00004670AF05BFC642004F046F902A94FF4B9
:1036B00080522046CDE9046702261027CDE9026733
:1036C0000AF04CFC0322102302A92046CDE9022374
:1036D00000230422CDE904234FF480520AF03EFC7B
:1036E00040F23223042202A9019310232046CDE99F
:1036F0000223019A012305924FF4805204930AF0A9
:103700002DFC40F6060120460AF048FC284607B08A
:10371000F0BD00BF680A00241C4B00221C494FF07A
:10372000400C30B5054689B00220596007219A60E7
:103730001A620124DA620A224FF4006EDC600692FB
:103740002022CDE9000104200821CDE90201032057
:103750001021CDE9040108206946C3E904024FF4B1
:10376000C072181DC3E906C24FF48052C3E909E2D2
:103770000AF0CAFB38B92846FFF782FF003818BFA5
:10378000012009B030BD204609B030BD640A0024D4
:1037900040410052614A0021D0B513688EB00A91B1
:1037A000002B40F0B9805E4B01214FF683700C2452
:1037B00011600221D3F8D4200026032742F480525E
:1037C000C3F8D420D3F8D42002F480520092009A97
:1037D000D3F8E02042F01002C3F8E020D3F8E02054
:1037E00002F010020192019AD3F8E02042F0400268
:1037F000C3F8E020D3F8E02002F040020292029ADF
:10380000D3F8E02042F00802C3F8E020D3F8E0202B
:1038100002F008020392039AD3F8E02042F4807287
:10382000C3F8E020D3F8E02002F480720492049AF6
:10383000D3F8E02042F08002C3F8E020D3F8E02083
:1038400002F080020592059AD3F8E02042F02002AF
:10385000C3F8E020D3F8E02002F020020692069A96
:10386000D3F8E02042F00402C3F8E020D3F8E030BF
:103870000C9403F0040307930323079A0B93CDE9F9
:10388000080108A9274805F0DDFE48F23712022397
:1038900008A925480C94CDE90823CDE90A6705F06D
:1038A000D1FE4CF20372022308A920480C94CDE902
:1038B0000823CDE90A6705F0C5FE40F2FF62022346
:1038C00008A91B480C94CDE90823CDE90A6705F047
:1038D000B9FE4FF60C72022308A916480C94CDE9E4
:1038E0000823CDE90A6705F0ADFE4FF63F0202233B
:1038F00008A911480C94CDE90823CDE90A6705F021
:10390000A1FE2022022308A90A480C94CDE90A67E7
:10391000CDE9082305F096FE0EB0D0BD600A002464
:10392000004402580010025800180258000C0258B7
:1039300000200258001C0258001402582DE9F04FD4
:10394000DFF8108406460D46144608F118002DEDE8
:10395000028B89B000AF02F07BFBD8F8183073B34C
:10396000D8F81C30D8F80490002B43690BBF4FF0F7
:10397000080A4FF0100A4FF0020B4FF0040BB9F198
:10398000000F2AD0A200EA46012B02F1070222F022
:103990000702ADEB020D6846ADEB020D694600F083
:1039A0003F81022B00F0D680002B6FD02246C84703
:1039B000D5462437BD46BDEC028BBDE8F08FD8F864
:1039C0001C30002BF5D0D8F804904FF0080A4FF0C7
:1039D000020B4369B9F1000FD4D1FB61D8F8003074
:1039E000BB61002BE5D0D54802F0A4FB6B46BBF1D0
:1039F000020F786108EE103AFB6900F083816A4695
:103A00005146A2EBC40295466200EA46B2FBFBF2C5
:103A1000AAEBC40085460AEB8200EE46F861ADEBE6
:103A2000010DF8690EEB820CC7F810C0EC46ADEB47
:103A3000010D00EB8201CCF80400CCF8081001EB7A
:103A400082013869E946CCF80C1000EB8201CCF811
:103A500000A001EB8202C9E900E0C9E90212012BD2
:103A600000F06483022B00F06C82002B00F0808158
:103A7000620849466046BB69984718EE103A2437F9
:103A80009D46BD46BDEC028BBDE8F08F002C8DD06D
:103A90001A46D8ED0C6A9FEDB27A8446331D36F98A
:103AA00022E00CF1080C07EE90EA33F922E0023232
:103AB000F8EEE77A944267EE877A67EEA67A4CEDE5
:103AC000027A07EE90EAF8EEE77A67EE877A67EE19
:103AD000A67A4CED017AE2D8F9612246C847984EA1
:103AE000D8ED0D6A0020F9692B1D9FED9E7A9FEDA0
:103AF0009E6ADFED9E5A22E0F4EEC67AF1EE10FAED
:103B0000C0F2C88447F6FE72D1ED017A45F8202054
:103B100066EEA77AF4EEC77AF1EE10FA40F2F08082
:103B2000F4EEC67AF1EE10FAC0F2D58447F6FE72D2
:103B300043F820200230083184427FF639AFD1EDBE
:103B4000007A66EEA77AF4EEC77AF1EE10FAD3D8CF
:103B50003246D9E7002C3FF429AFD8ED0C6A8446F1
:103B60009FED787A0022331D8E4656F822100CF114
:103B7000080C07EE901A53F822100232F8EEE77A9A
:103B8000944267EE877A67EEA67A4CED027A07EEEA
:103B9000901AF8EEE77A67EE877A67EEA67A4CED30
:103BA000017AE2D871462246C7F81CE0C847664E43
:103BB000D8ED0D6A0020F9692B1D9FED6A7A9FED03
:103BC0006A6ADFF894C120E0F4EEC67AF1EE10FAEA
:103BD000C0F279843246D1ED017A45F8202066EEB4
:103BE000A77AF4EEC77AF1EE10FA40F28780F4EE8D
:103BF000C67AF1EE10FAC0F25E84324643F8202015
:103C00000230083184427FF6D3AED1ED007A66EE01
:103C1000A77AF4EEC77AF1EE10FAD5D86246DAE761
:103C2000002C3FF4C3AED8ED0C6A86469FED477A70
:103C30004FF0000C331D56F82C200EF1080E82F4C4
:103C40000002A2F5000207EE902A53F82C200CF196
:103C5000020CF8EEE77A82F400026445A2F5000255
:103C600067EE877A67EEA67A4EED027A07EE902A23
:103C7000F8EEE77A67EE877A67EEA67A4EED017A7C
:103C8000D9D8F9612246C847314ED8ED0D6A0020D7
:103C9000F9692B1D9FED337A9FED336ADFF8BCC0C5
:103CA0001FE0F4EEC67AF1EE10FAC0F2FC83324661
:103CB000D1ED017A45F8202066EEA77AF4EEC77AB6
:103CC000F1EE10FA18D9F4EEC67AF1EE10FAC0F25D
:103CD000DA83324643F820200230083184427FF6EE
:103CE00067AED1ED007A66EEA77AF4EEC77AF1EE10
:103CF00010FAD6D86246DBE76246EBE762467DE71C
:103D0000324615E7A100D6466208073121F00701C7
:103D1000ADEB010DEA46ADEB010D6946ADEB0E0DC5
:103D20000AEB8200EC46ADEB0E0D01EB8202F8616E
:103D3000E946CCE900A0C9E9001290E6B80A0024DF
:103D40000280FFFF000000300082FF7F000000348F
:103D500082FF7F009C0A0024007E00807E0080FF9E
:103D60000000003804FF7FBF04FF7F3F00FEFF46D6
:103D7000002C00F0C982BBF1020FD8F8242000F01B
:103D8000FA827969C7F8049002EB810E5FED0C5A54
:103D90008A00DCF808100EF104007A611A46DCF89B
:103DA0000C303B61331DD7F810903D61FD69C7E9C8
:103DB00002CB8C46834636F92210D8ED0C7A06EEFB
:103DC000101A33F9221006EE901A3EF92210B8EEBE
:103DD000C66A07EE101AF8EEE66A3BF92210B8EE52
:103DE000C77A26EE256A66EEA56A27EE257A26EEC4
:103DF000276A66EEA76A27EE277A07EE901A51081F
:103E00000232F8EEE77A0AEB8100944280ED006A14
:103E100005EB810067EEA57AC0ED006A0CEB81002E
:103E200009EB810180ED007A98ED0C7A67EE877AD4
:103E3000C1ED007ABFD8D7F804903D69D7E902CB2D
:103E400060466208BB6949469847D8F82C307A69C1
:103E5000D8ED0D6A1A441FED3D7A1FED3D6A2B1D0A
:103E6000904602F1040A5FED3F5A0022A84ED9E9BC
:103E700000EC51E0F4EEC67AF1EE10FAC0F2C7821F
:103E800047F6FE7045F822000CEB0100D0ED007AF9
:103E900066EEA77AF4EEC77AF1EE10FA4BD9F4EE9B
:103EA000C67AF1EE10FAC0F2BA8247F6FE70BBF1A4
:103EB000020F43F822002BD0D9F808000844D0EDB7
:103EC000007A66EEA77AF4EEC77AF1EE10FA36D9E8
:103ED000F4EEC67AF1EE10FAC0F2CD8247F6FE702B
:103EE00048F82200D9F80C000144D1ED007A66EEC2
:103EF000A77AF4EEC77AF1EE10FA1ED9F4EEC67A7C
:103F0000F1EE10FAC0F2AF8247F6FE714AF82210C5
:103F1000023294427FF6B1AD51080EEB8100890068
:103F2000D0ED007A66EEA77AF4EEC77AF1EE10FAD9
:103F3000A0D83046A6E73046B9E73146E6E7304636
:103F4000CEE7002C00F0E081BBF1020FD8F824305E
:103F500000F0E1817A69DCF8081003EB820EC7F803
:103F600004909300DFED6B5A0EF1040000227B6198
:103F7000DCF80C303B61331DD7F810903D61FD69D2
:103F8000C7E902CB8C46834656F82210D8ED0C7A4E
:103F900007EE101A53F82210B8EEC76A07EE101A8F
:103FA0005EF82210F8EEC76A07EE101A26EE256AB0
:103FB0005BF82210B8EEC77A66EEA56A26EE276A8D
:103FC00027EE257A66EEA76A27EE277A07EE901A83
:103FD00051080232F8EEE77A0AEB8100944280ED54
:103FE000006A05EB810067EEA57AC0ED006A0CEB74
:103FF000810009EB810180ED007A98ED0C7A67EE83
:10400000877AC1ED007ABFD8D7F804903D69D7E927
:1040100002CB60466208BB6949469847D8F82C3005
:104020007A69D8ED0D6A1A449FED3E7A9FED3E6A9B
:10403000131D9246DFF8E4C00022FB612B1D364EB3
:10404000D9E9008E4EE0F4EEC67AF1EE10FAC0F235
:10405000FC81304645F822000EEB0100D0ED007ADD
:1040600066EEA77AF4EEC77AF1EE10FA49D9F4EECB
:10407000C67AF1EE10FAC0F2EF813046BBF1020FC2
:1040800043F822002AD0D9F808000844D0ED007A7D
:1040900066EEA77AF4EEC77AF1EE10FA35D9F4EEAF
:1040A000C67AF1EE10FAC0F2C98130464AF8220011
:1040B000D9F80C000144D1ED007A66EEA77AF4EE4F
:1040C000C77AF1EE10FA1ED9F4EEC67AF1EE10FAC4
:1040D000C0F2AD813146F86940F8221002329442B4
:1040E0007FF6CBAC510808EB81008900D0ED007A57
:1040F00066EEA77AF4EEC77AF1EE10FAA3D860461E
:10410000A8E76046BAE76146E5E76046CEE700BF4C
:104110000280FFFF000000300082FF7F007E0080F1
:104120000000003404FF7FBF04FF7F3F002C00F03D
:10413000EB807A690021D8F82430C7F8109003EB9F
:10414000820ED7F81C909300FD610EF104021FED62
:104150000C6A7B61331D154656F821204808D8EDBE
:104160000C6ABBF1020F82F40002A2F5000207EE16
:10417000902A53F8212082F40002B8EEE77AA2F5E3
:10418000000227EE067A07EE902A0AEB8002F8EE8C
:10419000E77A27EE267A67EE867A82ED007A09EBD7
:1041A00080024FEA800067EEA67AC2ED007A27D03F
:1041B0005EF8212082F40002A2F5000207EE902AA8
:1041C00055F8212082F40002B8EEE77AA2F5000249
:1041D00027EE067A07EE902ADCF80820F8EEE77A58
:1041E000024427EE267A67EE867A82ED007A98ED11
:1041F0000C7ADCF80C2067EE877A0244C2ED007A74
:1042000002318C42A8D8D7F8109060466208BB698A
:104210004946FD699847D8F82C307A69D8ED0D6A7F
:104220001A441FED407A1FED406A131D9246DFF8D5
:10423000C4C20022FB612B1DAB4ED9E9008E4EE0BB
:10424000F4EEC67AF1EE10FAC0F2C580304645F8B9
:1042500022000EEB0100D0ED007A66EEA77AF4EEB4
:10426000C77AF1EE10FA49D9F4EEC67AF1EE10FAF7
:10427000C0F2BF803046BBF1020F43F822002AD0C3
:10428000D9F808000844D0ED007A66EEA77AF4EE7B
:10429000C77AF1EE10FA35D9F4EEC67AF1EE10FADB
:1042A000C0F2AE8030464AF82200D9F80C00014432
:1042B000D1ED007A66EEA77AF4EEC77AF1EE10FA45
:1042C0001ED9F4EEC67AF1EE10FAC0F28B803146B8
:1042D000F86940F82210023294427FF6CEAB5108C2
:1042E00008EB81008900D0ED007A66EEA77AF4EE43
:1042F000C77AF1EE10FAA3D86046A8E76046BAE79D
:104300006146E5E76046CEE7224649466046BB691E
:104310009847FFF7B2BBC7F810B0002298ED0C6ABF
:10432000331DDFED726AD7F81CB0786956F8221099
:1043300007EE901A53F82210B8EEE77A07EE901ABB
:1043400051080232F8EEE77A27EE267A0AEB810E60
:1043500094420BEB810167EEA67A27EE067A67EEB0
:10436000867A8EED007AC1ED007ADFD88300D7F827
:1043700010B07B614DE61A46C7F810B098ED0C6A94
:10438000331DDFED5B6AD7F81CB0786936F922106F
:1043900007EE101A33F9221007EE901AB8EEC77A1A
:1043A00051080232F8EEE77A27EE267A0AEB810E00
:1043B00094420BEB810167EEA67A27EE067A67EE50
:1043C000867A8EED007AC1ED007ADFD88300D7F8C7
:1043D00010B07B6134E5F0EE675AFEEEE45A15EE5C
:1043E000900A34E7F0EE675AFEEEE45A15EE901AA2
:1043F0006EE7F0EE675AFEEEE45A15EE900A3AE7E1
:10440000F0EE675AFEEEE45A15EE900A4BE767EEBF
:10441000A57AFDEEE77A17EE900A00B232E567EE74
:10442000A57AFDEEE77A17EE900A00B23FE5F0EECE
:10443000675AFEEEE05A15EE901A4CE6F0EE675A17
:10444000FEEEE05A15EE900A30E6F0EE675AFEEE08
:10445000E05A15EE900AFDE5F0EE675AFEEEE05ADE
:1044600015EE900A0AE667EEA57AFDEEE77A17EEFA
:10447000901A09B24AE567EEA57AFDEEE77A17EEE3
:10448000900A00B22CE5F0EE675AFEEEE45A15EE03
:10449000902A1FE467EEA57AFDEEE77A17EE902AE0
:1044A00012B2FFF731BBF0EE675AFEEEE45A15EE9A
:1044B000902AFFF7FDBBF0EE675AFEEEE05A15EECC
:1044C000902AFFF79BBBF0EE675AFEEEE05A15EE1E
:1044D000902AFFF780BB67EEA57AFDEEE77A17EE2C
:1044E000902A12B2FFF724BB82FF7F000000003049
:1044F000000000387E0080FF30B5184C154685B0AE
:10450000046004F1080EEC460FC98EE80F00D4EDEC
:10451000047AF5EEC07A8CE80F00F1EE10FA1ADD9D
:10452000B7EE006A94ED057A27EE277AC6EE276A81
:1045300084ED0D7AC4ED0C6A6DB1204640F8185F29
:1045400001F086FD064903690020064A2162A26245
:10455000E36005B030BD012005B030BD9C0A0024E9
:10456000002000300000003000680830704700BFB5
:104570000068183001F0CCBD30B5046883B00D463A
:10458000E3694BB1A3680020E26A616A9B00009076
:1045900004F11C0001F05EFDA3680748A26A9B00BD
:1045A000216A009004F1180001F054FD0020C4E9D4
:1045B000005003B030BD00BF3D39000810B4074BB8
:1045C0004FF07E5130240022032019619C60D86096
:1045D0005DF8044B5961C3E9062270479C0A002428
:1045E000F6EE007A9FED166A20EE207A0160F7EE73
:1045F000006A80ED036A80ED020A27EE277AC6EE94
:10460000877AF4EEE67AF1EE10FA11DDF0EE667AD2
:104610004FF07E514FF0000C02760022C0ED017A7F
:10462000C0F814C0016143768276C0ED070A704776
:10463000F4EEC67AF1EE10FAEAD5F0EE467AE7E744
:104640000000000030B585B004460025ADF80C1020
:10465000ADF80820ADF8043002F058FDBDF80C208C
:104660004FF48073206004F118002283BDF8082005
:104670006383E383A283257100F0BEFB04F11C0079
:1046800000F0BAFB9FED060A019904F1080000F062
:104690008FF84FF6FF736562238405B030BD00BF0D
:1046A0000000000030B585B004469FED110A9DF86A
:1046B0002050ADF80C100399ADF808202A46ADF84B
:1046C00004308DED000A0BF071FE9DED000A2A46C4
:1046D000029904F11C000BF069FE9DED000A2A46C8
:1046E000019904F1380005B0BDE830400BF05EBE22
:1046F00000007A4410B52DED028BF0EE608A04467E
:10470000B0EE418A0BF076FE04F11C00B0EE680AB0
:104710000BF070FEB0EE480A04F13800BDEC028BDD
:10472000BDE810400BF066BE10B504460BF074FEF9
:1047300004F11C000BF070FE04F13800BDE81040DD
:104740000BF06ABEF0B51D4683B004461646A5F1CF
:1047500001059DF82070ADF8041002F0D7FCB5FA01
:1047600085F50023BDF80420012F4FEA5515667129
:104770002060E572E2802371A372237209D0022FB8
:104780000FD00123A01D637203B0BDE8F04000F01C
:1047900033BB0223A01D637203B0BDE8F04000F0FC
:1047A0002BBBA01D637203B0BDE8F04000F024BB3A
:1047B00070B5044682B0C1F30726CDB2ADF804103F
:1047C00002F0A4FC4FF480724FF001232060A01D82
:1047D000A571A280E671A36002B0BDE8704000F050
:1047E0000BBB00BF82B04FF0000C0323ADF80410E8
:1047F000BDF8042080F810C00280438002B07047EA
:104800002DE9F04FBE4E00258FB0BE4C037006F16F
:1048100040034260074601928846202229463046DE
:10482000C4F85831C4F85461CDE90355CDE90555B4
:10483000CDE90755CDE90955CDE90B550FF078F9CC
:104840002022294604F59970C4F82151C4F8255155
:10485000C4F82951C4F82D510FF06AF9019B84F86E
:10486000385284F820317A68002A5FD02B464146BE
:10487000B64604F5907599464FF0010A03EB031014
:10488000D1F800B0D1F804800133D1F808C0221863
:10489000CE6844F800B0C2F80480C2F808C0D66000
:1048A000087C2EF8029B10740A7C05F8012F002A60
:1048B00069D07A68113184F838A29A42DED84FF470
:1048C000802291489DF8043008214FF000084FF0F5
:1048D0000009C4F874310023C4E957020122C4F866
:1048E000643184F87031C4E95A2194F83812C4E96B
:1048F000608981B3C4F88821002284F8713184F87A
:1049000078313B78C4E96322A3B30122002001215E
:10491000013B84F89421C4E96801082B2CD8DFE816
:1049200003F0ABB0B5BABFC4C9CFD6009DF8043010
:104930000121C4F86421C4F874314FF4802384F851
:104940007021714AC4E9572308230022C4E95A138D
:104950000023C4E960230123002284F8713100237D
:1049600084F878310323C4F888313B78C4E96322A2
:10497000002BCAD184F89431644803F015FC034637
:1049800038B1FFBEFEE77A6811319A423FF676AF42
:1049900095E703A95D48039303F064FD05460028ED
:1049A00068D1022240F2FF73CDE9082300230422DC
:1049B000CDE90A2394F82031002B00F0D5804FF088
:1049C000060921E0022B00F08980012B40F0C48011
:1049D0009AF80130012B00F0C180002B4C4B18BF1E
:1049E000002306A94948CDE9063903F009F8002853
:1049F00040F0BF80013594F82031EDB2AB4240F277
:104A0000B380444B53F825902FB207EB071704EB04
:104A1000070A504600F0F0F905EB051323441B7C10
:104A2000042B7DDC022B00F3918000F08D80631954
:104A3000002283F81021E35D002BC3D19AF80130E6
:104A4000062B00F08580072B00F08A80022B00F0F7
:104A50009680032B00F09580002B00F09680012BB0
:104A600000F09180042B00F09280052B2A4B18BF98
:104A70000023B6E7FFBEFEE703224023C4E9662316
:104A80007AE707226023C4E9662375E70F228023B3
:104A9000C4E9662370E71F22A023C4E966236BE7FD
:104AA0003F22C023C4E9662366E77F22E023C4E9EE
:104AB000662361E7FF224FF48073C4E966235BE756
:104AC00040F2FF124FF49073C4E9662354E740F2BA
:104AD000FF324FF4A073C4E966234DE79AF8013022
:104AE000042B37D0052B3DD0002B40D0012B42D0DA
:104AF000022B42D0032B094B18BF002371E700BFE4
:104B000000400030D80A002400200240340C002469
:104B10000002B025205801080000B84F0020903650
:104B200003233E1D04EB05084FF0000B264488F8D4
:104B3000103130460BF1010B00F05EF998F810319E
:104B400004365B45F5DC76E70123EAE70223E8E774
:104B5000104B46E7104B44E7002342E70F4B40E77A
:104B60000F4B3EE70F4B3CE70FB0BDE8F08F0E4B0D
:104B700037E7FFBEFEE70D4B33E70D4B31E70D4B3B
:104B80002FE70D4B2DE70D4B2BE70D4B29E70D4B79
:104B900027E700BF0800900C1000C0102000F014A0
:104BA0008000501D000180210004002A0008302EE2
:104BB000001060320040C03A0080F03E00005247D2
:104BC000000021430000844B38B5094C40F2FF72CD
:104BD0004FF0011104F5AE75284603F0F1FB94F88F
:104BE0002021D4F854112846BDE8384003F05CB9C0
:104BF000D80A0024034B0F29D3F8540198BF00EBC7
:104C000041007047D80A0024214B02689A4200D024
:104C10007047204A00232048D2F8D81030B51F4CE6
:104C200041F0200183B0C4F8C001092004F5E0750B
:104C3000C4E971034FF48060C2F8D810D2F8D820CC
:104C40004FF40061C4E9733094F8380202F0200296
:104C5000C4F8D4114FF40051984201922846C4F888
:104C6000D811C4E97833019B14BF00234FF480733B
:104C7000C4F8DC3103F01CFE08B1FFBEFEE704F50A
:104C8000AE73C4F8A851C4F8F83103B030BD00BF0A
:104C9000002002400044025840000240D80A00248C
:104CA000014804F07DB900BF980C002402682DE98A
:104CB000F84F4B4B9A4201D0BDE8F88F494D95F81B
:104CC0003832002BF8D095F82031002B77D0002413
:104CD00005F10C0905F5997605F59077A04613E0E6
:104CE00003F0010117F811BCA9F1080000F06EF9FA
:104CF000BBF1010F25D895F82031013409F11109D4
:104D00000236A2B293422BD917F8012F002AF4D011
:104D1000D5F854310021327833F81400D5F85831E1
:104D200003EB041323F81200338801339BB2338062
:104D30005FFA83FA3A789A42D2D88A46A6F8008077
:104D4000D0E7CAF34001A9F1040000F03FF9BBF13C
:104D5000020FCAF38001CED0484600F037F9CAE707
:104D6000002395F83802204909229842C5F8C83135
:104D70004FF48060C5F8C011C5F8C4214FF400613C
:104D80004FF40052C5F8CC3108BF4FF48073C5F81A
:104D9000D821C5E9740100221448C5E97732C5F865
:104DA000E42103F085FD08B1FFBEFEE795F8202160
:104DB000D5F854110E48BDE8F84F03F075B80A490C
:104DC00009224FF48060C5F8C831C5E970124FF46C
:104DD00000614FF40052C5E97330C5E97512DAE796
:104DE00000200240D80A002440000240980C002411
:104DF000340C0024704700BF8378022B30B5044682
:104E00008FB037D0032B33D0012B31D000230A933E
:104E1000E378012B2AD0022B28D000230B93002308
:104E200020460C9302F066FC0546204602F06AFC20
:104E300023780990082B13D8DFE803F01F32455878
:104E40006B7E91A40500594BD3F8E02042F48072A8
:104E5000C3F8E020D3F8E03003F480730893089B94
:104E600009A9284604F0EEFB0FB030BD0B93D6E73E
:104E70000A93CDE711230A93CAE74C4B09A92846A8
:104E8000D3F8E02042F00102C3F8E020D3F8E0308C
:104E900003F001030093009B04F0D4FB0FB030BD7E
:104EA000424B09A92846D3F8E02042F00202C3F899
:104EB000E020D3F8E03003F002030193019B04F0FB
:104EC000C1FB0FB030BD394B09A92846D3F8E0200B
:104ED00042F00402C3F8E020D3F8E03003F004030A
:104EE0000293029B04F0AEFB0FB030BD2F4B09A91B
:104EF0002846D3F8E02042F00802C3F8E020D3F8B7
:104F0000E03003F008030393039B04F09BFB0FB016
:104F100030BD264B09A92846D3F8E02042F0100204
:104F2000C3F8E020D3F8E03003F010030493049BAF
:104F300004F088FB0FB030BD1C4B09A92846D3F8FC
:104F4000E02042F02002C3F8E020D3F8E03003F084
:104F500020030593059B04F075FB0FB030BD134B88
:104F600009A92846D3F8E02042F04002C3F8E02027
:104F7000D3F8E03003F040030693069B04F062FB95
:104F80000FB030BD094B09A92846D3F8E02042F004
:104F90008002C3F8E020D3F8E03003F080030793E9
:104FA000079B04F04FFB0FB030BD00BF0044025818
:104FB00038B5054602F09EFB0446284602F0A2FBE7
:104FC00001462046BDE8384004F044BD70B50646B1
:104FD0000D4602F08FFB0446304602F093FB2A1E7A
:104FE0000146204618BF0122BDE8704004F038BDDC
:104FF0000023122270B586B0CDE902230493036822
:10500000032B01D804230593061D841D304602F0AE
:1050100071FB0546304602F075FB034601A92846A0
:10502000019304F00FFB204602F064FB0346204688
:105030001C4602F067FB01A903462046019304F0D9
:1050400001FB06B070BD00BF634A0368934210B510
:105050008CB028D0614A934258D0614A934200F004
:105060009480604A934201D00CB010BD5E4C5F4802
:10507000D4F8E03043F00203C4F8E030D4F8E03074
:1050800003F002030A930A9BFFF7B2FFD4F8F4304F
:1050900043F08003C4F8F430D4F8F43003F0800314
:1050A0000B930B9BE0E7504C5148D4F8E03043F0B1
:1050B0000203C4F8E030D4F8E03003F002030193B7
:1050C000019BFFF795FFD4F8E83000221F2043F43E
:1050D00000131146C4F8E830D4F8E83003F40013A4
:1050E0000293029BD4F8D83043F00103C4F8D830BF
:1050F000D4F8D83003F001030393039B03F026FA9E
:105100001F200CB0BDE8104003F05EBA364C3948A1
:10511000D4F8E03043F08003C4F8E030D4F8E03055
:1051200003F080030493049BD4F8E03043F00203BF
:10513000C4F8E030D4F8E03003F002030593059B97
:10514000FFF756FFD4F8E8300022212043F4800313
:105150001146C4F8E830D4F8E83003F4800306932D
:10516000069BD4F8D83043F00103C4F8D830D4F803
:10517000D83003F001030793079B03F0E7F92120E0
:105180000CB0BDE8104003F01FBA1B48FFF730FF1A
:10519000154B00224820D3F8E840114644F400049F
:1051A000C3F8E840D3F8E84004F400040894089CED
:1051B000D3F8D84044F00104C3F8D840D3F8D8302D
:1051C00003F001030993099B03F0C0F948200CB0D8
:1051D000BDE8104003F0F8B900540040005800400A
:1051E000005C0040001C005800440258A00F00243E
:1051F000180D0024F00D0024C80E00242DE9F04302
:105200001A4B87B000254FF010099E46EC46184B0C
:10521000FF22E04667461A700EF118060EF13004C0
:10522000CDE90055CDE90255ADF80090BCE80F007E
:10523000CDE90455AEE80F009CE803000095ADF8F9
:1052400000908EE80300B8E80F000FC69CE803004A
:105250000095ADF8009086E803000FCF0FC49CE8DE
:10526000030084E8030007B0BDE8F08304000024D5
:10527000140D002410B5EFF3108472B6084B1A78A1
:10528000120602D504B962B610BD1B78D8220548B3
:105290005BB202FB0300143003F082FEF2E700BFB2
:1052A000140D0024180D0024014805F071BA00BF48
:1052B000A40D0024014805F06BBA00BF7C0E002449
:1052C000014805F065BA00BF540F00242DE9F043F2
:1052D0000F68D8243F4D85B007FB04F4032F05EB7E
:1052E0000403036040DCCB680E46012B3CD84DD054
:1052F0004FF0D808B646DFF8FC9008FB0758BEE828
:105300000F00C446ACE80F00DEF800300DF1100EBF
:10531000CCF80030D8F808C099E80F000EE90F006B
:105320000EEB8703BCF1010F53F8103CC8F88C302A
:1053300031D0BCF1020F42D0BCF1000F35D0317C2E
:105340008C34D823002201202C4403FB075349004E
:10535000C3E92602C3F894102046C3E92822C3E912
:105360002A2205F007F818B1012005B0BDE8F08346
:105370000146204605F018FA0028F5D101462046DE
:1053800005F03CFA003818BF0120EEE70B7C103B1B
:10539000672BADD9E8E702F027F80F4B98420CBF16
:1053A0000E4B0F4BC8F89030C9E702F01DF80A4BBE
:1053B00098420CBF0B4B0C4BC8F89030BFE702F083
:1053C00013F8054B98420CBF084B094BC8F89030B6
:1053D000B5E700BF180D0024000E27072D0FB030D1
:1053E0003211D0205F4390608A62E030200BA01021
:1053F0001A098010F84B01082DE9F041D0F800801F
:1054000082B00D4617461E4608F18C04204605F072
:10541000C7F92028FAD1D8F80C3073B96D002046AE
:10542000089C33463A46A9B2009404F0F9FF0038CC
:1054300018BF012002B0BDE8F081089B3246394612
:10544000204605F0C1F8F2E7044B10221A7483F8E5
:10545000E82083F8C02183F898227047180D0024B3
:1054600030B5002395B04FF48071062204460B93AB
:1054700006921393CDE90C13CDE90E33CDE9113328
:1054800001F0B4FF07282BD004F1100541F2883257
:1054900006A9284605F0C4FF28B10123184684F860
:1054A0005C3015B030BD0222022306A92846CDE9A2
:1054B000002310220123CDE9022300224FF48003B0
:1054C000CDE9042305224FF0807306926A460F93BC
:1054D00041F2883306F010F90028DED115B030BD56
:1054E0000323012084F85C3015B030BD00000000BB
:1054F00070B50023A4B04FF080724FF4807504465D
:10550000ADF806300D93CDE910320122CDE90E53EE
:10551000CDE91223CDE91433002943D0F02300F163
:10552000100508AEADF80630C02341F2883231468E
:105530002846089305F074FF28B10123184684F823
:105540005C3024B070BD41F288320DF1060128466E
:1055500005F0D0FF03460028EFD105224FF48071FB
:105560001E93284616924FF080721B9321931F9230
:1055700002AA9FED1F7BCDE91C13CDE922338DEDEF
:10558000027B9FED1D7B41F2883316A98DED047BD4
:105590009FED1B7B8DED067B06F0AEF80028CCD18D
:1055A00024B070BD00F1100508AE612341F28832CD
:1055B00031462846089305F033FF0028BDD141F25B
:1055C00088320DF10601284606F012F80028B4D101
:1055D000BDF80630204623F0780343F04003ADF8D1
:1055E0000630FFF73DFF00289ED0A6E7AFF300800E
:1055F0000000000001000000100000000100000099
:1056000000000000000040002DE9F04F00234FF49F
:10561000807501264FF0807804462DED028BABB0EB
:105620008DF8073013932193299314950E96CDF896
:105630005C80CDE91533CDE91863CDE91A33CDE9A6
:105640002253CDE92433CDE9273306231C9301F0FF
:10565000CDFE072808D004F1100741F288321CA9BA
:10566000384605F0DDFE40B10123184684F85C3071
:105670002BB0BDEC028BBDE8F08F4FF0020A4FF06B
:10568000020B4FF0050941F2883308AA1CA93846DD
:10569000CDF89480CDF870909FED2D8BCDE908ABBF
:1056A0004FF0000A4FF4800B8DED0A8BCDE90CAB67
:1056B00006F022F80028D7D141F2883238460EA9E8
:1056C00005F0AEFE0028CFD1402341F288320DF123
:1056D000070138468DF8073005F00CFF0028C3D1CC
:1056E00041F288330EA902AA3846CDF83890CDF899
:1056F0005C809FED197B8DED048BCDE906AB8DEDC4
:10570000027B05F0F9FF03460028ADD1CDF870907B
:105710004FF00109CDF894804FF00008219308AABA
:1057200029931CA938462295CDE92333CDE92733A7
:1057300041F288338DED0A8BCDE90CABCDE90889B8
:1057400005F0DAFF002893D0304684F85C608FE7DC
:1057500010000000010000004000000040000000B8
:105760002DE9F043624CA3B00D46046001F03EFE0B
:10577000072800F0A980286823466968AA6807C33B
:105780001E46AB8926F8043B3046257B677B05F037
:1057900029FEE0B9574B012D4FF00108E06123616C
:1057A00014BF4FF480134FF40003C4E9058893FA43
:1057B000A3F3B3FA83F34FF48079013BC4F8249048
:1057C000C4E90B003046236205F0A0FD38B1012288
:1057D000134684F85C20184623B0BDE8F0836623A6
:1057E0000B90139041F2883206A90693CDE90C90F4
:1057F000CDE90E00CDE91100304605F011FE00287C
:10580000E5D1992341F2883206A93046069305F086
:1058100007FE0028DBD105231C9019906A461493DB
:105820004FF08073219014A91D9341F288339FEDAE
:105830002A7BCDE91A90CDE91F008DED007B9FED0D
:10584000287B30468DED027B9FED277B8DED047B21
:1058500005F052FF0028BAD129462046FFF748FE3E
:105860000028B4D12046FFF7CFFE03460028AED172
:10587000002FB0D1189330460027002606AA14A99D
:10588000CDF86890CDE91F33EB2314934FF44063B8
:105890001B934FF4005317934FF440431C93A023E2
:1058A0001693062319934FF0805321934FF04073C2
:1058B000CDE906671D9305F097FF034600288AD0BF
:1058C000434684F85C8086E701230322184684F867
:1058D0005C2023B0BDE8F083000000000100000060
:1058E0001000000001000000000000000000400067
:1058F00078100024005000522DE9F04F8FB0414B3A
:105900000024026800AF9A427C63C7E90944C7E9F2
:105910000B4403D03C37BD46BDE8F08F3A4B40F610
:1059200009213A48EB46D3F8D42007F11C0607F1C9
:10593000220A4FF0020942F480424FF00308C3F8F4
:10594000D420D3F8D42002F48042BA60BA68D3F8E5
:10595000E02042F04002C3F8E020D3F8E02002F05B
:105960004002FA60FA68D3F8E02042F02002C3F85F
:10597000E020D3F8E02002F020023A613A69D3F83F
:10598000E02042F01002C3F8E020D3F8E02002F05B
:1059900010027A617A69D3F8E02042F00202C3F87B
:1059A000E020D3F8E030F86103F002033984BB61F2
:1059B000174B7B60BB697B6853F8040F7B6001F079
:1059C00099FE7B680546186801F09CFE16F8013BBD
:1059D000786207F124012846C7F830807B63C7E965
:1059E0000A9403F02FFE5645E5D100225C201146B3
:1059F00002F0ACFD5C2002F0E7FD3C37DD46BD4621
:105A0000BDE8F08F00500052004402580A0A09090C
:105A1000D4100024114B02689A4200D07047104AFB
:105A200070B5D2F8D4300F4C23F4804304F118063B
:105A3000C2F8D43054F8040F01F05CFE054620682B
:105A400001F060FE0146284603F03CFFB442F1D16C
:105A50005C20BDE8704002F0C5BD00BF00500052A0
:105A600000440258D4100024014805F049BF00BF8B
:105A700088100024084B1A1D981D03F1080110B46A
:105A80009C1C9A6603F10A02C3E91834C3E91B019E
:105A90005DF8044B5A6770477810002438B50368E6
:105AA00071B9026A00F1280500F5AC74012A0CBF37
:105AB000002140218BBB1D4B5722C0F858310DE00F
:105AC000426A00F1C00500F5E874012A0CBF00210C
:105AD0004021EBB1164B5A22C0F8D03100232046AA
