:020000042400D6
:1000000000000220F9200024F5200024FDFE002439
:10001000F5200024F5200024F52000240000000035
:10002000000000000000000000000000F520002497
:10003000F520002400000000F520002481FE0024AB
:10004000F5200024F5200024F5200024F5200024CC
:10005000F5200024F5200024F5200024F5200024BC
:10006000F5200024F5200024F520002419EC0024BC
:1000700025EC002475DB002431EC00243DEC002449
:1000800021A1012449E10024F5200024F5200024C9
:10009000F5200024F5200024F5200024F52000247C
:1000A000F5200024F5200024F5200024F52000246C
:1000B000F5940124019501240D9501247DE100248E
:1000C000F520002489E10024F5200024F1F7002424
:1000D000FDF70024559F0124859F0124B99F012429
:1000E000F5200024F520002400000000F520002465
:1000F000F5200024F5200024F5200024F52000241C
:10010000F5200024F52000241995012409F8002485
:10011000ED9F012421A00124F5200024F5200024D6
:10012000F5200024F52000242DF8002461F8002497
:1001300055A10124F5200024F5200024F5200024F9
:1001400000000000000000000000000000000000AF
:10015000F5200024F5200024F520002455A00124DA
:1001600095E10024F520002491FE0024B5FE002432
:10017000F5200024D9FE0024F5200024F5200024D9
:10018000F5200024F520002489A00124B9A0012431
:1001900015F8002421F80024F5200024F52000247F
:1001A000F5200024F5200024F5200024F52000246B
:1001B00039E90024F5200024F5200024F52000244E
:1001C000F5200024F5200024F5200024F52000244B
:1001D000F5200024F5200024F5200024F52000243B
:1001E000F5200024F5200024F5200024F52000242B
:1001F000F5200024F5200024F5200024F52000241B
:10020000F5200024F5200024F5200024F52000240A
:10021000F5200024F5200024F5200024F5200024FA
:10022000F5200024F5200024F52000240000000023
:10023000F5200024F520002400000000F520002413
:10024000F5200024F5200024F5200024F5200024CA
:10025000F5200024F5200024F5200024F5200024BA
:10026000F5200024F5200024F5200024F5200024AA
:10027000F5200024F5200024EDA00124000000005A
:10028000F5200024F5200024F520002400000000C3
:0802900000000000F52000242D
:1002A00010B5054C237833B9044B13B10448AFF3B0
:1002B00000800123237010BD00800030000000008A
:1002C0002C1C022408B5034B1BB103490348AFF3B0
:1002D000008008BD00000000048000302C1C0224B7
:1002E00010F8012B11F8013B012A28BF9A42F7D0E0
:1002F000D01A7047034613F8012B002AFBD1181AB5
:1003000001387047000000000000000000000000FD
:1003100001F0FF01102A2BDB10F0070F08D010F8B6
:10032000013B013A8B422DD010F0070F42B3F6D1BA
:10033000F0B441EA012141EA014122F007047FF0D3
:1003400000070023F0E80256083C85EA010586EA2A
:10035000010685FA47F5A3FA87F586FA47F6A5FA66
:1003600087F68EB9EED1F0BC01F0FF0102F0070272
:1003700032B110F8013B013A83EA010313B1F8D11D
:100380000020704701387047002D06BF35460338FE
:10039000073815F0010F07D1013015F4807F02BF37
:1003A000013015F4C03F0130F0BC0138704700BF88
:1003B00081F0004102E000BF83F0004330B54FEA16
:1003C00041044FEA430594EA050F08BF90EA020F83
:1003D0001FBF54EA000C55EA020C7FEA645C7FEA16
:1003E000655C00F0E2804FEA5454D4EB5555B8BF39
:1003F0006D420CDD2C4480EA020281EA030382EAAA
:10040000000083EA010180EA020281EA0303362D3B
:1004100088BF30BD11F0004F4FEA01314FF4801C0E
:100420004CEA113102D0404261EB410113F0004F20
:100430004FEA03334CEA133302D0524263EB4303D7
:1004400094EA050F00F0A780A4F10104D5F1200E75
:100450000DDB02FA0EFC22FA05F2801841F10001D0
:1004600003FA0EF2801843FA05F359410EE0A5F1A4
:1004700020050EF1200E012A03FA0EFC28BF4CF0D5
:10048000020C43FA05F3C01851EBE37101F000458B
:1004900007D54FF0000EDCF1000C7EEB00006EEB98
:1004A0000101B1F5801F1BD3B1F5001F0CD3490822
:1004B0005FEA30004FEA3C0C04F101044FEA445279
:1004C00012F5800F80F09A80BCF1004F08BF5FEA00
:1004D000500C50F1000041EB045141EA050130BDE0
:1004E0005FEA4C0C404141EB0101013C28BFB1F5F2
:1004F000801FE9D291F0000F04BF01460020B1FA3D
:1005000081F308BF2033A3F10B03B3F120020CDA0F
:100510000C3208DD02F1140CC2F10C0201FA0CF0ED
:1005200021FA02F10CE002F11402D8BFC2F1200C52
:1005300001FA02F120FA0CFCDCBF41EA0C01904008
:10054000E41AA2BF01EB0451294330BD6FEA040451
:100550001F3C1CDA0C340EDC04F11404C4F120023C
:1005600020FA04F001FA02F340EA030021FA04F34E
:1005700045EA030130BDC4F10C04C4F1200220FAA5
:1005800002F001FA04F340EA0300294630BD21FAE3
:1005900004F0294630BD94F0000F83F4801306BFA9
:1005A00081F480110134013D4EE77FEA645C18BF9D
:1005B0007FEA655C29D094EA050F08BF90EA020F34
:1005C00005D054EA000C04BF1946104630BD91EA2C
:1005D000030F1EBF0021002030BD5FEA545C05D12F
:1005E0004000494128BF41F0004130BD14F580046E
:1005F0003CBF01F5801130BD01F0004545F0FE41E2
:1006000041F470014FF0000030BD7FEA645C1ABF16
:10061000194610467FEA655C1CBF0B46024650EA4D
:10062000013406BF52EA033591EA030F41F4002179
:1006300030BD00BF90F0000F04BF0021704730B5FF
:100640004FF4806404F132044FF000054FF00001D4
:1006500050E700BF90F0000F04BF0021704730B595
:100660004FF4806404F1320410F0004548BF40426A
:100670004FF000013EE700BF42004FEAE2014FEABF
:1006800031014FEA02701FBF12F07F4393F07F4F9A
:1006900081F06051704732F07F4208BF704793F09D
:1006A0007F4F04BF41F40021704730B54FF46074B0
:1006B00001F0004521F000411CE700BF50EA0102B3
:1006C00008BF704730B54FF000050AE050EA01025C
:1006D00008BF704730B511F0004502D5404261EBCC
:1006E00041014FF4806404F132045FEA915C3FF40D
:1006F000D8AE4FF003025FEADC0C18BF03325FEAAA
:10070000DC0C18BF033202EBDC02C2F1200300FA5A
:1007100003FC20FA02F001FA03FE40EA0E0021FA7F
:1007200002F11444BDE600BF53B94AB9002908BF1D
:1007300000281CBF4FF0FF314FF0FF3000F074B9BC
:10074000ADF1080C6DE904CE00F006F8DDF804E028
:10075000DDE9022304B070472DE9F047089D044607
:100760008E46002B4DD18A42944669D9B2FA82F264
:1007700052B101FA02F3C2F1200120FA01F10CFAA0
:1007800002FC41EA030E94404FEA1C48210CBEFBD8
:10079000F8F61FFA8CF708FB16E341EA034306FB61
:1007A00007F199420AD91CEB030306F1FF3080F0F0
:1007B0001F81994240F21C81023E63445B1AA4B23D
:1007C000B3FBF8F008FB103344EA034400FB07F7DF
:1007D000A7420AD91CEB040400F1FF3380F00A8120
:1007E000A74240F207816444023840EA0640E41B15
:1007F00000261DB1D4400023C5E900433146BDE8C1
:10080000F0878B4209D9002D00F0EF800026C5E962
:10081000000130463146BDE8F087B3FA83F6002E7A
:100820004AD18B4202D3824200F2F980841A61EBF2
:10083000030301209E46002DE0D0C5E9004EDDE710
:1008400002B9FFDEB2FA82F2002A40F09280A1EBF8
:100850000C014FEA1C471FFA8CFE0126200CB1FB4D
:10086000F7F307FB131140EA01410EFB03F0884246
:1008700008D91CEB010103F1FF3802D2884200F2D3
:10088000CB804346091AA4B2B1FBF7F007FB101165
:1008900044EA01440EFB00FEA64508D91CEB040403
:1008A00000F1FF3102D2A64500F2BB800846A4EB5E
:1008B0000E0440EA03409CE7C6F12007B34022FA49
:1008C00007FC4CEA030C20FA07F401FA06F31C4378
:1008D000F9404FEA1C4900FA06F3B1FBF9F8200C85
:1008E0001FFA8CFE09FB181140EA014108FB0EF0CB
:1008F000884202FA06F20BD91CEB010108F1FF3A1B
:1009000080F08880884240F28580A8F10208614426
:10091000091AA4B2B1FBF9F009FB101144EA014134
:1009200000FB0EFE8E4508D91CEB010100F1FF34DF
:100930006CD28E456AD90238614440EA0840A0FB77
:100940000294A1EB0E01A142C846A64656D353D04D
:100950005DB1B3EB080261EB0E0101FA07F722FA71
:1009600006F3F1401F43C5E9007100263146BDE89A
:10097000F087C2F12003D8400CFA02FC21FA03F3FD
:10098000914001434FEA1C471FFA8CFEB3FBF7F07E
:1009900007FB10360B0C43EA064300FB0EF69E42A3
:1009A00004FA02F408D91CEB030300F1FF382FD23C
:1009B0009E422DD9023863449B1B89B2B3FBF7F6E4
:1009C00007FB163341EA034106FB0EF38B4208D9BD
:1009D0001CEB010106F1FF3816D28B4214D9023EFE
:1009E0006144C91A46EA004638E72E46284605E71C
:1009F0000646E3E61846F8E64B45A9D2B9EB0208ED
:100A000064EB0C0E0138A3E74646EAE7204694E77C
:100A10004046D1E7D0467BE7023B614432E73046AF
:100A200009E76444023842E7704700BFF0EE407ABD
:100A300017281ED8DFE810F028012501220119012E
:100A40000701F300D200C400B600A8009A008C0091
:100A500081007600180069005D00510046003B00EF
:100A6000380035002E002000B5EE400AF1EE10FAF5
:100A700050D19FED870A7047B5EE400AF1EE10FAAB
:100A800004D1F5EE400AF1EE10FAF2D0B0EE670AAA
:100A90001CF0DCBCB5EEC00AF1EE10FAE9DD1CF08A
:100AA00037B980FE600A704780FE200A7047B4EEB6
:100AB000E00ADFED777AB7EE000AF1EE10FA20FED9
:100AC000270A7047B4EEE00ADFED717AB7EE000A4C
:100AD000F1EE10FA30FE270A7047B4EEE00ADFEDBF
:100AE0006C7AB7EE000AF1EE10FA88BFB0EE670A32
:100AF0007047B4EEE00ADFED667AB7EE000AF1EE79
:100B000010FA58BFB0EE670A7047B5EE400AF1EE32
:100B100010FA04D1F5EE400AF1EE10FAA9D0B7EEC2
:100B2000000A7047B4EE600A9FED590AF7EE007AAA
:100B3000F1EE10FA00FE270A7047B4EE600A9FED4E
:100B4000540AF7EE007AF1EE10FA07FE800A7047B9
:100B5000BDEEC00AFDEEE00A10EE103A10EE902A4B
:100B6000134300EE103AB8EEC00A7047BDEEC00A5B
:100B7000FDEEE00A10EE103A10EE902A534000EE1F
:100B8000103AB8EEC00A7047BDEEC00AFDEEE00AAA
:100B900010EE103A10EE902A134000EE103AB8EE24
:100BA000C00A7047BDEEC00AFDEEE00A10EE103A32
:100BB00010EE902A134100EE103AB8EEC00A7047CA
:100BC000BDEEC00AFDEEE00A10EE103A10EE902ADB
:100BD000934000EE103AB8EEC00A7047F5EE400AB6
:100BE000F1EE10FA3FF445AFFDEEC07A17EE903A01
:100BF000FDEEE07A17EE902A93FBF2F102FB11333F
:100C000007EE903AB8EEE70AB5EEC00AF1EE10FA38
:100C10007FF531AFF0EEE00A30EE200A7047BDEE0E
:100C2000E07A17EE102A002A3FF423AFFDEEC07AD7
:100C300017EE903A93FBF2F102FB113300EE103AFB
:100C4000B8EEC00A7047BDEEE07A17EE103A002BFE
:100C50003FF40FAFBDEEC00A10EE102A92FBF3F383
:100C600000EE103AB8EEC00A7047F5EE400AF1EE19
:100C700010FA3FF4FEAE87EEA00A704720EE200A7D
:100C8000704730EE600A704730EE200A704700BFB0
:100C9000000000000346002083ED000A704700BFFB
:100CA000F8B500AFBC692BB1012B01D1A388F3B912
:100CB000BD46F8BDA388002BFAD005461046227A1F
:100CC000012AF5D1012B19D184B0D1ED000A6E466D
:100CD00094ED030AFFF7AAFE2168304600F0F0FC0D
:100CE000324600212846FB699847BD46F8BD237A65
:100CF000012BDDD1E3680B60BD46F8BD237C012BE1
:100D0000E2D1D4ED050A84B0C1ED000A6E46DFE7FA
:100D1000F8B500AFBD69AB880BB9BD46F8BD044658
:100D200010462A7A012AF8D1012B12D184B06E46DE
:100D3000F0EE400A95ED030AFFF778FE2968304689
:100D400000F0BEFC324600212046FB699847BD46B4
:100D5000F8BD2B7C012BE9D184B095ED050A6E46D8
:100D6000E6E700BFF0B5012983B0054600AF05D026
:100D7000022922D091B10C37BD46F0BD9A88002AD5
:100D8000F9D01A7A012AF6D184B0196893ED030AD2
:100D90006A4610467A6000F093FC06E084B0196859
:100DA0006A4610467A6000F095FC7A6800213B6A3A
:100DB000284698470C37BD46F0BD9A882AB31C7A5E
:100DC000012C15D0022C0ED0002CD4D184B019687F
:100DD000114A6E46304600F089FC324621462846CC
:100DE0003B6A9847C7E71A4600213B6A9847C2E723
:100DF00084B01968094A6C46204600F077FC224608
:100E0000002128463B6A9847B5E7054B6421054A0F
:100E100005481DF097FF00BF80FF012488FF0124D3
:100E20004CFF012490FF01246CFF012410B50C46F7
:100E300009F06AFD2022002144F8040B20461EF030
:100E400007F8002010BD00BF012A2DE9F047DDF8AA
:100E500020808A461E4605D0022A144633D07AB135
:100E6000BDE8F0879B88002BFAD0337A012BF7D1AD
:100E700096ED030A09F048FDCAF80000BDE8F087C6
:100E80000746324A2146184600F0F6FC68B30AF1DC
:100E900004090AF1240A4D4655F8044B54B133684D
:100EA0002246002138462360C04742462146384644
:100EB00009F016FDAA45EFD1484620220021BDE8E1
:100EC000F0471DF0C5BF9B88002BC9D0337A012B9A
:100ED000C6D196ED037ADFED1E7AC7FE877AFCEE67
:100EE000E77AC1ED007ABDE8F0870146194A30463D
:100EF00000F0C2FC70B10AF104090AF1240A4E465E
:100F000056F8041B19B14246384609F0E9FCB245CF
:100F1000F6D1D1E75246356852F8043B2B44336092
:100F200052F8043B43B10134082CF9D10A4B3D215E
:100F30000A4A0B481DF006FF0AEB84044246384675
:100F4000314601F0D7FC6060356089E79CFF0124E1
:100F500000000000A4FF0124ACFF012430000224A3
:100F6000180002240023021D10B452F8044B8C42D6
:100F700005D00133082BF8D15DF8044B704700EB26
:100F8000830000235DF8044B436070470346002054
:100F90001970704710B4019C32B1012A01D19A88AE
:100FA00042B95DF8044B70471A46097823465DF84C
:100FB000044B18471A7A012AF3D1D3ED037A5DF86E
:100FC000044BF5EE407AF1EE10FA14BF0123002332
:100FD0000B707047002903464FF0000008BF012145
:100FE000196070472DE9F8430E4600AF9946144644
:100FF00032B1012A01D19B880BBBBD46BDE8F88305
:1010000005460968144884B06FF004020023A1FB70
:101010000001E846FFF788FBD9F80010530A326058
:10102000404600EE103ABAEEE40A00F049FB4246B0
:10103000214628463B6A9847BD46BDE8F88399F8A3
:101040000830012BD9D1D9ED037AFCEEE77AC1ED56
:10105000007ABD46BDE8F883C160A81003460020B1
:10106000C3E90012704700BF2DE9F043012A83B0A5
:101070000C4600AF06D0022A49D0DAB10C37BD4683
:10108000BDE8F0839A88002AF8D0197A0129F5D1B1
:10109000D3ED037A012AFDEEE77AC4ED007AEDD0B4
:1010A0001A7C012AEAD1D3ED057AFDEEE77AC4ED88
:1010B000017AE3E70A68054699888A4237DA606868
:1010C000891A002802DD8142A8BF014600293BD0D1
:1010D0004A1C99466B46D600A3EBC20359F8082B6D
:1010E0009D46E846404600F0E1FA2168A6F1080274
:1010F00008F1080009EBC1011DF09CFEBB6A4246E5
:101100000021284698470C37BD46BDE8F0839A88F1
:10111000002AB3D01A7A012AB0D1D3ED037A0C3762
:10112000FDEEE77AC1ED017ABD46BDE8F08384B0FB
:1011300019686A4610467A6000F0CCFA7A68012194
:101140002846BB6A984799E7024B3A21024A03486E
:101150001DF0F8FD44000224540002246CFF012419
:101160002DE9F04182B00546464A002100AF84B027
:1011700018461C466E4600F07FFB98B12168284651
:10118000796009F06FFB7968B7EEC00B304600F06C
:1011900097FA3246002128463B6A98470837BD46F1
:1011A000BDE8F0810146384A204600F065FB68B191
:1011B00021682846796009F06FFB00EE100A796813
:1011C0003046B8EEC00A00F07BFAE2E701462F4A4B
:1011D000204600F051FB70B901462D4A204600F030
:1011E0004BFB70B12168304607EE901AB8EE670AE3
:1011F00000F066FACDE721682846796009F05EFBC9
:10120000DBE70146234A204600F036FB0028C5D024
:101210000121204600F008FB0146284601F062FB50
:1012200080460028BAD01C4A0221204600F024FB48
:1012300040B198ED010A30462168B8EE400A00F04E
:101240003FFAA6E7154A0221204600F015FB40B1FF
:1012500098ED020A30462168B8EE400A00F030FAF4
:1012600097E70F4A0221204600F006FB002895D0A0
:1012700098ED040A30462168B8EE400A00F020FAE2
:1012800087E700BF64000224700002248400022467
:1012900098000224A4000224AC000224B40002241A
:1012A000BC000224F0B583B01D46938800AF13B98B
:1012B0000C37BD46F0BD137A1446012BF8D1064613
:1012C000D2ED037A1429F3D8DFE801F01B20252A98
:1012D0002F34393E43484D52575C5F67717F8D9084
:1012E0000B00B8FE670A84B021686A4610467A602F
:1012F00000F0E6F97A6800213046A8470C37BD4671
:10130000F0BDB0EE670A1CF075F8ECE7B0EE670AC6
:101310001BF0C4F9E7E7B0EE670A1CF01BF8E2E740
:10132000B0EE670A1CF042F8DDE7B0EE670A1BF08A
:101330001DFAD8E7B0EE670A1CF08AF8D3E7B0EEE2
:10134000670A1BF001FFCEE7B0EE670A1CF0E4F875
:10135000C9E7B0EE670A1BF073F8C4E7B0EE670A9E
:101360001CF0ACF8BFE7B0EE670A1BF065FEBAE709
:10137000B0EE670A1BF08AFEB5E7B0EE670A1BF015
:10138000CDFAB0E7B0EEE70AADE7F5EEC07AF1EEE0
:1013900010FA2EDC9FED1D0AA5E7F5EEC07AF1EEFE
:1013A00010FAF7DDB0EE670A1BF032FB9BE7F5EEB3
:1013B000C07AF1EE10FAEDDDB0EE670A1BF028FB03
:1013C000DFED137A20EE270A8DE7F5EEC07AF1EE15
:1013D00010FADFDDB0EE670A1BF01AFBDFED0D7AC5
:1013E00020EE270A7FE7BAFE670A7CE7BBFE670AA2
:1013F00079E7F5EE407AF1EE10FA02D4B1EEE70AA1
:1014000071E7B0EE670A1CF0B5F86CE70000000069
:101410003BAAB83FD95BDE3E08B5034A6421034BC3
:1014200003481DF08FFC00BFC40002244CFF0124C0
:101430006CFF01240346012200201A7083ED010A8B
:10144000704700BFF0B583B00D46144600AFA2B19F
:10145000012A0FD19A88002A4BD01A7A012A3AD051
:10146000023A012A06D80322002118462A7000F009
:10147000DBF968600C37BD46F0BD9A88002A38D089
:101480001A7A012A2DD0064611D80A7884B0012A8A
:101490006C4630D0032AEDD14A682046196800F026
:1014A0003FF92246002130463B6A9847E2E7023A7C
:1014B000012ADFD80322214618467B602A7000F0FB
:1014C000B3F97B68844621461A4630463B6AC5F824
:1014D00004C09847CEE70A700C37DB684B60BD4606
:1014E000F0BD0A701A46DE6821463B6A6E60984776
:1014F000C0E7FFF791FF91ED010A2046196800F05F
:10150000DFF8CEE738B505460C46084631B9296004
:10151000C5E90100C5E90344204638BD1DF07AFC49
:10152000286038B10023C5E9010003602046C5E901
:10153000034438BD024B3121024A03481DF002FC2E
:10154000D00002247C010224EC00022400681DF07B
:1015500069BC00BF83681B685A1C02D1026813680B
:1015600082601846704700BF01F108020369934288
:1015700070B4D0E9014508D3043121448D4201D82B
:10158000A5421AD8201D70BC7047C168914214D37F
:10159000A54294BF002301237BB9066832449542DB
:1015A0000ED3466001613360BFF35E8F00684FF079
:1015B000FF330430236070BC7047002070BC70475C
:1015C0001846F8E701F1080208B5036993420FD302
:1015D0005B1A426801F1040C043B036102EB0C034B
:1015E0004360002342F80C30BFF35E8F116008BDEA
:1015F000024B6B21024A03481DF0A4FB04010224A4
:1016000070010224EC000224806850F8043B0B6057
:10161000704700BF08B583681A681AB104321344D2
:10162000836008BD024B7F21024A03481DF08AFBFC
:101630003C01022464010224EC00022408B5034AA0
:101640003A21034B03481DF07DFB00BF1C0202241E
:10165000440002246CFF012408B5034A6921034BAE
:1016600003481DF06FFB00BF000202244CFF012461
:101670006CFF012408B5034A6421034B03481DF0A5
:1016800061FB00BF2C0202244CFF01246CFF0124EB
:1016900008B5034A9521034B03481DF053FB00BFD7
:1016A00058020224880102246CFF012408B502605C
:1016B000818019B10131C900C18008BDFFF7BEFFAB
:1016C000034A80ED030AC0E900120122027270474A
:1016D00001001000002210B4034C0272C260C0E985
:1016E00000145DF8044B70470100100070B5012331
:1016F000044601601046A3801646FEF7FBFD054632
:10170000022330461035E6602372ADB2E580FEF765
:10171000F1FD0346204601331D44E58070BD00BF46
:1017200010B4044CC260C0E9001403215DF8044BFE
:1017300001727047010010002DE9F04F838883B0DB
:101740000192002B5FD00133019AB2EBC30F4FEA35
:10175000C30952D30F4680464A460146384607EB36
:10176000090B1DF067FBB8F80420AAB30C2501246F
:1017700006E0944204F1010305F108052CDA1C4649
:1017800018F834A0BAF1020FF3D158F80510084642
:101790000091FEF7AFFD461C019BB14400999945AD
:1017A0001FD8324658461DF085FFB988621E914207
:1017B0001DDD584607F834A047F805B0B344FEF7DE
:1017C00099FDFB88B8F80420083501339442184489
:1017D00004F10103F880D2DBA7F8069003B0BDE85E
:1017E000F08F0A4B49210A4A0A481DF0ABFA0A4B0E
:1017F00094210A4A0A481DF0A5FA0A4B4021044ADE
:1018000004481DF09FFAFFF719FF00BFC001022432
:1018100038020224AC0102244CFF012458020224A5
:101820006CFF01249C01022408B58388994214DAD4
:10183000083010F8313000EBC100032B13D8DFE87B
:1018400003F004020702406808BD4FF0FF3008BDF6
:101850004068BDE8084000F00BBC044B9221044AEC
:1018600004481DF06FFA002008BD00BFD801022413
:10187000F4010224AC01022438B515468288914255
:101880001EDA0346083313F8312003EBC103022AA2
:101890000ED0032A01D0002038BDFFF7C5FF044653
:1018A000284600F0E5FB201AB0FA80F0400938BD68
:1018B00029465868FEF714FDB0FA80F0400938BD9B
:1018C000FFF7D8FE38B50D4691888B4246DA02F113
:1018D0000801044611F8330001EBC301032811D8B5
:1018E000DFE800F0111C280219461046FFF79CFFA4
:1018F000A3889D4244DA0834032204EBC50304F8AC
:101900003520586038BDA3889D4237DA083400235B
:1019100004EBC50204F83530536038BDA3884A682B
:101920009D4225DA0834012104EBC50304F8351083
:101930005A6038BDA38848689D4213DA80B104F12B
:101940000803022103EBC50203F835105060FEF7CF
:10195000D1FCE38801331844E08038BDFFF78AFEEC
:10196000FFF796FE094B9421094A0A481DF0EAF94F
:10197000064B7321084A07481DF0E4F9FFF76CFE97
:10198000024B8221054A03481DF0DCF94CFF01247B
:10199000580202246CFF01240C0202244C0202248F
:1019A00008B5034A3821034B03481DF0CBF900BFAB
:1019B000A0030224680202247C02022438B50446F3
:1019C0008D02284665601DF025FA206058B100237D
:1019D0002846C4E90233C4E90433C4E90633C4E940
:1019E0000833A36238BD034B5721034A03481DF057
:1019F000A9F900BF94020224A80302247C02022455
:101A000070B504460025006804F120061DF00AFAAE
:101A1000E068A8B1236901E0034610464268C0E9C6
:101A20000053002AF8D1E26000E0436823611DF012
:101A3000F9F920690028F8D10834B442E8D170BD22
:101A400020690028F1D10834B442E1D1F7E700BFA2
:101A500038B50D4620220021EB88013BB3FA83F311
:101A6000C3F11B0323EAE37300EBC3049A40284647
:101A70001DF0EEF9206930B142682261E268C0E9E8
:101A80000052E06038BD08201DF0C4F90028F5D1EF
:101A9000FFF786FFCB88013BB3FA83F3C3F11B0347
:101AA000032B2DE9F04F83B04BDC23EAE3724FF0B8
:101AB00020088946824600EBC20508FA02F8EB6866
:101AC0001E46002B33D1D0E9012404F5007B5A4592
:101AD0003DD35C4518D2016809E05A682A61444444
:101AE0003246A345C3E900761E46EB600ED92B694A
:101AF0000F19002BF1D1082001911DF08BF903463D
:101B0000E8B1EE680199EAE7D3E90072CAF808B0D3
:101B10004846EA6042462969596000212B611960F4
:101B20003946FFF709FE384603B0BDE8F08F596823
:101B3000424648461F68E96029695960EDE7FFF7AA
:101B40002FFF064B7921064A06481DF0FBF8064B8D
:101B50008421034A03481DF0F5F800BFB0020224B7
:101B6000900302247C020224B802022408B5034A2E
:101B70002921034B03481DF0E5F800BFF0030224C0
:101B8000B0030224C803022408B549B10346002269
:101B90000C309A60C3E90022BDE80840FFF70EBF91
:101BA000024B1421024A03481DF0CCF8E003022442
:101BB0000C040224C8030224F8B50468054624B3C3
:101BC00000F10C070026A1683846FFF741FF636863
:101BD000A660AA68C4E903662B602BB11E60C4E945
:101BE0000062AC601C46EEE76B60C4E9003200E0C6
:101BF00062682046AA601DF015F9AC68002CF7D188
:101C00003846BDE8F840FFF7FBBE846800F10C07DA
:101C1000002CEDD13846BDE8F840FFF7F1BE00BF1B
:101C2000F0B5846883B0054617461E46B4B16368B4
:101C3000AB6005F10C00FFF72DFF00226B682761F8
:101C4000E660A060C4E9002223B15C6023606C60A0
:101C500003B0F0BDC5E9004403B0F0BD142001910C
:101C60001DF0D8F80199A86018B1234644600446D5
:101C7000DEE7FFF77BFF00BF2DE9F0410568002D8F
:101C800035D0856804460E4690461F46002D32D05A
:101C90006B683146A36004F10C00FFF7FBFE23687C
:101CA0003668A8609A68C5F810801268EF6096429E
:101CB00006D200226B601D602A602560BDE8F081BD
:101CC000626891680968B14206D80023C5E900231B
:101CD00055606560BDE8F08119465B689A681268D6
:101CE000B242F9D94D60C5E900131D60E6E7BDE8D1
:101CF000F041FFF795BF14201DF08CF8A06018B1DB
:101D00002B4645600546C4E7FFF730FF38B5056848
:101D10008DB10446A9680C30FFF79AFE00236A686B
:101D2000AB60C5E90333226032B11360A2680023BF
:101D3000C5E90032A56038BD6260F7E770B5056897
:101D40008DB1AB68064699420FD06C6824B90AE0A1
:101D500060682546044638B1A3688B42F8D16AB161
:101D6000E36893420AD0002070BD12B1EB68934241
:101D7000F9D13046FFF7CAFF012070BD06F10C0013
:101D8000FFF766FE72680023A242A360C4E9033332
:101D90000AD063686B6063681D60B268002301202D
:101DA000C4E90032B46070BD6B607560F5E700BFD8
:101DB0000022034680ED040AC0ED050A80ED061AF4
:101DC0000260C0ED071A42608260C260002083EDAD
:101DD000082A7047938803B97047137A012BFBD107
:101DE00001390429F8D8DFE801F00F0C09060300D7
:101DF000D36803627047D368C3617047D368836157
:101E00007047D36843617047D3680361704700BF70
:101E100008B5034A7921034B03481CF093FF00BF28
:101E2000280402244CFF01246CFF012403460022F5
:101E300000215A60084619609A60DA60704700BF56
:101E400038B51D469B880C46A3B9254A0021284673
:101E5000FFF712FD68B1D4ED017A002294ED027A09
:101E60000023226077EE877AA360C4ED017AC4ED87
:101E7000037A38BD2A7A012AE7D1012B07D1EB6812
:101E80000021002221606360A260E36038BD2B7CEA
:101E9000012BF4D195ED050A08F036FD2368002BDF
:101EA00019DD94ED017AD4ED027A37EE277AAB880A
:101EB00084ED017A20608BB1D5ED036A07EE900ABC
:101EC00036EEC77AC4ED036AF8EEE77AC7EE276A02
:101ED000C4ED026A38BD94ED037AE8E7FFF798FF96
:101EE00020040224000000009FED096BB7EEC00A39
:101EF0000246002386EE017B1846136027EE007B26
:101F0000FDEEC77B17EE903AC2E90133704700BF80
:101F1000000000000000F04110B50C4699882DED3E
:101F2000028B11B9BDEC028B10BD197A0129F9D1D0
:101F300062B3012AF6D193ED037AB5EEC07AF1EEE1
:101F400010FA08D5F7EE007A37EE277AB5EEC07AA8
:101F5000F1EE10FAF8D4F7EE007AB4EEE77AF1EE8B
:101F600010FA06DD37EE677AB4EEE77AF1EE10FA92
:101F7000F8DCB7EEC77A9FED106BBDEC028B27EE55
:101F8000067BBCEEC77B84ED007A10BD93ED038A1F
:101F900008F068FC9FED085BB7EEC88A85EE007B11
:101FA00027EE087BBDEC028BFDEEC77B17EE903A67
:101FB000C4E9013310BD00BF000000000000F04183
:101FC0000346002083ED000A704700BF938803B9E1
:101FD0007047137A012BFBD1D3680B60704700BFA9
:101FE0000346002019607047938803B97047137A3D
:101FF000012BFBD1D2ED037AFDEEE77AC1ED007A39
:10200000704700BF2DE9F04185688D4221D001F174
:10201000010804460E4600684FEA88011DF0EEFAFA
:102020000746AD00C0B1A068B04209D3A8EB0505D2
:10203000A660C4F80C80281FC4E90076BDE8F081D2
:10204000A8EB0002002107EB800092001CF000FFCB
:10205000ECE70020BDE8F081024B4621024A03482C
:102060001CF070FE680402247C0402245404022440
:1020700010B5044648B3FEF73DF9032835D9A0F161
:10208000040C02461A492CF0030C0CF1040CA44475
:1020900054F8043B01FB02F201FB03F3644583EABD
:1020A000136301FB03F382EA0302F1D100F00300A2
:1020B00002280FD0032809D001280FD082EA52331A
:1020C0000B4803FB00F080EAD03010BD9CF80230D2
:1020D00082EA03429CF8013082EA03229CF8003035
:1020E0000349534001FB03F2E8E70246A446DFE759
:1020F00095E9D15BFEE700BF0A480B4A904203D046
:10210000121A0A491CF096FE09480A4A904203D066
:10211000121A00211CF09CFE1CF058FE09F07CFFF6
:10212000FEE700BF00000020E40300205C1C022446
:1021300000800030E0C400304069704790ED020B31
:10214000704700BF0069704707EE901A9FED065B6D
:10215000B8EE677B90ED026B27EE057B87EE060BF2
:10216000B7EEC00B704700BF0000000000408F407A
:1021700081657047806D704701657047006D7047DD
:1021800041657047406D704708B50368D3F88C30DF
:10219000984700B1006808BD08B50368D3F88C30D3
:1021A000984700B1406808BD0023BFF35B8F80F8FB
:1021B0008430704700000000B0B582B004460D4680
:1021C000002100AF84B06A4610467A60FFF782FAB9
:1021D00023687A682946DB6C20469FED030B9847FD
:1021E0000837BD46B0BD00BF000000000000000081
:1021F000B0B582B004460D46002100AF84B06A46F7
:1022000010467A60FFF75CFA23687A682946DB6C2F
:1022100020469FED030B98470837BD46B0BD00BF71
:102220000000000000000000F8B500AF8AB184B0E3
:1022300004460D4600216E463046FFF757FA2368E4
:1022400032462946DB6C20469FED050B9847BD467C
:10225000F8BD054B5321054A05481CF073FD00BF2E
:1022600000000000000000008C0402249C040224F2
:10227000E404022484304FF00102D0E84F3FC0E86C
:10228000412F0029F9D1DBB2BFF35B8F002BF2D1D4
:10229000704700BF4FF001028430D0E84F3FC0E8E4
:1022A000412F0029F9D1D8B2BFF35B8F80F0010034
:1022B000704700BF1830FFF741BD00BF036810B57D
:1022C000D3F88C301446984718B12146FFF79AFE90
:1022D000012010BD00000000DFED0B7A90ED025BE5
:1022E00087FE800AB7EEC00A9FED056B20EE050B56
:1022F00080EE067BFCEEC77B17EE900A704700BFAE
:102300000000000000408F4000000000F8B5DE88AB
:1023100000F170051C461746043628463146FFF783
:1023200023F960B10146E288204641F8047BFFF7BB
:1023300003FA31462846BDE8F840FFF743B9034B9E
:102340001E21034A03481CF0FDFC00BFFC040224CC
:10235000C8050224E404022410B50C1E82B00ADD74
:102360005C300190FFF7F2F8A102019802B0BDE8DD
:102370001040FFF7C7B8034BB921034A03481CF0CC
:10238000E1FC00BF2006022430060224E4040224FB
:1023900010B50C1E82B00ADD70300190FFF7D6F840
:1023A000A102019802B0BDE81040FFF7ABB8034BA3
:1023B000BF21034A03481CF0C5FC00BF6C06022481
:1023C0007C060224E40402242DE9F04317469846D3
:1023D000026D0E46294B002183B09A42316046D1EE
:1023E000054600F1850C4FF0010EDCE84F4FCCE8BC
:1023F00043EF002BF9D1E4B2BFF35B8F002CF2D195
:1024000005F170094846FFF7A5F8A8B101A94846AB
:102410000194FFF7F9F8C0B1019A132A1BD990452E
:102420001FD301463846012451F8043B33601CF0A9
:1024300001FD4846FFF7EEF800232046BFF35B8F0F
:1024400085F8853003B0BDE8F0830D4BCF210D4AF0
:102450000D481CF077FC0D4BD0210A4A0A481CF0AD
:1024600071FC0B4BD121074A07481CF06BFC094B50
:10247000C721044A04481CF065FC00BF0D2300245A
:10248000B007022460070224E4040224F4070224B3
:102490001C080224B806022408B5034AE221034BB3
:1024A00003481CF04FFC00BFAC0802249C08022427
:1024B000E404022408B5034AEE21034B03481CF050
:1024C00041FC00BFE80802249C080224E404022422
:1024D0002DE9F84F2DED028B9FED338BB4EEC80B39
:1024E000F1EE10FA59DB1746002A50D00368054672
:1024F000314A88469B6988FE008B066993423ED12B
:1025000090ED020B9FED2A6B05F1840380EE067BB4
:1025100027EE087BBCEEC77B17EE102A3244164626
:102520004FF0010CD3E84F4FC3E842CF002AF9D156
:10253000E4B2BFF35B8F002CF2D1B7F806A005F12F
:102540005C0B0AF1040A58465146FFF70DF8814624
:10255000B8B10146FA88384641F8048BFFF7ECF829
:1025600058465146C9F80460FFF72CF8BFF35B8F5B
:1025700085F884400120BDEC028BBDE8F88F9847B8
:10258000C0E70E4B83210E4A0E481CF0DBFB0E4BBE
:1025900074210B4A0B481CF0D5FB0C4B7321084AE5
:1025A00008481CF0CFFB00BF000000000000000046
:1025B0000000000000408F403D210024E809022473
:1025C00088090224E4040224D80902247809022498
:1025D0002DE9F04F2DED048B9FED719B43EC182BF3
:1025E00085B0B4EEC98B00AFF1EE10FABE6CC0F24C
:1025F000D080002E00F0C78007F14C0382463046A1
:102600008946FB60FDF776FE8346002800F0B58022
:10261000C3006749DAF8102089FE089B0833ADEB48
:10262000030DDAF800309B69E8468B4240F0828067
:102630009AED020B29EE009B59464046013E454665
:1026400000249FED596B89EE067BBCEEC77B17EE2D
:10265000103A13441A46FFF729F816F8013F623B77
:10266000112B11D8DFE803F0091010104E103E10A6
:1026700010101010101010101023B8F80430A342DE
:1026800063DD00232B72EB6001340835A345E4DCE5
:10269000DAF80030B0EE480B424649465046DB6C53
:1026A00098471437BD46BDEC048BBDE8F08FFB683E
:1026B000B8F80420191D1868A242F9603FDD00280F
:1026C00055D00223E860013408352B70FDF712FE67
:1026D000B8F80630A34503F101031844A8F8060032
:1026E000BBDCD5E7FB68B8F80420191D1B68A242C3
:1026F000F96036DD01340322EB600835A3452A700A
:10270000ABDCC5E7FB68B8F804200733A24223F02E
:10271000070393ED007B03F10803B7EEC77BFB6073
:1027200019DD0134012385ED037A0835A3452B70AB
:1027300093DCADE77A60504698477A687AE71D4B9C
:1027400094211D4A1D481CF0FDFA1A4B69211C4AB0
:102750001A481CF0F7FA174B73211A4A17481CF055
:10276000F1FA144B8221184A14481CF0EBFA174B6B
:102770009521114A11481CF0E5FA154B3A21154AEA
:102780000E481CF0DFFA144B5C21144A14481CF06C
:10279000D9FA144B5B21114A11481CF0D3FA00BF3F
:1027A00000000000000000000000000000408F401A
:1027B0003D2100244CFF0124C40B02246CFF0124A2
:1027C000480B02246C0B0224980B0224F80B022401
:1027D00044000224280B0224140B0224BC0A022405
:1027E000E404022478090224B5EEC00B70B5F1EEC2
:1027F00010FA1D46294B80ED020B036036DD0029DF
:1028000046DD002A16463DDD002D35DB4FF0000386
:1028100004460361C0E915330CBF2B46204B18302A
:1028200083630023BFF35B8F80F86C30BFF35B8F53
:1028300080F86D30882340F8043CFFF7A5F9636900
:10284000B102034404F15C006361FEF75BFE63695F
:102850000246A90204F1700013446361FEF752FEC0
:102860006369024620461344636170BD0D4B272106
:102870000D4A0E481CF066FA0D4B2A210A4A0B48F5
:102880001CF060FA0B4B2921074A08481CF05AFA41
:10289000094B2821044A05481CF054FA700C022404
:1028A0000D230024040C0224180C0224E404022446
:1028B000580C0224200602244C0C0224084B10B5AC
:1028C000044640F8183BFFF777F904F15C00FEF787
:1028D0003DFE04F17000FEF739FE204610BD00BF3A
:1028E000700C022418B10368D3F88C30184710B567
:1028F000FFF7D2FD28B1944618301A466346FFF719
:10290000BBB910B5FFF7D6FD00487047040D02248F
:10291000002070470220704700207047704700BFBA
:10292000B0B5114600AF82B0056801EB83046A467A
:102930002D6CC2E900140021A847BD46B0BD00BF00
:102940002DE9F84300AF2BB316466A4600211D4619
:10295000A2EBC3024FEA850995460268E846546C2B
:102960004246A047002308EB85041A46002D09DDE6
:1029700008EB830106EB820C51F804EBA1424CF802
:1029800008EBF9D12B444C4412B1BD46BDE8F883A5
:102990000122EBE7034B41F25B01034A03481CF0C1
:1029A000D1F900BF1C0D0224280D0224800D022441
:1029B000034B10B504460360FFF780FF204610BDAF
:1029C000180E0224064B10B504460360FFF776FF8D
:1029D0004FF41D61204619F01AFD204610BD00BFBE
:1029E000180E022410B5134684B00022084904468C
:1029F000039300911146FEF7B5F9002205492046E0
:102A0000039B00911146FEF7ADF904B010BD00BF65
:102A1000C57600244131002430B50A4985B01346FB
:102A20000446009100220121074D0393FEF79AF915
:102A3000039B0022012120460095FEF793F905B083
:102A400030BD00BF694300244943002410B513463C
:102A500084B0002208490446039300911146FEF712
:102A600081F9002205492046039B00911146FEF79B
:102A700079F904B010BD00BFDD7B00248132002451
:102A800030B50A4985B01346044600910022012161
:102A9000074D0393FEF766F9039B002201212046B0
:102AA0000095FEF75FF905B030BD00BFA1470024D7
:102AB0008147002410B5134684B00022084904461B
:102AC000039300911146FEF74DF900220549204677
:102AD000039B00911146FEF745F904B010BD00BFFD
:102AE000A5840024A533002430B50A4985B01346D7
:102AF0000446009100220121074D0393FEF732F9AD
:102B0000039B0022012120460095FEF72BF905B01A
:102B100030BD00BFB54A0024954A002410B51346C5
:102B200084B0002208490446039300911146FEF741
:102B300019F9002205492046039B00911146FEF732
:102B400011F904B010BD00BFC996002491350024CE
:102B500030B50A4985B01346044600910022012190
:102B6000074D0393FEF7FEF8039B00220121204648
:102B70000095FEF7F7F805B030BD00BFC94D002441
:102B8000E94D002410B5134684B0002208490446DC
:102B9000039300911146FEF7E5F80022054920460F
:102BA000039B00911146FEF7DDF804B010BD00BF95
:102BB000AD9F0024FD36002430B50A4985B0134688
:102BC0000446009100220121074D0393FEF7CAF845
:102BD000039B0022012120460095FEF7C3F805B0B3
:102BE00030BD00BF7D5000249D50002410B584B03E
:102BF0000446114600F5A7600392FEF7B3F90022E0
:102C00000449039B204600911146FEF7ABF804B03F
:102C100010BD00BFFDA6002410B584B004461146C7
:102C200000F25C500392FEF79DF900220449039BD9
:102C3000204600911146FEF795F804B010BD00BF84
:102C40001DA7002410B584B00446114600F5B060FD
:102C50000392FEF787F900220449039B2046009166
:102C60001146FEF77FF804B010BD00BF3DA7002459
:102C700010B584B00446114600F2A4500392FEF74A
:102C800071F900220449039B204600911146FEF78A
:102C900069F804B010BD00BF29A6002410B584B0A7
:102CA0000446114600F5B9600392FEF75BF9002275
:102CB0000449039B204600911146FEF753F804B0E7
:102CC00010BD00BF49A6002410B584B004461146CB
:102CD00000F2EC500392FEF745F900220449039BF1
:102CE000204600911146FEF73DF804B010BD00BF2C
:102CF00069A6002410B584B00446114600F5C260F0
:102D00000392FEF72FF900220449039B204600910D
:102D10001146FEF727F804B010BD00BF89A60024B5
:102D200010B5054C82B0134600F1EC01022200946C
:102D3000FEF78AF802B010BDAD5E002410B5054C58
:102D400082B0134600F5B87102220094FEF77CF8B9
:102D500002B010BD8D30002410B5054C82B0134672
:102D600000F5237102220094FEF76EF802B010BD48
:102D7000CD31002410B5054C82B0134600F56171C9
:102D800002220094FEF760F802B010BDDD5F00245F
:102D900010B5054C82B0134600F573710222009401
:102DA000FEF752F802B010BD315F002410B5054C9B
:102DB00082B0134600F2244102220094FEF744F848
:102DC00002B010BDF132002430B500F2F44585B0F8
:102DD0000446114628460392FEF7C4F8084A039BAE
:102DE0002946204600920022FEF72EF800220549CF
:102DF0002046039B00911146FDF7B4FF05B030BD9E
:102E0000C92D0024DDA6002410B5054C82B0134660
:102E100000F2F44102220094FEF716F802B010BD51
:102E2000C92D002410B5054C82B0134600F5A761EA
:102E300000220094FEF708F802B010BDED2B00242C
:102E400010B5054C82B0134600F25C51002200948C
:102E5000FDF7FAFF02B010BD192C002410B5054C87
:102E600082B0134600F5B06100220094FDF7ECFF3C
:102E700002B010BD452C002410B5054C82B013469D
:102E800000F2A45100220094FDF7DEFF02B010BD55
:102E9000712C002410B5054C82B0134600F5B961C1
:102EA00000220094FDF7D0FF02B010BD9D2C00243D
:102EB00010B5054C82B0134600F2EC51002200948C
:102EC000FDF7C2FF02B010BDC92C002410B5054C9F
:102ED00082B0134600F5C26100220094FDF7B4FFF2
:102EE00002B010BDF52C002410B5054C82B013467D
:102EF00000F5CB6102220094FDF7A6FF02B010BDE1
:102F00006D8E002410B5054C82B0134600F5D261D9
:102F100000220094FDF798FF02B010BD4D3400244C
:102F200010B5054C82B0134600F5E1610122009412
:102F3000FDF78AFF02B010BDB192002410B5054C18
:102F400082B0134600F2C46102220094FDF77CFFB8
:102F500002B010BDFD90002410B5054C82B01346A0
:102F600000F5E16100220094FDF76EFF02B010BD94
:102F7000B192002410B5054C82B0134600F5E9610A
:102F800001220094FDF760FF02B010BDB1340024AF
:102F900010B5054C82B0134600F5E961002200949B
:102FA000FDF752FF02B010BDB134002410B5054C3E
:102FB00082B0134600F26C7102220094FDF744FFC8
:102FC00002B010BDDD34002410B5054C82B01346AC
:102FD00000F67C0101220094FDF736FF02B010BD1F
:102FE000959B002410B5054C82B0134600F63801BD
:102FF00002220094FDF728FF02B010BDE1990024E1
:1030000010B5054C82B0134600F67C0100220094F6
:10301000FDF71AFF02B010BD959B002410B5054CBA
:1030200082B0134600F6BC0101220094FDF70CFFAC
:1030300002B010BD1D36002410B5054C82B01346F9
:1030400000F6BC0100220094FDF7FEFE02B010BDA8
:103050001D36002410B5054C82B0134600F50E61F4
:1030600002220094FDF7F0FE02B010BD49360024A4
:1030700010B5054C82B0134600F5A87100220094EB
:10308000FEF7E0F902B010BD1D29002430B500F5AF
:10309000B87585B00446114628460392FDF762FFD5
:1030A000094A039B294620460092084D0022FDF75D
:1030B000CBFE039B002204F5D47120460095FEF759
:1030C000C1F905B030BD00BF8D3000241D42002481
:1030D00010B5054C82B0134600F5F0710022009443
:1030E000FEF7B0F902B010BD7D42002410B5054CCA
:1030F00082B0134600F5D47101220094FEF7A2F9C4
:1031000002B010BD1D42002410B5054C82B013461C
:1031100000F5F07101220094FEF794F902B010BDA1
:103120007D42002410B5054C82B0134600F5EC71C9
:1031300001220094FEF786F902B010BD3D5900242B
:1031400010B5054C82B0134600F5EC7100220094D6
:10315000FEF778F902B010BD3D59002410B5054CBA
:1031600082B0134600F5E87100220094FEF76AF978
:1031700002B010BD5D42002410B5054C82B013466C
:1031800000F5E47100220094FEF75CF902B010BD76
:10319000F975002410B5054C82B0134600F5E071B6
:1031A00000220094FEF74EF902B010BD192A002447
:1031B00010B5054C82B0134600F50E710022009444
:1031C000FEF740F902B010BDB139002430B500F56A
:1031D000237585B00446114628460392FDF7C2FECA
:1031E000094A039B294620460092084D0022FDF71C
:1031F0002BFE039B002204F5317120460095FEF75B
:1032000021F905B030BD00BFCD3100245546002462
:1032100010B5054C82B0134600F53F7100220094B2
:10322000FEF710F902B010BDB546002410B5054CEC
:1032300082B0134600F5317101220094FEF702F9C5
:1032400002B010BD5546002410B5054C82B013469F
:1032500000F53F7101220094FEF7F4F802B010BDB2
:10326000B546002410B5054C82B0134600F53D71FB
:1032700001220094FEF7E6F802B010BDB158002418
:1032800010B5054C82B0134600F53D710022009444
:10329000FEF7D8F802B010BDB158002410B5054CA7
:1032A00082B0134600F53B7100220094FEF7CAF885
:1032B00002B010BD9546002410B5054C82B01346EF
:1032C00000F5377100220094FEF7BCF802B010BD83
:1032D000812A002410B5054C82B0134600F55E71BA
:1032E00001220094FEF7AEF802B010BDFD7D00246F
:1032F00030B500F2244585B00446114628460392B5
:10330000FDF730FE094A039B294620460092084DEE
:103310000022FDF799FD039B002204F25C41204648
:103320000095FEF78FF805B030BD00BFF1320024E4
:103330004949002410B5054C82B0134600F294416F
:1033400000220094FEF77EF802B010BDA9490024C7
:1033500010B5054C82B0134600F25C410122009486
:10336000FEF770F802B010BD4949002410B5054CB5
:1033700082B0134600F2944101220094FEF762F8F5
:1033800002B010BDA949002410B5054C82B0134607
:1033900000F28C4101220094FEF754F802B010BDF7
:1033A0007559002410B5054C82B0134600F28C41CB
:1033B00000220094FEF746F802B010BD75590024B3
:1033C00010B5054C82B0134600F2844100220094EF
:1033D000FEF738F802B010BD8949002410B5054C3D
:1033E00082B0134600F2744100220094FEF72AF8DE
:1033F00002B010BDE92A002410B5054C82B0134676
:1034000000F59B6101220094FEF71CF802B010BD8C
:103410001580002410B5054C82B0134600F22C51E3
:1034200001220094FEF70EF802B010BDC5860024FC
:1034300010B5054C82B0134600F24C610122009495
:10344000FEF700F802B010BD758D002430B50446BB
:1034500085B0114600F5D260064D0392FDF782FD5E
:10346000039B002204F22C5120460095FDF7EAFF51
:1034700005B030BDC586002410B5054C82B013469A
:1034800000F2FC6101220094FDF7DCFF02B010BDE8
:103490000590002410B5054C82B0134600F22C7143
:1034A00001220094FDF7CEFF02B010BDADA70024AD
:1034B00030B5044685B0114600F5E960064D03922B
:1034C000FDF750FD039B002204F22C71204600956D
:1034D000FDF7B8FF05B030BDADA7002430B500F250
:1034E0006C7585B00446114628460392FDF73AFDF7
:1034F000094A039B294620460092084D0022FDF709
:10350000A3FC039B002204F2A47120460095FDF762
:1035100099FF05B030BD00BFDD3400249D4C002470
:1035200010B5054C82B0134600F2DC710022009405
:10353000FDF788FF02B010BDFD4C002410B5054C0E
:1035400082B0134600F2A47101220094FDF77AFFC5
:1035500002B010BD9D4C002410B5054C82B013463E
:1035600000F2DC7101220094FDF76CFF02B010BD87
:10357000FD4C002410B5054C82B0134600F2D47106
:1035800001220094FDF75EFF02B010BD5D580024DB
:1035900010B5054C82B0134600F2D471002200949D
:1035A000FDF750FF02B010BD5D58002410B5054C6A
:1035B00082B0134600F2CC7100220094FDF742FF66
:1035C00002B010BDDD4C002410B5054C82B013468E
:1035D00000F2BC7100220094FDF734FF02B010BD70
:1035E000512B002410B5054C82B0134600F507613D
:1035F00001220094FDF726FF02B010BDE9980024D7
:1036000010B5054C82B0134600F50A610122009402
:10361000FDF718FF02B010BD31A8002430B50446F4
:1036200085B0114600F6BC00064D0392FDF79AFCEA
:10363000039B002204F50A6120460095FDF702FF76
:1036400005B030BD31A8002430B500F50E6585B059
:103650000446114628460392FDF784FC094A039B61
:10366000294620460092084D0022FDF7EDFB039B02
:10367000002204F6181120460095FDF7E3FE05B080
:1036800030BD00BF49360024514F002410B5054C11
:1036900082B0134600F5156100220094FDF7D2FEBA
:1036A00002B010BDB14F002410B5054C82B01346D6
:1036B00000F6181101220094FDF7C4FE02B010BDFF
:1036C000514F002410B5054C82B0134600F515612A
:1036D00001220094FDF7B6FE02B010BDB14F0024E8
:1036E00010B5054C82B0134600F648110122009433
:1036F000FDF7A8FE02B010BD2159002410B5054CFD
:1037000082B0134600F6481100220094FDF79AFE9D
:1037100002B010BD2159002410B5054C82B01346EB
:1037200000F5146100220094FDF78CFE02B010BD7C
:10373000914F002410B5054C82B0134600F513617B
:1037400000220094FDF77EFE02B010BDB92B0024CC
:1037500010B5054C82B0134600F596710122009415
:10376000FDF770FE02B010BD4951002410B5054CA4
:1037700082B0134600F2744101220094FDF762FE0C
:1037800002B010BDE92A002430B50F4985B01346B8
:103790000022009100F56A7104460393FDF752FE82
:1037A0000A49039B20460091002204F57C71084DD4
:1037B000FDF748FE039B002204F2EC4120460095F1
:1037C000FDF740FE05B030BD4D4800248D48002473
:1037D0001D58002410B5054C82B0134600F55471F5
:1037E00000220094FDF72EFE02B010BDCD52002441
:1037F00030B5144985B013460022009100F55E7182
:1038000004460393FDF71EFE0F49039B20460091DB
:10381000002204F2FC610D4DFDF714FE0C49039BE0
:1038200020460091002204F50761FDF70BFE039B83
:10383000002204F24C6120460095FDF703FE05B01E
:1038400030BD00BFFD7D002405900024758D00244F
:10385000E998002410B5114682B00023054C9FED75
:10386000060A0322CDE900141946FDF751FA02B009
:1038700010BD00BF0D41002400007A4410B5114670
:1038800082B00023054CB7EE000A1422CDE90014E3
:103890001946FDF73DFA02B010BD00BF212D0024EE
:1038A00010B5114682B00023054C9FED060A022296
:1038B000CDE900141946FDF72BFA02B010BD00BF88
:1038C000A55100240200004B10B5114682B0002320
:1038D000054C9FED060A1422CDE900141946FDF7A8
:1038E00017FA02B010BD00BF7931002400000000BB
:1038F00010B5114682B00023054C9FED060A032245
:10390000CDE900141946FDF703FA02B010BD00BF5F
:10391000FD41002400007A4410B5114682B0002316
:10392000054CB7EE000A1422CDE900141946FDF744
:10393000EFF902B010BD00BF3D2D002410B51146B7
:1039400082B00023054C9FED060A0322CDE9001446
:103950001946FDF7DDF902B010BD00BFED300024BF
:1039600000007A4410B5114682B00023054C9FED4B
:10397000060A0322CDE900141946FDF7C9F902B081
:1039800010BD00BFCD42002400007A4410B511469E
:1039900082B00023054CB3EE040A0222CDE90014E4
:1039A0001946FDF7B5F902B010BD00BFB1510024B2
:1039B00010B5114682B00023054C9FED060A022285
:1039C000CDE900141946FDF7A3F902B010BD00BF00
:1039D0006D440024E40FC94010B5114682B00023A5
:1039E000054C9FED060A1422CDE900141946FDF797
:1039F0008FF902B010BD00BF614500246F12833AF9
:103A000010B5114682B00023054CB0EE000A022228
:103A1000CDE900141946FDF77BF902B010BD00BFD7
:103A2000E144002410B5114682B00023054CB7EEE6
:103A3000000A1522CDE900141946FDF769F902B014
:103A400010BD00BF8145002410B5002382B014468C
:103A50000549B7EE000A1A46CDE900411946FDF7BF
:103A600057F902B010BD00BF8D44002410B51146B7
:103A700082B00023054CBFEE000A0222CDE90014FB
:103A80001946FDF745F902B010BD00BFBD52002434
:103A900010B5114682B00023054CBFEE000A022289
:103AA000CDE900141946FDF733F902B010BD00BF8F
:103AB000B552002410B5114682B00023054CBFEE6C
:103AC000000A0222CDE900141946FDF721F902B0DF
:103AD00010BD00BF913A002410B5114682B00023FA
:103AE000054C9FED060A0322CDE900141946FDF7A7
:103AF0000FF902B010BD00BF3546002400007A4423
:103B000010B5114682B00023054CB7EE000A14220E
:103B1000CDE900141946FDF7FBF802B010BD00BF57
:103B2000592D002410B5114682B00023054C9FED9D
:103B3000060A0322CDE900141946FDF7E9F802B0A0
:103B400010BD00BF2D32002400007A4410B511468C
:103B500082B00023054C9FED060A0322CDE9001434
:103B60001946FDF7D5F802B010BD00BF0547002487
:103B700000007A4410B5114682B00023054CB7EE20
:103B8000000A0222CDE900141946FDF7C1F802B07F
:103B900010BD00BF0952002410B5002382B01446A6
:103BA00005499FED060A1A46CDE900411946FDF781
:103BB000AFF802B010BD00BF35A2002400007A4566
:103BC00010B5114682B00023054C9FED060A022273
:103BD000CDE900141946FDF79BF802B010BD00BFF7
:103BE000155200240000FA4410B5114682B000239B
:103BF000054C9FED060A0322CDE900141946FDF796
:103C000087F802B010BD00BF6D48002400007A4460
:103C100010B5114682B00023054CB7EE000A1422FD
:103C2000CDE900141946FDF773F802B010BD00BFCE
:103C3000752D002410B5002382B0144605499FED70
:103C4000060A1A46CDE900411946FDF761F802B0AF
:103C500010BD00BF8937002400401C4610B5114636
:103C600082B00023054C9FED060A0222CDE9001424
:103C70001946FDF74DF802B010BD00BF21520024D7
:103C80000000FA4410B5114682B00023054C9FEDA8
:103C9000060A0322CDE900141946FDF739F802B0EF
:103CA00010BD00BFAD48002400007A4410B5114695
:103CB00082B00023054CB7EE000A1422CDE90014AF
:103CC0001946FDF725F802B010BD00BF912D002464
:103CD00010B5114682B00023054C9FED060A022262
:103CE000CDE900141946FDF713F802B010BD00BF6E
:103CF0002D5200240000C84210B5002382B01446A3
:103D000005499FED060A1A46CDE900411946FCF720
:103D1000FFFF02B010BD00BF6D37002400409C457E
:103D200010B5114682B00023054C9FED060A022211
:103D3000CDE900141946FCF7EBFF02B010BD00BF3F
:103D40003952002400409C4510B5114682B0002332
:103D5000054C9FED060A0322CDE900141946FCF735
:103D6000D7FF02B010BD00BF2949002400007A44EB
:103D700010B5114682B00023054CB7EE000A14229C
:103D8000CDE900141946FCF7C3FF02B010BD00BF17
:103D9000AD2D002410B5114682B00023054C9FEDD7
:103DA000060A0322CDE900141946FCF7B1FF02B060
:103DB00010BD00BF5133002400007A4410B51146F5
:103DC00082B00023054C9FED060A0322CDE90014C2
:103DD0001946FCF79DFF02B010BD00BF194A002430
:103DE00000007A4410B5114682B00023054C9FEDC7
:103DF000060A0322CDE900141946FCF789FF02B038
:103E000010BD00BF814B002400007A4410B511465C
:103E100082B00023054CB7EE000A1422CDE900144D
:103E20001946FCF775FF02B010BD00BF092E002433
:103E300010B5114682B00023054C9FED060A0322FF
:103E4000CDE900141946FCF763FF02B010BD00BFB6
:103E5000C14B002400007A4410B5114682B0002303
:103E6000054CB7EE000A1422CDE900141946FCF700
:103E70004FFF02B010BD00BFE92E002410B511465F
:103E800082B00023054C9FED060A0222CDE9001402
:103E90001946FCF73DFF02B010BD00BF455200249B
:103EA00000401C4610B5114682B00023054C9FED22
:103EB000060A0322CDE900141946FCF729FF02B0D7
:103EC00010BD00BF014C002400007A4410B511461B
:103ED00082B00023054CB7EE000A1422CDE900148D
:103EE0001946FCF715FF02B010BD00BF3D2F00249E
:103EF00010B5114682B00023054C9FED060A022240
:103F0000CDE900141946FCF703FF02B010BD00BF55
:103F10005152002400401C4610B5114682B00023C7
:103F2000054C9FED060A0322CDE900141946FCF763
:103F3000EFFE02B010BD00BF7D4C002400007A44AB
:103F400010B5114682B00023054CB7EE000A1422CA
:103F5000CDE900141946FCF7DBFE02B010BD00BF2E
:103F6000AD2F002410B5114682B00023054C9FED03
:103F7000060A0322CDE900141946FCF7C9FE02B077
:103F800010BD00BF3D35002400007A4410B5114635
:103F900082B00023054C9FED060A0322CDE90014F0
:103FA0001946FCF7B5FE02B010BD00BF4D4D002410
:103FB00000007A4410B5114682B00023054C9FEDF5
:103FC000060A0222CDE900141946FCF7A1FE02B050
:103FD00010BD00BF5D52002400401C4610B51146C4
:103FE00082B00023054C9FED060A0322CDE90014A0
:103FF0001946FCF78DFE02B010BD00BFB54E00247F
:1040000000007A4410B5114682B00023054CB7EE8B
:10401000000A1422CDE900141946FCF779FE02B01B
:1040200010BD00BFE52F002410B5114682B000235B
:10403000054C9FED060A0222CDE900141946FCF753
:1040400067FE02B010BD00BF6952002400401C464C
:1040500010B5114682B00023054C9FED060A0322DD
:10406000CDE900141946FCF753FE02B010BD00BFA5
:10407000314F002400007A4410B5114682B000236D
:10408000054CB7EE000A1422CDE900141946FCF7DE
:104090003FFE02B010BD00BF5530002410B51146E0
:1040A00082B00023054C9FED060A0322CDE90014DF
:1040B0001946FCF72DFE02B010BD00BFA936002442
:1040C00000007A4410B5114682B00023054C9FEDE4
:1040D000060A0322CDE900141946FCF719FE02B0C6
:1040E00010BD00BF0150002400007A4410B5064CFA
:1040F00082B0002300F59071CDE900240222FCF784
:10410000CFFD02B010BD00BF7D38002410B5064CB5
:1041100082B0012300F59071CDE900240222FCF762
:10412000BFFD02B010BD00BF7D38002430B50023B4
:1041300083B015460A49B3EE040A022201911946DA
:1041400000950446FCF7E4FD0649002305222046BD
:10415000CDE9005104F6A411FCF7A2FD03B030BD77
:10416000755200246DA1002470B5002382B015465D
:10417000094904461A46019100F51A61074E009557
:10418000FCF78EFD2B46002204F592712046009626
:10419000FDF758F902B070BD513700242D410024BD
:1041A00030B50C4983B0154601230446CDE9002102
:1041B00000F500710222FCF773FD0749012302227A
:1041C0002046CDE9005104F5FE71FCF769FD03B00E
:1041D00030BD00BF653900243D39002410B5064CC0
:1041E00082B0002300F5D271CDE900240222FCF751
:1041F00057FD02B010BD00BF1939002410B5064CA0
:1042000082B0012300F5D271CDE900240222FCF72F
:1042100047FD02B010BD00BF1939002430B50C496C
:1042200083B0144600230546CDE9002100F5027154
:104230000122FCF735FD0023064911229FED060AF5
:104240002846CDE900411946FCF762FD03B030BDB8
:1042500095580024FD5C00240000000010B50123E7
:1042600082B0054C00F50971CDE900241A46FCF72F
:1042700017FD02B010BD00BFF543002470B5002348
:1042800082B015460E491A460446019100F50471A4
:104290000095FCF705FD00230A4804F507711A464E
:1042A000094ECDE900502046FCF7FAFC2B460022CF
:1042B00004F5B47120460096FDF7C4F802B070BD55
:1042C000093100245D310024A952002410B50123D6
:1042D00082B0054C00F50271CDE900241A46FCF7C6
:1042E000DFFC02B010BD00BF9558002410B5064C8D
:1042F00082B0012300F50671CDE900240322FCF70A
:10430000CFFC02B010BD00BF0D43002430B50C49F6
:1043100083B0154601230446CDE9002100F507715D
:104320000022FCF7BDFC0749012300222046CDE90D
:10433000005104F50471FCF7B3FC03B030BD00BFBD
:104340005D3100240931002410B5064C82B00023F1
:1043500000F50571CDE900240322FCF7A1FC02B0B1
:1043600010BD00BFED42002410B5064C82B0002302
:1043700000F5FE71CDE900240222FCF791FC02B0A9
:1043800010BD00BF3D39002410B5064C82B000239B
:1043900000F50971CDE900240122FCF781FC02B08F
:1043A00010BD00BFF543002470B50F4B82B0154619
:1043B0000022009304462B461146FCF7D3FC002351
:1043C0000A4804F507711A46094ECDE90050204607
:1043D000FCF766FC2B46012204F5F071204600969E
:1043E000FDF730F802B070BDCD7600245D310024B9
:1043F0007D42002410B5064C82B0002300F5067102
:10440000CDE900240322FCF74BFC02B010BD00BF35
:104410000D43002470B50B4982B0044615460123B4
:10442000094ECDE9002100F6A4110522FCF738FC65
:104430002B46002204F5B07120460096FDF702F8E5
:1044400002B070BD6DA10024C938002410B5064C1F
:1044500082B0012300F51271CDE900240322FCF79C
:104460001FFC02B010BD00BFBD51002410B5064CAA
:1044700082B0002300F51271CDE900240322FCF77D
:104480000FFC02B010BD00BFBD51002430B50023A9
:1044900083B015460F49B0EE000A16220191194665
:1044A00000950446FCF734FC0B4920460023022209
:1044B000CDE9005104F51871FCF7F2FB0749002320
:1044C00002222046CDE9005104F51D71FCF7E8FBFE
:1044D00003B030BDB53A00246D3A002421450024D4
:1044E00010B5064C82B0012300F51871CDE9002407
:1044F0000222FCF7D5FB02B010BD00BF6D3A0024CC
:1045000010B5064C82B0002300F52071CDE90024DF
:104510000222FCF7C5FB02B010BD00BFC55200244B
:1045200010B5064C82B0012300F51F71CDE90024BF
:104530000022FCF7B5FB02B010BD00BF41450024CE
:1045400010B5064C82B0012300F52071CDE900249E
:104550000222FCF7A5FB02B010BD00BFC55200242B
:1045600010B5064C82B0012300F51471CDE900248A
:104570000322FCF795FB02B010BD00BF253A0024D2
:1045800030B5002383B014461049BFEE000A022262
:104590000191194600940546FCF7BAFB00230C482C
:1045A00005F51F711A46CDE900402846FCF778FB57
:1045B00000230849B0EE000A02222846CDE9004156
:1045C0001946FCF7A5FB03B030BD00BF493A0024F3
:1045D000414500240145002430B50C4983B01546FF
:1045E00001230446CDE9002100F547710222FCF7C2
:1045F00057FB0749012302222046CDE9005104F56B
:104600004671FCF74DFB03B030BD00BF4D3B0024AD
:10461000253B002410B5064C82B0002300F5307114
:10462000CDE900240222FCF73BFB02B010BD00BF25
:10463000013B002410B5064C82B0012300F5307117
:10464000CDE900240222FCF72BFB02B010BD00BF15
:10465000013B002430B50C4983B0144600230546C5
:10466000CDE9002100F549710122FCF719FB002377
:10467000064911229FED060A2846CDE90041194658
:10468000FCF746FB03B030BDE9580024455D00242B
:104690000000000010B5012382B0054C00F54F71F9
:1046A000CDE900241A46FCF7FBFA02B010BD00BFAA
:1046B0002D48002470B5002382B015460E491A46D5
:1046C0000446019100F54B710095FCF7E9FA0023CF
:1046D0000A4804F54E711A46094ECDE900502046AD
:1046E000FCF7DEFA2B46002204F5507120460096B6
:1046F000FCF7A8FE02B070BD493200249D320024B0
:10470000CD58002410B5012382B0054C00F5497145
:10471000CDE900241A46FCF7C3FA02B010BD00BF71
:10472000E958002410B5064C82B0012300F54D7104
:10473000CDE900240322FCF7B3FA02B010BD00BF9C
:104740004547002430B50C4983B015460123044683
:10475000CDE9002100F54E710022FCF7A1FA0749CE
:10476000012300222046CDE9005104F54B71FCF7EE
:1047700097FA03B030BD00BF9D32002449320024B7
:1047800010B5064C82B0002300F54C71CDE9002431
:104790000322FCF785FA02B010BD00BF25470024B4
:1047A00010B5064C82B0002300F54671CDE9002417
:1047B0000222FCF775FA02B010BD00BF253B0024B1
:1047C00010B5064C82B0002300F54F71CDE90024EE
:1047D0000122FCF765FA02B010BD00BF2D4800248D
:1047E00070B50F4B82B015460022009304462B464D
:1047F0001146FCF7B7FA00230A4804F54E711A4631
:10480000094ECDE900502046FCF74AFA2B4601221A
:1048100004F53F7120460096FCF714FE02B070BD0F
:10482000E57B00249D320024B546002410B5064CDB
:1048300082B0002300F54D71CDE900240322FCF77E
:104840002FFA02B010BD00BF4547002410B5064C3A
:1048500082B0002300F56E71CDE900240222FCF73E
:104860001FFA02B010BD00BF113C002410B5064C69
:1048700082B0012300F56E71CDE900240222FCF71D
:104880000FFA02B010BD00BF113C002410B5064C59
:1048900082B0002300F58061CDE900240222FCF7FC
:1048A000FFF902B010BD00BFAD3C002410B5064CAE
:1048B00082B0012300F58061CDE900240222FCF7DB
:1048C000EFF902B010BD00BFAD3C002430B50C497B
:1048D00083B0154601230446CDE9002100F2B4411E
:1048E0000222FCF7DDF90749012302222046CDE927
:1048F000005104F59661FCF7D3F903B030BD00BF59
:10490000BD3D0024953D002410B5064C82B0002327
:1049100000F58B61CDE900240222FCF7C1F902B059
:1049200010BD00BF713D002410B5064C82B00123BC
:1049300000F58B61CDE900240222FCF7B1F902B049
:1049400010BD00BF713D002430B50C4983B0144642
:1049500000230546CDE9002100F2BC410122FCF70D
:104960009FF90023064911229FED060A2846CDE94A
:1049700000411946FCF7CCF903B030BD795800244A
:10498000D55D00240000000010B5012382B0054C65
:1049900000F2D441CDE900241A46FCF781F902B0B7
:1049A00010BD00BF414B002430B5002383B0154635
:1049B00014491A460446019100F2C4410095FCF7DF
:1049C0006FF90023104804F59A611A46CDE90050AA
:1049D0002046FCF765F90D492B4620460091002240
:1049E00004F2E441FCF72EFD0023094903229FED68
:1049F000090A2046CDE900511946FCF789F903B0B0
:104A000030BD00BF6D330024C13300241958002489
:104A1000D53700240000C84210B5012382B0054CF0
:104A200000F2BC41CDE900241A46FCF739F902B086
:104A300010BD00BF7958002410B5064C82B0012388
:104A400000F2CC41CDE900240322FCF729F902B0A1
:104A500010BD00BF594A002430B50C4983B015463B
:104A600001230446CDE9002100F59A610022FCF7FC
:104A700017F90749012300222046CDE9005104F22D
:104A8000C441FCF70DF903B030BD00BFC1330024B1
:104A90006D33002410B5064C82B0002300F59961F7
:104AA000CDE900240322FCF7FBF802B010BD00BFE3
:104AB000394A002410B5064C82B0002300F59661F7
:104AC000CDE900240222FCF7EBF802B010BD00BFD4
:104AD000953D002410B5064C82B0002300F2D4416D
:104AE000CDE900240122FCF7DBF802B010BD00BFC5
:104AF000414B002470B50F4B82B015460022009345
:104B000004462B461146FCF72DF900230A4804F50C
:104B10009A611A46094ECDE900502046FCF7C0F8CC
:104B20002B46012204F2944120460096FCF78AFCB1
:104B300002B070BDAD840024C1330024A949002413
:104B400010B5064C82B0002300F2CC41CDE9002420
:104B50000322FCF7A5F802B010BD00BF594A00249B
:104B600010B5064C82B0002300F5A561CDE9002404
:104B70000222FCF795F802B010BD00BF0D3E0024E4
:104B800010B5064C82B0012300F5A561CDE90024E3
:104B90000222FCF785F802B010BD00BF0D3E0024D4
:104BA00010B5064C82B0002300F28C61CDE90024E0
:104BB0000222FCF775F802B010BD00BF593E002478
:104BC00010B5064C82B0012300F28C61CDE90024BF
:104BD0000222FCF765F802B010BD00BF593E002468
:104BE00010B5064C82B0002300F5DF61CDE900244A
:104BF0000222FCF755F802B010BD00BFCD3E0024E4
:104C000010B5064C82B0012300F5DF61CDE9002428
:104C10000222FCF745F802B010BD00BFCD3E0024D3
:104C200030B50C4983B0154601230446CDE9002177
:104C300000F2FC710222FCF733F80749012302223B
:104C40002046CDE9005104F5FF61FCF729F803B0D7
:104C500030BD00BF8D3F0024653F002410B5064CD9
:104C600082B0002300F5F461CDE900240222FCF7B4
:104C700017F802B010BD00BF413F002410B5064C2C
:104C800082B0012300F5F461CDE900240222FCF793
:104C900007F802B010BD00BF413F002430B50C49F9
:104CA00083B0144600230546CDE9002100F6040137
:104CB0000122FBF7F5FF0023064911229FED060AAA
:104CC0002846CDE900411946FCF722F803B030BD73
:104CD000055900241D5E00240000000010B50123CA
:104CE00082B0054C00F61C01CDE900241A46FBF702
:104CF000D7FF02B010BD00BF754E002470B5002371
:104D000082B015460E491A460446019100F60C0180
:104D10000095FBF7C5FF00230A4804F618011A4660
:104D2000094ECDE900502046FBF7BAFF2B46002282
:104D300004F5026120460096FCF784FB02B070BDCA
:104D400059350024AD350024D552002410B5012377
:104D500082B0054C00F60401CDE900241A46FBF7A9
:104D60009FFF02B010BD00BF0559002410B5064CCE
:104D700082B0012300F61401CDE900240322FBF7E1
:104D80008FFF02B010BD00BF8D4D002430B50C491F
:104D900083B0154601230446CDE9002100F6180131
:104DA0000022FBF77DFF0749012300222046CDE9C1
:104DB000005104F60C01FBF773FF03B030BD00BFD8
:104DC000AD3500245935002410B5064C82B00023BF
:104DD00000F5FF61CDE900240222FBF761FF02B07C
:104DE00010BD00BF653F002410B5064C82B0002303
:104DF00000F50161CDE900240322FBF751FF02B069
:104E000010BD00BF6D4D002410B5064C82B00023CC
:104E100000F61C01CDE900240122FBF741FF02B09E
:104E200010BD00BF754E002470B50F4B82B0154603
:104E30000022009304462B461146FBF793FF002304
:104E40000A4804F618011A46094ECDE900502046DA
:104E5000FBF726FF2B46012204F2DC712046009668
:104E6000FCF7F0FA02B070BDD1960024AD350024F5
:104E7000FD4C002410B5064C82B0002300F614014E
:104E8000CDE900240322FBF70BFF02B010BD00BFE9
:104E90008D4D002410B5064C82B0002300F66C0145
:104EA000CDE900240222FBF7FBFE02B010BD00BFDB
:104EB0000540002410B5064C82B0012300F66C01B9
:104EC000CDE900240222FBF7EBFE02B010BD00BFCB
:104ED0000540002430B50C4983B015460123044633
:104EE000CDE9002100F517610222FBF7D9FE074941
:104EF000012302222046CDE9005104F66C11FBF794
:104F0000CFFE03B030BD00BFC54000249D4000244B
:104F100010B5064C82B0002300F61411CDE9002430
:104F20000222FBF7BDFE02B010BD00BF7940002495
:104F300010B5064C82B0012300F61411CDE900240F
:104F40000222FBF7ADFE02B010BD00BF7940002485
:104F500030B50C4983B0144600230546CDE9002145
:104F600000F678110122FBF79BFE0023064911226F
:104F70009FED060A2846CDE900411946FBF7C8FE19
:104F800003B030BD59590024655E002400000000C4
:104F900010B5012382B0054C00F51961CDE900245C
:104FA0001A46FBF77DFE02B010BD00BF2951002458
:104FB00070B5002382B015460E491A460446019189
:104FC00000F518610095FBF76BFE00230A4804F614
:104FD0008C111A46094ECDE900502046FBF760FEC1
:104FE0002B46002204F6941120460096FCF72AFA7C
:104FF00002B070BDC536002419370024DD520024EC
:1050000010B5012382B0054C00F67811CDE90024DB
:105010001A46FBF745FE02B010BD00BF59590024E7
:1050200010B5064C82B0012300F68811CDE90024AA
:105030000322FBF735FE02B010BD00BF4150002433
:1050400030B50C4983B0154601230446CDE9002153
:1050500000F68C110022FBF723FE074901230022F2
:105060002046CDE9005104F51861FBF719FE03B0A5
:1050700030BD00BF19370024C536002410B5064CDA
:1050800082B0002300F66C11CDE900240222FBF768
:1050900007FE02B010BD00BF9D40002410B5064CB5
:1050A00082B0002300F68411CDE900240322FBF72F
:1050B000F7FD02B010BD00BF2150002410B5064C12
:1050C00082B0002300F51961CDE900240122FBF72D
:1050D000E7FD02B010BD00BF2951002470B50F4B91
:1050E00082B015460022009304462B461146FBF77A
:1050F00039FE00230A4804F68C111A46094ECDE900
:1051000000502046FBF7CCFD2B46012204F515612B
:1051100020460096FCF796F902B070BDB59F0024BA
:1051200019370024B14F002410B5064C82B000237B
:1051300000F68811CDE900240322FBF7B1FD02B08F
:1051400010BD00BF4150002470B5002382B0154649
:105150000A4904469FED0A0A019112221946094E96
:105160000095FBF7D5FD2B46002204F59A712046E9
:105170000096FBF70FFF02B070BD00BF89510024FD
:10518000000000009956002410B5054C82B013466B
:1051900000F59A7101220094FBF7FCFE02B010BDED
:1051A00099560024014B1321FCF77CB82573002489
:1051B000014B1321FCF776B81544002430B50F4994
:1051C00083B0044615460123CDE9002100F51D7189
:1051D0000222FBF765FD2A462046094B0821FCF711
:1051E00061F80849002303222046CDE9005104F567
:1051F0001471FBF755FD03B030BD00BF21450024FD
:10520000013A0024253A0024014B1321FCF74AB847
:105210008D5D0024014B1321FCF744B8993B002419
:10522000014B1321FCF73EB8353C0024014B132100
:10523000FCF738B849830024014B1321FCF732B83E
:10524000F93C0024014B1321FCF72CB8212F00243A
:10525000014B1321FCF726B8752F0024014B1321B5
:10526000FCF720B8C92F0024014B1321FCF71AB812
:105270001D30002430B50A4B83B01546044600F5B6
:105280008871009300222B46FCF7DCF8054B2A4678
:105290000D21204603B0BDE83040FCF703B800BF45
:1052A000ED40002471300024134600F188010022F3
:1052B000FCF732BE05219430FCF78CBD04219430FC
:1052C000FCF788BD01219430FCF784BD00F6A811DD
:1052D000FCF77CBE00F6C811FCF778BE00F6CC11D6
:1052E000FCF774BE4AB151B1002300210E48516051
:1052F00011721060D36013615361012070474FF049
:105300007E504FF07C534FF0000C11720749106132
:105310000120C2F80CC05160536110B4044C1460F9
:105320005DF8044B704700BFB00D0224B6C52DFBDD
:10533000A80D022408B5034A7321034B034819F052
:1053400001FD00BF6C0B02244CFF01246CFF012403
:10535000012914D813460A49002230B585B0044605
:10536000084D009111460393FBF7FCFC039B0022C0
:10537000012120460095FBF7F5FC05B030BD7047D4
:1053800019770024A943002401B17047F0B50A4BF6
:1053900083B006460C4615460093084F13460A464E
:1053A0000121FBF7DFFC2B46224601213046009706
:1053B000FBF7D8FC03B0F0BD694300244943002447
:1053C00001B17047F0B50A4B83B006460C4615464E
:1053D0000093084F13460A460121FBF7C3FC2B46F6
:1053E0002246012130460097FBF7BCFC03B0F0BD1C
:1053F0002531002489430024012914D813460A4981
:10540000002230B585B00446084D00911146039343
:10541000FBF7A8FC039B0022012120460095FBF727
:10542000A1FC05B030BD7047317C0024E147002469
:1054300001B17047F0B50A4B83B006460C461546DD
:105440000093084F13460A460121FBF78BFC2B46BD
:105450002246012130460097FBF784FC03B0F0BDE3
:10546000A14700248147002401B17047F0B50A4BE1
:1054700083B006460C4615460093084F13460A466D
:105480000121FBF76FFC2B46224601213046009795
:10549000FBF768FC03B0F0BD65320024C14700246F
:1054A000012914D813460A49002230B585B00446B4
:1054B000084D009111460393FBF754FC039B002217
:1054C000012120460095FBF74DFC05B030BD70472B
:1054D000F9840024F54A002401B17047F0B50A4B65
:1054E00083B006460C4615460093084F13460A46FD
:1054F0000121FBF737FC2B4622460121304600975D
:10550000FBF730FC03B0F0BDB54A0024954A0024F7
:1055100001B17047F0B50A4B83B006460C461546FC
:105520000093084F13460A460121FBF71BFC2B464C
:105530002246012130460097FBF714FC03B0F0BD72
:1055400089330024D54A0024012914D813460A4976
:10555000002230B585B00446084D009111460393F2
:10556000FBF700FC039B0022012120460095FBF77E
:10557000F9FB05B030BD70471D970024294E00246B
:1055800001B17047F0B50A4B83B006460C4615468C
:105590000093084F13460A460121FBF7E3FB2B4615
:1055A0002246012130460097FBF7DCFB03B0F0BD3B
:1055B000C94D0024E94D002401B17047F0B50A4BF4
:1055C00083B006460C4615460093084F13460A461C
:1055D0000121FBF7C7FB2B462246012130460097ED
:1055E000FBF7C0FB03B0F0BD75350024094E002465
:1055F000012914D813460A49002230B585B0044663
:10560000084D009111460393FBF7ACFB039B00226E
:10561000012120460095FBF7A5FB05B030BD704782
:1056200001A00024DD50002401B17047F0B50A4B01
:1056300083B006460C4615460093084F13460A46AB
:105640000121FBF78FFB2B462246012130460097B4
:10565000FBF788FB03B0F0BD7D5000249D50002473
:1056600001B17047F0B50A4B83B006460C461546AB
:105670000093084F13460A460121FBF773FB2B46A4
:105680002246012130460097FBF76CFB03B0F0BDCA
:10569000E1360024BD50002431B1012903D1044B6F
:1056A0001321FBF7FFBD7047024B1221FBF7FABD38
:1056B000694100249159002401B1704710B5054C8F
:1056C00082B0134600F5A07101220094FBF78AFC1A
:1056D00002B010BDA138002401B1704710B5054CCF
:1056E00082B0134600F50B7101220094FBF77AFC9F
:1056F00002B010BD8D39002401B1704710B5054CC2
:1057000082B0134600F5577101220094FBF76AFC42
:1057100002B010BD753B002401B1704710B5054CB7
:1057200082B0134600F55B7101220094FBF75AFC2E
:1057300002B010BDC13B002401B1704710B5054C4B
:1057400082B0134600F5707101220094FBF74AFC09
:1057500002B010BD5D3C002401B1704710B5054C8E
:1057600082B0134600F5816101220094FBF73AFCF8
:1057700002B010BDD13C002401B1704710B5054CFA
:1057800082B0134600F5836101220094FBF72AFCE6
:1057900002B010BD213D002401B1704710B5054C89
:1057A00082B0134600F5D76101220094FBF71AFC82
:1057B00002B010BD7D3E002401B1704710B5054C0C
:1057C00082B0134600F23C7101220094FBF70AFC00
:1057D00002B010BDF13E002401B1704710B5054C78
:1057E00082B0134600F62C0101220094FBF7FAFB6D
:1057F00002B010BDB53F002401B1704710B5054C93
:1058000082B0134600F50B6101220094FBF7EAFB1E
:1058100002B010BD29400024704700BF704700BF90
:10582000704700BF094B9446994209D0084B9942F2
:1058300005D1084B002261461830FCF71DBA7047AD
:10584000054B002261461830FCF716BA5BC65CCEE9
:10585000B6C52DFBF137002495A2002410B5054CE8
:1058600082B0134600F2DC7100220094FBF7EAFDDF
:1058700002B010BDFD4C002410B5054C82B013469B
:1058800000F25C4101220094FBF7DCFD02B010BD88
:105890004949002410B5054C82B0134600F5D47177
:1058A00001220094FBF7CEFD02B010BD1D42002482
:1058B00010B5054C82B0134600F53F7100220094EC
:1058C000FBF7C0FD02B010BDB546002410B5054C75
:1058D00082B0134600F50E7100220094FBF7B2FD72
:1058E00002B010BDB139002410B5054C82B013468A
:1058F00000F5317101220094FBF7A4FD02B010BD48
:105900005546002410B5054C82B0134600F2A47130
:1059100001220094FBF796FD02B010BD9D4C0024BF
:1059200010B5054C82B0134600F5156100220094B5
:10593000FBF788FD02B010BDB14F002410B5054C37
:1059400082B0134600F5F07100220094FBF77AFD57
:1059500002B010BD7D42002410B5054C82B0134644
:1059600000F6181101220094FBF76CFD02B010BD87
:10597000514F002410B5054C82B0134600F29441FB
:1059800000220094FBF75EFD02B010BDA94900247F
:1059900070B5002382B01546094904461A460191A4
:1059A00000F51A61074E0095FBF77AF92B460022A5
:1059B00004F5927120460096FBF744FD02B070BDDD
:1059C000513700242D4100242DE9F04F2DED068B99
:1059D00087B0044600F15C06904603930BE0BA4A98
:1059E000934205D1B94B2A4604F11800FCF744F95B
:1059F0003046FBF70FFE3046FBF7ACFD08B3002541
:105A000005A930460595FBF7FFFD059B0146132BC5
:105A100040F253812368AE4AD3F8907051F8043BAA
:105A2000974209D1AB4A9342D9D1AB4B2A4604F1F4
:105A30001800FCF721F9DBE70A4620461946B8476B
:105A4000D6E7039B054647462669002B40F3338182
:105A500003EB060804F6C413A06904F6C81A0293FF
:105A600004F6BC1304F6A81904F6CC1B009304F545
:105A70001C630193013670B1826813689E420AD993
:105A8000D0E903312046984704F11800FCF73EF9AD
:105A9000A0690028F0D1019BB7EE002AD4F8882035
:105AA000F6EE004AD3ED006AF5EE002A009B44F2C0
:105AB000A7119FED8A3A93ED009A029B94ED257A07
:105AC00093ED001A530AD4ED2A5A43F07E53D9EDD0
:105AD000007ADAED000A67EE255A06EE103A94EDE8
