:020000040800F2
:1000000000000220F9200008F5200008ADD4000807
:10001000F5200008F5200008F52000080000000089
:10002000000000000000000000000000F5200008B3
:10003000F520000800000000F520000831D4000879
:10004000F5200008F5200008F5200008F52000083C
:10005000F5200008F5200008F5200008F52000082C
:10006000F5200008F5200008F5200008C9C10008A7
:10007000D5C1000821B10008E1C10008EDC10008A8
:10008000B9760108F5B60008F5200008F52000084B
:10009000F5200008F5200008F5200008F5200008EC
:1000A000F5200008F5200008F5200008F5200008DC
:1000B0008D6A0108996A0108A56A010829B7000834
:1000C000F520000835B70008F5200008A1CD00088C
:1000D000ADCD0008ED7401081D75010851750108CA
:1000E000F5200008F520000800000000F5200008B9
:1000F000F5200008F5200008F5200008F52000088C
:10010000F5200008F5200008B16A0108B9CD000803
:1001100085750108B9750108F5200008F52000086B
:10012000F5200008F5200008DDCD000811CE0008FC
:10013000ED760108F5200008F5200008F5200008FC
:1001400000000000000000000000000000000000AF
:10015000F5200008F5200008F5200008ED750108DD
:1001600041B70008F520000841D4000865D4000814
:10017000F520000889D40008F5200008F5200008C3
:10018000F5200008F52000082176010851760108C5
:10019000C5CD0008D1CD0008F5200008F5200008E5
:1001A000F5200008F5200008F5200008F5200008DB
:1001B000E9BE0008F5200008F5200008F520000839
:1001C000F5200008F5200008F5200008F5200008BB
:1001D000F5200008F5200008F5200008F5200008AB
:1001E000F5200008F5200008F5200008F52000089B
:1001F000F5200008F5200008F5200008F52000088B
:10020000F5200008F5200008F5200008F52000087A
:10021000F5200008F5200008F5200008F52000086A
:10022000F5200008F5200008F52000080000000077
:10023000F5200008F520000800000000F520000867
:10024000F5200008F5200008F5200008F52000083A
:10025000F5200008F5200008F5200008F52000082A
:10026000F5200008F5200008F5200008F52000081A
:10027000F5200008F5200008857601080000000040
:10028000F5200008F5200008F52000080000000017
:0802900000000000F520000849
:1002A00010B5054C237833B9044B13B10448AFF3B0
:1002B00000800123237010BDE8030024000000002B
:1002C000CCF1010808B5034B1BB103490348AFF358
:1002D000008008BD00000000EC030024CCF1010800
:1002E00010F8012B11F8013B012A28BF9A42F7D0E0
:1002F000D01A7047034613F8012B002AFBD1181AB5
:1003000001387047000000000000000000000000FD
:1003100001F0FF01102A2BDB10F0070F08D010F8B6
:10032000013B013A8B422DD010F0070F42B3F6D1BA
:10033000F0B441EA012141EA014122F007047FF0D3
:1003400000070023F0E80256083C85EA010586EA2A
:10035000010685FA47F5A3FA87F586FA47F6A5FA66
:1003600087F68EB9EED1F0BC01F0FF0102F0070272
:1003700032B110F8013B013A83EA010313B1F8D11D
:100380000020704701387047002D06BF35460338FE
:10039000073815F0010F07D1013015F4807F02BF37
:1003A000013015F4C03F0130F0BC0138704700BF88
:1003B00081F0004102E000BF83F0004330B54FEA16
:1003C00041044FEA430594EA050F08BF90EA020F83
:1003D0001FBF54EA000C55EA020C7FEA645C7FEA16
:1003E000655C00F0E2804FEA5454D4EB5555B8BF39
:1003F0006D420CDD2C4480EA020281EA030382EAAA
:10040000000083EA010180EA020281EA0303362D3B
:1004100088BF30BD11F0004F4FEA01314FF4801C0E
:100420004CEA113102D0404261EB410113F0004F20
:100430004FEA03334CEA133302D0524263EB4303D7
:1004400094EA050F00F0A780A4F10104D5F1200E75
:100450000DDB02FA0EFC22FA05F2801841F10001D0
:1004600003FA0EF2801843FA05F359410EE0A5F1A4
:1004700020050EF1200E012A03FA0EFC28BF4CF0D5
:10048000020C43FA05F3C01851EBE37101F000458B
:1004900007D54FF0000EDCF1000C7EEB00006EEB98
:1004A0000101B1F5801F1BD3B1F5001F0CD3490822
:1004B0005FEA30004FEA3C0C04F101044FEA445279
:1004C00012F5800F80F09A80BCF1004F08BF5FEA00
:1004D000500C50F1000041EB045141EA050130BDE0
:1004E0005FEA4C0C404141EB0101013C28BFB1F5F2
:1004F000801FE9D291F0000F04BF01460020B1FA3D
:1005000081F308BF2033A3F10B03B3F120020CDA0F
:100510000C3208DD02F1140CC2F10C0201FA0CF0ED
:1005200021FA02F10CE002F11402D8BFC2F1200C52
:1005300001FA02F120FA0CFCDCBF41EA0C01904008
:10054000E41AA2BF01EB0451294330BD6FEA040451
:100550001F3C1CDA0C340EDC04F11404C4F120023C
:1005600020FA04F001FA02F340EA030021FA04F34E
:1005700045EA030130BDC4F10C04C4F1200220FAA5
:1005800002F001FA04F340EA0300294630BD21FAE3
:1005900004F0294630BD94F0000F83F4801306BFA9
:1005A00081F480110134013D4EE77FEA645C18BF9D
:1005B0007FEA655C29D094EA050F08BF90EA020F34
:1005C00005D054EA000C04BF1946104630BD91EA2C
:1005D000030F1EBF0021002030BD5FEA545C05D12F
:1005E0004000494128BF41F0004130BD14F580046E
:1005F0003CBF01F5801130BD01F0004545F0FE41E2
:1006000041F470014FF0000030BD7FEA645C1ABF16
:10061000194610467FEA655C1CBF0B46024650EA4D
:10062000013406BF52EA033591EA030F41F4002179
:1006300030BD00BF90F0000F04BF0021704730B5FF
:100640004FF4806404F132044FF000054FF00001D4
:1006500050E700BF90F0000F04BF0021704730B595
:100660004FF4806404F1320410F0004548BF40426A
:100670004FF000013EE700BF42004FEAE2014FEABF
:1006800031014FEA02701FBF12F07F4393F07F4F9A
:1006900081F06051704732F07F4208BF704793F09D
:1006A0007F4F04BF41F40021704730B54FF46074B0
:1006B00001F0004521F000411CE700BF50EA0102B3
:1006C00008BF704730B54FF000050AE050EA01025C
:1006D00008BF704730B511F0004502D5404261EBCC
:1006E00041014FF4806404F132045FEA915C3FF40D
:1006F000D8AE4FF003025FEADC0C18BF03325FEAAA
:10070000DC0C18BF033202EBDC02C2F1200300FA5A
:1007100003FC20FA02F001FA03FE40EA0E0021FA7F
:1007200002F11444BDE600BF53B94AB9002908BF1D
:1007300000281CBF4FF0FF314FF0FF3000F074B9BC
:10074000ADF1080C6DE904CE00F006F8DDF804E028
:10075000DDE9022304B070472DE9F047089D044607
:100760008E46002B4DD18A42944669D9B2FA82F264
:1007700052B101FA02F3C2F1200120FA01F10CFAA0
:1007800002FC41EA030E94404FEA1C48210CBEFBD8
:10079000F8F61FFA8CF708FB16E341EA034306FB61
:1007A00007F199420AD91CEB030306F1FF3080F0F0
:1007B0001F81994240F21C81023E63445B1AA4B23D
:1007C000B3FBF8F008FB103344EA034400FB07F7DF
:1007D000A7420AD91CEB040400F1FF3380F00A8120
:1007E000A74240F207816444023840EA0640E41B15
:1007F00000261DB1D4400023C5E900433146BDE8C1
:10080000F0878B4209D9002D00F0EF800026C5E962
:10081000000130463146BDE8F087B3FA83F6002E7A
:100820004AD18B4202D3824200F2F980841A61EBF2
:10083000030301209E46002DE0D0C5E9004EDDE710
:1008400002B9FFDEB2FA82F2002A40F09280A1EBF8
:100850000C014FEA1C471FFA8CFE0126200CB1FB4D
:10086000F7F307FB131140EA01410EFB03F0884246
:1008700008D91CEB010103F1FF3802D2884200F2D3
:10088000CB804346091AA4B2B1FBF7F007FB101165
:1008900044EA01440EFB00FEA64508D91CEB040403
:1008A00000F1FF3102D2A64500F2BB800846A4EB5E
:1008B0000E0440EA03409CE7C6F12007B34022FA49
:1008C00007FC4CEA030C20FA07F401FA06F31C4378
:1008D000F9404FEA1C4900FA06F3B1FBF9F8200C85
:1008E0001FFA8CFE09FB181140EA014108FB0EF0CB
:1008F000884202FA06F20BD91CEB010108F1FF3A1B
:1009000080F08880884240F28580A8F10208614426
:10091000091AA4B2B1FBF9F009FB101144EA014134
:1009200000FB0EFE8E4508D91CEB010100F1FF34DF
:100930006CD28E456AD90238614440EA0840A0FB77
:100940000294A1EB0E01A142C846A64656D353D04D
:100950005DB1B3EB080261EB0E0101FA07F722FA71
:1009600006F3F1401F43C5E9007100263146BDE89A
:10097000F087C2F12003D8400CFA02FC21FA03F3FD
:10098000914001434FEA1C471FFA8CFEB3FBF7F07E
:1009900007FB10360B0C43EA064300FB0EF69E42A3
:1009A00004FA02F408D91CEB030300F1FF382FD23C
:1009B0009E422DD9023863449B1B89B2B3FBF7F6E4
:1009C00007FB163341EA034106FB0EF38B4208D9BD
:1009D0001CEB010106F1FF3816D28B4214D9023EFE
:1009E0006144C91A46EA004638E72E46284605E71C
:1009F0000646E3E61846F8E64B45A9D2B9EB0208ED
:100A000064EB0C0E0138A3E74646EAE7204694E77C
:100A10004046D1E7D0467BE7023B614432E73046AF
:100A200009E76444023842E7704700BFF0EE407ABD
:100A300017281ED8DFE810F028012501220119012E
:100A40000701F300D200C400B600A8009A008C0091
:100A500081007600180069005D00510046003B00EF
:100A6000380035002E002000B5EE400AF1EE10FAF5
:100A700050D19FED870A7047B5EE400AF1EE10FAAB
:100A800004D1F5EE400AF1EE10FAF2D0B0EE670AAA
:100A900019F0A8BFB5EEC00AF1EE10FAE9DD19F0C1
:100AA00003BC80FE600A704780FE200A7047B4EEE7
:100AB000E00ADFED777AB7EE000AF1EE10FA20FED9
:100AC000270A7047B4EEE00ADFED717AB7EE000A4C
:100AD000F1EE10FA30FE270A7047B4EEE00ADFEDBF
:100AE0006C7AB7EE000AF1EE10FA88BFB0EE670A32
:100AF0007047B4EEE00ADFED667AB7EE000AF1EE79
:100B000010FA58BFB0EE670A7047B5EE400AF1EE32
:100B100010FA04D1F5EE400AF1EE10FAA9D0B7EEC2
:100B2000000A7047B4EE600A9FED590AF7EE007AAA
:100B3000F1EE10FA00FE270A7047B4EE600A9FED4E
:100B4000540AF7EE007AF1EE10FA07FE800A7047B9
:100B5000BDEEC00AFDEEE00A10EE103A10EE902A4B
:100B6000134300EE103AB8EEC00A7047BDEEC00A5B
:100B7000FDEEE00A10EE103A10EE902A534000EE1F
:100B8000103AB8EEC00A7047BDEEC00AFDEEE00AAA
:100B900010EE103A10EE902A134000EE103AB8EE24
:100BA000C00A7047BDEEC00AFDEEE00A10EE103A32
:100BB00010EE902A134100EE103AB8EEC00A7047CA
:100BC000BDEEC00AFDEEE00A10EE103A10EE902ADB
:100BD000934000EE103AB8EEC00A7047F5EE400AB6
:100BE000F1EE10FA3FF445AFFDEEC07A17EE903A01
:100BF000FDEEE07A17EE902A93FBF2F102FB11333F
:100C000007EE903AB8EEE70AB5EEC00AF1EE10FA38
:100C10007FF531AFF0EEE00A30EE200A7047BDEE0E
:100C2000E07A17EE102A002A3FF423AFFDEEC07AD7
:100C300017EE903A93FBF2F102FB113300EE103AFB
:100C4000B8EEC00A7047BDEEE07A17EE103A002BFE
:100C50003FF40FAFBDEEC00A10EE102A92FBF3F383
:100C600000EE103AB8EEC00A7047F5EE400AF1EE19
:100C700010FA3FF4FEAE87EEA00A704720EE200A7D
:100C8000704730EE600A704730EE200A704700BFB0
:100C9000000000000346002083ED000A704700BFFB
:100CA000F8B500AFBC692BB1012B01D1A388F3B912
:100CB000BD46F8BDA388002BFAD005461046227A1F
:100CC000012AF5D1012B19D184B0D1ED000A6E466D
:100CD00094ED030AFFF7AAFE2168304600F0F0FC0D
:100CE000324600212846FB699847BD46F8BD237A65
:100CF000012BDDD1E3680B60BD46F8BD237C012BE1
:100D0000E2D1D4ED050A84B0C1ED000A6E46DFE7FA
:100D1000F8B500AFBD69AB880BB9BD46F8BD044658
:100D200010462A7A012AF8D1012B12D184B06E46DE
:100D3000F0EE400A95ED030AFFF778FE2968304689
:100D400000F0BEFC324600212046FB699847BD46B4
:100D5000F8BD2B7C012BE9D184B095ED050A6E46D8
:100D6000E6E700BFF0B5012983B0054600AF05D026
:100D7000022922D091B10C37BD46F0BD9A88002AD5
:100D8000F9D01A7A012AF6D184B0196893ED030AD2
:100D90006A4610467A6000F093FC06E084B0196859
:100DA0006A4610467A6000F095FC7A6800213B6A3A
:100DB000284698470C37BD46F0BD9A882AB31C7A5E
:100DC000012C15D0022C0ED0002CD4D184B019687F
:100DD000114A6E46304600F089FC324621462846CC
:100DE0003B6A9847C7E71A4600213B6A9847C2E723
:100DF00084B01968094A6C46204600F077FC224608
:100E0000002128463B6A9847B5E7054B6421054A0F
:100E100005481BF063FA00BF18D5010820D501086A
:100E2000E4D4010828D5010804D5010810B50C4602
:100E300007F0A6F82022002144F8040B20461BF0FE
:100E4000D3FA002010BD00BF012A2DE9F047DDF8DC
:100E500020808A461E4605D0022A144633D07AB135
:100E6000BDE8F0879B88002BFAD0337A012BF7D1AD
:100E700096ED030A07F084F8CAF80000BDE8F08791
:100E80000746324A2146184600F0F6FC68B30AF1DC
:100E900004090AF1240A4D4655F8044B54B133684D
:100EA0002246002138462360C04742462146384644
:100EB00007F052F8AA45EFD1484620220021BDE8AC
:100EC000F0471BF091BA9B88002BC9D0337A012BD5
:100ED000C6D196ED037ADFED1E7AC7FE877AFCEE67
:100EE000E77AC1ED007ABDE8F0870146194A30463D
:100EF00000F0C2FC70B10AF104090AF1240A4E465E
:100F000056F8041B19B14246384607F025F8B24599
:100F1000F6D1D1E75246356852F8043B2B44336092
:100F200052F8043B43B10134082CF9D10A4B3D215E
:100F30000A4A0B481BF0D2F90AEB840442463846B1
:100F4000314601F0DBFC6060356089E734D501088B
:100F5000000000003CD5010844D50108C8D50108AF
:100F6000B0D501080023021D10B452F8044B8C4286
:100F700005D00133082BF8D15DF8044B704700EB26
:100F8000830000235DF8044B436070470346002054
:100F90001970704710B4019C32B1012A01D19A88AE
:100FA00042B95DF8044B70471A46097823465DF84C
:100FB000044B18471A7A012AF3D1D3ED037A5DF86E
:100FC000044BF5EE407AF1EE10FA14BF0123002332
:100FD0000B707047002903464FF0000008BF012145
:100FE000196070472DE9F8430E4600AF9946144644
:100FF00032B1012A01D19B880BBBBD46BDE8F88305
:1010000005460968144884B06FF004020023A1FB70
:101010000001E846FFF788FBD9F80010530A326058
:10102000404600EE103ABAEEE40A00F049FB4246B0
:10103000214628463B6A9847BD46BDE8F88399F8A3
:101040000830012BD9D1D9ED037AFCEEE77AC1ED56
:10105000007ABD46BDE8F883C160A81003460020B1
:10106000C3E90012704700BF2DE9F043012A83B0A5
:101070000C4600AF06D0022A49D0DAB10C37BD4683
:10108000BDE8F0839A88002AF8D0197A0129F5D1B1
:10109000D3ED037A012AFDEEE77AC4ED007AEDD0B4
:1010A0001A7C012AEAD1D3ED057AFDEEE77AC4ED88
:1010B000017AE3E70A68054699888A4237DA606868
:1010C000891A002802DD8142A8BF014600293BD0D1
:1010D0004A1C99466B46D600A3EBC20359F8082B6D
:1010E0009D46E846404600F0E1FA2168A6F1080274
:1010F00008F1080009EBC1011BF068F9BB6A424620
:101100000021284698470C37BD46BDE8F0839A88F1
:10111000002AB3D01A7A012AB0D1D3ED037A0C3762
:10112000FDEEE77AC1ED017ABD46BDE8F08384B0FB
:1011300019686A4610467A6000F0CCFA7A68012194
:101140002846BB6A984799E7024B3A21024A03486E
:101150001BF0C4F8DCD50108ECD5010804D5010862
:101160002DE9F04182B00546464A002100AF84B027
:1011700018461C466E4600F07FFB98B12168284651
:10118000796006F0ABFE7968B7EEC00B304600F030
:1011900097FA3246002128463B6A98470837BD46F1
:1011A000BDE8F0810146384A204600F065FB68B191
:1011B00021682846796006F0ABFE00EE100A7968D7
:1011C0003046B8EEC00A00F07BFAE2E701462F4A4B
:1011D000204600F051FB70B901462D4A204600F030
:1011E0004BFB70B12168304607EE901AB8EE670AE3
:1011F00000F066FACDE721682846796006F09AFE8D
:10120000DBE70146234A204600F036FB0028C5D024
:101210000121204600F008FB0146284601F066FB4C
:1012200080460028BAD01C4A0221204600F024FB48
:1012300040B198ED010A30462168B8EE400A00F04E
:101240003FFAA6E7154A0221204600F015FB40B1FF
:1012500098ED020A30462168B8EE400A00F030FAF4
:1012600097E70F4A0221204600F006FB002895D0A0
:1012700098ED040A30462168B8EE400A00F020FAE2
:1012800087E700BFFCD5010808D601081CD6010875
:1012900030D601083CD6010844D601084CD60108D6
:1012A00054D60108F0B583B01D46938800AF13B93A
:1012B0000C37BD46F0BD137A1446012BF8D1064613
:1012C000D2ED037A1429F3D8DFE801F01B20252A98
:1012D0002F34393E43484D52575C5F67717F8D9084
:1012E0000B00B8FE670A84B021686A4610467A602F
:1012F00000F0E6F97A6800213046A8470C37BD4671
:10130000F0BDB0EE670A19F041FBECE7B0EE670AFA
:1013100018F090FCE7E7B0EE670A19F0E7FAE2E7A9
:10132000B0EE670A19F00EFBDDE7B0EE670A18F0C1
:10133000E9FCD8E7B0EE670A19F056FBD3E7B0EE48
:10134000670A19F0CDF9CEE7B0EE670A19F0B0FBE5
:10135000C9E7B0EE670A18F03FFBC4E7B0EE670AD2
:1013600019F078FBBFE7B0EE670A19F031F9BAE778
:10137000B0EE670A19F056F9B5E7B0EE670A18F053
:1013800099FDB0E7B0EEE70AADE7F5EEC07AF1EE11
:1013900010FA2EDC9FED1D0AA5E7F5EEC07AF1EEFE
:1013A00010FAF7DDB0EE670A18F0FEFD9BE7F5EEE8
:1013B000C07AF1EE10FAEDDDB0EE670A18F0F4FD38
:1013C000DFED137A20EE270A8DE7F5EEC07AF1EE15
:1013D00010FADFDDB0EE670A18F0E6FDDFED0D7AFA
:1013E00020EE270A7FE7BAFE670A7CE7BBFE670AA2
:1013F00079E7F5EE407AF1EE10FA02D4B1EEE70AA1
:1014000071E7B0EE670A19F081FB6CE7000000009D
:101410003BAAB83FD95BDE3E08B5034A6421034BC3
:1014200003481AF05BFF00BF5CD60108E4D4010852
:1014300004D501080346012200201A7083ED010A39
:10144000704700BFF0B583B00D46144600AFA2B19F
:10145000012A0FD19A88002A4BD01A7A012A3AD051
:10146000023A012A06D80322002118462A7000F009
:10147000DBF968600C37BD46F0BD9A88002A38D089
:101480001A7A012A2DD0064611D80A7884B0012A8A
:101490006C4630D0032AEDD14A682046196800F026
:1014A0003FF92246002130463B6A9847E2E7023A7C
:1014B000012ADFD80322214618467B602A7000F0FB
:1014C000B3F97B68844621461A4630463B6AC5F824
:1014D00004C09847CEE70A700C37DB684B60BD4606
:1014E000F0BD0A701A46DE6821463B6A6E60984776
:1014F000C0E7FFF791FF91ED010A2046196800F05F
:10150000DFF8CEE738B505460C46084631B9296004
:10151000C5E90100C5E90344204638BD1AF046FF7D
:10152000286038B10023C5E9010003602046C5E901
:10153000034438BD024B3121024A03481AF0CEFE63
:1015400068D6010814D7010884D6010800681AF08B
:1015500035BF00BF83681B685A1C02D1026813683C
:1015600082601846704700BF01F108020369934288
:1015700070B4D0E9014508D3043121448D4201D82B
:10158000A5421AD8201D70BC7047C168914214D37F
:10159000A54294BF002301237BB9066832449542DB
:1015A0000ED3466001613360BFF35E8F00684FF079
:1015B000FF330430236070BC7047002070BC70475C
:1015C0001846F8E701F1080208B5036993420FD302
:1015D0005B1A426801F1040C043B036102EB0C034B
:1015E0004360002342F80C30BFF35E8F116008BDEA
:1015F000024B6B21024A03481AF070FE9CD6010888
:1016000008D7010884D60108806850F8043B0B60B5
:10161000704700BF08B583681A681AB104321344D2
:10162000836008BD024B7F21024A03481AF056FE30
:10163000D4D60108FCD6010884D6010808B5034AAF
:101640003A21034B03481AF049FE00BFB4D7010802
:10165000DCD5010804D5010808B5034A6921034B0C
:1016600003481AF03BFE00BF98D70108E4D40108F4
:1016700004D5010808B5034A6421034B03481AF056
:101680002DFE00BFC4D70108E4D4010804D5010829
:1016900008B5034A9521034B03481AF01FFE00BF0B
:1016A000F0D7010820D7010804D5010808B5026069
:1016B000818019B10131C900C18008BDFFF7BEFFAB
:1016C000034A80ED030AC0E900120122027270474A
:1016D00001001000002210B4034C0272C260C0E985
:1016E00000145DF8044B70470100100070B5012331
:1016F000044601601046A3801646FEF7FBFD054632
:10170000022330461035E6602372ADB2E580FEF765
:10171000F1FD0346204601331D44E58070BD00BF46
:1017200010B4044CC260C0E9001403215DF8044BFE
:1017300001727047010010002DE9F04F838883B0DB
:101740000192002B5FD00133019AB2EBC30F4FEA35
:10175000C30952D30F4680464A460146384607EB36
:10176000090B1AF033FEB8F80420AAB30C250124A3
:1017700006E0944204F1010305F108052CDA1C4649
:1017800018F834A0BAF1020FF3D158F80510084642
:101790000091FEF7AFFD461C019BB14400999945AD
:1017A0001FD8324658461BF051FAB988621E914242
:1017B0001DDD584607F834A047F805B0B344FEF7DE
:1017C00099FDFB88B8F80420083501339442184489
:1017D00004F10103F880D2DBA7F8069003B0BDE85E
:1017E000F08F0A4B49210A4A0A481AF077FD0A4B42
:1017F00094210A4A0A481AF071FD0A4B4021044A12
:1018000004481AF06BFDFFF719FF00BF58D7010815
:10181000D0D7010844D70108E4D40108F0D7010863
:1018200004D5010834D7010808B58388994214DA31
:10183000083010F8313000EBC100032B13D8DFE87B
:1018400003F004020702406808BD4FF0FF3008BDF6
:101850004068BDE8084000F00BBC044B9221044AEC
:1018600004481AF03BFD002008BD00BF70D70108F6
:101870008CD7010844D7010838B5154682889142B3
:101880001EDA0346083313F8312003EBC103022AA2
:101890000ED0032A01D0002038BDFFF7C5FF044653
:1018A000284600F0E5FB201AB0FA80F0400938BD68
:1018B00029465868FEF714FDB0FA80F0400938BD9B
:1018C000FFF7D8FE38B50D4691888B4246DA02F113
:1018D0000801044611F8330001EBC301032811D8B5
:1018E000DFE800F0111C280219461046FFF79CFFA4
:1018F000A3889D4244DA0834032204EBC50304F8AC
:101900003520586038BDA3889D4237DA083400235B
:1019100004EBC50204F83530536038BDA3884A682B
:101920009D4225DA0834012104EBC50304F8351083
:101930005A6038BDA38848689D4213DA80B104F12B
:101940000803022103EBC50203F835105060FEF7CF
:10195000D1FCE38801331844E08038BDFFF78AFEEC
:10196000FFF796FE094B9421094A0A481AF0B6FC83
:10197000064B7321084A07481AF0B0FCFFF76CFECB
:10198000024B8221054A03481AF0A8FCE4D401085E
:10199000F0D7010804D50108A4D70108E4D701084D
:1019A00008B5034A3821034B03481AF097FC00BFDF
:1019B00038D9010800D8010814D8010838B5044600
:1019C0008D02284665601AF0F1FC206058B10023B2
:1019D0002846C4E90233C4E90433C4E90633C4E940
:1019E0000833A36238BD034B5721034A03481AF05A
:1019F00075FC00BF2CD8010840D9010814D8010893
:101A000070B504460025006804F120061AF0D6FCE3
:101A1000E068A8B1236901E0034610464268C0E9C6
:101A20000053002AF8D1E26000E0436823611AF015
:101A3000C5FC20690028F8D10834B442E8D170BD53
:101A400020690028F1D10834B442E1D1F7E700BFA2
:101A500038B50D4620220021EB88013BB3FA83F311
:101A6000C3F11B0323EAE37300EBC3049A40284647
:101A70001AF0BAFC206930B142682261E268C0E91C
:101A80000052E06038BD08201AF090FC0028F5D123
:101A9000FFF786FFCB88013BB3FA83F3C3F11B0347
:101AA000032B2DE9F04F83B04BDC23EAE3724FF0B8
:101AB00020088946824600EBC20508FA02F8EB6866
:101AC0001E46002B33D1D0E9012404F5007B5A4592
:101AD0003DD35C4518D2016809E05A682A61444444
:101AE0003246A345C3E900761E46EB600ED92B694A
:101AF0000F19002BF1D1082001911AF057FC034671
:101B0000E8B1EE680199EAE7D3E90072CAF808B0D3
:101B10004846EA6042462969596000212B611960F4
:101B20003946FFF709FE384603B0BDE8F08F596823
:101B3000424648461F68E96029695960EDE7FFF7AA
:101B40002FFF064B7921064A06481AF0C7FB064BC1
:101B50008421034A03481AF0C1FB00BF48D801089A
:101B600028D9010814D8010850D8010808B5034A3B
:101B70002921034B03481AF0B1FB00BF88D90108A3
:101B800048D9010860D9010808B549B103460022C7
:101B90000C309A60C3E90022BDE80840FFF70EBF91
:101BA000024B1421024A03481AF098FB78D9010825
:101BB000A4D9010860D90108F8B50468054624B322
:101BC00000F10C070026A1683846FFF741FF636863
:101BD000A660AA68C4E903662B602BB11E60C4E945
:101BE0000062AC601C46EEE76B60C4E9003200E0C6
:101BF00062682046AA601AF0E1FBAC68002CF7D1BD
:101C00003846BDE8F840FFF7FBBE846800F10C07DA
:101C1000002CEDD13846BDE8F840FFF7F1BE00BF1B
:101C2000F0B5846883B0054617461E46B4B16368B4
:101C3000AB6005F10C00FFF72DFF00226B682761F8
:101C4000E660A060C4E9002223B15C6023606C60A0
:101C500003B0F0BDC5E9004403B0F0BD142001910C
:101C60001AF0A4FB0199A86018B123464460044609
:101C7000DEE7FFF77BFF00BF2DE9F0410568002D8F
:101C800035D0856804460E4690461F46002D32D05A
:101C90006B683146A36004F10C00FFF7FBFE23687C
:101CA0003668A8609A68C5F810801268EF6096429E
:101CB00006D200226B601D602A602560BDE8F081BD
:101CC000626891680968B14206D80023C5E900231B
:101CD00055606560BDE8F08119465B689A681268D6
:101CE000B242F9D94D60C5E900131D60E6E7BDE8D1
:101CF000F041FFF795BF14201AF058FBA06018B10F
:101D00002B4645600546C4E7FFF730FF38B5056848
:101D10008DB10446A9680C30FFF79AFE00236A686B
:101D2000AB60C5E90333226032B11360A2680023BF
:101D3000C5E90032A56038BD6260F7E770B5056897
:101D40008DB1AB68064699420FD06C6824B90AE0A1
:101D500060682546044638B1A3688B42F8D16AB161
:101D6000E36893420AD0002070BD12B1EB68934241
:101D7000F9D13046FFF7CAFF012070BD06F10C0013
:101D8000FFF766FE72680023A242A360C4E9033332
:101D90000AD063686B6063681D60B268002301202D
:101DA000C4E90032B46070BD6B607560F5E700BFD8
:101DB0000022034680ED040AC0ED050A80ED061AF4
:101DC0000260C0ED071A42608260C260002083EDAD
:101DD000082A7047938803B97047137A012BFBD107
:101DE00001390429F8D8DFE801F00F0C09060300D7
:101DF000D36803627047D368C3617047D368836157
:101E00007047D36843617047D3680361704700BF70
:101E100008B5034A7921034B03481AF05FFA00BF63
:101E2000C0D90108E4D4010804D501080346002202
:101E300000215A60084619609A60DA60704700BF56
:101E400038B51D469B880C46A3B9254A0021284673
:101E5000FFF712FD68B1D4ED017A002294ED027A09
:101E60000023226077EE877AA360C4ED017AC4ED87
:101E7000037A38BD2A7A012AE7D1012B07D1EB6812
:101E80000021002221606360A260E36038BD2B7CEA
:101E9000012BF4D195ED050A06F072F82368002BAA
:101EA00019DD94ED017AD4ED027A37EE277AAB880A
:101EB00084ED017A20608BB1D5ED036A07EE900ABC
:101EC00036EEC77AC4ED036AF8EEE77AC7EE276A02
:101ED000C4ED026A38BD94ED037AE8E7FFF798FF96
:101EE000B8D90108000000009FED096BB7EEC00AE9
:101EF0000246002386EE017B1846136027EE007B26
:101F0000FDEEC77B17EE903AC2E90133704700BF80
:101F1000000000000000F04110B50C4699882DED3E
:101F2000028B11B9BDEC028B10BD197A0129F9D1D0
:101F300062B3012AF6D193ED037AB5EEC07AF1EEE1
:101F400010FA08D5F7EE007A37EE277AB5EEC07AA8
:101F5000F1EE10FAF8D4F7EE007AB4EEE77AF1EE8B
:101F600010FA06DD37EE677AB4EEE77AF1EE10FA92
:101F7000F8DCB7EEC77A9FED106BBDEC028B27EE55
:101F8000067BBCEEC77B84ED007A10BD93ED038A1F
:101F900005F0A4FF9FED085BB7EEC88A85EE007BD5
:101FA00027EE087BBDEC028BFDEEC77B17EE903A67
:101FB000C4E9013310BD00BF000000000000F04183
:101FC0000346002083ED000A704700BF938803B9E1
:101FD0007047137A012BFBD1D3680B60704700BFA9
:101FE0000346002019607047938803B97047137A3D
:101FF000012BFBD1D2ED037AFDEEE77AC1ED007A39
:10200000704700BF2DE9F04185688D4221D001F174
:10201000010804460E4600684FEA88011AF0BAFD2E
:102020000746AD00C0B1A068B04209D3A8EB0505D2
:10203000A660C4F80C80281FC4E90076BDE8F081D2
:10204000A8EB0002002107EB800092001AF0CCF907
:10205000ECE70020BDE8F081024B4621024A03482C
:102060001AF03CF900DA010814DA0108ECD9010889
:1020700010B5044648B3FEF73DF9032835D9A0F161
:10208000040C02461A492CF0030C0CF1040CA44475
:1020900054F8043B01FB02F201FB03F3644583EABD
:1020A000136301FB03F382EA0302F1D100F00300A2
:1020B00002280FD0032809D001280FD082EA52331A
:1020C0000B4803FB00F080EAD03010BD9CF80230D2
:1020D00082EA03429CF8013082EA03229CF8003035
:1020E0000349534001FB03F2E8E70246A446DFE759
:1020F00095E9D15BFEE700BF0B480C4A904203D044
:10210000121A0B491AF062F90A480B4A904203D09E
:10211000121A00211AF068F90BF0F2FB1AF022F9FA
:1021200007F0AEFAFEE700BF00000024E40300243D
:10213000FCF10108E8030024804500244069704751
:1021400090ED020B704700BF00697047000000006F
:1021500007EE901A9FED065BB8EE677B90ED026B81
:1021600027EE057B87EE060BB7EEC00B704700BF6E
:102170000000000000408F4081657047806D70470F
:1021800001657047006D704741657047406D70474D
:1021900008B50368D3F88C30984700B1006808BDD3
:1021A00008B50368D3F88C30984700B1406808BD83
:1021B0000023BFF35B8F80F884307047000000007D
:1021C000B0B582B004460D46002100AF84B06A4627
:1021D00010467A60FFF77EFA23687A682946DB6C3E
:1021E00020469FED030B98470837BD46B0BD00BFA2
:1021F0000000000000000000B0B582B004460D46AB
:10220000002100AF84B06A4610467A60FFF758FAA2
:1022100023687A682946DB6C20469FED030B9847BC
:102220000837BD46B0BD00BF000000000000000040
:10223000F8B500AF8AB184B004460D4600216E4661
:102240003046FFF753FA236832462946DB6C2046B6
:102250009FED050B9847BD46F8BD054B5321054A38
:1022600005481AF03BF800BF000000000000000025
:1022700024DA010834DA01087CDA010884304FF0EE
:102280000102D0E84F3FC0E8412F0029F9D1DBB26D
:10229000BFF35B8F002BF2D1704700BF4FF00102FC
:1022A0008430D0E84F3FC0E8412F0029F9D1D8B29F
:1022B000BFF35B8F80F00100704700BF1830FFF75D
:1022C0003DBD00BF036810B5D3F88C301446984765
:1022D00018B12146FFF796FE012010BD0000000056
:1022E000DFED0B7A90ED025B87FE800AB7EEC00A45
:1022F0009FED056B20EE050B80EE067BFCEEC77BA9
:1023000017EE900A704700BF0000000000408F40A9
:1023100000000000F8B5DE8800F170051C46174685
:10232000043628463146FFF71FF960B10146E288BE
:10233000204641F8047BFFF7FFF931462846BDE807
:10234000F840FFF73FB9034B1E21034A034819F039
:10235000C5FF00BF94DA010860DB01087CDA0108E0
:1023600010B50C1E82B00ADD5C300190FFF7EEF86C
:10237000A102019802B0BDE81040FFF7C3B8034BBB
:10238000B921034A034819F0A9FF00BFB8DB0108CF
:10239000C8DB01087CDA010810B50C1E82B00ADD2A
:1023A00070300190FFF7D2F8A102019802B0BDE8A9
:1023B0001040FFF7A7B8034BBF21034A034819F0A9
:1023C0008DFF00BF04DC010814DC01087CDA010881
:1023D0002DE9F04317469846026D0E46294B002121
:1023E00083B09A42316046D1054600F1850C4FF02A
:1023F000010EDCE84F4FCCE843EF002BF9D1E4B2FB
:10240000BFF35B8F002CF2D105F170094846FFF74E
:10241000A1F8A8B101A948460194FFF7F5F8C0B1A9
:10242000019A132A1BD990451FD30146384601242F
:1024300051F8043B336019F0C9FF4846FFF7EAF84A
:1024400000232046BFF35B8F85F8853003B0BDE8DD
:10245000F0830D4BCF210D4A0D4819F03FFF0D4B76
:10246000D0210A4A0A4819F039FF0B4BD121074AFB
:10247000074819F033FF094BC721044A044819F0F3
:102480002DFF00BF1523000848DD0108F8DC010816
:102490007CDA01088CDD0108B4DD010850DC01089C
:1024A00008B5034AE221034B034819F017FF00BFA8
:1024B00044DE010834DE01087CDA010808B5034A6D
:1024C000EE21034B034819F009FF00BF80DE01082D
:1024D00034DE01087CDA01082DE9F84F2DED028B7E
:1024E0009FED338BB4EEC80BF1EE10FA59DB1746B3
:1024F000002A50D003680546314A88469B6988FE09
:10250000008B066993423ED190ED020B9FED2A6B42
:1025100005F1840380EE067B27EE087BBCEEC77BCB
:1025200017EE102A324416464FF0010CD3E84F4FF5
:10253000C3E842CF002AF9D1E4B2BFF35B8F002C8D
:10254000F2D1B7F806A005F15C0B0AF1040A58466F
:102550005146FFF709F88146B8B10146FA88384676
:1025600041F8048BFFF7E8F858465146C9F8046073
:10257000FFF728F8BFF35B8F85F884400120BDEC9E
:10258000028BBDE8F88F9847C0E70E4B83210E4AB7
:102590000E4819F0A3FE0E4B74210B4A0B4819F09C
:1025A0009DFE0C4B7321084A084819F097FE00BFA6
:1025B00000000000000000000000000000408F400C
:1025C0004121000880DF010820DF01087CDA0108D2
:1025D00070DF010810DF01082DE9F04F2DED048BAD
:1025E0009FED719B43EC182B85B0B4EEC98B00AF07
:1025F000F1EE10FABE6CC0F2D080002E00F0C78061
:1026000007F14C03824630468946FB60FDF772FEB7
:102610008346002800F0B580C3006749DAF810202F
:1026200089FE089B0833ADEB030DDAF800309B6997
:10263000E8468B4240F082809AED020B29EE009B27
:1026400059464046013E454600249FED596B89EEB0
:10265000067BBCEEC77B17EE103A13441A46FFF711
:1026600025F816F8013F623B112B11D8DFE803F083
:10267000091010104E103E101010101010101010F5
:102680001023B8F80430A34263DD00232B72EB6003
:1026900001340835A345E4DCDAF80030B0EE480B2D
:1026A000424649465046DB6C98471437BD46BDEC60
:1026B000048BBDE8F08FFB68B8F80420191D18687A
:1026C000A242F9603FDD002855D00223E8600134C2
:1026D00008352B70FDF70EFEB8F80630A34503F160
:1026E00001031844A8F80600BBDCD5E7FB68B8F87E
:1026F0000420191D1B68A242F96036DD0134032253
:10270000EB600835A3452A70ABDCC5E7FB68B8F879
:1027100004200733A24223F0070393ED007B03F16B
:102720000803B7EEC77BFB6019DD0134012385ED9B
:10273000037A0835A3452B7093DCADE77A605046E9
:1027400098477A687AE71D4B94211D4A1D4819F075
:10275000C5FD1A4B69211C4A1A4819F0BFFD174BD9
:1027600073211A4A174819F0B9FD144B8221184AEF
:10277000144819F0B3FD174B9521114A114819F06F
:10278000ADFD154B3A21154A0E4819F0A7FD144B23
:102790005C21144A144819F0A1FD144B5B21114A25
:1027A000114819F09BFD00BF000000000000000070
:1027B0000000000000408F4041210008E4D40108DF
:1027C0005CE1010804D50108E0E0010804E101082A
:1027D00030E1010890E10108DCD50108C0E0010802
:1027E000ACE0010854E001087CDA010810DF0108C0
:1027F000B5EEC00B70B5F1EE10FA1D46294B80ED19
:10280000020B036036DD002946DD002A16463DDD59
:10281000002D35DB4FF0000304460361C0E915339A
:102820000CBF2B46204B183083630023BFF35B8F14
:1028300080F86C30BFF35B8F80F86D30882340F8F0
:10284000043CFFF7A1F96369B102034404F15C00A1
:102850006361FEF757FE63690246A90204F1700046
:1028600013446361FEF74EFE63690246204613443B
:10287000636170BD0D4B27210D4A0E4819F02EFDE6
:102880000D4B2A210A4A0B4819F028FD0B4B292130
:10289000074A084819F022FD094B2821044A054837
:1028A00019F01CFD08E20108152300089CE101084D
:1028B000B0E101087CDA0108F0E10108B8DB0108A9
:1028C000E4E10108084B10B5044640F8183BFFF757
:1028D00073F904F15C00FEF739FE04F17000FEF7B5
:1028E00035FE204610BD00BF08E2010818B103689C
:1028F000D3F88C30184710B5FFF7D2FD28B19446B5
:1029000018301A466346FFF7B7B910B5FFF7D6FD82
:10291000004870479CE20108002070470220704781
:1029200000207047704700BFB0B5114600AF82B0BD
:10293000056801EB83046A462D6CC2E9001400218E
:10294000A847BD46B0BD00BF2DE9F84300AF2BB38B
:1029500016466A4600211D46A2EBC3024FEA8509CE
:1029600095460268E846546C4246A047002308EBAF
:1029700085041A46002D09DD08EB830106EB820C65
:1029800051F804EBA1424CF808EBF9D12B444C442C
:1029900012B1BD46BDE8F8830122EBE7034B40F6D8
:1029A0005531034A034819F099FC00BFB4E201080D
:1029B000C0E2010818E30108034B10B504460360A8
:1029C000FFF780FF204610BDB8E30108064B10B5A5
:1029D00004460360FFF776FF4FF4DC61204616F0F3
:1029E000E2FF204610BD00BFB8E3010810B5134652
:1029F00084B0002208490446039300911146FEF773
:102A0000B1F9002205492046039B00911146FEF7CB
:102A1000A9F904B010BD00BFF9600008292F000813
:102A200030B50A4985B013460446009100220121C1
:102A3000074D0393FEF796F9039B002201212046E0
:102A40000095FEF78FF905B030BD00BFF53B0008DB
:102A5000153C000810B5134684B00022084904460E
:102A6000039300911146FEF77DF9002205492046A7
:102A7000039B00911146FEF775F904B010BD00BF2D
:102A8000116600086930000830B50A4985B0134660
:102A90000446009100220121074D0393FEF762F9DD
:102AA000039B0022012120460095FEF75BF905B04B
:102AB00030BD00BF4D4000082D40000810B5134642
:102AC00084B0002208490446039300911146FEF7A2
:102AD00049F9002205492046039B00911146FEF763
:102AE00041F904B010BD00BFD96E00088D31000857
:102AF00030B50A4985B013460446009100220121F1
:102B0000074D0393FEF72EF9039B00220121204677
:102B10000095FEF727F905B030BD00BF61430008FE
:102B20004143000810B584B00446114600F5A76083
:102B30000392FEF717FA00220449039B20460091F6
:102B40001146FEF70FF904B010BD00BF7D7E0008EE
:102B500010B584B00446114600F25C500392FEF7B3
:102B600001FA00220449039B204600911146FEF71A
:102B7000F9F804B010BD00BF9D7E000810B584B008
:102B80000446114600F5B0600392FEF7EBF900220F
:102B90000449039B204600911146FEF7E3F804B078
:102BA00010BD00BFBD7E000810B584B004461146BC
:102BB00000F2A4500392FEF7D5F900220449039BCA
:102BC000204600911146FEF7CDF804B010BD00BFBD
:102BD000A97D000810B584B00446114600F5B9601F
:102BE0000392FEF7BFF900220449039B204600919F
:102BF0001146FEF7B7F804B010BD00BFC97D00084C
:102C000010B584B00446114600F2EC500392FEF772
:102C1000A9F900220449039B204600911146FEF7C2
:102C2000A1F804B010BD00BFE97D000810B584B064
:102C30000446114600F5C2600392FEF793F90022A4
:102C40000449039B204600911146FEF78BF804B01F
:102C500010BD00BF097E000810B5054C82B01346B8
:102C600000F1EC0102220094FEF7EEF802B010BD74
:102C7000F14D000810B5054C82B0134600F5B8714F
:102C800002220094FEF7E0F802B010BD752E000895
:102C900010B5054C82B0134600F523710222009452
:102CA000FEF7D2F802B010BDB52F000810B5054CE4
:102CB00082B0134600F5617102220094FEF7C4F859
:102CC00002B010BD214F000810B5054C82B013466C
:102CD00000F5737102220094FEF7B6F802B010BD41
:102CE000754E000810B5054C82B0134600F2244121
:102CF00002220094FEF7A8F802B010BDD9300008F7
:102D000030B500F2F44585B00446114628460392DA
:102D1000FEF728F9084A039B294620460092002224
:102D2000FEF792F8002205492046039B00911146C8
:102D3000FEF718F805B030BD012D00085D7E0008D3
:102D400010B5054C82B0134600F2F4410222009403
:102D5000FEF77AF802B010BD012D000810B5054C41
:102D600082B0134600F5A76100220094FEF76CF8CC
:102D700002B010BD252B000810B5054C82B01346DB
:102D800000F25C5100220094FEF75EF802B010BD24
:102D9000512B000810B5054C82B0134600F5B06108
:102DA00000220094FEF750F802B010BD7D2B000801
:102DB00010B5054C82B0134600F2A45100220094D5
:102DC000FEF742F802B010BDA92B000810B5054C63
:102DD00082B0134600F5B96100220094FEF734F882
:102DE00002B010BDD52B000810B5054C82B01346BB
:102DF00000F2EC5100220094FEF726F802B010BD5C
:102E0000012C000810B5054C82B0134600F5C261D4
:102E100000220094FEF718F802B010BD2D2C000817
:102E200010B5054C82B0134600F5CB610222009428
:102E3000FEF70AF802B010BDA178000810B5054CE5
:102E400082B0134600F5D26100220094FDF7FCFF2A
:102E500002B010BD3532000810B5054C82B01346E3
:102E600000F5A87100220094FEF7ECFA02B010BD44
:102E70002529000830B500F5B87585B0044611461F
:102E800028460392FEF76EF8094A039B294620461E
:102E90000092084D0022FDF7D7FF039B002204F5A6
:102EA000D47120460095FEF7CDFA05B030BD00BFC5
:102EB000752E0008C93A000810B5054C82B01346BB
:102EC00000F5F07100220094FEF7BCFA02B010BDCC
:102ED000293B000810B5054C82B0134600F5D471AB
:102EE00001220094FEF7AEFA02B010BDC93A000804
:102EF00010B5054C82B0134600F5F0710122009424
:102F0000FEF7A0FA02B010BD293B000810B5054C31
:102F100082B0134600F5EC7101220094FEF792FA9C
:102F200002B010BD0D4C000810B5054C82B0134620
:102F300000F5EC7100220094FEF784FA02B010BD97
:102F40000D4C000810B5054C82B0134600F5E87131
:102F500000220094FEF776FA02B010BD093B00088B
:102F600010B5054C82B0134600F5E47100220094C0
:102F7000FEF768FA02B010BD2D60000810B5054CD0
:102F800082B0134600F5E07100220094FEF75AFA71
:102F900002B010BD212A000810B5054C82B01346BE
:102FA00000F50E7100220094FEF74CFA02B010BD3D
:102FB000CD34000830B500F5237585B004461146C0
:102FC00028460392FDF7CEFF094A039B2946204677
:102FD0000092084D0022FDF737FF039B002204F505
:102FE000317120460095FEF72DFA05B030BD00BFC7
:102FF000B52F0008013F000810B5054C82B01346FC
:1030000000F53F7100220094FEF71CFA02B010BDDB
:10301000613F000810B5054C82B0134600F53171D0
:1030200001220094FEF70EFA02B010BD013F000825
:1030300010B5054C82B0134600F53F710122009493
:10304000FEF700FA02B010BD613F000810B5054C54
:1030500082B0134600F53D7101220094FEF7F2F9AB
:1030600002B010BD7D4C000810B5054C82B013466F
:1030700000F53D7100220094FEF7E4F902B010BDA6
:103080007D4C000810B5054C82B0134600F53B712D
:1030900000220094FEF7D6F902B010BD413F0008AF
:1030A00010B5054C82B0134600F53771002200942C
:1030B000FEF7C8F902B010BD892A000810B5054C0A
:1030C00082B0134600F55E7101220094FEF7BAF952
:1030D00002B010BD3168000830B500F2244585B05B
:1030E0000446114628460392FDF73CFF094A039B1C
:1030F000294620460092084D0022FDF7A5FE039BBD
:10310000002204F25C4120460095FEF79BF905B0D1
:1031100030BD00BFD9300008F541000810B5054C9E
:1031200082B0134600F2944100220094FEF78AF91F
:1031300002B010BD5542000810B5054C82B01346D0
:1031400000F25C4101220094FEF77CF902B010BD50
:10315000F541000810B5054C82B0134600F29441C9
:1031600001220094FEF76EF902B010BD554200082E
:1031700010B5054C82B0134600F28C410122009438
:10318000FEF760F902B010BDF14B000810B5054C18
:1031900082B0134600F28C4100220094FEF752F9EF
:1031A00002B010BDF14B000810B5054C82B01346BB
:1031B00000F2844100220094FEF744F902B010BDF1
:1031C0003542000810B5054C82B0134600F2744138
:1031D00000220094FEF736F902B010BDF12A000873
:1031E00010B5054C82B0134600F59B610122009496
:1031F000FEF728F902B010BD496A000810B5054C69
:1032000082B0134600F22C5101220094FEF71AF905
:1032100002B010BDF970000810B5054C82B013461D
:1032200000F24C6101220094FEF70CF902B010BDCF
:10323000A977000830B5044685B0114600F5D26084
:10324000064D0392FDF78EFE039B002204F22C51E3
:1032500020460095FEF7F6F805B030BDF97000087D
:1032600010B5054C82B0134600F59671012200940A
:10327000FEF7E8F802B010BD8D44000810B5054C0B
:1032800082B0134600F2744101220094FEF7DAF88E
:1032900002B010BDF12A000830B50F4985B01346C1
:1032A0000022009100F56A7104460393FEF7CAF804
:1032B0000A49039B20460091002204F57C71084DC9
:1032C000FEF7C0F8039B002204F2EC412046009573
:1032D000FEF7B8F805B030BDF940000839410008E4
:1032E000CD4B000810B5054C82B0134600F5547163
:1032F00000220094FEF7A6F802B010BDE1450008D8
:1033000030B50B4985B0134604460091002200F504
:103310005E71084D0393FEF795F8039B002204F2BB
:103320004C6120460095FEF78DF805B030BD00BF1A
:1033300031680008A977000830B50B4985B01346FD
:1033400004460091002200F24C61084D0393FEF701
:1033500079F8039B002204F55E7120460095FEF784
:1033600071F805B030BD00BFA977000831680008CA
:1033700010B5114682B00023054C9FED060A0322CA
:10338000CDE900141946FDF7C3FC02B010BD00BF23
:10339000B939000800007A4410B5114682B0002304
:1033A000054CB7EE000A1422CDE900141946FDF7CA
:1033B000AFFC02B010BD00BF592C000810B511467B
:1033C00082B00023054C9FED060A0222CDE90014CD
:1033D0001946FDF79DFC02B010BD00BFE94400088E
:1033E0000200004B10B5114682B00023054C9FED42
:1033F000060A1422CDE900141946FDF789FC02B033
:1034000010BD00BF612F00080000000010B511467C
:1034100082B00023054C9FED060A0322CDE900147B
:103420001946FDF775FC02B010BD00BFA93A0008AF
:1034300000007A4410B5114682B00023054CB7EE67
:10344000000A1422CDE900141946FDF761FC02B010
:1034500010BD00BF752C000810B5114682B00023C6
:10346000054C9FED060A0322CDE900141946FDF72D
:103470004FFC02B010BD00BFD52E000800007A44FA
:1034800010B5114682B00023054C9FED060A0322B9
:10349000CDE900141946FDF73BFC02B010BD00BF9A
:1034A000793B000800007A4410B5114682B0002331
:1034B000054CB3EE040A0222CDE900141946FDF7CB
:1034C00027FC02B010BD00BFF544000810B511463E
:1034D00082B00023054C9FED060A0222CDE90014BC
:1034E0001946FDF715FC02B010BD00BF193D0008DC
:1034F000E40FC94010B5114682B00023054C9FED82
:10350000060A1422CDE900141946FDF701FC02B0A9
:1035100010BD00BF0D3E00086F12833A10B5114672
:1035200082B00023054CB0EE000A0222CDE900145F
:103530001946FDF7EDFB02B010BD00BF8D3D000840
:1035400010B5114682B00023054CB7EE000A1522D3
:10355000CDE900141946FDF7DBFB02B010BD00BF3A
:103560002D3E000810B5002382B014460549B7EE81
:10357000000A1A46CDE900411946FDF7C9FB02B021
:1035800010BD00BF393D000810B5114682B00023C0
:10359000054CBFEE000A0222CDE900141946FDF7E2
:1035A000B7FB02B010BD00BFD145000810B51146F1
:1035B00082B00023054CBFEE000A0222CDE90014C0
:1035C0001946FDF7A5FB02B010BD00BFC9450008B4
:1035D00010B5114682B00023054CBFEE000A02224E
:1035E000CDE900141946FDF793FB02B010BD00BFF2
:1035F000AD35000810B5114682B00023054C9FED93
:10360000060A0322CDE900141946FDF781FB02B03A
:1036100010BD00BFE13E000800007A4410B511461D
:1036200082B00023054CB7EE000A1422CDE9001445
:103630001946FDF76DFB02B010BD00BF912C0008CC
:1036400010B5114682B00023054C9FED060A0322F7
:10365000CDE900141946FDF75BFB02B010BD00BFB9
:103660001530000800007A4410B5114682B00023DE
:10367000054C9FED060A0322CDE900141946FDF71B
:1036800047FB02B010BD00BFB13F000800007A4404
:1036900010B5114682B00023054CB7EE000A022295
:1036A000CDE900141946FDF733FB02B010BD00BF91
:1036B0004D45000810B5002382B0144605499FED22
:1036C000060A1A46CDE900411946FDF721FB02B072
:1036D00010BD00BFA17A000800007A4510B5114660
:1036E00082B00023054C9FED060A0222CDE90014AA
:1036F0001946FDF70DFB02B010BD00BF594500088B
:103700000000FA4410B5114682B00023054C9FED2D
:10371000060A0322CDE900141946FDF7F9FA02B0B2
:1037200010BD00BF1941000800007A4410B51146D1
:1037300082B00023054CB7EE000A1422CDE9001434
:103740001946FDF7E5FA02B010BD00BFAD2C000828
:1037500010B5002382B0144605499FED060A1A46AB
:10376000CDE900411946FDF7D3FA02B010BD00BF04
:103770009932000800401C4610B5114682B0002363
:10378000054C9FED060A0222CDE900141946FDF70B
:10379000BFFA02B010BD00BF654500080000FA4442
:1037A00010B5114682B00023054C9FED060A032296
:1037B000CDE900141946FDF7ABFA02B010BD00BF09
:1037C0005941000800007A4410B5114682B0002328
:1037D000054CB7EE000A1422CDE900141946FDF796
:1037E00097FA02B010BD00BFC92C000810B51146F1
:1037F00082B00023054C9FED060A0222CDE9001499
:103800001946FDF785FA02B010BD00BF71450008EA
:103810000000C84210B5002382B0144605499FED50
:10382000060A1A46CDE900411946FDF771FA02B0C1
:1038300010BD00BF7D32000800409C4510B5114608
:1038400082B00023054C9FED060A0222CDE9001448
:103850001946FDF75DFA02B010BD00BF7D450008B6
:1038600000409C4510B5114682B00023054C9FEDE9
:10387000060A0322CDE900141946FDF749FA02B001
:1038800010BD00BFD541000800007A4410B51146B4
:1038900082B00023054CB7EE000A1422CDE90014D3
:1038A0001946FDF735FA02B010BD00BFE52C00083F
:1038B00010B5114682B00023054C9FED060A032285
:1038C000CDE900141946FDF723FA02B010BD00BF80
:1038D0003931000800007A4410B5114682B0002347
:1038E000054C9FED060A0322CDE900141946FDF7A9
:1038F0000FFA02B010BD00BFC542000800007A44B4
:1039000010B5114682B00023054C9FED060A032234
:10391000CDE900141946FDF7FBF902B010BD00BF58
:103920002D44000800007A4410B5114682B00023EF
:10393000054CB7EE000A1422CDE900141946FDF734
:10394000E7F902B010BD00BF412D000810B51146C7
:1039500082B00023054C9FED060A0322CDE9001436
:103960001946FDF7D5F902B010BD00BF6D4400083F
:1039700000007A4410B5114682B00023054CB7EE22
:10398000000A1422CDE900141946FDF7C1F902B06E
:1039900010BD00BF212E000810B5064C82B00023D8
:1039A00000F59071CDE900240222FDF779F902B00B
:1039B00010BD00BF9933000810B5064C82B001233A
:1039C00000F59071CDE900240222FDF769F902B0FB
:1039D00010BD00BF9933000830B5002383B01546F1
:1039E0000A49B3EE040A02220191194600950446E1
:1039F000FDF78EF90649002305222046CDE9005146
:103A000004F2BC61FDF74CF903B030BD89450008F4
:103A1000D979000870B5002382B0154609490446DB
:103A20001A46019100F5D761074E0095FDF738F968
:103A30002B46002204F5927120460096FDF702FD08
:103A400002B070BD61320008D939000830B50C49A8
:103A500083B0154601230446CDE9002100F500712D
:103A60000222FDF71DF90749012302222046CDE974
:103A7000005104F5FE71FDF713F903B030BD00BF2E
:103A8000813400085934000810B5064C82B0002378
:103A900000F5D271CDE900240222FDF701F902B050
:103AA00010BD00BF3534000810B5064C82B00123AC
:103AB00000F5D271CDE900240222FDF7F1F802B041
:103AC00010BD00BF3534000830B50C4983B0144632
:103AD00000230546CDE9002100F502710122FDF722
:103AE000DFF80023064911229FED060A2846CDE99A
:103AF00000411946FDF70CF903B030BD454C0008F4
:103B0000194D00080000000010B5012382B0054CDB
:103B100000F50971CDE900241A46FDF7C1F802B09D
:103B200010BD00BFA13C000870B5002382B015464F
:103B30000E491A460446019100F504710095FDF7FF
:103B4000AFF800230A4804F507711A46094ECDE97B
:103B500000502046FDF7A4F82B46002204F5B4716E
:103B600020460096FDF76EFC02B070BDF12E0008F5
:103B7000452F0008BD45000810B5012382B0054C53
:103B800000F50271CDE900241A46FDF789F802B06C
:103B900010BD00BF454C000810B5064C82B0012393
:103BA00000F50671CDE900240322FDF779F802B093
:103BB00010BD00BFB93B000830B50C4983B01546B5
:103BC00001230446CDE9002100F507710022FDF72D
:103BD00067F80749012300222046CDE9005104F58A
:103BE0000471FDF75DF803B030BD00BF452F00083C
:103BF000F12E000810B5064C82B0002300F5FE71CE
:103C0000CDE900240222FDF74BF802B010BD00BF41
:103C10005934000810B5064C82B0002300F5057138
:103C2000CDE900240322FDF73BF802B010BD00BF30
:103C3000993B000810B5064C82B0002300F50971CD
:103C4000CDE900240122FDF72BF802B010BD00BF22
:103C5000A13C000870B50F4B82B0154600220093BE
:103C600004462B461146FDF77DF800230A4804F56B
:103C700007711A46094ECDE900502046FDF710F8AD
:103C80002B46012204F5F07120460096FDF7DAFB81
:103C900002B070BD01610008452F0008293B0008F3
:103CA00010B5064C82B0002300F50671CDE9002462
:103CB0000322FCF7F5FF02B010BD00BFB93B0008BE
:103CC00070B50B4982B0044615460123094ECDE973
:103CD000002100F2BC610522FCF7E2FF2B46002226
:103CE00004F5B07120460096FDF7ACFB02B070BD44
:103CF000D9790008E533000810B5064C82B00123DD
:103D000000F51271CDE900240322FCF7C9FF02B0CF
:103D100010BD00BF0145000810B5064C82B000235D
:103D200000F51271CDE900240322FCF7B9FF02B0BF
:103D300010BD00BF0145000830B5002383B0154613
:103D40000F49B0EE000A162201911946009504466B
:103D5000FCF7DEFF0B49204600230222CDE900518B
:103D600004F51871FCF79CFF074900230222204646
:103D7000CDE9005104F51D71FCF792FF03B030BD91
:103D8000D135000889350008CD3D000810B5064C36
:103D900082B0012300F51871CDE900240222FCF75E
:103DA0007FFF02B010BD00BF8935000810B5064C7A
:103DB00082B0002300F52071CDE900240222FCF737
:103DC0006FFF02B010BD00BFD945000810B5064C0A
:103DD00082B0012300F51F71CDE900240022FCF719
:103DE0005FFF02B010BD00BFED3D000810B5064CEE
:103DF00082B0012300F52071CDE900240222FCF7F6
:103E00004FFF02B010BD00BFD945000810B5064CE9
:103E100082B0012300F51471CDE900240322FCF7E0
:103E20003FFF02B010BD00BF4135000830B5002390
:103E300083B014461049BFEE000A022201911946D0
:103E400000940546FCF764FF00230C4805F51F713C
:103E50001A46CDE900402846FCF722FF0023084916
:103E6000B0EE000A02222846CDE900411946FCF7CF
:103E70004FFF03B030BD00BF65350008ED3D0008C1
:103E8000AD3D000830B50C4983B01546012304460A
:103E9000CDE9002100F547710222FCF701FF074937
:103EA000012302222046CDE9005104F54671FCF7BA
:103EB000F7FE03B030BD00BF693600084136000888
:103EC00010B5064C82B0002300F53071CDE9002416
:103ED0000222FCF7E5FE02B010BD00BF1D3600084F
:103EE00010B5064C82B0012300F53071CDE90024F5
:103EF0000222FCF7D5FE02B010BD00BF1D3600083F
:103F000030B50C4983B0144600230546CDE90021A5
:103F100000F549710122FCF7C3FE00230649112276
:103F20009FED060A2846CDE900411946FCF7F0FE50
:103F300003B030BDD54B0008D14C00080000000094
:103F400010B5012382B0054C00F54F71CDE9002476
:103F50001A46FCF7A5FE02B010BD00BFD94000080C
:103F600070B5002382B015460E491A4604460191E9
:103F700000F54B710095FCF793FE00230A4804F509
:103F80004E711A46094ECDE900502046FCF788FED6
:103F90002B46002204F5507120460096FDF752FA98
:103FA00002B070BD3130000885300008614C000857
:103FB00010B5012382B0054C00F54971CDE900240C
:103FC0001A46FCF76DFE02B010BD00BFD54B0008CD
:103FD00010B5064C82B0012300F54D71CDE90024E7
:103FE0000322FCF75DFE02B010BD00BFF13F0008E8
:103FF00030B50C4983B0154601230446CDE90021B4
:1040000000F54E710022FCF74BFE07490123002208
:104010002046CDE9005104F54B71FCF741FE03B099
:1040200030BD00BF853000083130000810B5064CA7
:1040300082B0002300F54C71CDE900240322FCF787
:104040002FFE02B010BD00BFD13F000810B5064CD6
:1040500082B0002300F54671CDE900240222FCF76E
:104060001FFE02B010BD00BF4136000810B5064C5F
:1040700082B0002300F54F71CDE900240122FCF746
:104080000FFE02B010BD00BFD940000870B50F4B45
:1040900082B015460022009304462B461146FCF7D9
:1040A00061FE00230A4804F54E711A46094ECDE917
:1040B00000502046FCF7F4FD2B46012204F53F7129
:1040C00020460096FDF7BEF902B070BD19660008E3
:1040D00085300008613F000810B5064C82B000230F
:1040E00000F54D71CDE900240322FCF7D9FD02B0A3
:1040F00010BD00BFF13F000810B5064C82B0002390
:1041000000F56E71CDE900240222FCF7C9FD02B072
:1041100010BD00BF2D37000810B5064C82B001233A
:1041200000F56E71CDE900240222FCF7B9FD02B062
:1041300010BD00BF2D37000810B5064C82B000231B
:1041400000F58061CDE900240222FCF7A9FD02B050
:1041500010BD00BFC937000810B5064C82B001235E
:1041600000F58061CDE900240222FCF799FD02B040
:1041700010BD00BFC937000830B50C4983B01546E3
:1041800001230446CDE9002100F2B4410222FCF7EC
:1041900087FD0749012302222046CDE9005104F59D
:1041A0009661FCF77DFD03B030BD00BFD938000833
:1041B000B138000810B5064C82B0002300F58B61C1
:1041C000CDE900240222FCF76BFD02B010BD00BF58
:1041D0008D38000810B5064C82B0012300F58B61C4
:1041E000CDE900240222FCF75BFD02B010BD00BF48
:1041F0008D38000830B50C4983B0144600230546BD
:10420000CDE9002100F2BC410122FCF749FD002369
:10421000064911229FED060A2846CDE900411946BC
:10422000FCF776FD03B030BD294C0008614D000855
:104230000000000010B5012382B0054C00F2D4410B
:10424000CDE900241A46FCF72BFD02B010BD00BFDB
:10425000ED43000830B5002383B0154614491A46D3
:104260000446019100F2C4410095FCF719FD0023BA
:10427000104804F59A611A46CDE900502046FCF733
:104280000FFD0D492B4620460091002204F2E44127
:10429000FDF7D8F80023094903229FED090A2046BB
:1042A000CDE900511946FCF733FD03B030BD00BF26
:1042B00055310008A9310008C94B0008E532000853
:1042C0000000C84210B5012382B0054C00F2BC4189
:1042D000CDE900241A46FCF7E3FC02B010BD00BF94
:1042E000294C000810B5064C82B0012300F2CC41E5
:1042F000CDE900240322FCF7D3FC02B010BD00BFBF
:104300000543000830B50C4983B015460123044627
:10431000CDE9002100F59A610022FCF7C1FC0749B4
:10432000012300222046CDE9005104F2C441FCF7EC
:10433000B7FC03B030BD00BFA931000855310008FB
:1043400010B5064C82B0002300F59961CDE9002438
:104350000322FCF7A5FC02B010BD00BFE542000837
:1043600010B5064C82B0002300F59661CDE900241B
:104370000222FCF795FC02B010BD00BFB138000866
:1043800010B5064C82B0002300F2D441CDE90024E0
:104390000122FCF785FC02B010BD00BFED43000810
:1043A00070B50F4B82B015460022009304462B4691
:1043B0001146FCF7D7FC00230A4804F59A611A4617
:1043C000094ECDE900502046FCF76AFC2B4601223D
:1043D00004F2944120460096FDF734F802B070BD17
:1043E000E16E0008A93100085542000810B5064CDE
:1043F00082B0002300F2CC41CDE900240322FCF777
:104400004FFC02B010BD00BF0543000810B5064CBC
:1044100082B0002300F5A561CDE900240222FCF75B
:104420003FFC02B010BD00BF2939000810B5064C92
:1044300082B0012300F5A561CDE900240222FCF73A
:104440002FFC02B010BD00BF2939000810B5064C82
:1044500082B0002300F28C61CDE900240222FCF737
:104460001FFC02B010BD00BF7539000810B5064C26
:1044700082B0012300F28C61CDE900240222FCF716
:104480000FFC02B010BD00BF7539000870B50023E5
:1044900082B015460A4904469FED0A0A019112228C
:1044A0001946094E0095FCF733FC2B46002204F513
:1044B0009A7120460096FCF76DFD02B070BD00BFFA
:1044C000CD44000800000000C94A000810B5054CA2
:1044D00082B0134600F59A7101220094FCF75AFD50
:1044E00002B010BDC94A0008014B1321FCF7DABE27
:1044F000595D0008014B1321FCF7D4BEC13C0008F4
:1045000030B50F4983B0044615460123CDE900219B
:1045100000F51D710222FCF7C3FB2A462046094B19
:104520000821FCF7BFFE0849002303222046CDE9FD
:10453000005104F51471FCF7B3FB03B030BD00BFAC
:10454000CD3D00081D35000841350008014B132101
:10455000FCF7A8BEA94D0008014B1321FCF7A2BE31
:10456000B5360008014B1321FCF79CBE51370008FB
:10457000014B1321FCF796BE7D6D0008014B132102
:10458000FCF790BE1538000830B50A4B83B01546CD
:10459000044600F58871009300222B46FCF752FF79
:1045A000054B2A460D21204603B0BDE83040FCF7FC
:1045B00079BE00BF99390008592E0008134600F152
:1045C00088010022FDF7A8BC05219430FDF702BC4C
:1045D00004219430FDF7FEBB01219430FDF7FABBB6
:1045E00000F5D861FDF7F2BC2DE9F0470446174607
:1045F000994600F15C062DED028B82B014E0002399
:1046000001A930460193FCF7FFFF019B0246132BE3
:1046100040F2CF802368204652F8041BD3F8903034
:1046200098473046FCF7F6FF3046FCF793FF054607
:104630000028E4D1B9F1000F266940F3B88009EBF6
:104640000608A06904F5D86A013670B1826813685B
:104650009E420AD9D0E903312046984704F1180058
:10466000FDF754FBA0690028F0D1D4F88810B7EE0C
:10467000007AF6EE004AD4F84C214B0A44F2A71E09
:10468000F5EE003A9FED4E6A43F07E530EFB02F2C8
:104690009FED4C5A464507EE903A06EE902A94ED6F
:1046A000394A77EEC77AD4ED255AF8EEE66A94EDEA
:1046B0002A7AD4ED261A77EEE47A9FED438A66EEE5
:1046C000856A94ED385A25EE877A9FED400AF0EE20
:1046D000E77AD4ED290A35EE045A94ED2B1AD4ED7D
:1046E000274A77EEE37ADAED003AC4ED265A94EDE4
:1046F0002C2A67EE867AD4F88C3094ED283A0B4455
:10470000D4ED2D2A27EEA74AD4F8DC10C4F84C21AA
:1047100001F1FF31D4F8B82064EE275AC4F888308C
:10472000D4F8BC309FED2A6AE5EE887A134465EE32
:10473000845AC4F8DC10C4F8B830D4F8D430C4EDCE
:10474000284AE5EE807AD4E931210A44D4F8D01021
:1047500066EEA76A0B44F0EE477AC4F8C420B0EEC8
:10476000467AC4F8D030C4ED256AE6EEA07AE1EED0
:10477000217AE2EE647AE2EEC37AA3EEA77AC4ED80
:10478000277A84ED385AD7E900232A442B4405F1CF
:10479000040582ED007A83ED007A7FF455AF484638
:1047A000C4F8108002B0BDEC028BBDE8F087B046C3
:1047B000F5E7084B40F6C321074A084817F08EFD7D
:1047C000DB0FC940F6FFFF2FABAA2ABE6257003CA1
:1047D000000000008CDD010840E3010818E3010837
:1047E0005AB1E9B101290AD00023002116485160CD
:1047F00011721060D3601361536102207047134936
:104800004FF07E5C124B4FF07C50C2F810C05061EC
:104810000220C2E90013002100231172D360704707
:104820004FF07E504FF07C534FF0000C117209494D
:1048300010610220C2F80CC05160536110B4064CE4
:1048400014605DF8044B704798E3010890E3010899
:104850009D7DBF44CEE162E088E3010808B5034ACC
:104860007321034B034817F039FD00BF04E1010831
:10487000E4D4010804D50108104B944699420BD0AA
:1048800003F1905303F5C32303F2733399420FD01E
:104890000B4B994206D070470A4B002261461830F4
:1048A000FDF7EAB9084B002261461830FDF7E4B97C
:1048B000064B002261461830FDF7DEB95BC65CCEC0
:1048C0009D7DBF44017B0008013300083933000897
:1048D000012914D813460A49002230B585B0044690
:1048E000084D009111460393FCF73CFA039B00220C
:1048F000012120460095FCF735FA05B030BD704720
:104900004D610008553C000801B17047F0B50A4BF5
:1049100083B006460C4615460093084F13460A46D8
:104920000121FCF71FFA2B46224601213046009751
:10493000FCF718FA03B0F0BDF53B0008153C000881
:1049400001B17047F0B50A4B83B006460C461546D8
:104950000093084F13460A460121FCF703FA2B4641
:104960002246012130460097FCF7FCF903B0F0BD68
:104970000D2F0008353C0008012914D813460A49B8
:10498000002230B585B00446084D009111460393CE
:10499000FCF7E8F9039B0022012120460095FCF773
:1049A000E1F905B030BD7047656600088D4000082C
:1049B00001B17047F0B50A4B83B006460C46154668
:1049C0000093084F13460A460121FCF7CBF92B460A
:1049D0002246012130460097FCF7C4F903B0F0BD30
:1049E0004D4000082D40000801B17047F0B50A4B5A
:1049F00083B006460C4615460093084F13460A46F8
:104A00000121FCF7AFF92B462246012130460097E1
:104A1000FCF7A8F903B0F0BD4D3000086D40000868
:104A2000012914D813460A49002230B585B004463E
:104A3000084D009111460393FCF794F9039B002263
:104A4000012120460095FCF78DF905B030BD704777
:104A50002D6F0008A143000801B17047F0B50A4B63
:104A600083B006460C4615460093084F13460A4687
:104A70000121FCF777F92B462246012130460097A9
:104A8000FCF770F903B0F0BD614300084143000832
:104A900001B17047F0B50A4B83B006460C46154687
:104AA0000093084F13460A460121FCF75BF92B4699
:104AB0002246012130460097FCF754F903B0F0BDBF
:104AC000713100088143000831B1012903D1044B41
:104AD0001321FCF7E7BB7047024B1221FCF7E2BB46
:104AE000153A0008994C000801B1704710B5054C03
:104AF00082B0134600F5A07101220094FCF772FA0F
:104B000002B010BDBD33000801B1704710B5054CAF
:104B100082B0134600F50B7101220094FCF762FA93
:104B200002B010BDA934000801B1704710B5054CA2
:104B300082B0134600F5577101220094FCF752FA37
:104B400002B010BD9136000801B1704710B5054C98
:104B500082B0134600F55B7101220094FCF742FA23
:104B600002B010BDDD36000801B1704710B5054C2C
:104B700082B0134600F5707101220094FCF732FAFE
:104B800002B010BD7937000801B1704710B5054C6F
:104B900082B0134600F5816101220094FCF722FAED
:104BA00002B010BDED37000801B1704710B5054CDB
:104BB00082B0134600F5836101220094FCF712FADB
:104BC00002B010BD3D380008704700BF704700BFFD
:104BD000704700BF10B5054C82B0134600F5317127
:104BE00001220094FCF72EFC02B010BD013F00082A
:104BF00010B5054C82B0134600F294410022009497
:104C0000FCF720FC02B010BD5542000810B5054C61
:104C100082B0134600F5F07100220094FCF712FCFC
:104C200002B010BD293B000810B5054C82B01346F8
:104C300000F25C4101220094FCF704FC02B010BDBC
:104C4000F541000810B5054C82B0134600F5D4714B
:104C500001220094FCF7F6FB02B010BDC93A00082F
:104C600010B5054C82B0134600F50E710022009479
:104C7000FCF7E8FB02B010BDCD34000810B5054CC0
:104C800082B0134600F53F7100220094FCF7DAFB76
:104C900002B010BD613F000870B5002382B0154618
:104CA000094904461A46019100F5D761074E00955F
:104CB000FBF7F6FF2B46002204F592712046009682
:104CC000FCF7C0FB02B070BD61320008D9390008A2
:104CD00070B5002182B0044610461646FCF7A4FDCC
:104CE00060B1B0F17E5F07D1094D00223346204606
:104CF00011460095FCF736F802B070BD054D02462E
:104D00000146334620460095FCF72CF802B070BDF2
:104D1000552A0008F92F000870B5002182B004461A
:104D200010461646FCF780FD60B1B0F17E5F07D1FA
:104D3000094D00223346204611460095FCF712F833
:104D400002B070BD054D024601463346204600952F
:104D5000FCF708F802B070BDED290008B92E000874
:104D600070B5002182B0044610461646FCF75CFD83
:104D700060B1B0F17E5F07D1094D00223346204675
:104D800011460095FBF7EEFF02B070BD054D0246DF
:104D90000146334620460095FBF7E4FF02B070BDA4
:104DA000BD2A00081D31000870B5002182B00446FC
:104DB00010461646FCF738FD60B1B0F17E5F07D1B2
:104DC000094D00223346204611460095FBF7CAFFE5
:104DD00002B070BD054D024601463346204600959F
:104DE000FBF7C0FF02B070BD497A00088179000866
:104DF00070B500F1EC0682B0044611463046154607
:104E0000FCF7B0F8164A2B463146204600920022A5
:104E1000FCF71AF813492B4600222046009104F5AE
:104E20009671FCF70FFB00212846FCF7FDFC0E4BAA
:104E300098420AD00D4E2B46002204F557712046A9
:104E40000096FCF7CFF802B070BD094E2B46002249
:104E500004F5587120460096FCF706F902B070BDC3
:104E6000F14D00088D44000801BD647E91360008B4
:104E7000294B000870B500F5737682B011460446E0
:104E800030461546FCF76EF81F4A2B463146204641
:104E900000920022FBF7D8FF00212846FCF7C4FC53
:104EA0001A4B98421AD01A492B46002220460091EC
:104EB00004F58161FCF796F800212846FCF7B4FC64
:104EC000124B984214D0134E2B46002204F58361F6
:104ED00020460096FCF786F802B070BD0E492B46BE
:104EE00000222046009104F20C41FCF7BDF8E3E7F4
:104EF0000A4E2B46002204F21C4120460096FCF785
:104F0000B3F802B070BD00BF754E000801BD647EED
:104F1000ED3700083D380008894B0008A94B000810
:104F200070B500F5617682B01146044630461546EC
:104F3000FCF718F82C4A2B463146204600920022F6
:104F4000FBF782FF00212846FCF76EFC274B9842B6
:104F50002AD027492B4600222046009104F50B71E8
:104F6000FCF740F800212846FCF75EFC1F4B9842F6
:104F70002FD020492B4600222046009104F55B717A
:104F8000FCF730F800212846FCF74EFC174B9842FE
:104F900014D0194E2B46002204F57071204600965D
:104FA000FCF720F802B070BD14492B4600222046C1
:104FB000009104F50C71FCF757F8D3E7104E2B461F
:104FC000002204F5717120460096FCF74DF802B0FE
:104FD00070BD0C492B4600222046009104F55C71FF
:104FE000FCF742F8CEE700BF214F000801BD647E08
:104FF000A9340008DD36000879370008094B00089D
:10500000694B0008494B000898B504462DED048B08
:10501000B0EE409B00AFFDF7EBFB2046D34BB2EE6A
:10502000040AB0EE491B9FEDD28A40F8883BFCF79A
:105030005BFF6369B0EE482A0344F0EE480AF0EEE5
:10504000481A04F19400B0EE481A6361B7EE000A02
:10505000FCF7AEFE6369B0EE491B9FEDC60A034440
:1050600004F1B8006361FCF73FFF6369B0EE491BD0
:105070009FEDC10A034404F1C4006361FCF734FFEF
:1050800063690246B0EE491B9FEDBC0A04F1D000F3
:105090001344DFEDBB9A9FEDBB9A6361FCF724FFDD
:1050A0006369024604F1DC0013446361FCF7BEFE51
:1050B0006369024604F1EC01B0EE480A204613444D
:1050C0006361FBF7B3FE636902469FEDAF0A04F527
:1050D000887013446361FCF7ADF963690246B0EE72
:1050E000480A04F5907013446361FBF7D3FD6369CC
:1050F0000246B0EE480A04F5927013446361FCF76F
:1051000099F963690246B0EE480A04F596701344B3
:105110006361FCF78FF963690246002104F59A7018
:1051200013446361FBF732FF63690246974904F554
:10513000A07013446361FBF74DFF636901220344D0
:1051400004F5A27011466361FBF788FF62690023D2
:10515000104419461A46606104F5A670FCF740FF3A
:1051600063690246B0EE480A04F5A870134463610F
:10517000FCF760F963690246B0EE480A04F5AC70CA
:1051800013446361FCF756F963690246B0EE480ABE
:1051900004F5B07013446361FCF74CF9636902468F
:1051A000B0EE480A04F5B47013446361FCF742F9A9
:1051B000636904F5B871B0EE480A034420466361A0
:1051C000FBF734FE63690246B3EE040A04F5CA70C5
:1051D00013446361FCF72EF963690246B0EE480A96
:1051E00004F5D27013446361FBF754FD6369024612
:1051F000B0EE480A04F5D47013446361FCF71AF961
:1052000063694FF0FF3201211844606104F5D870E2
:10521000FBF724FF636901214FF0FF3218446061FE
:1052200004F5DC70FBF71AFF63690246B0EE480A2A
:1052300004F5E07013446361FCF7FCF8636902460F
:10524000B3EE040A04F5E47013446361FCF7F2F86A
:1052500063690246B0EE690A04F5E87013446361BD
:10526000FCF7E8F86369B0EE480A034404F5EC7013
:105270006361FCF7DFF863690246B0EE690A04F582
:10528000F07013446361FCF7D5F863690122184498
:105290001146606104F5F470FBF7E0FE63690021DC
:1052A00001221844606104F5F870FBF7D7FE6369CA
:1052B0000246B0EE480A04F5FE7013446361FBF742
:1052C000E9FC63690246B0EE480A04F50070134435
:1052D0006361FBF7DFFC63690246B0EE480A04F540
:1052E000027013446361FBF7D5FC63690246B0EEBC
:1052F000480A04F5047013446361FBF7CBFC63694F
:105300000246B3EE040A04F5057013446361FBF72B
:10531000C1FC63690246B0EE480A04F50670134406
:105320006361FBF7B7FC63690246B0EE480A04F517
:10533000077013446361FBF7ADFC63690246B0EE8E
:10534000480A04F5097013446361FBF7A3FC636921
:105350000F491844606104F50B70FBF73BFE63696D
:10536000012218441146606114E000BFB8E301084F
:105370000000000000204B4600A08C4500A00C4619
:105380000000FA4400409C4500007A44FC9ABFB1FA
:10539000833ED22A04F50C70FBF760FE6369024677
:1053A000B0EE490A04F50E7013446361FCF742F84D
:1053B00063690246B1EE080A04F510701344636194
:1053C000FCF738F863690246B0EE480A04F512703B
:1053D00013446361FBF75EFC63690246B0EE480A62
:1053E00004F5147013446361FBF754FC63690246CF
:1053F000B0EE480A04F5187013446361FBF74AFCE9
:1054000063690246B0EE480A04F51D7013446361F7
:10541000FBF740FC63690246B0EE480A04F51F70D2
:1054200013446361FBF736FC63690246B0EE480A39
:1054300004F5207013446361FBF72CFC636904F5E9
:105440002371B0EE480A034420466361FBF7EEFC8B
:1054500063690246B3EE040A04F52C7013446361D9
:10546000FBF7E8FF63690246B0EE480A04F53070C6
:1054700013446361FBF70EFC63690246B0EE480A11
:1054800004F5317013446361FBF7D4FF63694FF097
:10549000FF3201211844606104F53370FBF7DEFD33
:1054A000636901214FF0FF321844606104F53570E3
:1054B000FBF7D4FD63690246B0EE480A04F5377085
:1054C00013446361FBF7B6FF63690246B3EE040A57
:1054D00004F5397013446361FBF7ACFF636902465E
:1054E000B0EE480A04F53B7013446361FBF7A2FF7A
:1054F00063690246B0EE480A04F53D7013446361E7
:10550000FBF798FF63690246B0EE480A04F53F7066
:1055100013446361FBF78EFF63690122184411464F
:10552000606104F54170FBF799FD63690021012278
:105530001844606104F54370FBF790FD636902460F
:10554000B0EE480A04F5467013446361FBF7A2FB12
:1055500063690246B0EE480A04F54770134463617C
:10556000FBF798FB63690246B0EE480A04F5497000
:1055700013446361FBF78EFB63690246B0EE480A91
:1055800004F54B7013446361FBF784FB63690246C7
:10559000B3EE040A04F54C7013446361FBF77AFB25
:1055A00063690246B0EE480A04F54D701344636126
:1055B000FBF770FB63690246B0EE480A04F54E70D3
:1055C00013446361FBF766FB63690246B0EE480A69
:1055D00004F54F7013446361FBF75CFB636902469B
:1055E000B0EE480A04F5507013446361FBF722FFE4
:1055F00063690246B0EE480A04F5527013446361D1
:10560000FBF718FF63690246B0EE480A04F55470D0
:1056100013446361FBF70EFF6369D149184460616D
:1056200004F55770FBF7D6FC636901221844114654
:10563000606104F55870FBF711FD6369C9491844AE
:10564000606104F55B70FBF7C5FC636901221844D7
:105650001146606104F55C70FBF700FD636902466A
:10566000B7EE000A04F55E7013446361FBF7E2FED7
:10567000636904F56171B0EE480A03442046636132
:10568000FBF7D4FB63690246B0EE490A04F56A7081
:1056900013446361FBF7CEFE63690246B0EE480A2D
:1056A00004F56E7013446361FBF7F4FA6369AE4965
:1056B0001844606104F57070FBF78CFC636901228B
:1056C00018441146606104F57170FBF7C7FC63690B
:1056D00004F57371B0EE480A034420466361FBF79A
:1056E000A5FB63690246B0EE490A04F57C701344D9
:1056F0006361FBF79FFE63690246B0EE480A04F55A
:10570000806013446361FBF7C5FA636902469749F9
:1057100004F5816013446361FBF75CFC636901225B
:10572000034404F20C4011466361FBF797FC636984
:1057300002468F4904F5836013446361FBF74AFC1A
:1057400063690122034404F21C4011466361FBF7C4
:1057500085FC6369024604F22441B0EE480A204603
:1057600013446361FBF762FB63690246B3EE040A0C
:1057700004F5896013446361FBF75CFE63690246CC
:10578000B0EE480A04F58B6013446361FBF782FABC
:1057900063690246B0EE480A04F25C401344636158
:1057A000FBF748FE63694FF0FF3201211844606146
:1057B00004F26440FBF752FC636901214FF0FF32B1
:1057C0001844606104F26C40FBF748FC63690246D0
:1057D000B0EE480A04F2744013446361FBF72AFEFA
:1057E00063690246B3EE040A04F27C401344636129
:1057F000FBF720FE63690246B0EE480A04F28440DB
:1058000013446361FBF716FE63690246B0EE480A73
:1058100004F28C4013446361FBF70CFE636902469B
:10582000B0EE480A04F2944013446361FBF702FEB1
:1058300063690122034404F29C4011466361FBF753
:105840000DFC6369002101221844606104F2A44048
:10585000FBF704FC63690246B0EE480A04F5966063
:1058600013446361FBF716FA63690246B0EE480A17
:1058700004F2B44013446361FBF70CFA6369024617
:10588000B0EE480A04F2BC4013446361FBF702FA2D
:1058900063690246B0EE480A04F2C44013446361EF
:1058A000FBF7F8F963690246B3EE040A04F5996060
:1058B00013446361FBF7EEF963690246B0EE480AF0
:1058C00004F2CC4013446361FBF7E4F963690246D8
:1058D000B0EE480A04F59A6013446361FBF7DAF905
:1058E00063690246B0EE480A04F2D440134463618F
:1058F000FBF7D0F963690246B7EE000A04F59B6036
:1059000013446361FBF796FD63690246B0EE480AF3
:1059100004F2E44013446361FBF78CFD63690246C3
:10592000B0EE480A04F2EC4013446361FBF782FDD9
:105930006369024604F2F441B0EE480A204613447B
:105940006361FBF773FA636902469FED0A0A04F587
:10595000A36013446361FBF76DFD63690EE000BF54
:105960006B2E5D0086C9CDC654F85B26190ECA564B
:1059700013ED82900000FA4300007A440246B0EE34
:10598000480A04F5A56013446361FBF783F9636972
:105990000246B7EE000A04F22C5013446361FBF791
:1059A00049FD6369024604F5A761B3EE040A204687
:1059B00013446361FBF73AFA6369024604F25C51EF
:1059C000B3EE040A204613446361FBF72FFA6369C0
:1059D000024604F5B061B3EE040A20461344636145
:1059E000FBF724FA6369024604F2A451B3EE0E0AEF
:1059F000204613446361FBF719FA6369024604F514
:105A0000B961B3EE0E0A204613446361FBF70EFA48
:105A10006369024604F2EC51B3EE0E0A20461344C9
:105A20006361FBF703FA6369024604F5C261B3EEF2
:105A30000E0A204613446361FBF7F8F963690246D6
:105A4000B0EE480A04F2346013446361FBF7F2FCE1
:105A500063690246B0EE480A04F23C601344636195
:105A6000FBF7E8FC63690246B0EE480A04F24460C2
:105A700013446361FBF7DEFC63690246B7EE000A7C
:105A800004F24C6013446361FBF7D4FC6369024683
:105A900004F5CB61B0EE480A204613446361FBF77E
:105AA000C5F963690246B0EE690A04F27C601344EA
:105AB0006361FBF7BFFC63690246B0EE480A04F27B
:105AC0008C6013446361FBF7E5F86369024604F5F3
:105AD000D2611FED570A204613446361FBF7A6F914
